:100000000C944D030C9475030C9475030C947503B8
:100010000C9475030C9475030C9475030C94750380
:100020000C9475030C9475030C9462160C94D11601
:100030000C9475030C9475030C9475030C94750360
:100040000C9475030C9475030C9475030C94750350
:100050000C9475030C9475030C9475030C9418168A
:100060000C9475030C9475030C9475030C94750330
:100070000C9475030C9475030C9475030C94750320
:100080000C9475030C9475030C9475030C94750310
:100090000C9403190C9475030C9475030C9475035C
:1000A0000C9475030C9475030C9475030A0052C3E9
:1000B000A974726FC3A9636C61697261676520720C
:1000C000C3A96163746976C3A9004461696C79004E
:1000D000416C61726D005265706561740053696DA9
:1000E000706C6500204D6F64653A200054696D6541
:1000F000723A200053657474696E67732073617679
:10010000656400454E5445523D4F4B205245543D89
:10011000416E6E005365636F6E6465733A20004DE7
:10012000696E757465733A20005245474C414745E6
:100130002054454D505300454E5445523D4F4B20A1
:100140005245543D416E6E00546F7573206C65735B
:10015000206A6F7572733A0048657572653A2000BF
:100160005245474C414745204441494C590052456E
:10017000474C41474520414C41524D4500454E5466
:1001800045523D4F4B205245543D416E6E00524505
:10019000474C414745204845555245005245545526
:1001A000524E203D205265746F75720052656C612D
:1001B00069732031206163746976650054696D65E7
:1001C00072207465726D696E65002A2A2A2046497C
:1001D0004E49202A2A2A00202052656C616973202A
:1001E00032202050443720443620003E2052656C97
:1001F0006169732032202050443720443620004566
:100200004E5445523D41637420205245543D4D6546
:100210006E7500202052656C61697320312020507A
:10022000443620443132003E2052656C61697320AF
:10023000312020504436204431320054455354205C
:1002400052454C41495300416C61726D65206172A9
:1002500072C3AA74C3A96500080B00020202000061
:100260000904000001020200000524001001052419
:10027000010101042402060524060001070581038B
:1002800010004009040100020A00000007050202F4
:100290004000000705830240000004030904120126
:1002A0000002EF02014041233680000101020301F8
:1002B00041726475696E6F204C4C430041726475E5
:1002C000696E6F204C656F6E6172646F00525443AB
:1002D00020696E697469616C6973C3A92021003259
:1002E000323A31333A3331004F63742031322032A5
:1002F0003032350052544320706572647565202D8C
:10030000206D69736520C3A0206C276865757265D0
:100310002021004552524555522052544300457207
:1003200072657572203A2044533332333120696E3E
:1003300074726F757661626C652021005665722E4D
:10034000302E3120706172204368657762790053E6
:100350004D4152542054494D4552003D3D3D20539E
:100360006D6172742054696D65722076302E312073
:100370003D3D3D003D3D3D2046494E203D3D3D003B
:100380003D3D3D20425546464552203D3D3D0052B3
:10039000C3A974726FC3A9636C61697261676520D8
:1003A000C3A97465696E74202833307329005245DF
:1003B0005455524E203D2041727265746572005250
:1003C000656C616973203120616374697665002A08
:1003D0002A2A20414C41524D452021202A2A2A0018
:1003E0002A2A2A20414C41524D45204445434C4540
:1003F0004E434845452021202A2A2A004E6F757613
:10040000656175206A6F7572202D20616C61726D57
:1004100065206461696C792072C3A961726DC3A99A
:100420006500202020200020202020005245545527
:10043000524E203D20417272657465720054656DA4
:1004400070732072657374616E743A0054494D453F
:10045000522052455045415420230054494D4552A5
:100460002053494D504C450054494D455220464972
:100470004E49002046494E49004359434C4520000F
:1004800052455455524E203D20417272657465723A
:1004900000414C41524D45204441494C5900414C8A
:1004A00041524D452041435449564500000000004B
:1004B0002300260029002C002F0020526570656162
:1004C00074002053696D706C650054696D6572200D
:1004D00064C3A96D617272C3A93A20000A00416C1D
:1004E00061726D652071756F74696469656E6E65A2
:1004F0003A200020C3A02000416C61726D6520701D
:10050000726F6772616D6DC3A9653A2000455252E2
:100510004555523A20416C61726D652064616E737D
:10052000206C652070617373C3A900524554555205
:100530004E203D205265746F7572005265676C6580
:10054000722061206E6F7576656175004461746517
:100550002F6865757265207061737365650045521B
:100560005245555220414C41524D45005254432072
:100570006D697320C3A0206A6F75722021005469D1
:100580006D657220617272C3AA74C3A9002A2A2AF7
:100590002054494D45522046494E492021202A2ABF
:1005A0002A002046494E49202A2A2A002A2A2A209F
:1005B0004359434C452000416C61726D6520617266
:1005C00072C3AA74C3A965206175746F6D61746983
:1005D0007175656D656E7400416C61726D65206446
:1005E00061696C79202D207072C3AA746520706FC8
:1005F00075722064656D61696E005369676E616C28
:100600002052656C6169732031207465726D696E6A
:10061000C3A90000000000240027002A002D00309C
:100620000000000000250028002B002E00310004EF
:100630000404040403040502020202040302020289
:100640000206060606060604040202020404040862
:1006500002011040804010204080408008020401C8
:100660008040201002011080102040402000000037
:100670000200090F0000030401000C00000000004C
:100680000000000000000000000000001F1C1F1EF2
:100690001F1E1F1F1E1F1E00221A11241FBECFEF78
:1006A000DAE0DEBFCDBF24E0A8E1B2E001C01D92D8
:1006B000AC32B207E1F712E0A0E0B1E0ECE7F2E51E
:1006C00002C005900D92A831B107D9F713E0CDE42F
:1006D000D3E004C02197FE010E943527CC34D10716
:1006E000C9F70E949A1A0C943C290C9400000895B2
:1006F0000895FC0180913103882311F13FB7F894EC
:1007000082E08093E9002091F200822F90E0181699
:10071000190614F481E090E0882339F0289844E623
:10072000409330034091F1004083222339F020911F
:10073000F200211103C02BE62093E8003FBF08958B
:100740008FEF9FEF08952FB7F89483E08093E9002F
:100750009091E800892F807295FF04C09091F2007B
:1007600080E4891B2FBF08958091280381110DC05B
:1007700082E08093240384E0809325031092270372
:100780001092260381E08093280384E293E0089589
:1007900081508F3008F047C0E82FF0E0EE52FC4F58
:1007A0000C943527EF03F303E103E703EB03130492
:1007B00013041304F603FC03000404040A041304E2
:1007C0000E04809180008F7780938000089580913F
:1007D00080008F7DF9CF80918000877FF5CF84B531
:1007E0008F7784BD089584B58F7DFBCF8091900075
:1007F0008F77809390000895809190008F7DF9CF3E
:1008000080919000877FF5CF8091C0008F77809393
:10081000C00008958091C0008F7DF9CF8091C20003
:10082000877F8093C20008951F93CF93DF93282F73
:1008300030E0F901E359F94F8491F901E25BF94F96
:10084000D491F901E15DF94FC491CC23A9F0162FA1
:1008500081110E94C803EC2FF0E0EE0FFF1FEF5D47
:10086000F94FA591B4918FB7F894EC91111108C08C
:10087000D095DE23DC938FBFDF91CF911F91089538
:10088000DE2BF8CFCF93DF9390E0FC01E25BF94FD2
:100890002491815D994FFC0184918823D1F090E0EF
:1008A000880F991FFC01ED5EF94FA591B491FC01F1
:1008B000EF5DF94FC591D491623071F49FB7F89410
:1008C0003C91822F809583238C93E8812E2B288363
:1008D0009FBFDF91CF9108958FB7F894EC912E2BA5
:1008E0002C938FBFF6CF3FB7F8948091200390915F
:1008F0002103A0912203B091230326B5A89B05C034
:100900002F3F19F00196A11DB11D3FBFBA2FA92F8E
:10091000982F8827BC01CD01620F711D811D911D8B
:1009200042E0660F771F881F991F4A95D1F70895F7
:100930008F929F92AF92BF92CF92DF92EF92FF92EF
:100940004B015C010E9473046B017C010E947304E3
:100950006C197D098E099F09683E734081059105D8
:10096000A8F321E0821A9108A108B10888EEC80E08
:1009700083E0D81EE11CF11C81149104A104B10490
:1009800029F7FF90EF90DF90CF90BF90AF909F90AE
:100990008F900895CF93C0911F016AE070E080E0CE
:1009A00090E00E94980481E0C11101C080E0CF91E5
:1009B00008952FB7F89460911C0370911D038091E6
:1009C0001E0390911F032FBF089540915E02509126
:1009D0005F0220915C0230915D0242175307B4F42C
:1009E0009091E8009570E1F39091E80092FD19C0B4
:1009F0008093F10080915E0290915F0201968F7367
:100A00009927892B19F48EEF8093E80080915E027C
:100A100090915F02019690935F0280935E0281E065
:100A2000089580E00895EF92FF920F931F93CF9364
:100A3000DF93F82E192FE62E042F81E0860F880F02
:100A40000E94E50483E00E94E504CF2DD12FEC0E37
:100A5000FD2EF11CCE15DF05B9F007FF13C0FE0116
:100A600084910E94E504182F80E00E94E504812310
:100A700021968111EFCFDF91CF911F910F91FF90C0
:100A8000EF9008958881EDCF81E0F5CFDF92EF926E
:100A9000FF920F931F93CF93DF93D82E8A01EB0120
:100AA0007B01E40EF51ECE15DF0559F0D7FE12C00E
:100AB000FE0184910E94E50421968111F4CF0FEF8D
:100AC0001FEFC801DF91CF911F910F91FF90EF9021
:100AD000DF9008958881EECF0F931F93CF93DF931C
:100AE0001F92CDB7DEB782E0898342E450E068E52B
:100AF00072E080E80E9446050E94B403DC01129671
:100B00000D911C910115110589F0D801ED91FC9111
:100B10000280F381E02DBE016F5F7F4FC801099510
:100B200097FD04C0F80100851185ECCF89810F90F5
:100B3000DF91CF911F910F910895615030F0209176
:100B4000F100FC0120830196F8CF289884E6809379
:100B500030030895EF92FF920F931F93CF93DF938B
:100B60008C017B01D0E0C0E0F701EC0FFD1F649128
:100B7000662361F0D801ED91FC910190F081E02DA8
:100B8000C8010995892B11F02196EECFCE01DF9196
:100B9000CF911F910F91FF90EF900895AF92BF9268
:100BA000CF92DF92EF92FF920F931F93CF93DF9339
:100BB0006C017B018B01040F151FEB015E01AE1868
:100BC000BF08C017D10759F06991D601ED91FC918A
:100BD0000190F081E02DC6010995892B79F7C501B7
:100BE000DF91CF911F910F91FF90EF90DF90CF9009
:100BF000BF90AF9008958F929F92AF92BF92CF9285
:100C0000DF92EF92FF920F931F93CF93DF936C01CC
:100C10007B018A0180911F01882309F45CC08091C7
:100C20003103882309F457C08091620280FF05C018
:100C30008091E00082608093E000E801B12C8AEFAF
:100C4000A82E93E0892E2AE3922E209711F4BB2040
:100C5000D9F10E94A30381110AC0AA94AA20D9F154
:100C600061E070E080E090E00E949804EECF8C1785
:100C70001D0611F00CF08C2F9FB7F8948092E900BC
:100C80002091E80025FD02C09FBFDFCF282F30E074
:100C9000C21BD30BF701815020F041914093F1002A
:100CA000FACFE20EF31EBB2021F09092E800B12CA7
:100CB000EBCF8091E80085FDE7CF9092E800BB2460
:100CC000B394209709F3F3CF5D9884E68093610293
:100CD000101611063CF081E090E0F60193838283C8
:100CE00010E000E0C801DF91CF911F910F91FF90BC
:100CF000EF90DF90CF90BF90AF909F908F9008952E
:100D0000CF93DF931F92CDB7DEB76983DC01ED91FE
:100D1000FC910280F381E02D41E050E0BE016F5F65
:100D20007F4F09950F90DF91CF91089583E08093D5
:100D3000E9008091F200882319F08AE38093E800AB
:100D400008950E94A30390E00895CF93DF931F922C
:100D5000CDB7DEB7FC018485958597FD08C02FEFE0
:100D60003FEF358724870F90DF91CF910895CE0113
:100D700001960E947903019719F4898190E0F3CFDD
:100D80008FEF9FEFF0CF0F931F93CF93DF931F92BF
:100D9000CDB7DEB78C01FC018485958597FF0BC02C
:100DA000CE0101960E947903019771F4898190E048
:100DB000F80195878487F801848595850F90DF91E8
:100DC000CF911F910F9108958FEF9FEFF1CFFC010D
:100DD0008485958597FD0BC09FB7F89482E080933A
:100DE000E9008091F2009FBF90E0019608959FB7BF
:100DF000F89482E08093E9008091F2009FBF90E038
:100E00000895FC01908190539A3008F090E0818120
:100E100080532AE0929F800D11240895DC0150E058
:100E2000ECE8F6E081E0861730F49491490F511D0B
:100E30008F5F3196F8CF633038F0CD0183709927FA
:100E4000892B11F44F5F5F4F9D012D5F3F4F36950A
:100E50002795369527956DE671E0A69FC001A79F5F
:100E6000900DB69F900D11240197820F931F840F50
:100E7000951F0895EF92FF920F931F93CF93DF93E7
:100E8000EC0188814A81698190E00E940E079C01F3
:100E9000A8E1B0E00E94B1262B817B018C01E20E1B
:100EA000F11C011D111DA8019701ACE3B0E00E94E7
:100EB0006F262C817B018C01E20EF11C011D111D9E
:100EC000A80197010E946F26AB01BC019D81892F6B
:100ED00090E0B0E0A0E080589C4BA249B74C8A015A
:100EE0009B01080F191F2A1F3B1FC901B801DF9181
:100EF000CF911F910F91FF90EF9008950895209149
:100F00003902260F3327331F21323105ECF42091AB
:100F10008003FC0190E080E0243069F082E00895D5
:100F2000A09139022191AC01475E5D4FA40FB52F0E
:100F3000B11D2C930196861798F380913902680FA2
:100F40006093390280E0089581E008951092800353
:100F500081E080937F0310925A0361E082E00E9457
:100F6000140461E083E00E941404E9EBF0E0808166
:100F70008E7F808380818D7F808388E48093B8001A
:100F800085E48093BC0008951092390310923803D1
:100F9000109287031092A9030E94A60787E793E0A7
:100FA000909335038093340388E793E09093330361
:100FB000809332030895CF93DF9391E090931802CA
:100FC0008823B9F0C091B800D091BA008091BC00DC
:100FD0008A7B8093BC0060E082E00E94140460E0A1
:100FE00083E00E9414040E94A607D093BA00C09325
:100FF000B800DF91CF9108958F929F92AF92BF92E8
:10100000CF92DF92EF92FF920F931F93CF93DF93D4
:10101000D091A903D13208F0D7C0182FC091A803EE
:101020000E9473046B017C018091800381116BC06D
:1010300082E08093800310937F038FEF80937E0381
:1010400010927D03D0937C03A8E8B3E0ECE5F3E0D5
:1010500080E0D81391C010925B0380915B03CC0FAA
:10106000C82BC0935B0380915A03813009F088C07C
:1010700010925A030E9473046B017C0180915B0300
:101080008093BB008091820390918303A09184039D
:10109000B0918503892B8A2B8B2BA1F00E947304BE
:1010A0000091820310918303209184033091850382
:1010B0006C197D098E099F0906171707280739073C
:1010C00008F442C08091BC0083FDD8CF85EC8093AA
:1010D000BC000E9473046B017C018091800382300C
:1010E00009F450C080917E038F3F09F46FC0809156
:1010F0007E03803209F46CC080917E03803309F452
:1011000069C084E026C08091820390918303A091FE
:101110008403B0918503892B8A2B8B2B09F484CF10
:101120000E9473048090820390908303A0908403B4
:10113000B09085036C197D098E099F098616970664
:10114000A806B90608F070CF809181030E94DB07E2
:1011500085E0109287031092A90310928603DF9115
:10116000CF911F910F91FF90EF90DF90CF90BF90A4
:10117000AF909F908F9008959D9191938F5F69CFCD
:1011800085EEA5CF8091820390918303A091840383
:10119000B0918503892B8A2B8B2B09F49ECF0E945B
:1011A0007304009182031091830320918403309192
:1011B00085036C197D098E099F09061717072807F3
:1011C000390708F08ACFC0CF81E0C3CF80E0C1CF1C
:1011D00082E0BFCF83E0BDCFFC01A481B5818681D1
:1011E00091E0909386038093A80310928703109256
:1011F000A903ED91FC9111970190F081E02DCD01B3
:10120000099581E00C94FC071092270460E08AE1C4
:1012100094E00C94EC08CF93DF93EC018B8188234E
:10122000A1F0888191E0909386038093A8031092A7
:1012300087031092A90381E00E94FC0791E08111CD
:1012400090E0892FDF91CF9108950E94C40781E03B
:101250008B83CE010E940B09982F8111E2CFF1CF31
:101260000895E091390380913803E81730F4F0E0F5
:10127000E65CFC4F808190E008958FEF9FEF08952A
:1012800090913903809138032FEF3FEF981748F47E
:10129000E92FF0E0E65CFC4F208130E09F5F909307
:1012A0003903C90108958091380390913903891B4E
:1012B000990B0895CF92DF92EF92FF920F931F93B5
:1012C000CF93DF937C01CB018A01209186032223F7
:1012D00089F0EB016B01C40ED51ECC15DD0569F05C
:1012E0006991D701ED91FC910190F081E02DC7014A
:1012F0000995F3CF642F0E947F07C801DF91CF913A
:101300001F910F91FF90EF90DF90CF900895CF93B2
:10131000DF931F92CDB7DEB7698320918603222326
:10132000F9F02091A903203258F021E030E0FC01CF
:101330003383228390E080E00F90DF91CF91089576
:1013400080918703E82FF0E0E857FC4F9981908364
:101350008F5F809387038093A90381E090E0ECCFB7
:1013600061E0CE0101960E947F07F7CF90E080E018
:101370000895CF93DF93D82FC92F0E94CA048111FB
:1013800016C0A091E5029091E402ED2FFC2F24916C
:101390002223A9F081E08A0FB0E0AC59BD4F2C9315
:1013A00087FF02C091E080E03196A82FF0CF6D2F2B
:1013B0007C2F8AEA93E0DF91CF910C94AA05A09349
:1013C000E5029093E402DF91CF9108950E94B9095C
:1013D0008CEA90E00C94B909E8E1F4E08081877E22
:1013E0008E7F80838181109212038E7F8D7F818317
:1013F00087E492E00C94E6090E94D9046093E70226
:101400007093E8028093E9029093EA0280911804B5
:1014100085FF11C086FD0FC080648093180481E0B1
:101420008093270468E08AE194E00E94EC088EEA49
:1014300090E00C94E60908952F923F924F925F92AC
:101440006F927F928F929F92AF92BF92CF92DF92D4
:10145000EF92FF920F931F93CF93DF935C011B01D9
:101460006A01F12CE12CD50114968D919C91860195
:101470000E191F098017910708F48C01F501D0811E
:101480000E9473042B013C0180918003811172C082
:10149000C02F013208F0C0E2F1E0F093800321E0B8
:1014A000C601801B910BE816F90608F420E0209392
:1014B0007F038FEF80937E0310927D038C0F8093C8
:1014C0007C03A1E0A0935B0380915B03DD0FD82B2D
:1014D000D0935B0380915A03813009F090C0109241
:1014E0005A030E9473042B013C0180915B0380939B
:1014F000BB008091820390918303A0918403B091FB
:101500008503892B8A2B8B2BA1F00E9473042091D9
:1015100082033091830340918403509185036419C1
:10152000750986099709261737074807590708F4E8
:1015300042C08091BC0083FDD8CFB5ECB093BC0015
:101540000E9473042B013C0180918003813009F4D7
:101550005AC080917D038C1710F4C0917D03ACE5D7
:10156000B3E0EAE3F3E080E08C1751F19D919193B1
:101570008F5FFACF8091820390918303A0918403BF
:10158000B0918503892B8A2B8B2B09F47DCF0E9488
:10159000730420918203309183034091840350911E
:1015A00085036419750986099709261737074807BF
:1015B000590708F069CF809181030E94DB07C0E0E2
:1015C00010923903C0933803C017110609F057C0B1
:1015D00041018E0C9F1CE401CE01881999098017E6
:1015E000910798F5D50111968D919C91DC01ED91B3
:1015F000FC910284F385E02D09958993EDCFE5EE0A
:10160000E093BC009DCF8091820390918303A091D1
:101610008403B0918503892B8A2B8B2B09F494CFFB
:101620000E947304209182033091830340918403CC
:10163000509185036419750986099709261737079C
:101640004807590708F080CFB6CFE00EF11EEC1422
:10165000FD0408F408CF81E0DF91CF911F910F9135
:10166000FF90EF90DF90CF90BF90AF909F908F90C2
:101670007F906F905F904F903F902F90089580E003
:10168000EBCF1F93CF93DF93DC011496ED91FC9188
:10169000E417F50710F490E01FC0122FEA01FC01D7
:1016A00081819281208131E0309386032093A803C9
:1016B000109287031092A903DC01ED91FC91028046
:1016C000F381E02D0995C817D90729F7812F0E94CA
:1016D000FC0791E08111DFCF892FDF91CF911F911E
:1016E0000895EF92FF920F931F93CF93DF9300D053
:1016F00000D000D01F92CDB7DEB78C011982E090E8
:101700003603F090370320E041E050E0BE016F5F08
:101710007F4FC7010E94410B882341F047E050E012
:10172000BE016F5F7F4FC7010E941C0AE981EF77FE
:10173000FA81FB805D814E814F778F81282F30E0C9
:1017400094E0359527959A95E1F7922F990F990F87
:10175000291B220F280FD8012C93842F90E024E01E
:10176000959587952A95E1F7982F990F990F891BE1
:10177000880F840F11968C931197652F70E034E0D9
:10178000759567953A95E1F7862F880F880F681B46
:10179000660F650F12966C9312974F2D50E064E020
:1017A000559547956A95E1F7842F880F880F481B58
:1017B000440F4F0D13964C9313972F2F30E074E086
:1017C000359527957A95E1F7822F880F880F281B8A
:1017D000220F2F0F14962C9314978E2F90E0F4E085
:1017E00095958795FA95E1F7982F990F990F891B91
:1017F000880F8E0F15968C93C80127960FB6F89414
:10180000DEBF0FBECDBFDF91CF911F910F91FF9033
:10181000EF900895CF93DF9300D0CDB7DEB78FE080
:101820008A8321E041E050E0BE016E5F7F4F8091EE
:101830003603909137030E94410B41E050E0BE0116
:101840006F5F7F4F80913603909137030E941C0A8F
:1018500089810F900F90DF91CF910895EF92FF92C1
:101860000F931F93CF93DF93CDB7DEB72A970FB6B1
:10187000F894DEBF0FBECDBF8C01CE0101967C0176
:1018800088E0F70111928A95E9F7F80135812AE09D
:10189000832F622F0E94C026982F880F890F880FF0
:1018A000830F8A833481832F0E94C026982F880F4C
:1018B000890F880F830F8B833381832F0E94C0266B
:1018C000982F880F890F880F830F8C838081428126
:1018D000618190E00E940E07069667E070E00E942A
:1018E000CC26811101C087E08D83F80132812AE086
:1018F000832F622F0E94C026982F880F890F880F90
:10190000830F8E833181832F0E94C026982F880FEA
:10191000890F880F830F8F833081832F0E94C02609
:10192000982F880F890F880F830F888721E048E060
:1019300050E0B70180913603909137030E94410B2C
:101940000E940A0C9FE099878F778A8721E042E006
:1019500050E0BE01675F7F4F80913603909137035F
:101960000E94410B2A960FB6F894DEBF0FBECDBF82
:10197000DF91CF911F910F91FF90EF9008951F93EA
:10198000CF93DF93EC01162F107F8B8584606C85DD
:10199000660F682B8D8528E0829FC0011124682B7B
:1019A000612BCE010E94EC086C85660F8D8528E0C6
:1019B000829FC0011124682B8B85682B612BCE017F
:1019C000DF91CF911F910C94EC080F931F93CF934D
:1019D000DF93EC01062F0E94BF0C8FE890E0019787
:1019E000F1F720E1029F800111246B85602B862F87
:1019F00084606C85660F682B8D8528E0829FC0010E
:101A00001124682BCE010E94EC086B85062B6C8597
:101A1000660F602B8D8528E0829FC0011124682B02
:101A2000CE01DF91CF911F910F910C94EC08EAE168
:101A3000F4E01386148661E0CF010E94E50C8BEF81
:101A400098E10197F1F70895109225041092260469
:101A5000E09122046E1708F4E62FF0E0EF5BFE4FF2
:101A600060912104861708F4682F8081680F6068F0
:101A70008AE194E00E94E50C8FE890E00197F1F78D
:101A800008950E94170D60E080E00E94240D6BE332
:101A900072E08AE194E00E94AA0561E080E00E9481
:101AA000240D8091F50263E172E0811102C067E2CA
:101AB00072E08AE194E00E94AA0562E080E00E9460
:101AC000240D8091F50267ED71E0813011F46BEE29
:101AD00071E08AE194E00E94AA0563E080E00E9440
:101AE000240D6FEF71E08AE194E00C94AA050E9446
:101AF000170D6AEC71E08AE194E00E94AA0561E0AA
:101B000080E00E94240D6CEB71E08AE194E00E9479
:101B1000AA0562E080E00E94240D6CEA71E08AE18F
:101B200094E00E94AA0563E080E00E94240D6CE925
:101B300071E08AE194E00C94AA0521E0FC0123877E
:101B400014860E94E50C8FE990E00197F1F781E09F
:101B500090E00895CF93DF93EC01888199810097FD
:101B600011F00E94D727198218821D821C821B82C5
:101B70001A82DF91CF910895FC01808191810097B5
:101B800011F00C94D7270895FB0101900020E9F78C
:101B90003197AF01461B570BDC01ED91FC910280A0
:101BA000F381E02D0994009729F0BC018AE194E0CB
:101BB0000C94C40D90E080E008958F929F92AF92B4
:101BC000BF92CF92DF92EF92FF920F931F93CF932A
:101BD000DF93CDB7DEB7A1970FB6F894DEBF0FBE87
:101BE000CDBF6C01990FEE08FF08F7FE43C06DE210
:101BF0008AE194E00E949D0D8C0122273327A901E0
:101C00002C193D094E095F0919A2CE0181967C016C
:101C10009AE0892E912CA12CB12CCA01B901A50101
:101C200094010E94F426605DF70162937F01211503
:101C300031054105510589F790E080E0309729F0A2
:101C4000BF018AE194E00E94C40D800F911FA1960C
:101C50000FB6F894DEBF0FBECDBFDF91CF911F91BD
:101C60000F91FF90EF90DF90CF90BF90AF909F903B
:101C70008F900895A701960119A28E010F5D1F4F45
:101C80008AE0C82ED12CE12CF12CCA01B901A701A0
:101C900096010E94F426605DF80162938F01211580
:101CA00031054105510589F790E080E0309779F2E0
:101CB000BF018AE194E00E94C40DC9CFEF92FF9268
:101CC0000F931F93CF93DF937C018B01EA018AE08E
:101CD000E816F10424F485E791E00E94D30DC701D2
:101CE0000E94DD0D87E791E00E94D30D0A301105B7
:101CF00024F485E791E00E94D30DC8010E94DD0D18
:101D0000D7FD19C087E791E00E94D30DCE0164E6AC
:101D100070E00E94E026EC010A9724F485E791E048
:101D20000E94D30DCE01DF91CF911F910F91FF90B3
:101D3000EF900C94DD0DDF91CF911F910F91FF90EB
:101D4000EF9008950E94170D6EE871E08AE194E02B
:101D50000E94AA0561E080E00E94240D8091F002BB
:101D6000811104C089E791E00E94D30D8091120196
:101D7000909113010A9724F485E791E00E94D30D16
:101D800080911201909113010E94DD0D8091F0026B
:101D9000811104C08BE791E00E94D30D87E791E0A9
:101DA0000E94D30D8091F002813021F489E791E007
:101DB0000E94D30D80911001909111010A9724F493
:101DC00085E791E00E94D30D80911001909111015F
:101DD0000E94DD0D8091F002813021F48BE791E0CB
:101DE0000E94D30D87E791E00E94D30D8091F0020D
:101DF000823021F489E791E00E94D30D80910E0199
:101E000090910F010E94DD0D8091F002823021F44B
:101E10008BE791E00E94D30D62E080E00E94240DE8
:101E20008091F002833021F489E791E00E94D30D84
:101E300080911401909115010A9724F485E791E0AF
:101E40000E94D30D80911401909115010E94DD0D27
:101E50008091F002833021F48BE791E00E94D30D52
:101E600086E192E00E94D30D8091F002843021F44B
:101E700089E791E00E94D30D8091F1029091F202E6
:101E80000A9724F485E791E00E94D30D8091F10236
:101E90009091F2020E94DD0D8091F002843021F4D5
:101EA0008BE791E00E94D30D86E192E00E94D30D72
:101EB0008091F002853021F489E791E00E94D30DF2
:101EC0008091F3029091F4020A9724F485E791E05F
:101ED0000E94D30D8091F3029091F4020E94DD0DD7
:101EE0008091F002853021F48BE791E00E94D30DC0
:101EF00063E080E00E94240D6DE771E08AE194E0E8
:101F00000C94AA050E94170D809111036EE671E0F2
:101F1000823011F060E671E08AE194E00E94AA0547
:101F20008091110361E0823009F0B9C080E00E9425
:101F3000240D8091EF02811104C089E791E00E9495
:101F4000D30D80910C0190910D010A9724F485E73F
:101F500091E00E94D30D80910C0190910D010E949F
:101F6000DD0D8091EF02811104C08BE791E00E94AA
:101F7000D30D87E791E00E94D30D8091EF0281306D
:101F800021F489E791E00E94D30D80910A0190919C
:101F90000B010A9724F485E791E00E94D30D80910C
:101FA0000A0190910B010E94DD0D8091EF028130BA
:101FB00021F48BE791E00E94D30D87E791E00E9426
:101FC000D30D8091EF02823021F489E791E00E94E5
:101FD000D30D80910801909109010E94DD0D80913F
:101FE000EF02823021F48BE791E00E94D30D62E092
:101FF00080E00E94240D68E571E08AE194E00E948F
:10200000AA058091EF02833021F489E791E00E94D4
:10201000D30D80910601909107010A9724F485E77A
:1020200091E00E94D30D80910601909107010E94DA
:10203000DD0D8091EF02833021F48BE791E00E9467
:10204000D30D86E192E00E94D30D8091EF0284309F
:1020500021F489E791E00E94D30D8091ED029091E7
:10206000EE020A9724F485E791E00E94D30D809157
:10207000ED029091EE020E94DD0D8091EF0284301E
:1020800021F48BE791E00E94D30D63E080E00E9491
:10209000240D67E371E08AE194E00C94AA0580E0E6
:1020A0000E94240D68E471E08AE194E00E94AA0590
:1020B00062E080E00E94240D8091EF02811104C053
:1020C00089E791E00E94D30D80910601909107016C
:1020D0000A9724F485E791E00E94D30D80910601D0
:1020E000909107010E94DD0D8091EF02811104C0E3
:1020F0008BE791E00E94D30D86E192E00E94D30D20
:102100008091EF02813021F489E791E00E94D30DA4
:102110008091ED029091EE020A9724F485E791E018
:102120000E94D30D8091ED029091EE020E94DD0D90
:102130008091EF02813009F0A8CFA3CF0E94170D44
:1021400069E271E08AE194E00E94AA0561E080E022
:102150000E94240D6FE171E08AE194E00E94AA05DB
:102160008091EC02811104C089E791E00E94D30DB7
:1021700080911601909117010E94DD0D8091EC0273
:10218000811104C08BE791E00E94D30D62E080E0F2
:102190000E94240D64E171E08AE194E00E94AA05A6
:1021A0008091EC02813021F489E791E00E94D30D07
:1021B00080910F03909110030E94DD0D8091EC023D
:1021C000813021F48BE791E00E94D30D63E080E041
:1021D0000E94240D63E071E08AE194E00C94AA056A
:1021E000EF92FF920F931F93CF93DF937C018B01AC
:1021F000EA018AE0E816F10424F485E791E00E9400
:10220000D30DC7010E94DD0D86E192E00E94D30D3F
:102210000A30110524F485E791E00E94D30DC8012E
:102220000E94DD0DCF3FDC07A1F086E192E00E9425
:10223000D30DCA30D10524F485E791E00E94D30D77
:10224000CE01DF91CF911F910F91FF90EF900C94F1
:10225000DD0DDF91CF911F910F91FF90EF900895C9
:10226000EF92FF920F931F93CF93DF93CDB7DEB71B
:102270006A970FB6F894DEBF0FBECDBFCE0145966C
:102280000E94710B8091190481FD71C00E94170D8D
:1022900081EC91E09A83898388EC91E098878F8321
:1022A00085ED91E09A8789878DED91E09C878B87FA
:1022B000809111039EEF980F2BE831E0923010F4DB
:1022C0002DE731E03C832B83923008F083C08230CD
:1022D00009F483C08BEA91E09E838D831091EB0219
:1022E000112321F0153008F014E01150E12EF12CEB
:1022F000EE0CFF1C81E090E08C0F9D1FE80EF91E94
:1023000000E00F5F602F80E00E94240D8091EB02BF
:10231000811709F465C08EEF91E00E94D30DF7019B
:10232000819191917F010E94D30D11115CC088E0D1
:10233000E6E2F1E0DE011D9601900D928A95E1F74B
:10234000E0911103F0E0EE0FFF1F81E090E08C0FB1
:102350009D1FE80FF91F848595850E94D30D1F5F8F
:10236000033079F68091190482608093190460E04B
:1023700080E00E94240D80EF91E00E94D30D60E088
:1023800080E00E94240D81E092E00E94D30D4D89EF
:1023900050E04053584F6E8970E08F8990E00E9462
:1023A0005E0E8FEF91E00E94D30D4A8D50E0698D53
:1023B00070E0888D90E00E94F0106A960FB6F89455
:1023C000DEBF0FBECDBFDF91CF911F910F91FF9068
:1023D000EF90089588E991E07FCF8EE991E07CCF7E
:1023E00087EB91E09ACF123039F58091110382503A
:1023F000823008F4B4CF89EE91E00E94D30D809131
:102400001601909117010E94DD0D86E192E00E9475
:10241000D30D80910F03909110030A9724F485E760
:1024200091E00E94D30D80910F03909110030E94C0
:10243000DD0D8CEE91E091CF143009F090CF8091BA
:10244000180485FD0DC08DEB91E00E94D30D8091A5
:10245000180485FF84CF86FD82CF8EEE91E07DCF7C
:102460008AEB91E0F2CF0F931F93CF93DF93EC01B0
:1024700088819981009759F02A813B812617370777
:1024800030F081E0DF91CF911F910F9108958B0182
:102490006F5F7F4F0E946028009759F0998388836F
:1024A0001B830A832C813D81232B59F7FC01108269
:1024B000E8CF80E0E7CFEF92FF920F931F93CF9387
:1024C000DF936115710541F480E0DF91CF911F9199
:1024D0000F91FF90EF90089541155105B1F07B01E8
:1024E000EC010C811D81040F151FB8010E943312ED
:1024F000882351F3288139818C819D81B701820F16
:10250000931F0E9426291D830C8381E0DECFCF9389
:10251000DF93EC01FB0101900020E9F73197AF0157
:10252000461B570B0E945B12811103C0CE010E9413
:10253000AA0DCE01DF91CF910895CF93DF93EC01E7
:10254000FB0144815581608171810E945B12811180
:1025500003C0CE010E94AA0DCE01DF91CF91089554
:10256000EF92FF920F931F93CF93DF93EC017B01C8
:102570008A01BA010E94331281110BC0CE010E9460
:10258000AA0DCE01DF91CF911F910F91FF90EF9097
:1025900008951D830C83B701888199810E942629A3
:1025A000F0CFFB0101900020E9F73197AF01461B06
:1025B000570B0C94B0120F931F93CF93DF93CDB7AB
:1025C000DEB762970FB6F894DEBF0FBECDBF8C01A9
:1025D000CB01F801118210821382128215821482BB
:1025E0004AE0BE016F5F7F4F0E942426BE016F5FED
:1025F0007F4FC8010E94D11262960FB6F894DEBFD9
:102600000FBECDBFDF91CF911F910F9108950F9312
:102610001F93CF93DF93CDB7DEB729970FB6F8940A
:10262000DEBF0FBECDBF8C01862FF8011182108254
:1026300013821282158214824AE0BE016F5F7F4FBF
:1026400090E00E942F26BE016F5F7F4FC8010E945D
:10265000D11229960FB6F894DEBF0FBECDBFDF9121
:10266000CF911F910F910895FB01DC0111961C92EF
:102670001E9213961C921E92129715961C921E92F1
:1026800014978617970749F060817181611571056C
:1026900021F0448155810C94B012089585ED80930A
:1026A000BC008091820390918303A0918403B09138
:1026B00085030796A11DB11D23E0B695A7959795B3
:1026C00087952A95D1F72091BC0024FD03C0109274
:1026D00080030895409182035091830360918403A5
:1026E00070918503452B462B472B69F30097A10575
:1026F000B10541F02AE22A95F1F700C00197A1093E
:10270000B109E1CF809181030C94DB07FF920F9315
:102710001F93CF93DF938C01EB01F8800E94592621
:10272000F81621F06F2DC8010E946126CE01DF91BD
:10273000CF911F910F91FF900895FF920F931F93D8
:10274000CF93DF93EC018B01FB01F0800E945926AF
:10275000F81621F06F2DCE010E946126F801F1805C
:102760002196CE010E945926F81621F06F2DCE0138
:102770000E946126C801DF91CF911F910F91FF90B8
:102780000895CF93DF931F92CDB7DEB766E171E076
:1027900090E080E00E949D136FE073E084E090E0A1
:1027A0000E949D1361E173E088E090E00E9486132F
:1027B00068E071E08CE090E00E949D136AE071E0B7
:1027C00080E190E00E949D136CE071E084E190E074
:1027D0000E949D1366E071E088E190E00E949D13E5
:1027E0006DEE72E08CE190E00E949D1380911804E0
:1027F00085FB882780F98983BE016F5F7F4F80E268
:1028000090E00E94861384EF90E00E94E6090F900A
:10281000DF91CF910895CF93DF93EB010E9459266A
:102820008883CE01DF91CF9108950F931F93CF93AB
:10283000DF938C01EB010E9459268883C801019621
:102840000E9459268983CE01DF91CF911F910F916C
:1028500008958F929F92AF92BF92CF92DF92EF92A4
:10286000FF920F931F93CF93DF9300D000D000D03F
:10287000CDB7DEB76C010E94CA04D60114964D9103
:102880005C9115978823C9F06D917C918AEA93E059
:102890000E94FB0526960FB6F894DEBF0FBECDBF93
:1028A000DF91CF911F910F91FF90EF90DF90CF902C
:1028B000BF90AF909F908F900895B090E502EB2C61
:1028C000F12C00E810E00E191F094017510708F419
:1028D0008A011A8219821C821B821E821D8250E08C
:1028E00040E064E172E0CE0101960E94B012F60170
:1028F000848195810097E9F048018017910708F4D9
:102900004C01D601ED91FC911197E80DF91DA080C5
:1029100010826D917C91CE0101966115710511F1C6
:102920000E94D112F60180819181880E991ED401F6
:10293000AC920F3F100761F0F701EC59FD4F7F019A
:10294000309731F0CD80DE80C114D10471F4108253
:10295000CE0101960E94BC0D0B0D07FD15C0009322
:10296000E50298CF0E94AA0DDDCF0C151D0508F4D5
:10297000680169817A81A601C7010E942D29EC0CAA
:10298000FD1CD7011C92E4CF1092E50281E08093F8
:10299000E40280CFCF93DF93CDB7DEB765970FB654
:1029A000F894DEBF0FBECDBF66E171E090E080E03D
:1029B0000E9415146FE073E084E090E00E9415140B
:1029C00061E173E088E090E00E940B1468E071E040
:1029D0008CE090E00E9415146AE071E080E190E0E4
:1029E0000E9415146CE071E084E190E00E941514DF
:1029F00066E071E088E190E00E9415146DEE72E0EF
:102A00008CE190E00E941514BE016B5E7F4F80E266
:102A100090E00E940B1421E08D89811101C020E01B
:102A20008091180420FB85F9809318048091160189
:102A3000909117018436910514F083E690E097FF9A
:102A400002C090E080E0909317018093160180917E
:102A50000F03909110038C33910514F08BE390E0F9
:102A600097FF02C090E080E09093100380930F03E3
:102A700080911103843008F083E0809311038091EA
:102A80000801909109018F3E37E0930714F08EEE14
:102A900097E0893E37E0930714F489EE97E090932E
:102AA00009018093080180910A0190910B018D30FA
:102AB000910514F08CE090E01816190614F081E0EE
:102AC00090E090930B0180930A0180910C0190910A
:102AD0000D018032910514F08FE190E0181619066F
:102AE00014F081E090E090930D0180930C018091AF
:102AF0000601909107018831910514F087E190E07B
:102B000097FF02C090E080E0909307018093060158
:102B10008091ED029091EE028C33910514F08BE3DD
:102B200090E097FF02C090E080E09093EE028093E7
:102B3000ED028091180420FB86F9809318040E940E
:102B4000D9046093E7027093E8028093E9029093BE
:102B5000EA028091180486FF68C081E08093270410
:102B600068E08AE194E00E94EC088CEE90E00E941C
:102B7000B90960910F0370911003CE010F960E9466
:102B8000DB126091160170911701CE0101960E942F
:102B9000DB12BE016F5F7F4FCE0109960E94341396
:102BA00066E172E0CE0109960E948712BE01615F64
:102BB0007F4F0E949D120E942914CE0109960E9407
:102BC000BC0DCE0101960E94BC0DCE010F960E9455
:102BD000BC0D84EE90E00E94B9098DED90E09A83DF
:102BE000898386ED90E09C838B8380ED90E09E83CB
:102BF0008D838AEC90E098878F83E0911103F0E059
:102C0000EE0FFF1F81E090E08C0F9D1FE80FF91F72
:102C1000808191810E94E60965960FB6F894DEBF27
:102C20000FBECDBFDF91CF9108950E9404099DCFC3
:102C30001F920F920FB60F9211242F933F938F93F1
:102C40009F93AF93BF9380911C0390911D03A0911C
:102C50001E03B0911F0330911B0323E0230F2D3778
:102C600058F50196A11DB11D20931B0380931C03F1
:102C700090931D03A0931E03B0931F038091200324
:102C800090912103A0912203B09123030196A11DED
:102C9000B11D8093200390932103A0932203B0934E
:102CA0002303BF91AF919F918F913F912F910F90EF
:102CB0000FBE0F901F90189526E8230F0296A11DB6
:102CC000B11DD2CF1F920F920FB60F9211248F9386
:102CD0009F938091E1009091E100937F9093E100B8
:102CE00083FF0FC01092E90091E09093EB001092E7
:102CF000EC0092E39093ED001092310398E09093F2
:102D0000F00082FF22C093E09093E9009091F200DE
:102D1000992319F09AE39093E80090916102992326
:102D200041F090916102915090936102911101C024
:102D30005D9A90913003992341F090913003915026
:102D400090933003911101C0289A84FF18C080919C
:102D5000E2008E7E81608093E2008091E1008F7EB0
:102D60008093E100809162028E7E80618093620296
:102D70009F918F910F900FBE0F901F90189580FF1D
:102D8000F7CF8091E2008E7E80618093E200809197
:102D9000E1008E7E8093E100809162028E7E8160F0
:102DA000E5CF1F920F920FB60F921124CF92DF92B0
:102DB000EF92FF920F931F932F933F934F935F9345
:102DC0006F937F938F939F93AF93BF93EF93FF93F3
:102DD000CF93DF93CDB7DEB76C97DEBFCDBF109238
:102DE000E9008091E80083FF25C068E0CE014596A8
:102DF0000E949D0582EF8093E8008D8987FF39C08E
:102E00009091E80090FFFCCF982F907609F034C1A4
:102E10009E894F89588D2F89F88C911131C0803847
:102E200061F5809163028093F1001092F1008EEFC2
:102E30008093E8006C960FB6F894DEBF0FBECDBF4E
:102E4000DF91CF91FF91EF91BF91AF919F918F91C2
:102E50007F916F915F914F913F912F911F910F91B2
:102E6000FF90EF90DF90CF900F900FBE0F901F90CC
:102E700018959EEF9093E800C7CF1092F100D5CF40
:102E8000913059F48111D3CF4130510581F68091B1
:102E900063028D7F80936302CACF933049F481111E
:102EA000C6CF4130510519F6809163028260F2CF9E
:102EB000953041F48091E80080FFFCCF206820939A
:102EC000E300B5CF963009F0A9C00B8D1C8D22E030
:102ED0001092E90010925F0210925E02F2122EC070
:102EE00010925D0210925C020E946C051F8299E0B4
:102EF0009983FA8291E09E8390EA98879AEF998766
:102F000020915E0230915F02275F3F4F3C832B830D
:102F10008D831092E90010925F0210925E0210936E
:102F20005D0200935C0249E050E0BE016F5F7F4F9D
:102F300080E00E9446050E946C0579CF10935D02E7
:102F400000935C020E94B403DC0112960D911C9167
:102F50000115110509F451C1D801ED91FC910480CE
:102F6000F581E02DBE016B5E7F4FC801099500978A
:102F700009F03EC1F80100851185EACFF3E0FF12A8
:102F80000EC08F89882309F440C0823061F440E884
:102F900060E18CEB92E00E941305811148CF81E241
:102FA0008093EB0047CF813029F440E86BE080EB61
:102FB00092E0F1CF833099F70E94B403DC011296BE
:102FC000ED90FC908E010F5F1F4F6801E114F1043A
:102FD00079F0D701ED91FC910680F781E02DB801E1
:102FE000C7010995080F111DF701E084F184EECFA8
:102FF000D8011C92F60101900020E9F73197BF013A
:103000006C197D0940E0C601C6CF6AE972E0FB0198
:10301000449150E080E80E94460509CF973009F4BA
:10302000BECF983021F481E08093F10000CF993039
:1030300009F0FDCE837009F0B2CFE5E3F1E081E065
:1030400031E096E32191222371F08093E9003093DF
:10305000EB00DF0111972C912093EC009093ED0091
:103060008F5F873079F78EE78093EA001092EA004D
:103070008F8980933103DBCE8B8D9C8D1092E9007C
:1030800010925F0210925E0290935D0280935C0248
:10309000898D811192C08E899D89913A49F481323E
:1030A00009F07DCF47E050E068E171E080E0B3CF08
:1030B000913209F074CF833269F48F89988DB0E032
:1030C000A0E08093000190930101A0930201B093CE
:1030D0000301ADCE803269F48091E80082FFFCCF1D
:1030E00067E088E191E00E949D058BEF8093E80006
:1030F0009ECE823209F09BCE8F8980931F01EEEF26
:10310000FFE7859194918B3F9C4D51F1E0E0F8E011
:103110008091180190911901A0911A01B0911B01A1
:10312000803B9440A105B105F1F480911F0180FD21
:103130001AC0EE3F8AE0F80789F587E797E79183A1
:103140008083809160008093600288E19BE00FB6ED
:10315000F894A895809360000FBE9093600067CEAE
:10316000EEEFFAE0D5CF808191818737974709F05C
:103170005ECEA89580916000886180936000809108
:10318000600280936000EE3F2AE0F20789F08091B0
:10319000FE0A9091FF0A9183808349CE80819181BC
:1031A0008737980751F29093FF0A8093FE0AC5CFA4
:1031B0001092FF0A1092FE0A3ACE0E94B403DC017C
:1031C00012960D911C910115110509F4E8CED80154
:1031D000ED91FC910190F081E02DBE016B5E7F4F7F
:1031E000C8010995811123CEF80100851185EBCF27
:1031F000181619060CF41BCED2CEF1E0FF12BECE8B
:103200006EE972E004CF1F920F920FB60F92112455
:103210002F933F934F935F936F937F938F939F93DE
:10322000AF93BF93EF93FF938091B900887F80366F
:1032300009F44AC0F0F5883209F4A7C018F58031C6
:1032400009F49BC0B8F4882309F4F9C0883009F464
:1032500094C0FF91EF91BF91AF919F918F917F911A
:103260006F915F914F913F912F910F900FBE0F90F3
:103270001F901895883109F488C0803251F78093E7
:103280007E0314C0803409F49DC040F48033B9F348
:103290008833F9F680937E0385ECB0C0803509F45D
:1032A00085C0883509F496C0883499F60E944E137B
:1032B000D0CF883909F48CC038F5883729F050F41C
:1032C000883611F0803729F683E0809380031092CE
:1032D0005B0257C0883809F47BC0803919F0803808
:1032E00009F0B7CF80915B02803208F071C0E091A5
:1032F0005B0281E08E0F80935B028091BB00F0E067
:10330000E55CFD4F80833DC0803B39F0E0F4803ABE
:1033100009F479C0883A09F09CCF84E08093800357
:1033200010923A0210923902E0913403F091350381
:1033300009958091390281110FC081E08093390293
:103340001092190209C0803C09F4A6CF883C09F408
:10335000A3CF883B09F07DCFE0913A0281E08E0F48
:1033600080933A02F0E0E75EFD4F80818093BB00DE
:1033700090913A028091390229C080915B03809339
:10338000BB0085EC8093BC0064CF90917D0380915D
:103390007C03981758F5E0917D0381E08E0F8093B0
:1033A0007D03F0E0E45AFC4F8081E9CFE0917D039A
:1033B00081E08E0F80937D038091BB00F0E0E45AA2
:1033C000FC4F808390917D0380917C039817C8F215
:1033D00085E8D8CFE0917D0381E08E0F80937D0357
:1033E0008091BB00F0E0E45AFC4F808380917F0322
:1033F00081115CCF81E080935A0384EA8093BC0002
:103400001092800326CF85EC8093BC00109280033D
:1034100080915B02803230F4E0915B02F0E0E55C89
:10342000FD4F108260915B0270E0E0913203F091F9
:1034300033038BE392E0099510925B020ACF10925E
:103440007E0334CF1092AD031092AC0388EE93E06C
:10345000A0E0B0E08093AE039093AF03A093B003DD
:10346000B093B10329E431E03093AB032093AA0376
:103470002FEF3FEF3093B7032093B6031092FD0375
:103480001092FC038093FE039093FF03A09300042B
:10349000B09301048BE591E09093FB038093FA03D2
:1034A00010921D0410921C048DE691E090931B0471
:1034B00080931A048AEF93E090931F0480931E0474
:1034C00087E2809320048FE08093210483E080933F
:1034D00022041092230410922404109225041092C6
:1034E00026041092270486E0EEE2F1E0ACE0B4E0BE
:1034F00001900D928A95E1F710920B0410920A0444
:103500001092090410920604ECE8F6E081E08C3099
:1035100049F09491823009F49F5F21E0280F3196A1
:10352000992331F08093070481E080930804089583
:10353000822FEDCFCF93DF93CDB7DEB7AB970FB62A
:10354000F894DEBF0FBECDBF789484B5826084BD91
:1035500084B5816084BD85B5826085BD85B5816097
:1035600085BD80916E00816080936E001092810015
:1035700080918100826080938100809181008160D0
:103580008093810080918000816080938000809191
:10359000910082608093910080919100816080937E
:1035A0009100809190008160809390008091C10093
:1035B00084608093C1008091C10082608093C100CB
:1035C0008091C10081608093C1008091C3008160BF
:1035D0008093C3008091C00082608093C00080917E
:1035E000C20081608093C20080917A0084608093E1
:1035F0007A0080917A00826080937A0080917A00CC
:10360000816080937A0080917A00806880937A004C
:103610001092310310926302109262028091D700DF
:1036200081608093D70080EA8093D80089B580615B
:1036300089BD89B5826089BD09B400FEFDCF61E016
:1036400070E080E090E00E9498048091D8008F7C28
:1036500080618093D8008091E000807F8093E000BB
:103660008091E1008E7E8093E1008DE08093E20006
:10367000559A209A61E088E00E9442040BE311E031
:1036800062E0F80181918F010E944204F1E001346F
:103690001F07B1F761E08CE00E94420461E086E020
:1036A0000E94420460E08CE00E94140460E086E026
:1036B0000E9414048FEF9FEF9093B7038093B6039B
:1036C0008BE593E00E94E6090E94C40760E08AE16E
:1036D00094E00E94EC0862E370E080E090E00E94D9
:1036E0009804109225041092260460E38AE194E085
:1036F0000E94BF0C8BE991E40197F1F760E38AE146
:1037000094E00E94BF0C83E592E00197F1F760E33B
:103710008AE194E00E94BF0C0FE810E0C801019715
:10372000F1F760E28AE194E00E94BF0CC8010197C2
:10373000F1F768E28AE194E00E94E50CC801019784
:10374000F1F7109225041092260460912304862F2D
:103750008460809323046C608AE194E00E94E50C0D
:10376000C8010197F1F70E94170D109225041092DD
:10377000260460912404862F82608093240466606E
:103780008AE194E00E94E50CC8010197F1F70E94DC
:10379000CA140E94170D61E080E00E94240D6FE4BE
:1037A00073E08AE194E00E94AA0562E080E00E9452
:1037B000240D6CE373E08AE194E00E94AA0560EDB9
:1037C00077E080E090E00E94980480913603909129
:1037D0003703009711F00E94D72786E090E00E94FF
:1037E0003B278C0188E6F80180838AEF93E092837F
:1037F0008183138280E290E0958384831093370362
:10380000009336030E94C40781E0F8018383C80156
:103810000E940B0981114EC08EE193E00E94E609DF
:103820000E94170D63E173E08AE194E00E94AA050B
:1038300060ED77E080E090E00E9498040E943011F3
:103840000E94CA04882309F4EFC18091190482FD03
:10385000EBC18460809319048091E502811105C059
:103860008091E402882309F4CAC060E873E08AEA20
:1038700093E00E94AA0562E172E08AEA93E00E9466
:10388000C40D8091E402882309F496C00091E502FA
:1038900010E00C591D4FC8018456924080389105A4
:1038A0000CF08AC0F80161918F018AEA93E00E94CE
:1038B0008006F1CF0E940A0C90E0880F892F881FA4
:1038C000990B892B09F457C084EF92E00E94E60916
:1038D0004BE050E068EE72E0CE0101960E941B269C
:1038E000CE010A960E9401078C87E981E154E331F9
:1038F00010F50E2E000CFF0BE058F34E0C943527FC
:10390000C61C9B1C9B1CDA1C9B1CC41C9B1C9B1C6C
:103910009B1C931C9B1C9B1CCD1CD81CD61C9B1C4D
:103920009B1C9B1CD41C8A81813651F18B818E3665
:1039300049F586E08D87CE0105960E9401078E87A6
:1039400048E050E06FED72E0CE0101960E941B2628
:10395000CE0101960E9401078F87CE0104960E9436
:103960000107888BCE0107960E940107898BCE0143
:103970000C960E942E0C8DEC92E00E94E6095ECF20
:1039800081E0D8CF87E0D6CF82E0D4CF8B81823759
:1039900011F484E0CFCF88E0CDCF8B81823711F452
:1039A00083E0C8CF85E0C6CF89E0C4CF8AE0C2CF2C
:1039B0008BE0C0CF8CE0BECF04E612E02091E502A0
:1039C000C801845692402817190649F044F0F801BE
:1039D00061918F018AEA93E00E948006EFCF64E74D
:1039E00073E08AEA93E00E94AA0562E172E08AEA43
:1039F00093E00E94C40D1092E5021092E4020E942E
:103A0000D9044B015C018091180485FF19C186FF20
:103A100017C10E94D9040091E7021091E802209199
:103A2000E9023091EA02601B710B820B930B603349
:103A300075478105910508F403C1809118048F7BB7
:103A4000809318040E9404098FE893E00E94E6091D
:103A50008091180480FF00C161E08CE00E94140492
:103A60008091170390911803A0911903B0911A0344
:103A7000A5019401281B390B4A0B5B0BDA01C90124
:103A8000883E9340A105B10568F0809118048E7FAF
:103A90008093180460E08CE00E9414048AEF95E0A3
:103AA0000E94E6098091130390911403A0911503DD
:103AB000B0911603B501A401481B590B6A0B7B0B8F
:103AC000DB01CA01883E9340A105B10508F44DC150
:103AD0008092130390921403A0921503B0921603E0
:103AE0008091180483FF93C084FD91C080911203DC
:103AF000863009F08CC0CE0101960E94710B809136
:103B00001103833099F48B8190E02091040130916E
:103B100005018217930751F01092E6029093050178
:103B2000809304018CEF93E00E94E60980911103D9
:103B3000823009F096C0898190E08053984F20919F
:103B40000801309109018217930709F060C02A81AA
:103B500080910A0190910B012817190609F057C0AE
:103B60002B8180910C0190910D012817190609F005
:103B70004EC02C81809106019091070128171906EB
:103B800009F045C02D818091ED029091EE02281739
:103B90001906E9F58E8181113AC08091180480617F
:103BA0008160809318040E94D90460931703709376
:103BB00018038093190390931A0380EE93E00E94F8
:103BC000E60980911103823009F063C080911904E5
:103BD0008E7F809319040E94170D6FEC73E08AE1C9
:103BE00094E00E94AA0561E080E00E94240D6FEB42
:103BF00073E08AE194E00E94AA0563E080E00E94FD
:103C0000240D6EEA73E08AE194E00E94AA05809197
:103C10001203843009F441C0863009F42DC28111A9
:103C2000A4C00E943011A1C00E94CA048111E7CE35
:103C30008091190482FFE3CE8B7F80931904DFCE3D
:103C40008091180485FD04CF86FF02CF8F7B80937F
:103C500018040E940409FCCE60E08CE00E94140469
:103C600021CF8330A1F62C8180910601909107012C
:103C70002817190661F62D818091ED029091EE02D0
:103C80002817190621F68E818111C1CF8091E60295
:103C900082CF81E08093E602BACFCE010C960E94DB
:103CA000710BCE010C960E943A072B013C0186E075
:103CB00094E00E943A07461A570A680A790A8091E6
:103CC0001601909117012CE3289F6001299FD00CC9
:103CD000112480910F0390911003C80ED91E0D2C52
:103CE000000CEE08FF084C145D046E047F040CF415
:103CF00057C180911103813009F032C180910E03C8
:103D00008F5F80930E03CE0101960E94710B86E0B7
:103D1000FE013196A6E0B4E001900D928A95E1F79C
:103D2000809118048160809318040E94D9046093E4
:103D30001703709318038093190390931A0389E76C
:103D400094E00E94B90960910E03CE0101960E9491
:103D50000713CE0101960E942914CE0101960E94FC
:103D6000BC0D83E794E00E94E6098091180484FF6B
:103D70000EC080FD0CC090911103933009F0EEC18C
:103D80008F7E8093180488ED95E00E94E60980916B
:103D9000180481FF6DC080911203843009F068C05F
:103DA000CE010C960E94710BCE010C960E943A0730
:103DB0006B017C0186E094E00E943A07C61AD70A9C
:103DC000E80AF90A20911601309117014CE3429F4D
:103DD000C001439F900D112420910F0330911003D7
:103DE000820F931F092E000CAA0BBB0BC816D90615
:103DF000EA06FB06ECF180911103813009F0CFC196
:103E000080910E038F5F80930E03CE0101960E9476
:103E1000710B86E0FE013196A6E0B4E001900D92B0
:103E20008A95E1F7809118048F7781608093180458
:103E30000E94D904609317037093180380931903A9
:103E400090931A038CEA95E00E94B90960910E03E1
:103E5000CE0101960E940713CE0101960E942914FB
:103E6000CE0101960E94BC0D82EA95E00E94E6090F
:103E70009CE0C92E94E0D92E26EF222E22E0322E8D
:103E80004BE351E05BA74AA710E0EAA5FBA521910F
:103E9000FBA7EAA730E0F901E359F94F8491F90152
:103EA000E25BF94FE490F901E15DF94FF490FF20F6
:103EB00009F490C181110E94C803EF2DF0E0EE0FCC
:103EC000FF1FE455FB4FA591B491EC91EE2291E0D8
:103ED00080E009F490E0E92EF82EF60181916F015F
:103EE0008E151F0429F0F10180829182A282B38293
:103EF000F10181919191A191B1911F01A5019401CD
:103F0000281B390B4A0B5B0BDA01C901C397A105CA
:103F1000B10508F474C1F60185818E151F0409F4FA
:103F20006EC181E0E114F10409F480E0F6018583BB
:103F3000E114F10409F063C10E94FC09E09112034D
:103F4000E83008F05CC1F0E0E855F04E0C943527FD
:103F5000ED204823AC23A524E92500261526B72506
:103F6000809118048D7F84608160809318040E9482
:103F7000D9046093170370931803809319039093E7
:103F80001A0385E080931203809118048F77809341
:103F9000180488E694E00E94E6090E94770DE5CEB9
:103FA0008091180487FD31C00E94170D8091110384
:103FB0006BE574E0882311F06CE474E08AE194E02E
:103FC0000E94AA0580911103813031F480910E0383
:103FD00090E001960E94DD0D61E080E00E94240DDA
:103FE0006DE374E08AE194E00E94AA0563E080E05A
:103FF0000E94240D6CE274E08AE194E00E94AA051C
:1040000080911804806880931804C418D508E608C5
:10401000F708F7FE03C0C12CD12C760162E080E0E6
:104020000E94240D67E274E08AE194E00E94AA05F0
:10403000C701B6012CE330E040E050E00E941627B3
:1040400089014FEF5FEFC8010E94F01062E274E057
:104050008AE194E00E94AA0580911103813009F061
:1040600084CE60E08EE00E94240D80910E0390E0EB
:1040700001960E94DD0D79CECE0101960E94710B52
:104080008091190480FD1DC00E94170D80911103BD
:104090006EE974E0823011F061E974E08AE194E045
:1040A0000E94AA0563E080E00E94240D60E874E0AD
:1040B0008AE194E00E94AA058091190481608093AE
:1040C000190461E080E00E94240D85E192E00E94E5
:1040D000D30D80911103823091F4409108015091E9
:1040E000090160910A0170910B0180910C0190917E
:1040F0000D010E945E0E8FEF91E00E94D30D609142
:10410000ED027091EE0250E040E080910601909146
:1041100007010E94F01062E080E00E94240D81E01F
:1041200092E00E94D30D80911103823071F4498195
:1041300050E04053584F6A8170E08B8190E00E94BC
:104140005E0E8FEF91E00E94D30D4E8150E06D81A5
:1041500070E08C8190E00E94F01007CE80911703F0
:1041600090911803A0911903B0911A03A50194012D
:10417000281B390B4A0B5B0BDA01C901803A9F40BF
:10418000A105B10508F403CE87EB95E00E94E6098E
:104190000E94EC090E94170D0E943011F8CD809109
:1041A00018048D7F84608160809318040E94D90474
:1041B00060931703709318038093190390931A0365
:1041C00085E0809312038DE895E00E94E6090E9445
:1041D000770D4ECEF12CE12C80CE123009F446C280
:1041E000143009F44DC211110AC08091EB028230E3
:1041F00009F449C0A8F4882311F1813081F1F60156
:1042000031978E2D817080831F5F163009F03DCE6F
:1042100080E090E0892B09F413CB0E94000010CBC2
:10422000843009F4FEC108F4CAC1853041F787E043
:10423000809312031092F5020E94410DE0CF80910D
:10424000110390E0019683709927809311030E94D7
:10425000C113809119048D7F8093190483C09091BC
:1042600011039250923040F482E080931203109236
:10427000EF020E94820FC3CF809312031092EC02D0
:104280000E949E10BCCF809111038250823008F0B2
:104290003DC1CE0184960E94710B80911103823042
:1042A00009F0F3C02091ED023091060140910C011C
:1042B00050910A018091080190910901803DF7E039
:1042C0009F0710F0805D97408E8F5F8F48A339A3C2
:1042D0002AA31BA2CE014E960E943A072B013C0155
:1042E000CE0184960E943A076415750586059705E8
:1042F000E0F10E94170D6EE575E08AE194E00E94FE
:10430000AA0561E080E00E94240D6CE475E08AE17A
:1043100094E00E94AA0562E080E00E94240D6BE315
:1043200075E08AE194E00E94AA0563E080E00E94C3
:10433000240D6BE275E08AE194E00E94AA058DE00D
:1043400095E00E94E60968EB7BE080E090E00E9447
:10435000980410921203809119048D7F80931904A0
:104360000E94170D0E9430114ACF88EF94E00E94FE
:10437000B9096091080170910901CE0101960E946E
:10438000DB1260910A0170910B01CE010C960E9424
:10439000DB1260910C0170910D01CE0148960E94D4
:1043A000DB12BE01685E7F4FCE0142960E9434133D
:1043B00067E771E0CE0142960E948712BE01645FFA
:1043C0007F4F0E949D1267E771E00E948712BE0135
:1043D0006F5F7F4F0E949D120E942914CE0142966A
:1043E0000E94BC0DCE0148960E94BC0DCE010C96D9
:1043F0000E94BC0DCE0101960E94BC0D83EF94E09B
:104400000E94B9096091ED027091EE02CE01019611
:104410000E94DB126091060170910701CE01429665
:104420000E94DB12BE016E5E7F4FCE010C960E9491
:10443000341366E172E0CE010C960E948712BE0131
:104440006F5F7F4F0E949D120E9429148CED94E0B3
:104450000E94B909CE010C960E94BC0DCE01429675
:104460000E94BC0DCE0101960E94BC0D80911804E3
:1044700088608F7E80931804809119048E7F8093CA
:10448000190486E080931203BACE8EED94E00E9468
:10449000B9096091ED027091EE02CE0101960E9481
:1044A000DB126091060170910701CE0142960E94D5
:1044B000DB12BE016E5E7F4FCE010C960E9434135C
:1044C00066E172E0CE010C960E948712BE016F5F1A
:1044D0007F4F0E949D120E9429148CED94E00E944F
:1044E000B909CE010C960E94BC0DCE0142960E94E5
:1044F000BC0DCE0101960E94BC0D1092E6028EA169
:1045000090E09093050180930401B0CFCE01019615
:104510000E94710B86E0FE013196A6E0B4E00190A6
:104520000D928A95E1F78091180482608B7F8F77D6
:104530008093180410920E0384E0809312038AEC97
:1045400094E00E94B90960910F0370911003CE01AD
:1045500001960E94DB126091160170911701CE0145
:1045600042960E94DB12BE016E5E7F4FCE010C961A
:104570000E94341366E172E0CE010C960E9487120D
:10458000BE016F5F7F4F0E949D120E942914CE01D1
:104590000C960E94BC0DCE0142960E94BC0DCE012D
:1045A00001960E94BC0D80911103811105C082EC1F
:1045B00094E00E94E60923CE8AEB94E0FACFCE0184
:1045C00001960E94710B898190E08053984F9093DF
:1045D0000F0180930E018A8190E0909311018093E6
:1045E00010018B8190E090931301809312018C81D4
:1045F00090E090931501809314018D8190E0909349
:10460000F2028093F1028E8190E09093F402809305
:10461000F30283E0809312031092F0020E94A20E34
:10462000EECD8091180485FB992790F921E092271F
:1046300090FB85F9A9F080648093180420932704E7
:1046400068E08AE194E00E94EC080E94D90460933B
:10465000E7027093E8028093E9029093EA02F7CDB3
:104660008F7B809318040E940409EFCF8091EB02A6
:10467000882321F081508093EB02EBCD85E0FBCFC6
:104680008091EB02853011F08F5FF5CF80E0F3CFA2
:104690000E94FC091330D1F138F4113081F012304E
:1046A00089F00E94C11355CE1430C1F11530C9F7FD
:1046B0008091EC02882309F44DC081502CC00E94E7
:1046C000CA1447CE8091EC02811110C0809116016E
:1046D000909117018336910534F401969093170158
:1046E00080931601CDCD90E080E0F8CF80910F034C
:1046F000909110038B33910534F40196909310033D
:1047000080930F03BDCD90E080E0F8CF81E09091E1
:10471000EC02911180E08093EC02B2CD8091EC022A
:1047200081110CC08091160190911701181619067D
:1047300014F40197D3CF83E690E0D0CF80910F039C
:10474000909110031816190614F40197D7CF8BE334
:1047500090E0D4CF81E0DFCF0E94FC09133009F450
:1047600085C018F5113009F4AACF123009F099CF9D
:10477000909111038091EF02923009F05FC0823076
:1047800009F44BC020F58823A9F1813009F071CDDF
:1047900080910A0190910B018C309105DCF5019616
:1047A00090930B0180930A0164CD143009F472C018
:1047B000153009F076CF909111038091EF0292307D
:1047C00009F0BFC0882309F4BAC0815058C08330B3
:1047D000D1F1843009F04DCD8091ED029091EE023F
:1047E0008B3391050CF03FC001969093EE028093BD
:1047F000ED023FCD80910C0190910D018F3191051B
:1048000034F4019690930D0180930C0132CD81E038
:1048100090E0F8CF81E090E0C3CF809108019091C3
:1048200009018E3E27E0920734F401969093090126
:10483000809308011ECD89EE97E0F8CF882319F008
:10484000813051F216CD8091060190910701873198
:10485000910534F40196909307018093060109CDE8
:1048600090E080E0F8CF90E080E0BFCF909111031E
:104870008091EF02923041F4843020F48F5F809376
:10488000EF02F7CC80E0FBCF91E0811190E09093B4
:10489000EF02EFCC909111038091EF029230D9F5A5
:1048A000823061F170F48823D1F0813009F0E1CCDD
:1048B00080910A0190910B0182309105E4F00197FB
:1048C0006FCF833069F1843009F0D3CC8091ED0251
:1048D0009091EE02181619067CF5019786CF80910B
:1048E0000C0190910D018230910514F001978ACF4F
:1048F0008FE190E087CF8CE090E052CF809108016B
:10490000909109018A3E37E0930714F001978ECF0A
:104910008EEE97E08BCF882319F08130B9F2A9CCC5
:1049200080910601909107011816190614F4019759
:1049300092CF87E190E08FCF8BE390E056CF84E079
:104940009ECF811142CF81E09ACF0E94FC091330A3
:1049500009F4A8C040F5113009F4FBCC123079F10C
:104960002091F3023091F102409114015091120113
:104970006091100180910E0190910F01803D77E0D0
:10498000970710F0805D974089836A835B834C832F
:104990003D832E83CE0101960E942E0C8CE695E07D
:1049A0000E94E609D6CC143009F486C01530C1F651
:1049B0008091F002882309F4D8C0815078C080919A
:1049C000F0028230D9F190F4882329F1813009F086
:1049D00025CE80911001909111018C3091055CF5EC
:1049E0000196909311018093100118CE843009F440
:1049F00046C0A8F1853009F011CE8091F302909164
:104A0000F4028B3391050CF04AC001969093F402A6
:104A10008093F30203CE80911201909113018F31A4
:104A2000910534F401969093130180931201F6CD11
:104A300081E090E0F8CF81E090E0D3CF80910E014B
:104A400090910F018E3EE7E09E0734F4019690931B
:104A50000F0180930E01E2CD89EE97E0F8CF8091AF
:104A60001401909115018731910534F401969093CA
:104A7000150180931401D2CD90E080E0F8CF8091B1
:104A8000F1029091F2028B33910534F401969093E8
:104A9000F2028093F102C2CD90E080E0F8CF90E086
:104AA00080E0B4CF8091F002853020F48F5F809356
:104AB000F002B4CD80E0FBCF8091F002823069F14A
:104AC00070F48823D9F0813009F0A8CD80911001CD
:104AD0009091110182309105ECF0019782CF8430E2
:104AE000A9F140F1853009F099CD8091F3029091C0
:104AF000F40218161906B4F5019788CF80911201B7
:104B0000909113018230910514F001978CCF8FE1C1
:104B100090E089CF8CE090E064CF80910E0190917D
:104B20000F018A3EF7E09F0714F0019790CF8EEEB9
:104B300097E08DCF809114019091150118161906F8
:104B400014F4019794CF87E190E091CF8091F10226
:104B50009091F2021816190614F4019798CF8BE37E
:104B600090E095CF8BE390E051CF85E0A0CF0E94FD
:104B7000FC09113009F4EDCB68F0123019F0143053
:104B800009F03DCB81E09091F502911180E0809396
:104B9000F50252CB8091F50261E081110EC08CE0EC
:104BA0000E94140468EE73E080E090E00E94980494
:104BB00060E08CE00E9414043FCB86E00E94140465
:104BC00068EE73E080E090E00E94980460E086E088
:104BD000F1CF113009F013CB80911804887F8F77C3
:104BE0008093180410920E031092120380911904FE
:104BF0008D7F809319048EE795E00E94E609B2CB81
:104C0000113009F0FCCA809118048E7F809318043B
:104C100060E08CE00E941404809118048B7F8F77F1
:104C2000809318041092120314CB113009F0E7CAD4
:104C30000E94EC0997CBFB01DC0102C005900D92AC
:104C400041505040D8F70895BB274A3031F499239A
:104C500022F4BDE2909581959F4F0C943026BB279E
:104C6000FB015527AA27880F991FAA1FA41710F028
:104C7000A41B83955051B9F7A05DAA3308F0A95D34
:104C8000A193009779F7B111B1931192CB010C94D4
:104C90004926DC01FC01672F71917723E1F73297F8
:104CA00004C07C916D9370836291AE17BF07C8F307
:104CB0000895F999FECF92BD81BDF89A992780B5E4
:104CC0000895262FF999FECF1FBA92BD81BD20BD50
:104CD0000FB6F894FA9AF99A0FBE019608950E94B9
:104CE000B126A59F900DB49F900DA49F800D911D9E
:104CF000112408952F923F924F925F926F927F926C
:104D00008F929F92AF92BF92CF92DF92EF92FF92DB
:104D10000F931F93CF93DF93CDB7DEB7CA1BDB0B87
:104D20000FB6F894DEBF0FBECDBF09942A8839882C
:104D300048885F846E847D848C849B84AA84B98433
:104D4000C884DF80EE80FD800C811B81AA81B9813F
:104D5000CE0FD11D0FB6F894DEBF0FBECDBFED0153
:104D60000895A29FB001B39FC001A39F700D811D44
:104D70001124911DB29F700D811D1124911D089564
:104D8000991B79E004C0991F961708F0961B881F9D
:104D90007A95C9F780950895AA1BBB1B51E107C0FE
:104DA000AA1FBB1FA617B70710F0A61BB70B881FBB
:104DB000991F5A95A9F780959095BC01CD0108954A
:104DC00097FB072E16F4009407D077FD09D00E94B8
:104DD000CC2607FC05D03EF4909581959F4F089511
:104DE000709561957F4F0895A1E21A2EAA1BBB1BF7
:104DF000FD010DC0AA1FBB1FEE1FFF1FA217B307A7
:104E0000E407F50720F0A21BB30BE40BF50B661FBC
:104E1000771F881F991F1A9469F760957095809580
:104E200090959B01AC01BD01CF010895052E97FB24
:104E30001EF400940E942D2757FD07D00E94F426EF
:104E400007FC03D04EF40C942D27509540953095D7
:104E500021953F4F4F4F5F4F0895909580957095E6
:104E600061957F4F8F4F9F4F0895EE0FFF1F059065
:104E7000F491E02D09940F931F93CF93DF93823029
:104E8000910510F482E090E0E0912A04F0912B0467
:104E900030E020E0B0E0A0E0309799F42115310532
:104EA00009F44AC0281B390B24303105D8F58A8112
:104EB0009B816115710589F1FB0193838283FE015A
:104EC00011C0408151810281138148175907E0F0D8
:104ED0004817590799F4109761F012960C9312979E
:104EE00013961C933296CF01DF91CF911F910F91B2
:104EF000089500932A0410932B04F4CF2115310553
:104F000051F04217530738F0A901DB019A01BD01A6
:104F1000DF01F801C1CFEF01F9CF90932B0480930B
:104F20002A04CDCFFE01E20FF31F8193919322500B
:104F3000310939832883D7CF20912804309129045F
:104F4000232B41F420912201309123013093290435
:104F50002093280420912001309121012115310551
:104F600041F42DB73EB74091240150912501241BF7
:104F7000350BE0912804F0912904E217F307A0F41F
:104F80002E1B3F0B2817390778F0AC014E5F5F4F9F
:104F90002417350748F04E0F5F1F509329044093A4
:104FA0002804819391939FCFF0E0E0E09CCFCF93D2
:104FB000DF930097E9F0FC01329713821282A091EF
:104FC0002A04B0912B04ED0130E020E01097A1F409
:104FD00020813181820F931F209128043091290470
:104FE0002817390709F061C0F0932904E0932804D9
:104FF000DF91CF910895EA01CE17DF07E8F54A81E6
:105000005B819E0141155105B1F7E901FB83EA83FC
:1050100049915991C40FD51FEC17FD0761F48081A8
:1050200091810296840F951FE9019983888382817B
:1050300093819B838A83F0E0E0E012968D919C91AE
:1050400013970097B9F52D913C911197CD010296D8
:10505000820F931F209128043091290428173907C3
:1050600039F6309751F510922B0410922A04B09320
:105070002904A0932804BCCFD383C28340815181EB
:10508000840F951FC817D90761F44E5F5F4F888161
:105090009981480F591F518340838A819B81938353
:1050A00082832115310509F0B0CFF0932B04E093F2
:1050B0002A049ECFFD01DC01C0CF13821282D7CF1C
:1050C000B0E0A0E0E6E6F8E20C947C268C010097C4
:1050D00051F4CB010E943B278C01C801CDB7DEB74C
:1050E000E0E10C949826FC01E60FF71F9C0122508A
:1050F0003109E217F30708F49DC0D901CD91DC9185
:105100001197C617D70798F0C530D10530F3CE01F7
:1051100004978617970708F3C61BD70B2297C193EE
:10512000D1936D937C93CF010E94D727D6CF5B019B
:10513000AC1ABD0A4C018C0E9D1EA0912A04B091A0
:105140002B04512C412CF12CE12C109731F580913E
:105150002804909129048815990509F05CC0461629
:10516000570608F058C080912001909121010097C6
:1051700041F48DB79EB74091240150912501841BC5
:10518000950BE817F90708F055C0F0932904E09350
:105190002804F90171836083A0CF8D919C911197B0
:1051A00012966C90129713967C901397A815B905D8
:1051B00059F56C0142E0C40ED11CCA14DB0420F185
:1051C000AC014A195B09DA011296159780F06282E8
:1051D000738251834083D9016D937C93E114F10470
:1051E00071F0D7011396FC93EE93129776CF229627
:1051F0008C0F9D1FF90191838083F301EFCFF09312
:105200002B04E0932A0469CF4816590608F42C01B0
:105210007D01D3019ACFCB010E943B277C010097EF
:1052200049F0AE01B8010E941D29C8010E94D7278C
:10523000870153CF10E000E050CFFB01DC0102C03A
:1052400001900D9241505040D8F70895FB01DC01C8
:1052500001900D920020E1F70895FB01DC0141501F
:10526000504048F001900D920020C9F701C01D92F6
:0C52700041505040E0F70895F894FFCF43
:10527C00FFFFFFFFFFFF0C00E90706000F00E90727
:10528C0006000F000C00050000E10000000000000B
:10529C0000002C04800004020B028401B101010106
:1052AC000101010100C180810000001716151413C3
:1052BC001200401454000000008006FB05A1069665
:1052CC0006E706A506C3060000000087095A09B6C2
:1052DC00093009530940093109000000009D0DCE29
:1052EC0005B6097E0730002F003E003C0052656772
:1052FC006C657220416C61726D65005265676C65FE
:10530C00722054656D707300537461727400537421
:10531C0061727420416C61726D65005374617274BA
:10532C00204461696C79003E20004F4E004F464688
:10533C00004D6F64653A20005265676C65722048B9
:10534C006575726500526574726F3A20005465730E
:10535C00742052656C6169730020280029002A00B2
:10536C002020202020202020202020202020202031
:10537C0000543A0053696D706C650052657065613C
:08538C0074000D0A00433A0011
:00000001FF
