:100000000C9414030C943C030C943C030C943C039C
:100010000C943C030C943C030C943C030C943C0364
:100020000C943C030C943C030C94BE150C942D16BC
:100030000C943C030C943C030C943C030C943C0344
:100040000C943C030C943C030C943C030C943C0334
:100050000C943C030C943C030C943C030C947415DA
:100060000C943C030C943C030C943C030C943C0314
:100070000C943C030C943C030C943C030C943C0304
:100080000C943C030C943C030C943C030C943C03F4
:100090000C945F180C943C030C943C030C943C03AC
:1000A0000C943C030C943C030C943C030A0052C394
:1000B000A974726FC3A9636C61697261676520720C
:1000C000C3A96163746976C3A9004461696C79004E
:1000D000416C61726D005265706561740053696DA9
:1000E000706C6500204D6F64653A200054696D6541
:1000F000723A200053657474696E67732073617679
:10010000656400454E5445523D4F4B205245543D89
:10011000416E6E005365636F6E6465733A20004DE7
:10012000696E757465733A20005245474C414745E6
:100130002054454D505300454E5445523D4F4B20A1
:100140005245543D416E6E00546F7573206C65735B
:10015000206A6F7572733A0048657572653A2000BF
:100160005245474C414745204441494C590052456E
:10017000474C41474520414C41524D4500454E5466
:1001800045523D4F4B205245543D416E6E00524505
:10019000474C414745204845555245005245545526
:1001A000524E203D205265746F7572004C454420BC
:1001B000616C6C756D6565203120736563005469F1
:1001C0006D6572207465726D696E65002A2A2A2039
:1001D00046494E49202A2A2A00416C61726D6520E9
:1001E000617272C3AA74C3A96500080B00020202FF
:1001F00000000904000001020200000524001001B3
:100200000524010101042402060524060001070556
:10021000810310004009040100020A0000000705E4
:1002200002024000000705830240000004030904A5
:1002300012010002EF020140412336800001010259
:10024000030141726475696E6F204C4C430041722A
:100250006475696E6F204C656F6E6172646F00002B
:10026000000000240027002A002D003000525443D3
:1002700020696E697469616C6973C3A920210032B9
:10028000313A34333A3233004F6374203132203202
:100290003032350052544320706572647565202DEC
:1002A000206D69736520C3A0206C27686575726531
:1002B0002021004552524555522052544300457268
:1002C00072657572203A2044533332333120696E9F
:1002D00074726F757661626C652021005665722EAE
:1002E000302E312070617220436865776279005347
:1002F0004D4152542054494D4552003D3D3D2053FF
:100300006D6172742054696D65722076302E3120D3
:100310003D3D3D003D3D3D2046494E203D3D3D009B
:100320003D3D3D20425546464552203D3D3D005213
:10033000C3A974726FC3A9636C6169726167652038
:10034000C3A97465696E742028333073290052453F
:100350005455524E203D2041727265746572004CB6
:10036000454420616C6C756D656520312073656353
:10037000002A2A2A20414C41524D452021202A2A78
:100380002A002A2A2A20414C41524D452044454307
:100390004C454E434845452021202A2A2A004E6FCD
:1003A0007576656175206A6F7572202D20616C61AC
:1003B000726D65206461696C792072C3A961726D88
:1003C000C3A96500202020200020202020005245C5
:1003D0005455524E203D204172726574657200542E
:1003E000656D70732072657374616E743A00544960
:1003F0004D45522052455045415420230054494D0B
:1004000045522053494D504C450054494D455220CA
:1004100046494E49002046494E49004359434C4500
:10042000200052455455524E203D20417272657451
:10043000657200414C41524D45204441494C5900A0
:10044000414C41524D45204143544956450000001E
:1004500000002300260029002C002F002052657088
:10046000656174002053696D706C650054696D6539
:10047000722064C3A96D617272C3A93A20000A0098
:10048000416C61726D652071756F74696469656E28
:100490006E653A200020C3A02000416C61726D653A
:1004A0002070726F6772616D6DC3A9653A20004557
:1004B00052524555523A20416C61726D652064611B
:1004C0006E73206C652070617373C3A9005245542C
:1004D00055524E203D205265746F7572005265670B
:1004E0006C65722061206E6F757665617500446180
:1004F00074652F686575726520706173736565003A
:1005000045525245555220414C41524D450052549E
:1005100043206D697320C3A0206A6F75722021008B
:1005200054696D657220617272C3AA74C3A9002AEE
:100530002A2A2054494D45522046494E492021201F
:100540002A2A2A002046494E49202A2A2A002A2AF5
:100550002A204359434C452000416C61726D65204F
:10056000617272C3AA74C3A965206175746F6D61ED
:1005700074697175656D656E7400416C61726D654D
:10058000206461696C79202D207072C3AA74652083
:10059000706F75722064656D61696E005369676E76
:1005A000616C204C4544207465726D696EC3A9006E
:1005B00000000000250028002B002E00310004045C
:1005C00004040403040502020202040302020202FC
:1005D00006060606060604040202020404040802D3
:1005E00001104080401020408040800802040180BB
:1005F0004020100201108010204040200000000226
:1006000000090F0000030401000C000000000000BE
:1006100000000000000000000000001F1C1F1E1F43
:100620001E1F1F1E1F1E7E1911241FBECFEFDAE0F2
:10063000DEBFCDBF24E0ACE0B2E001C01D92AF311F
:10064000B207E1F712E0A0E0B1E0ECE0F1E502C0B2
:1006500005900D92AC30B107D9F713E0C4E1D3E0B7
:1006600004C02197FE010E947D26C331D107C9F73E
:100670000E94F6190C9484280C94000008950895A3
:10068000FC0180912403882311F13FB7F89482E0A4
:100690008093E9002091F200822F90E0181619064D
:1006A00014F481E090E0882339F0289844E64093E0
:1006B00023034091F1004083222339F02091F2007E
:1006C000211103C02BE62093E8003FBF08958FEF70
:1006D0009FEF08952FB7F89483E08093E9009091FD
:1006E000E800892F807295FF04C09091F20080E4A9
:1006F000891B2FBF089580911B0381110DC082E0DB
:100700008093170384E08093180310921A031092C9
:10071000190381E080931B0387E193E008958150E2
:100720008F3008F047C0E82FF0E0E756FC4F0C94FC
:100730007D26B603BA03A803AE03B203DA03DA03D5
:10074000DA03BD03C303C703CB03D103DA03D50325
:10075000809180008F778093800008958091800041
:100760008F7DF9CF80918000877FF5CF84B58F771B
:1007700084BD089584B58F7DFBCF809190008F77E5
:10078000809390000895809190008F7DF9CF8091A3
:100790009000877FF5CF8091C0008F778093C00055
:1007A00008958091C0008F7DF9CF8091C200877F2E
:1007B0008093C20008951F93CF93DF93282F30E0DA
:1007C000F901E450FA4F8491F901E352FA4FD491C0
:1007D000F901E254FA4FC491CC23A9F0162F8111EC
:1007E0000E948F03EC2FF0E0EE0FFF1FE055FA4F51
:1007F000A591B4918FB7F894EC91111108C0D095E0
:10080000DE23DC938FBFDF91CF911F910895DE2B04
:10081000F8CF3FB7F8948091130390911403A091FF
:100820001503B091160326B5A89B05C02F3F19F0FC
:100830000196A11DB11D3FBFBA2FA92F982F882760
:10084000BC01CD01620F711D811D911D42E0660F3B
:10085000771F881F991F4A95D1F708958F929F920D
:10086000AF92BF92CF92DF92EF92FF924B015C0169
:100870000E9409046B017C010E9409046C197D0926
:100880008E099F09683E734081059105A8F321E018
:10089000821A9108A108B10888EEC80E83E0D81E1C
:1008A000E11CF11C81149104A104B10429F7FF900B
:1008B000EF90DF90CF90BF90AF909F908F90089572
:1008C000CF93C0911F016AE070E080E090E00E9449
:1008D0002E0481E0C11101C080E0CF9108952FB7AF
:1008E000F89460910F03709110038091110390911F
:1008F00012032FBF0895409152025091530220914C
:1009000050023091510242175307B4F49091E8001D
:100910009570E1F39091E80092FD19C08093F10089
:10092000809152029091530201968F739927892BDF
:1009300019F48EEF8093E800809152029091530257
:100940000196909353028093520281E0089580E0D3
:100950000895EF92FF920F931F93CF93DF93F82E9A
:10096000192FE62E042F81E0860F880F0E947B044A
:1009700083E00E947B04CF2DD12FEC0EFD2EF11CC5
:10098000CE15DF05B9F007FF13C0FE0184910E9468
:100990007B04182F80E00E947B0481232196811123
:1009A000EFCFDF91CF911F910F91FF90EF900895BE
:1009B0008881EDCF81E0F5CFDF92EF92FF920F9328
:1009C0001F93CF93DF93D82E8A01EB017B01E40EB6
:1009D000F51ECE15DF0559F0D7FE12C0FE01849139
:1009E0000E947B0421968111F4CF0FEF1FEFC80105
:1009F000DF91CF911F910F91FF90EF90DF900895BD
:100A00008881EECF0F931F93CF93DF931F92CDB7C3
:100A1000DEB782E0898342E450E06AEE71E080E86C
:100A20000E94DC040E947B03DC0112960D911C9154
:100A30000115110589F0D801ED91FC910280F38137
:100A4000E02DBE016F5F7F4FC801099597FD04C07F
:100A5000F80100851185ECCF89810F90DF91CF914E
:100A60001F910F910895615030F02091F100FC0129
:100A700020830196F8CF289884E680932303089575
:100A8000EF92FF920F931F93CF93DF938C017B0123
:100A9000D0E0C0E0F701EC0FFD1F6491662361F028
:100AA000D801ED91FC910190F081E02DC8010995EC
:100AB000892B11F02196EECFCE01DF91CF911F91BE
:100AC0000F91FF90EF900895AF92BF92CF92DF9277
:100AD000EF92FF920F931F93CF93DF936C017B01F3
:100AE0008B01040F151FEB015E01AE18BF08C01784
:100AF000D10759F06991D601ED91FC910190F081F7
:100B0000E02DC6010995892B79F7C501DF91CF91B9
:100B10001F910F91FF90EF90DF90CF90BF90AF901B
:100B200008958F929F92AF92BF92CF92DF92EF92F1
:100B3000FF920F931F93CF93DF936C017B018A0188
:100B400080911F01882309F45CC0809124038823CD
:100B500009F457C08091560280FF05C08091E000E3
:100B600082608093E000E801B12C8AEFA82E93E028
:100B7000892E2AE3922E209711F4BB20D9F10E94EE
:100B80006A0381110AC0AA94AA20D9F161E070E039
:100B900080E090E00E942E04EECF8C171D0611F02D
:100BA0000CF08C2F9FB7F8948092E9002091E80018
:100BB00025FD02C09FBFDFCF282F30E0C21BD30B23
:100BC000F701815020F041914093F100FACFE20EFD
:100BD000F31EBB2021F09092E800B12CEBCF809166
:100BE000E80085FDE7CF9092E800BB24B3942097FE
:100BF00009F3F3CF5D9884E6809355021016110631
:100C00003CF081E090E0F6019383828310E000E005
:100C1000C801DF91CF911F910F91FF90EF90DF906E
:100C2000CF90BF90AF909F908F900895CF93DF9318
:100C30001F92CDB7DEB76983DC01ED91FC91028094
:100C4000F381E02D41E050E0BE016F5F7F4F0995D9
:100C50000F90DF91CF91089583E08093E900809118
:100C6000F200882319F08AE38093E80008950E9437
:100C70006A0390E00895CF93DF931F92CDB7DEB75C
:100C8000FC018485958597FD08C02FEF3FEF3587E0
:100C900024870F90DF91CF910895CE0101960E9495
:100CA0004003019719F4898190E0F3CF8FEF9FEF14
:100CB000F0CF0F931F93CF93DF931F92CDB7DEB783
:100CC0008C01FC018485958597FF0BC0CE010196B0
:100CD0000E944003019771F4898190E0F8019587A3
:100CE0008487F801848595850F90DF91CF911F91BE
:100CF0000F9108958FEF9FEFF1CFFC0184859585CB
:100D000097FD0BC09FB7F89482E08093E900809133
:100D1000F2009FBF90E0019608959FB7F89482E09B
:100D20008093E9008091F2009FBF90E00895FC015C
:100D3000908190539A3008F090E0818180532AE0AE
:100D4000929F800D11240895DC0150E0EBE1F6E064
:100D500081E0861730F49491490F511D8F5F3196D1
:100D6000F8CF633038F0CD0183709927892B11F4C7
:100D70004F5F5F4F9D012D5F3F4F3695279536950D
:100D800027956DE671E0A69FC001A79F900DB69FC5
:100D9000900D11240197820F931F840F951F0895C2
:100DA000EF92FF920F931F93CF93DF93EC01888113
:100DB0004A81698190E00E94A4069C01A8E1B0E00C
:100DC0000E94F9252B817B018C01E20EF11C011D93
:100DD000111DA8019701ACE3B0E00E94B7252C815A
:100DE0007B018C01E20EF11C011D111DA801970170
:100DF0000E94B725AB01BC019D81892F90E0B0E036
:100E0000A0E080589C4BA249B74C8A019B01080F77
:100E1000191F2A1F3B1FC901B801DF91CF911F91F4
:100E20000F91FF90EF900895089520912D02260FC5
:100E30003327331F21323105ECF420917303FC0179
:100E400090E080E0243069F082E00895A0912D02C6
:100E50002191AC01435F5D4FA40FB52FB11D2C93C1
:100E60000196861798F380912D02680F60932D02EA
:100E700080E0089581E008951092730381E08093EB
:100E8000720310924D0361E082E00E94DB0361E097
:100E900083E00E94DB03E9EBF0E080818E7F8083BA
:100EA00080818D7F808388E48093B80085E480937F
:100EB000BC00089510922C0310922B0310927A0319
:100EC00010929C030E943C078EE393E090932803CA
:100ED000809327038FE393E0909326038093250369
:100EE0000895CF93DF9391E090930C028823B9F09B
:100EF000C091B800D091BA008091BC008A7B8093E9
:100F0000BC0060E082E00E94DB0360E083E00E94BE
:100F1000DB030E943C07D093BA00C093B800DF9176
:100F2000CF9108958F929F92AF92BF92CF92DF920E
:100F3000EF92FF920F931F93CF93DF93D0919C0377
:100F4000D13208F0D7C0182FC0919B030E9409042A
:100F50006B017C018091730381116BC082E08093EF
:100F60007303109372038FEF8093710310927003D9
:100F7000D0936F03ABE7B3E0EFE4F3E080E0D81386
:100F800091C010924E0380914E03CC0FC82BC0939A
:100F90004E0380914D03813009F088C010924D03BB
:100FA0000E9409046B017C0180914E038093BB0079
:100FB0008091750390917603A0917703B0917803A7
:100FC000892B8A2B8B2BA1F00E94090400917503B9
:100FD0001091760320917703309178036C197D0985
:100FE0008E099F09061717072807390708F442C01A
:100FF0008091BC0083FDD8CF85EC8093BC000E941B
:1010000009046B017C0180917303823009F450C0A4
:10101000809171038F3F09F46FC08091710380321A
:1010200009F46CC080917103803309F469C084E0D5
:1010300026C08091750390917603A0917703B091BB
:101040007803892B8A2B8B2B09F484CF0E94090407
:101050008090750390907603A0907703B09078030A
:101060006C197D098E099F0986169706A806B90690
:1010700008F070CF809174030E94710785E0109290
:101080007A0310929C0310927903DF91CF911F9104
:101090000F91FF90EF90DF90CF90BF90AF909F9017
:1010A0008F9008959D9191938F5F69CF85EEA5CF25
:1010B0008091750390917603A0917703B0917803A6
:1010C000892B8A2B8B2B09F49ECF0E940904009157
:1010D00075031091760320917703309178036C1992
:1010E0007D098E099F09061717072807390708F099
:1010F0008ACFC0CF81E0C3CF80E0C1CF82E0BFCF35
:1011000083E0BDCFFC01A481B581868191E09093FD
:10111000790380939B0310927A0310929C03ED91C4
:10112000FC9111970190F081E02DCD01099581E0AE
:101130000C94920710921A0460E08DE094E00C94F5
:101140008208CF93DF93EC018B818823A1F0888103
:1011500091E09093790380939B0310927A0310920D
:101160009C0381E00E94920791E0811190E0892F19
:10117000DF91CF9108950E945A0781E08B83CE01C1
:101180000E94A108982F8111E2CFF1CF0895E0913C
:101190002C0380912B03E81730F4F0E0E35DFC4F63
:1011A000808190E008958FEF9FEF089590912C0338
:1011B00080912B032FEF3FEF981748F4E92FF0E0D1
:1011C000E35DFC4F208130E09F5F90932C03C901C9
:1011D000089580912B0390912C03891B990B0895FE
:1011E000CF92DF92EF92FF920F931F93CF93DF93F3
:1011F0007C01CB018A0120917903222389F0EB0144
:101200006B01C40ED51ECC15DD0569F06991D701BF
:10121000ED91FC910190F081E02DC7010995F3CF8C
:10122000642F0E941507C801DF91CF911F910F9184
:10123000FF90EF90DF90CF900895CF93DF931F92B0
:10124000CDB7DEB76983209179032223F9F020918D
:101250009C03203258F021E030E0FC0133832283EC
:1012600090E080E00F90DF91CF91089580917A0314
:10127000E82FF0E0E558FC4F998190838F5F8093D1
:101280007A0380939C0381E090E0ECCF61E0CE0193
:1012900001960E941507F7CF90E080E00895CF9364
:1012A000DF93D82FC92F0E946004811116C0A0912E
:1012B000D9029091D802ED2FFC2F24912223A9F07E
:1012C00081E08A0FB0E0A85ABD4F2C9387FF02C07F
:1012D00091E080E03196A82FF0CF6D2F7C2F8DE923
:1012E00093E0DF91CF910C944005A093D9029093A5
:1012F000D802DF91CF9108950E944F098CEA90E0C7
:101300000C944F09EBE0F4E08081877E8E7F808330
:101310008181109205038E7F8D7F818389ED91E01D
:101320000C947C090E946F046093DB027093DC02D2
:101330008093DD029093DE0280910B0485FF11C043
:1013400086FD0FC0806480930B0481E080931A04B3
:1013500068E08DE094E00E9482088EEA90E00C94B0
:101360007C0908952F923F924F925F926F927F92E5
:101370008F929F92AF92BF92CF92DF92EF92FF92A5
:101380000F931F93CF93DF935C011B016A01F12C34
:10139000E12CD50114968D919C9186010E191F099F
:1013A0008017910708F48C01F501D0810E9409048F
:1013B0002B013C0180917303811172C0C02F013257
:1013C00008F0C0E2F1E0F093730321E0C601801B56
:1013D000910BE816F90608F420E0209372038FEFD2
:1013E00080937103109270038C0F80936F03A1E0C0
:1013F000A0934E0380914E03DD0FD82BD0934E0364
:1014000080914D03813009F090C010924D030E94ED
:1014100009042B013C0180914E038093BB00809115
:10142000750390917603A0917703B0917803892B8F
:101430008A2B8B2BA1F00E94090420917503309117
:1014400076034091770350917803641975098609F2
:101450009709261737074807590708F442C08091B3
:10146000BC0083FDD8CFB5ECB093BC000E9409044A
:101470002B013C0180917303813009F45AC08091A3
:1014800070038C1710F4C0917003AFE4B3E0EDE289
:10149000F3E080E08C1751F19D9191938F5FFACF2B
:1014A0008091750390917603A0917703B0917803B2
:1014B000892B8A2B8B2B09F47DCF0E940904209164
:1014C0007503309176034091770350917803641946
:1014D000750986099709261737074807590708F03D
:1014E00069CF809174030E947107C0E010922C03B1
:1014F000C0932B03C017110609F057C041018E0C91
:101500009F1CE401CE01881999098017910798F56D
:10151000D50111968D919C91DC01ED91FC91028495
:10152000F385E02D09958993EDCFE5EEE093BC00BE
:101530009DCF8091750390917603A0917703B09130
:101540007803892B8A2B8B2B09F494CF0E940904F2
:101550002091750330917603409177035091780381
:101560006419750986099709261737074807590727
:1015700008F080CFB6CFE00EF11EEC14FD0408F4A5
:1015800008CF81E0DF91CF911F910F91FF90EF90F5
:10159000DF90CF90BF90AF909F908F907F906F9093
:1015A0005F904F903F902F90089580E0EBCF1F9376
:1015B000CF93DF93DC011496ED91FC91E417F507CE
:1015C00010F490E01FC0122FEA01FC01818192818A
:1015D000208131E03093790320939B0310927A03AA
:1015E00010929C03DC01ED91FC910280F381E02DCF
:1015F0000995C817D90729F7812F0E94920791E012
:101600008111DFCF892FDF91CF911F910895EF9244
:10161000FF920F931F93CF93DF9300D000D000D0A1
:101620001F92CDB7DEB78C011982E0902903F090AC
:101630002A0320E041E050E0BE016F5F7F4FC70109
:101640000E94D70A882341F047E050E0BE016F5F57
:101650007F4FC7010E94B209E981EF77FA81FB80D1
:101660005D814E814F778F81282F30E094E0359552
:1016700027959A95E1F7922F990F990F291B220F21
:10168000280FD8012C93842F90E024E0959587951E
:101690002A95E1F7982F990F990F891B880F840FCE
:1016A00011968C931197652F70E034E075956795CE
:1016B0003A95E1F7862F880F880F681B660F650F34
:1016C00012966C9312974F2D50E064E05595479514
:1016D0006A95E1F7842F880F880F481B440F4F0D40
:1016E00013964C9313972F2F30E074E03595279580
:1016F0007A95E1F7822F880F880F281B220F2F0F72
:1017000014962C9314978E2F90E0F4E0959587957E
:10171000FA95E1F7982F990F990F891B880F8E0F73
:1017200015968C93C80127960FB6F894DEBF0FBEAE
:10173000CDBFDF91CF911F910F91FF90EF90089552
:10174000CF93DF9300D0CDB7DEB78FE08A8321E05F
:1017500041E050E0BE016E5F7F4F80912903909180
:101760002A030E94D70A41E050E0BE016F5F7F4F1D
:101770008091290390912A030E94B20989810F90D8
:101780000F90DF91CF910895EF92FF920F931F93E7
:10179000CF93DF93CDB7DEB72A970FB6F894DEBFAD
:1017A0000FBECDBF8C01CE0101967C0188E0F70110
:1017B00011928A95E9F7F80135812AE0832F622F8B
:1017C0000E940826982F880F890F880F830F8A831D
:1017D0003481832F0E940826982F880F890F880F45
:1017E000830F8B833381832F0E940826982F880FC5
:1017F000890F880F830F8C8380814281618190E003
:101800000E94A406069667E070E00E9414268111EB
:1018100001C087E08D83F80132812AE0832F622F97
:101820000E940826982F880F890F880F830F8E83B8
:101830003181832F0E940826982F880F890F880FE7
:10184000830F8F833081832F0E940826982F880F63
:10185000890F880F830F888721E048E050E0B701A7
:101860008091290390912A030E94D70A0E94A00B1D
:101870009FE099878F778A8721E042E050E0BE01A0
:10188000675F7F4F8091290390912A030E94D70AB6
:101890002A960FB6F894DEBF0FBECDBFDF91CF9171
:1018A0001F910F91FF90EF9008951F93CF93DF93B7
:1018B000EC01162F107F8B8584606C85660F682B7A
:1018C0008D8528E0829FC0011124682B612BCE01F9
:1018D0000E9482086C85660F8D8528E0829FC0017A
:1018E0001124682B8B85682B612BCE01DF91CF9162
:1018F0001F910C9482080F931F93CF93DF93EC01F9
:10190000062F0E94550C8FE890E00197F1F720E137
:10191000029F800111246B85602B862F84606C856B
:10192000660F682B8D8528E0829FC0011124682BEB
:10193000CE010E9482086B85062B6C85660F602B9A
:101940008D8528E0829FC0011124682BCE01DF9194
:10195000CF911F910F910C948208EDE0F4E0138673
:10196000148661E0CF010E947B0C8BEF98E1019718
:10197000F1F708951092180410921904E0911504DB
:101980006E1708F4E62FF0E0EF5BFE4F6091140451
:10199000861708F4682F8081680F60688DE094E0F6
:1019A0000E947B0C8FE890E00197F1F708950E9468
:1019B000AD0C6CEC71E08DE094E00E94400561E0BC
:1019C00080E00E94BA0C6EEB71E08DE094E00E9422
:1019D000400562E080E00E94BA0C6CEA71E08DE0A4
:1019E00094E00E94400563E080E00E94BA0C6CE93C
:1019F00071E08DE094E00C94400521E0FC01238728
:101A000014860E947B0C8FE990E00197F1F781E04A
:101A100090E00895CF93DF93EC018881998100973E
:101A200011F00E941F27198218821D821C821B82BE
:101A30001A82DF91CF910895FC01808191810097F6
:101A400011F00C941F270895FB0101900020E9F785
:101A50003197AF01461B570BDC01ED91FC910280E1
:101A6000F381E02D0994009729F0BC018DE094E00A
:101A70000C94240D90E080E008958F929F92AF9295
:101A8000BF92CF92DF92EF92FF920F931F93CF936B
:101A9000DF93CDB7DEB7A1970FB6F894DEBF0FBEC8
:101AA000CDBF6C01990FEE08FF08F7FE43C06DE251
:101AB0008DE094E00E94FD0C8C0122273327A901C0
:101AC0002C193D094E095F0919A2CE0181967C01AE
:101AD0009AE0892E912CA12CB12CCA01B901A50143
:101AE00094010E943C26605DF70162937F012115FD
:101AF00031054105510589F790E080E0309729F0E4
:101B0000BF018DE094E00E94240D800F911FA196EB
:101B10000FB6F894DEBF0FBECDBFDF91CF911F91FE
:101B20000F91FF90EF90DF90CF90BF90AF909F907C
:101B30008F900895A701960119A28E010F5D1F4F86
:101B40008AE0C82ED12CE12CF12CCA01B901A701E1
:101B500096010E943C26605DF80162938F01211579
:101B600031054105510589F790E080E0309779F221
:101B7000BF018DE094E00E94240DC9CFEF92FF9247
:101B80000F931F93CF93DF937C018B01EA018AE0CF
:101B9000E816F10424F485E791E00E94330DC701B3
:101BA0000E943D0D87E791E00E94330D0A30110538
:101BB00024F485E791E00E94330DC8010E943D0D99
:101BC000D7FD19C087E791E00E94330DCE0164E68E
:101BD00070E00E942826EC010A9724F485E791E042
:101BE0000E94330DCE01DF91CF911F910F91FF9095
:101BF000EF900C943D0DDF91CF911F910F91FF90CD
:101C0000EF9008950E94AD0C6EE871E08DE094E0D5
:101C10000E94400561E080E00E94BA0C8091E402DD
:101C2000811104C089E791E00E94330D8091120177
:101C3000909113010A9724F485E791E00E94330DF7
:101C400080911201909113010E943D0D8091E40258
:101C5000811104C08BE791E00E94330D87E791E08A
:101C60000E94330D8091E402813021F489E791E0F4
:101C70000E94330D80911001909111010A9724F474
:101C800085E791E00E94330D809110019091110140
:101C90000E943D0D8091E402813021F48BE791E0B8
:101CA0000E94330D87E791E00E94330D8091E4029A
:101CB000823021F489E791E00E94330D80910E017A
:101CC00090910F010E943D0D8091E402823021F439
:101CD0008BE791E00E94330D62E080E00E94BA0C35
:101CE0008091E402833021F489E791E00E94330D72
:101CF00080911401909115010A9724F485E791E0F1
:101D00000E94330D80911401909115010E943D0DA8
:101D10008091E402833021F48BE791E00E94330D3F
:101D20008AE092E00E94330D8091E402843021F435
:101D300089E791E00E94330D8091E5029091E602DF
:101D40000A9724F485E791E00E94330D8091E50223
:101D50009091E6020E943D0D8091E402843021F4CE
:101D60008BE791E00E94330D8AE092E00E94330DF0
:101D70008091E402853021F489E791E00E94330DDF
:101D80008091E7029091E8020A9724F485E791E0B8
:101D90000E94330D8091E7029091E8020E943D0D70
:101DA0008091E402853021F48BE791E00E94330DAD
:101DB00063E080E00E94BA0C6DE771E08DE094E092
:101DC0000C9440050E94AD0C809104036EE671E016
:101DD000823011F060E671E08DE094E00E944005F1
:101DE0008091040361E0823009F0B9C080E00E9474
:101DF000BA0C8091E302811104C089E791E00E944E
:101E0000330D80910C0190910D010A9724F485E720
:101E100091E00E94330D80910C0190910D010E9480
:101E20003D0D8091E302811104C08BE791E00E9497
:101E3000330D87E791E00E94330D8091E3028130FA
:101E400021F489E791E00E94330D80910A0190917D
:101E50000B010A9724F485E791E00E94330D8091ED
:101E60000A0190910B010E943D0D8091E3028130A7
:101E700021F48BE791E00E94330D87E791E00E9407
:101E8000330D8091E302823021F489E791E00E94D2
:101E9000330D80910801909109010E943D0D8091C0
:101EA000E302823021F48BE791E00E94330D62E07F
:101EB00080E00E94BA0C68E571E08DE094E00E9439
:101EC00040058091E302833021F489E791E00E948C
:101ED000330D80910601909107010A9724F485E75C
:101EE00091E00E94330D80910601909107010E94BC
:101EF0003D0D8091E302833021F48BE791E00E9455
:101F0000330D8AE092E00E94330D8091E302843029
:101F100021F489E791E00E94330D8091E1029091D4
:101F2000E2020A9724F485E791E00E94330D809144
:101F3000E1029091E2020E943D0D8091E302843023
:101F400021F48BE791E00E94330D63E080E00E9472
:101F5000BA0C67E371E08DE094E00C94400580E0FA
:101F60000E94BA0C68E471E08DE094E00E944005A4
:101F700062E080E00E94BA0C8091E302811104C00B
:101F800089E791E00E94330D80910601909107014D
:101F90000A9724F485E791E00E94330D80910601B1
:101FA000909107010E943D0D8091E302811104C0D0
:101FB0008BE791E00E94330D8AE092E00E94330D9E
:101FC0008091E302813021F489E791E00E94330D92
:101FD0008091E1029091E2020A9724F485E791E072
:101FE0000E94330D8091E1029091E2020E943D0D2A
:101FF0008091E302813009F0A8CFA3CF0E94AD0CFD
:1020000069E271E08DE094E00E94400561E080E0CB
:102010000E94BA0C6FE171E08DE094E00E944005EF
:102020008091E002811104C089E791E00E94330DA4
:1020300080911601909117010E943D0D8091E00260
:10204000811104C08BE791E00E94330D62E080E0D3
:102050000E94BA0C64E171E08DE094E00E944005BA
:102060008091E002813021F489E791E00E94330DF4
:1020700080910203909103030E943D0D8091E00244
:10208000813021F48BE791E00E94330D63E080E022
:102090000E94BA0C63E071E08DE094E00C9440057E
:1020A000EF92FF920F931F93CF93DF937C018B01ED
:1020B000EA018AE0E816F10424F485E791E00E9441
:1020C000330DC7010E943D0D8AE092E00E94330D5E
:1020D0000A30110524F485E791E00E94330DC80110
:1020E0000E943D0DCF3FDC07A1F08AE092E00E9404
:1020F000330DCA30D10524F485E791E00E94330DF9
:10210000CE01DF91CF911F910F91FF90EF900C9432
:102110003D0DDF91CF911F910F91FF90EF900895AA
:10212000EF92FF920F931F93CF93DF93CDB7DEB75C
:1021300068970FB6F894DEBF0FBECDBFCE014396B1
:102140000E94070B80910C0481FD6DC00E94AD0CB4
:1021500081EC91E09A83898388EC91E098878F8362
:1021600085ED91E09A878987809104039EEF980F0F
:102170002BE831E0923010F42DE731E03C832B83E3
:10218000923008F083C0823009F483C08BEA91E07A
:102190009E838D831091DF02112321F0143008F00B
:1021A00013E01150E12EF12CEE0CFF1C81E090E0C9
:1021B0008C0F9D1FE80EF91E00E00F5F602F80E07E
:1021C0000E94BA0C8091DF02811709F465C082EF8A
:1021D00091E00E94330DF701819191917F010E945E
:1021E000330D11115CC088E0E6E2F1E0DE011B96E0
:1021F00001900D928A95E1F7E0910403F0E0EE0F73
:10220000FF1F81E090E08C0F9D1FE80FF91F828572
:1022100093850E94330D1F5F033079F680910C0483
:10222000826080930C0460E080E00E94BA0C84EE2F
:1022300091E00E94330D60E080E00E94BA0C85EFCF
:1022400091E00E94330D4B8950E04053584F6C8908
:1022500070E08D8990E00E94BE0D83EF91E00E94B6
:10226000330D488D50E06F8970E08E8990E00E94B8
:10227000501068960FB6F894DEBF0FBECDBFDF9149
:10228000CF911F910F91FF90EF90089588E991E011
:102290007FCF8EE991E07CCF87EB91E09ACF12302F
:1022A00039F5809104038250823008F4B4CF8DED6B
:1022B00091E00E94330D80911601909117010E94C8
:1022C0003D0D8AE092E00E94330D809102039091CF
:1022D00003030A9724F485E791E00E94330D80916F
:1022E0000203909103030E943D0D80EE91E091CF97
:1022F000143009F090CF80910B0485FD0DC08DEB5B
:1023000091E00E94330D80910B0485FF84CF86FD00
:1023100082CF82EE91E07DCF8AEB91E0F2CF0F93F6
:102320001F93CF93DF93EC0188819981009759F037
:102330002A813B812617370730F081E0DF91CF916A
:102340001F910F9108958B016F5F7F4F0E94A82707
:10235000009759F0998388831B830A832C813D81E0
:10236000232B59F7FC011082E8CF80E0E7CFEF92F2
:10237000FF920F931F93CF93DF936115710541F483
:1023800080E0DF91CF911F910F91FF90EF90089522
:1023900041155105B1F07B01EC010C811D81040F49
:1023A000151FB8010E948F11882351F328813981AC
:1023B0008C819D81B701820F931F0E946E281D831F
:1023C0000C8381E0DECFCF93DF93EC01FB01019022
:1023D0000020E9F73197AF01461B570B0E94B71158
:1023E000811103C0CE010E940A0DCE01DF91CF9171
:1023F0000895CF93DF93EC01FB0144815581608107
:1024000071810E94B711811103C0CE010E940A0D93
:10241000CE01DF91CF910895EF92FF920F931F931A
:10242000CF93DF93EC017B018A01BA010E948F11E7
:1024300081110BC0CE010E940A0DCE01DF91CF9118
:102440001F910F91FF90EF9008951D830C83B701AA
:10245000888199810E946E28F0CFFB0101900020B5
:10246000E9F73197AF01461B570B0C940C120F93F1
:102470001F93CF93DF93CDB7DEB762970FB6F89473
:10248000DEBF0FBECDBF8C01CB01F80111821082DF
:1024900013821282158214824AE0BE016F5F7F4F61
:1024A0000E946C25BE016F5F7F4FC8010E942D12F4
:1024B00062960FB6F894DEBF0FBECDBFDF91CF910D
:1024C0001F910F9108950F931F93CF93DF93CDB773
:1024D000DEB729970FB6F894DEBF0FBECDBF8C01D3
:1024E000862FF801118210821382128215821482C3
:1024F0004AE0BE016F5F7F4F90E00E947725BE01EA
:102500006F5F7F4FC8010E942D1229960FB6F89475
:10251000DEBF0FBECDBFDF91CF911F910F91089508
:10252000FB01DC0111961C921E9213961C921E92C6
:10253000129715961C921E9214978617970749F0CA
:10254000608171816115710521F0448155810C9480
:102550000C12089585ED8093BC00809175039091D5
:102560007603A0917703B09178030796A11DB11D62
:1025700023E0B695A795979587952A95D1F7209151
:10258000BC0024FD03C010927303089540917503AD
:10259000509176036091770370917803452B462B19
:1025A000472B69F30097A105B10541F02AE22A956E
:1025B000F1F700C00197A109B109E1CF809174033F
:1025C0000C947107FF920F931F93CF93DF938C01AD
:1025D000EB01F8800E94A125F81621F06F2DC801AB
:1025E0000E94A925CE01DF91CF911F910F91FF90FD
:1025F0000895FF920F931F93CF93DF93EC018B010C
:10260000FB01F0800E94A125F81621F06F2DCE016C
:102610000E94A925F801F1802196CE010E94A125F2
:10262000F81621F06F2DCE010E94A925C801DF9177
:10263000CF911F910F91FF900895CF93DF931F9239
:10264000CDB7DEB766E171E090E080E00E94F9125C
:1026500062E073E084E090E00E94F91264E073E0CD
:1026600088E090E00E94E21268E071E08CE090E087
:102670000E94F9126AE071E080E190E00E94F91294
:102680006CE071E084E190E00E94F91266E071E094
:1026900088E190E00E94F91261EE72E08CE190E036
:1026A0000E94F91280910B0485FB882780F98983A9
:1026B000BE016F5F7F4F80E290E00E94E21284EFE4
:1026C00090E00E947C090F90DF91CF910895CF9305
:1026D000DF93EB010E94A1258883CE01DF91CF918A
:1026E00008950F931F93CF93DF938C01EB010E940A
:1026F000A1258883C80101960E94A1258983CE0166
:10270000DF91CF911F910F9108958F929F92AF9279
:10271000BF92CF92DF92EF92FF920F931F93CF93CE
:10272000DF9300D000D000D0CDB7DEB76C010E949F
:102730006004D60114964D915C9115978823C9F0D9
:102740006D917C918DE993E00E94910526960FB6DC
:10275000F894DEBF0FBECDBFDF91CF911F910F91D7
:10276000FF90EF90DF90CF90BF90AF909F908F90B1
:102770000895B090D902EB2CF12C00E810E00E196E
:102780001F094017510708F48A011A8219821C8216
:102790001B821E821D8250E040E068E072E0CE01A4
:1027A00001960E940C12F601848195810097E9F050
:1027B00048018017910708F44C01D601ED91FC9176
:1027C0001197E80DF91DA08010826D917C91CE01CA
:1027D00001966115710511F10E942D12F60180819B
:1027E0009181880E991ED401AC920F3F100761F0C1
:1027F000F701E85AFD4F7F01309731F0CD80DE8040
:10280000C114D10471F41082CE0101960E941C0DF6
:102810000B0D07FD15C00093D90298CF0E940A0D39
:10282000DDCF0C151D0508F4680169817A81A601C8
:10283000C7010E947528EC0CFD1CD7011C92E4CF47
:102840001092D90281E08093D80280CFCF93DF939A
:10285000CDB7DEB765970FB6F894DEBF0FBECDBF1C
:1028600066E171E090E080E00E94711362E073E045
:1028700084E090E00E94711364E073E088E090E0EF
:102880000E94671368E071E08CE090E00E94711391
:102890006AE071E080E190E00E9471136CE071E009
:1028A00084E190E00E94711366E071E088E190E0BD
:1028B0000E94711361EE72E08CE190E00E9471134E
:1028C000BE016B5E7F4F80E290E00E94671321E0C3
:1028D0008D89811101C020E080910B0420FB85F9D6
:1028E00080930B0480911601909117018436910515
:1028F00014F083E690E097FF02C090E080E09093B0
:1029000017018093160180910203909103038C3389
:10291000910514F08BE390E097FF02C090E080E017
:10292000909303038093020380910403843008F0A2
:1029300083E08093040380910801909109018F3E08
:1029400037E0930714F08EEE97E0893E37E0930767
:1029500014F489EE97E09093090180930801809127
:102960000A0190910B018D30910514F08CE090E0FC
:102970001816190614F081E090E090930B018093F3
:102980000A0180910C0190910D018032910514F0A3
:102990008FE190E01816190614F081E090E0909312
:1029A0000D0180930C0180910601909107018831FF
:1029B000910514F087E190E097FF02C090E080E07D
:1029C00090930701809306018091E1029091E202C9
:1029D0008C33910514F08BE390E097FF02C090E0F8
:1029E00080E09093E2028093E10280910B0420FB4F
:1029F00086F980930B040E946F046093DB0270934E
:102A0000DC028093DD029093DE0280910B0486FF4E
:102A100068C081E080931A0468E08DE094E00E9431
:102A200082088CEE90E00E944F0960910203709141
:102A30000303CE010F960E94371260911601709128
:102A40001701CE0101960E943712BE016F5F7F4FC2
:102A5000CE0109960E9490126AE072E0CE010996BA
:102A60000E94E311BE01615F7F4F0E94F9110E9435
:102A70008513CE0109960E941C0DCE0101960E947D
:102A80001C0DCE010F960E941C0D84EE90E00E945A
:102A90004F098DED90E09A83898386ED90E09C83C9
:102AA0008B8380ED90E09E838D838AEC90E0988705
:102AB0008F83E0910403F0E0EE0FFF1F81E090E0D0
:102AC0008C0F9D1FE80FF91F808191810E947C0966
:102AD00065960FB6F894DEBF0FBECDBFDF91CF91E4
:102AE00008950E949A089DCF1F920F920FB60F92E1
:102AF00011242F933F938F939F93AF93BF93809114
:102B00000F0390911003A0911103B0911203309123
:102B10000E0323E0230F2D3758F50196A11DB11D9B
:102B200020930E0380930F0390931003A09311033F
:102B3000B09312038091130390911403A091150395
:102B4000B09116030196A11DB11D809313039093BC
:102B50001403A0931503B0931603BF91AF919F91F7
:102B60008F913F912F910F900FBE0F901F9018954E
:102B700026E8230F0296A11DB11DD2CF1F920F92FE
:102B80000FB60F9211248F939F938091E100909143
:102B9000E100937F9093E10083FF0FC01092E90062
:102BA00091E09093EB001092EC0092E39093ED0093
:102BB0001092240398E09093F00082FF22C093E0EB
:102BC0009093E9009091F200992319F09AE3909381
:102BD000E80090915502992341F09091550291504F
:102BE00090935502911101C05D9A9091230399230E
:102BF00041F090912303915090932303911101C0D0
:102C0000289A84FF18C08091E2008E7E81608093B4
:102C1000E2008091E1008F7E8093E1008091560276
:102C20008E7E8061809356029F918F910F900FBE90
:102C30000F901F90189580FFF7CF8091E2008E7E55
:102C400080618093E2008091E1008E7E8093E100BC
:102C5000809156028E7E8160E5CF1F920F920FB653
:102C60000F921124CF92DF92EF92FF920F931F9356
:102C70002F933F934F935F936F937F938F939F9384
:102C8000AF93BF93EF93FF93CF93DF93CDB7DEB7AF
:102C90006C97DEBFCDBF1092E9008091E80083FF02
:102CA00025C068E0CE0145960E94330582EF8093EF
:102CB000E8008D8987FF39C09091E80090FFFCCF34
:102CC000982F907609F034C19E894F89588D2F89AD
:102CD000F88C911131C0803861F580915702809352
:102CE000F1001092F1008EEF8093E8006C960FB621
:102CF000F894DEBF0FBECDBFDF91CF91FF91EF9172
:102D0000BF91AF919F918F917F916F915F914F9103
:102D10003F912F911F910F91FF90EF90DF90CF90F7
:102D20000F900FBE0F901F9018959EEF9093E800A4
:102D3000C7CF1092F100D5CF913059F48111D3CF84
:102D40004130510581F6809157028D7F8093570263
:102D5000CACF933049F48111C6CF4130510519F6DD
:102D6000809157028260F2CF953041F48091E80063
:102D700080FFFCCF20682093E300B5CF963009F0A8
:102D8000A9C00B8D1C8D22E01092E9001092530215
:102D900010925202F2122EC0109251021092500262
:102DA0000E9402051F8299E09983FA8291E09E8336
:102DB00090EA98879AEF99872091520230915302B6
:102DC000275F3F4F3C832B838D831092E900109245
:102DD000530210925202109351020093500249E0A4
:102DE00050E0BE016F5F7F4F80E00E94DC040E94D4
:102DF000020579CF10935102009350020E947B0389
:102E0000DC0112960D911C910115110509F451C1B7
:102E1000D801ED91FC910480F581E02DBE016B5E3F
:102E20007F4FC8010995009709F03EC1F801008560
:102E30001185EACFF3E0FF120EC08F89882309F4D1
:102E400040C0823061F440E860E18EE492E00E948C
:102E5000A904811148CF81E28093EB0047CF8130F4
:102E600029F440E86BE082E492E0F1CF833099F7F7
:102E70000E947B03DC011296ED90FC908E010F5FA7
:102E80001F4F6801E114F10479F0D701ED91FC9135
:102E90000680F781E02DB801C7010995080F111DC3
:102EA000F701E084F184EECFD8011C92F601019085
:102EB0000020E9F73197BF016C197D0940E0C60198
:102EC000C6CF6CE272E0FB01449150E080E80E94C2
:102ED000DC0409CF973009F4BECF983021F481E0AB
:102EE0008093F10000CF993009F0FDCE837009F096
:102EF000B2CFE5E3F1E081E031E096E321912223D6
:102F000071F08093E9003093EB00DF0111972C9171
:102F10002093EC009093ED008F5F873079F78EE778
:102F20008093EA001092EA008F8980932403DBCE1D
:102F30008B8D9C8D1092E9001092530210925202D8
:102F40009093510280935002898D811192C08E8995
:102F50009D89913A49F4813209F07DCF47E050E0F4
:102F600068E171E080E0B3CF913209F074CF833231
:102F700069F48F89988DB0E0A0E080930001909370
:102F80000101A0930201B0930301ADCE803269F438
:102F90008091E80082FFFCCF67E088E191E00E9429
:102FA00033058BEF8093E8009ECE823209F09BCEF2
:102FB0008F8980931F01EEEFFFE7859194918B3FFE
:102FC0009C4D51F1E0E0F8E08091180190911901D9
:102FD000A0911A01B0911B01803B9440A105B1055D
:102FE000F1F480911F0180FD1AC0EE3F8AE0F807DE
:102FF00089F587E797E791838083809160008093CC
:10300000540288E19BE00FB6F894A8958093600085
:103010000FBE9093600067CEEEEFFAE0D5CF8081CF
:1030200091818737974709F05ECEA895809160001F
:103030008861809360008091540280936000EE3F2D
:103040002AE0F20789F08091FE0A9091FF0A9183AD
:10305000808349CE808191818737980751F2909380
:10306000FF0A8093FE0AC5CF1092FF0A1092FE0A53
:103070003ACE0E947B03DC0112960D911C91011542
:10308000110509F4E8CED801ED91FC910190F08191
:10309000E02DBE016B5E7F4FC8010995811123CEE3
:1030A000F80100851185EBCF181619060CF41BCE1C
:1030B000D2CEF1E0FF12BECE60E372E004CF1F92E9
:1030C0000F920FB60F9211242F933F934F935F935C
:1030D0006F937F938F939F93AF93BF93EF93FF93E0
:1030E0008091B900887F803609F44AC0F0F58832B3
:1030F00009F4A7C018F5803109F49BC0B8F48823FF
:1031000009F4F9C0883009F494C0FF91EF91BF91A0
:10311000AF919F918F917F916F915F914F913F916F
:103120002F910F900FBE0F901F901895883109F4C2
:1031300088C0803251F78093710314C0803409F441
:103140009DC040F48033B9F38833F9F6809371035E
:1031500085ECB0C0803509F485C0883509F496C087
:10316000883499F60E94AA12D0CF883909F48CC00D
:1031700038F5883729F050F4883611F0803729F671
:1031800083E08093730310924F0257C0883809F48C
:103190007BC0803919F0803809F0B7CF80914F0299
:1031A000803208F071C0E0914F0281E08E0F809371
:1031B0004F028091BB00F0E0E15DFD4F80833DC098
:1031C000803B39F0E0F4803A09F479C0883A09F09C
:1031D0009CCF84E08093730310922E0210922D02F4
:1031E000E0912703F0912803099580912D02811128
:1031F0000FC081E080932D0210920D0209C0803C27
:1032000009F4A6CF883C09F4A3CF883B09F07DCF11
:10321000E0912E0281E08E0F80932E02F0E0E35FBA
:10322000FD4F80818093BB0090912E0280912D02F2
:1032300029C080914E038093BB0085EC8093BC0035
:1032400064CF9091700380916F03981758F5E091C7
:10325000700381E08E0F80937003F0E0E15BFC4F20
:103260008081E9CFE091700381E08E0F809370033D
:103270008091BB00F0E0E15BFC4F80839091700394
:1032800080916F039817C8F285E8D8CFE09170035A
:1032900081E08E0F809370038091BB00F0E0E15BD2
:1032A000FC4F80838091720381115CCF81E0809319
:1032B0004D0384EA8093BC001092730326CF85EC03
:1032C0008093BC001092730380914F02803230F4DF
:1032D000E0914F02F0E0E15DFD4F108260914F02FE
:1032E00070E0E0912503F09126038FE292E00995CA
:1032F00010924F020ACF1092710334CF1092A003A4
:1033000010929F0388EE93E0A0E0B0E08093A103C9
:103310009093A203A093A303B093A40329E431E004
:1033200030939E0320939D032FEF3FEF3093AA032A
:103330002093A9031092F0031092EF038093F103FE
:103340009093F203A093F303B093F4038BE591E021
:103350009093EE038093ED031092100410920F04EB
:103360008DE691E090930E0480930D048DEE93E032
:10337000909312048093110487E2809313048FE0EA
:103380008093140483E08093150410921604109225
:103390001704109218041092190410921A0486E06F
:1033A000EEE2F1E0AFEFB3E001900D928A95E1F724
:1033B0001092FE031092FD031092FC031092F90389
:1033C000EBE1F6E081E08C3049F09491823009F431
:1033D0009F5F21E0280F3196992331F08093FA0303
:1033E00081E08093FB030895822FEDCFCF93DF938D
:1033F000CDB7DEB7AB970FB6F894DEBF0FBECDBF2B
:10340000789484B5826084BD84B5816084BD85B5BF
:10341000826085BD85B5816085BD80916E008160CB
:1034200080936E0010928100809181008260809371
:103430008100809181008160809381008091800073
:1034400081608093800080919100826080939100E0
:1034500080919100816080939100809190008160C3
:10346000809390008091C10084608093C10080911E
:10347000C10082608093C1008091C100816080930F
:10348000C1008091C30081608093C3008091C0001F
:1034900082608093C0008091C20081608093C200EE
:1034A00080917A00846080937A0080917A008260B3
:1034B00080937A0080917A00816080937A00809175
:1034C0007A00806880937A00109224031092570249
:1034D000109256028091D70081608093D70080EAD5
:1034E0008093D80089B5806189BD89B5826089BD26
:1034F00009B400FEFDCF61E070E080E090E00E9442
:103500002E048091D8008F7C80618093D8008091B8
:10351000E000807F8093E0008091E1008E7E8093C8
:10352000E1008DE08093E200559A209AE5EEF5E007
:103530002491E6ECF5E08491882399F090E0880FDF
:10354000991FFC01E15AFD4FA591B491FC01E05592
:10355000FA4F859194918FB7F894EC91E22BEC930C
:103560008FBF21E431E0ABE3B1E08D9190E0FC014D
:10357000E352FA4F449182549A4FFC01849188237C
:10358000D1F090E0880F991FFC01E15AFD4F659141
:103590007491FC01E055FA4F059114919FB7F8948E
:1035A000FB015081842F809585238083F8018081E1
:1035B000482B40839FBF2A173B07B9F68FEF9FEF39
:1035C0009093AA038093A9038BEF92E00E947C0959
:1035D0000E945A0760E08DE094E00E94820862E356
:1035E00070E080E090E00E942E0410921804109287
:1035F000190460E38DE094E00E94550C8BE991E49E
:103600000197F1F760E38DE094E00E94550C83E5AB
:1036100092E00197F1F760E38DE094E00E94550C91
:103620000FE810E0C8010197F1F760E28DE094E047
:103630000E94550CC8010197F1F768E28DE094E013
:103640000E947B0CC8010197F1F7109218041092A8
:10365000190460911604862F8460809316046C60B0
:103660008DE094E00E947B0CC8010197F1F70E9465
:10367000AD0C109218041092190460911704862F53
:1036800082608093170466608DE094E00E947B0C5A
:10369000C8010197F1F70E9426140E94AD0C61E069
:1036A00080E00E94BA0C6FEE72E08DE094E00E9420
:1036B000400562E080E00E94BA0C6CED72E08DE0A3
:1036C00094E00E94400560ED77E080E090E00E9489
:1036D0002E048091290390912A03009711F00E94F3
:1036E0001F2786E090E00E9483268C0188E6F8017F
:1036F00080838DEE93E092838183138280E290E059
:103700009583848310932A03009329030E945A0708
:1037100081E0F8018383C8010E94A10881114EC095
:103720008EEB92E00E947C090E94AD0C63EB72E08C
:103730008DE094E00E94400560ED77E080E090E04D
:103740000E942E040E9490100E946004882309F4B5
:10375000EFC180910C0482FDEBC1846080930C0466
:103760008091D902811105C08091D802882309F483
:10377000CAC060E273E08DE993E00E94400566E014
:1037800072E08DE993E00E94240D8091D802882395
:1037900009F496C00091D90210E0085A1D4FC801E3
:1037A00088559240803891050CF08AC0F8016191EB
:1037B0008F018DE993E00E941606F1CF0E94A00BC5
:1037C00090E0880F892F881F990B892B09F457C027
:1037D00084E992E00E947C094BE050E068E872E0E6
:1037E000CE0101960E946325CE010A960E9497069B
:1037F0008C87E981E154E33110F50E2E000CFF0BAC
:10380000EC5FF34E0C947D264A1C1F1C1F1C5E1C93
:103810001F1C481C1F1C1F1C1F1C171C1F1C1F1CAF
:10382000511C5C1C5A1C1F1C1F1C1F1C581C8A810D
:10383000813651F18B818E3649F586E08D87CE0138
:1038400005960E9497068E8748E050E06FE772E089
:10385000CE0101960E946325CE0101960E94970633
:103860008F87CE0104960E949706888BCE0107961B
:103870000E949706898BCE010C960E94C40B8DE6A0
:1038800092E00E947C095ECF81E0D8CF87E0D6CF5E
:1038900082E0D4CF8B81823711F484E0CFCF88E0EF
:1038A000CDCF8B81823711F483E0C8CF85E0C6CFBE
:1038B00089E0C4CF8AE0C2CF8BE0C0CF8CE0BECF1E
:1038C00008E512E02091D902C801885592402817D6
:1038D000190649F044F0F80161918F018DE993E0F8
:1038E0000E941606EFCF64E173E08DE993E00E9439
:1038F000400566E072E08DE993E00E94240D10928D
:10390000D9021092D8020E946F044B015C01809191
:103910000B0485FF19C186FF17C10E946F04009137
:10392000DB021091DC022091DD023091DE02601B8F
:10393000710B820B930B603375478105910508F479
:1039400003C180910B048F7B80930B040E949A0823
:103950008FE293E00E947C0980910B0480FF00C1FC
:1039600061E088E00E94DB0380910A0390910B03E1
:10397000A0910C03B0910D03A5019401281B390BF4
:103980004A0B5B0BDA01C901883E9340A105B105E2
:1039900068F080910B048E7F80930B0460E088E0D8
:1039A0000E94DB038CE995E00E947C09809106036C
:1039B00090910703A0910803B0910903B501A401F8
:1039C000481B590B6A0B7B0BDB01CA01883E9340F5
:1039D000A105B10508F44DC180920603909207033A
:1039E000A0920803B092090380910B0483FF93C057
:1039F00084FD91C080910503863009F08CC0CE0112
:103A000001960E94070B80910403833099F48B8107
:103A100090E020910401309105018217930751F045
:103A20001092DA0290930501809304018EE993E0ED
:103A30000E947C0980910403823009F096C089813C
:103A400090E08053984F209108013091090182172E
:103A5000930709F060C02A8180910A0190910B01BF
:103A60002817190609F057C02B8180910C019091FD
:103A70000D012817190609F04EC02C81809106010E
:103A8000909107012817190609F045C02D818091F2
:103A9000E1029091E20228171906E9F58E81811161
:103AA0003AC080910B048061816080930B040E9476
:103AB0006F0460930A0370930B0380930C0390933D
:103AC0000D0382E893E00E947C0980910403823018
:103AD00009F063C080910C048E7F80930C040E94D7
:103AE000AD0C61E773E08DE094E00E94400561E079
:103AF00080E00E94BA0C6FE573E08DE094E00E94D4
:103B0000400563E080E00E94BA0C6EE473E08DE053
:103B100094E00E94400580910503843009F441C07F
:103B2000863009F42CC28111A4C00E949010A1C05B
:103B30000E9460048111E7CE80910C0482FFE3CEE5
:103B40008B7F80930C04DFCE80910B0485FD04CF26
:103B500086FF02CF8F7B80930B040E949A08FCCED5
:103B600060E088E00E94DB0321CF8330A1F62C8146
:103B700080910601909107012817190661F62D81A1
:103B80008091E1029091E2022817190621F68E81B8
:103B90008111C1CF8091DA0282CF81E08093DA0275
:103BA000BACFCE010C960E94070BCE010C960E9454
:103BB000D0062B013C0189EF93E00E94D006461A03
:103BC000570A680A790A80911601909117012CE32F
:103BD000289F6001299FD00C1124809102039091AD
:103BE0000303C80ED91E0D2C000CEE08FF084C1460
:103BF0005D046E047F040CF456C18091040381308F
:103C000009F031C1809101038F5F80930103CE01E0
:103C100001960E94070B86E0FE013196A9EFB3E002
:103C200001900D928A95E1F780910B048160809359
:103C30000B040E946F0460930A0370930B0380933C
:103C40000C0390930D038BE194E00E944F09609167
:103C50000103CE0101960E946312CE0101960E94DB
:103C60008513CE0101960E941C0D85E194E00E940F
:103C70007C0980910B0484FF0EC080FD0CC09091E4
:103C80000403933009F0EDC18F7E80930B048AE723
:103C900095E00E947C0980910B0481FF6DC08091AA
:103CA0000503843009F068C0CE010C960E94070B12
:103CB000CE010C960E94D0066B017C0189EF93E047
:103CC0000E94D006C61AD70AE80AF90A20911601FE
:103CD000309117014CE3429FC001439F900D112486
:103CE0002091020330910303820F931F092E000CD1
:103CF000AA0BBB0BC816D906EA06FB06ECF18091AD
:103D00000403813009F0CEC1809101038F5F80935D
:103D10000103CE0101960E94070B86E0FE01319659
:103D2000A9EFB3E001900D928A95E1F780910B0421
:103D30008F77816080930B040E946F0460930A0365
:103D400070930B0380930C0390930D038EE495E026
:103D50000E944F0960910103CE0101960E946312F7
:103D6000CE0101960E948513CE0101960E941C0D82
:103D700084E495E00E947C099FEFC92E93E0D92E40
:103D800029EE222E22E0322E4BE351E05BA74AA718
:103D900010E0EAA5FBA52191FBA7EAA730E0F90115
:103DA000E450FA4F8491F901E352FA4FF490F9018B
:103DB000E254FA4F0491002309F48FC181110E944B
:103DC0008F03E02FF0E0EE0FFF1FE25BFB4FA591AA
:103DD000B491EC91FE2291E080E009F490E0E92EAC
:103DE000F82EF60181916F018E151F0429F0F10163
:103DF00080829182A282B382F10181919191A191FD
:103E0000B1911F01A5019401281B390B4A0B5B0BD3
:103E1000DA01C901C397A105B10508F474C1F6011F
:103E200085818E151F0409F46EC181E0E114F1044F
:103E300009F480E0F6018583E114F10409F063C11F
:103E40000E949209E0910503E73008F05CC1F0E0C0
:103E5000E45DF04E0C947D267020C22226231F24A0
:103E6000312548255D2580910B048D7F846081601C
:103E700080930B040E946F0460930A0370930B03FA
:103E800080930C0390930D0385E08093050380914C
:103E90000B048F7780930B048AE094E00E947C09E6
:103EA0000E94D70CE6CE80910B0487FD31C00E94A2
:103EB000AD0C809104036DEF73E0882311F06EEE7A
:103EC00073E08DE094E00E9440058091040381300E
:103ED00031F48091010390E001960E943D0D61E074
:103EE00080E00E94BA0C6FED73E08DE094E00E94D8
:103EF000400563E080E00E94BA0C6EEC73E08DE058
:103F000094E00E94400580910B04806880930B042C
:103F1000C418D508E608F708F7FE03C0C12CD12C59
:103F2000760162E080E00E94BA0C69EC73E08DE0FB
:103F300094E00E944005C701B6012CE330E040E068
:103F400050E00E945E2689014FEF5FEFC8010E949A
:103F5000501064EC73E08DE094E00E944005809185
:103F60000403813009F085CE60E08EE00E94BA0C37
:103F70008091010390E001960E943D0D7ACECE0122
:103F800001960E94070B80910C0480FD1DC00E94C9
:103F9000AD0C8091040360E474E0823011F063E3BF
:103FA00074E08DE094E00E94400563E080E00E94B0
:103FB000BA0C62E274E08DE094E00E9440058091CA
:103FC0000C04816080930C0461E080E00E94BA0CD4
:103FD00089E092E00E94330D80910403823091F4D5
:103FE000409108015091090160910A0170910B0103
:103FF00080910C0190910D010E94BE0D83EF91E024
:104000000E94330D6091E1027091E20250E040E0C5
:1040100080910601909107010E94501062E080E0BB
:104020000E94BA0C85EF91E00E94330D8091040349
:10403000823071F4498150E04053584F6A8170E0FA
:104040008B8190E00E94BE0D83EF91E00E94330DC2
:104050004E8150E06D8170E08C8190E00E945010A4
:1040600008CE80910A0390910B03A0910C03B091AC
:104070000D03A5019401281B390B4A0B5B0BDA01D8
:10408000C901803A9F40A105B10508F404CE89E535
:1040900095E00E947C090E9482090E94AD0C0E945A
:1040A0009010F9CD80910B048D7F846081608093A6
:1040B0000B040E946F0460930A0370930B038093B8
:1040C0000C0390930D0385E0809305038FE295E048
:1040D0000E947C090E94D70C4FCEF12CE12C81CE9E
:1040E000123009F43DC2143009F444C211110BC05E
:1040F0000091DF02023009F460C0B0F40023C9F17E
:10410000013009F446C0F60131978E2D817080830D
:104110001F5F163009F03DCE80E090E0892B09F456
:1041200013CB0E94000010CB033009F4E2C104302D
:1041300051F780910B0485FB992790F921E0922794
:1041400090FB85F909F406C2806480930B042093E8
:104150001A0468E08DE094E00E9482080E946F04D7
:104160006093DB027093DC028093DD029093DE02A9
:1041700008C08091040390E0019683709927809392
:1041800004030E941D1380910C048D7F80930C0406
:1041900083C0809104038250823040F482E0809397
:1041A00005031092E3020E94E20EADCF00930503D7
:1041B0001092E0020E94FE0FA6CF8091040382506D
:1041C000823008F03DC1CE0184960E94070B809199
:1041D0000403823009F0F3C02091E102309106011E
:1041E00040910C0150910A018091080190910901C0
:1041F000803DF7E09F0710F0805D97408E8F5F8FC6
:1042000048A339A32AA31BA2CE014E960E94D00632
:104210002B013C01CE0184960E94D00664157505E1
:1042200086059705E0F10E94AD0C60E075E08DE039
:1042300094E00E94400561E080E00E94BA0C6EEEBE
:1042400074E08DE094E00E94400562E080E00E940E
:10425000BA0C6DED74E08DE094E00E94400563E0DF
:1042600080E00E94BA0C6DEC74E08DE094E00E9456
:1042700040058FEA94E00E947C0968EB7BE080E0D7
:1042800090E00E942E041092050380910C048D7F13
:1042900080930C040E94AD0C0E94901034CF8AE9E8
:1042A00094E00E944F096091080170910901CE01CC
:1042B00001960E94371260910A0170910B01CE01A4
:1042C0000C960E94371260910C0170910D01CE0185
:1042D00048960E943712BE01685E7F4FCE0142961B
:1042E0000E94901267E771E0CE0142960E94E311AE
:1042F000BE01645F7F4F0E94F91167E771E00E9481
:10430000E311BE016F5F7F4F0E94F9110E94851378
:10431000CE0142960E941C0DCE0148960E941C0DB3
:10432000CE010C960E941C0DCE0101960E941C0D20
:1043300085E994E00E944F096091E1027091E202E8
:10434000CE0101960E94371260910601709107011B
:10435000CE0142960E943712BE016E5E7F4FCE01A3
:104360000C960E9490126AE072E0CE010C960E94B8
:10437000E311BE016F5F7F4F0E94F9110E94851308
:104380008EE794E00E944F09CE010C960E941C0D0E
:10439000CE0142960E941C0DCE0101960E941C0D7A
:1043A00080910B0488608F7E80930B0480910C04B5
:1043B0008E7F80930C0486E080930503A4CE80E872
:1043C00094E00E944F096091E1027091E202CE01F7
:1043D00001960E9437126091060170910701CE018B
:1043E00042960E943712BE016E5E7F4FCE010C9640
:1043F0000E9490126AE072E0CE010C960E94E311D6
:10440000BE016F5F7F4F0E94F9110E9485138EE7F6
:1044100094E00E944F09CE010C960E941C0DCE0123
:1044200042960E941C0DCE0101960E941C0D109216
:10443000DA028EA190E09093050180930401B0CF41
:10444000CE0101960E94070B86E0FE013196A9EF8E
:10445000B3E001900D928A95E1F780910B048260A0
:104460008B7F8F7780930B041092010384E08093FD
:1044700005038CE694E00E944F096091020370915D
:104480000303CE0101960E943712609116017091CC
:104490001701CE0142960E943712BE016E5E7F4F19
:1044A000CE010C960E9490126AE072E0CE010C964A
:1044B0000E94E311BE016F5F7F4F0E94F9110E94BD
:1044C0008513CE010C960E941C0DCE0142960E94CF
:1044D0001C0DCE0101960E941C0D809104038111D8
:1044E00005C084E694E00E947C090DCE8CE594E042
:1044F000FACFCE0101960E94070B898190E080538C
:10450000984F90930F0180930E018A8190E09093D1
:104510001101809310018B8190E09093130180939F
:1045200012018C8190E090931501809314018D818C
:1045300090E09093E6028093E5028E8190E0909364
:10454000E8028093E702009305031092E4020E94C0
:10455000020ED9CD8F7B80930B040E949A08FECD6A
:104560008091DF02882321F081508093DF020BCEFF
:1045700084E0FBCF8091DF02843011F08F5FF5CFB4
:1045800080E0F3CF0E9492091330D1F138F411305A
:1045900081F0123089F00E941D1375CE1430C1F1E4
:1045A0001530C9F78091E002882309F44DC081508D
:1045B0002CC00E94261467CE8091E002811110C0A9
:1045C00080911601909117018336910534F401967C
:1045D0009093170180931601EDCD90E080E0F8CF25
:1045E00080910203909103038B33910534F401967B
:1045F0009093030380930203DDCD90E080E0F8CF39
:1046000081E09091E002911180E08093E002D2CDB0
:104610008091E00281110CC08091160190911701E8
:104620001816190614F40197D3CF83E690E0D0CF83
:1046300080910203909103031816190614F4019750
:10464000D7CF8BE390E0D4CF81E0DFCF0E949209F7
:10465000133009F485C018F5113009F4AACF1230CF
:1046600009F099CF909104038091E302923009F010
:104670005FC0823009F44BC020F58823A9F1813056
:1046800009F091CD80910A0190910B018C30910538
:10469000DCF5019690930B0180930A0184CD1430D0
:1046A00009F472C0153009F076CF9091040380911F
:1046B000E302923009F0BFC0882309F4BAC08150E8
:1046C00058C08330D1F1843009F06DCD8091E10282
:1046D0009091E2028B3391050CF03FC001969093CC
:1046E000E2028093E1025FCD80910C0190910D0177
:1046F0008F31910534F4019690930D0180930C0154
:1047000052CD81E090E0F8CF81E090E0C3CF80917E
:104710000801909109018E3E27E0920734F401963A
:1047200090930901809308013ECD89EE97E0F8CF80
:10473000882319F0813051F236CD80910601909195
:1047400007018731910534F4019690930701809316
:10475000060129CD90E080E0F8CF90E080E0BFCF67
:10476000909104038091E302923041F4843020F46C
:104770008F5F8093E30217CD80E0FBCF91E0811142
:1047800090E09093E3020FCD909104038091E302B7
:104790009230D9F5823061F170F48823D1F0813004
:1047A00009F001CD80910A0190910B0182309105B1
:1047B000E4F001976FCF833069F1843009F0F3CCD6
:1047C0008091E1029091E202181619067CF501979A
:1047D00086CF80910C0190910D018230910514F0EB
:1047E00001978ACF8FE190E087CF8CE090E052CFA5
:1047F00080910801909109018A3E37E0930714F0F7
:1048000001978ECF8EEE97E08BCF882319F0813001
:10481000B9F2C9CC809106019091070118161906CA
:1048200014F4019792CF87E190E08FCF8BE390E073
:1048300056CF84E09ECF811142CF81E09ACF0E9473
:104840009209133009F4A8C040F5113009F41BCDCA
:10485000123079F12091E7023091E5024091140184
:10486000509112016091100180910E0190910F0101
:10487000803D77E0970710F0805D974089836A83D9
:104880005B834C833D832E83CE0101960E94C40B33
:104890008EE095E00E947C09F6CC143009F486C0C5
:1048A0001530C1F68091E402882309F4D8C0815004
:1048B00078C08091E4028230D9F190F4882329F104
:1048C000813009F044CE80911001909111018C301B
:1048D00091055CF50196909311018093100137CEFC
:1048E000843009F446C0A8F1853009F030CE8091BB
:1048F000E7029091E8028B3391050CF04AC00196D3
:104900009093E8028093E70222CE80911201909169
:1049100013018F31910534F4019690931301809324
:10492000120115CE81E090E0F8CF81E090E0D3CF86
:1049300080910E0190910F018E3EE7E09E0734F4C6
:10494000019690930F0180930E0101CE89EE97E0BE
:10495000F8CF80911401909115018731910534F4BD
:1049600001969093150180931401F1CD90E080E0C1
:10497000F8CF8091E5029091E6028B33910534F4F3
:1049800001969093E6028093E502E1CD90E080E00D
:10499000F8CF90E080E0B4CF8091E402853020F43D
:1049A0008F5F8093E402D3CD80E0FBCF8091E4025F
:1049B000823069F170F48823D9F0813009F0C7CDD5
:1049C000809110019091110182309105ECF00197D6
:1049D00082CF8430A9F140F1853009F0B8CD8091C3
:1049E000E7029091E80218161906B4F5019788CFEE
:1049F00080911201909113018230910514F001977A
:104A00008CCF8FE190E089CF8CE090E064CF8091F3
:104A10000E0190910F018A3EF7E09F0714F0019775
:104A200090CF8EEE97E08DCF80911401909115017B
:104A30001816190614F4019794CF87E190E091CFEE
:104A40008091E5029091E6021816190614F4019778
:104A500098CF8BE390E095CF8BE390E051CF85E04A
:104A6000A0CF113009F04FCB80910B04887F8F7756
:104A700080930B04109201031092050380910C04A3
:104A80008D7F80930C0480E295E00E947C0904CC29
:104A9000113009F038CB80910B048E7F80930B048A
:104AA00060E088E00E94DB0380910B048B7F8F77AE
:104AB00080930B041092050366CB113009F023CBD1
:104AC0000E948209E9CBFB01DC0102C005900D9236
:104AD00041505040D8F70895BB274A3031F499230C
:104AE00022F4BDE2909581959F4F0C947825BB27C9
:104AF000FB015527AA27880F991FAA1FA41710F09A
:104B0000A41B83955051B9F7A05DAA3308F0A95DA5
:104B1000A193009779F7B111B1931192CB010C9445
:104B20009125DC01FC01672F71917723E1F7329722
:104B300004C07C916D9370836291AE17BF07C8F378
:104B40000895F999FECF92BD81BDF89A992780B555
:104B50000895262FF999FECF1FBA92BD81BD20BDC1
:104B60000FB6F894FA9AF99A0FBE019608950E942A
:104B7000F925A59F900DB49F900DA49F800D911DC8
:104B8000112408952F923F924F925F926F927F92DD
:104B90008F929F92AF92BF92CF92DF92EF92FF924D
:104BA0000F931F93CF93DF93CDB7DEB7CA1BDB0BF9
:104BB0000FB6F894DEBF0FBECDBF09942A8839889E
:104BC00048885F846E847D848C849B84AA84B984A5
:104BD000C884DF80EE80FD800C811B81AA81B981B1
:104BE000CE0FD11D0FB6F894DEBF0FBECDBFED01C5
:104BF0000895A29FB001B39FC001A39F700D811DB6
:104C00001124911DB29F700D811D1124911D0895D5
:104C1000991B79E004C0991F961708F0961B881F0E
:104C20007A95C9F780950895AA1BBB1B51E107C06F
:104C3000AA1FBB1FA617B70710F0A61BB70B881F2C
:104C4000991F5A95A9F780959095BC01CD010895BB
:104C500097FB072E16F4009407D077FD09D00E9429
:104C6000142607FC05D03EF4909581959F4F08953A
:104C7000709561957F4F0895A1E21A2EAA1BBB1B68
:104C8000FD010DC0AA1FBB1FEE1FFF1FA217B30718
:104C9000E407F50720F0A21BB30BE40BF50B661F2E
:104CA000771F881F991F1A9469F7609570958095F2
:104CB00090959B01AC01BD01CF010895052E97FB96
:104CC0001EF400940E94752657FD07D00E943C26D2
:104CD00007FC03D04EF40C94752650954095309502
:104CE00021953F4F4F4F5F4F089590958095709558
:104CF00061957F4F8F4F9F4F0895EE0FFF1F0590D7
:104D0000F491E02D09940F931F93CF93DF9382309A
:104D1000910510F482E090E0E0911D04F0911E04F2
:104D200030E020E0B0E0A0E0309799F421153105A3
:104D300009F44AC0281B390B24303105D8F58A8183
:104D40009B816115710589F1FB0193838283FE01CB
:104D500011C0408151810281138148175907E0F049
:104D60004817590799F4109761F012960C9312970F
:104D700013961C933296CF01DF91CF911F910F9123
:104D8000089500931D0410931E04F4CF21153105DE
:104D900051F04217530738F0A901DB019A01BD0118
:104DA000DF01F801C1CFEF01F9CF90931E0480938A
:104DB0001D04CDCFFE01E20FF31F8193919322508A
:104DC000310939832883D7CF20911B0430911C04EB
:104DD000232B41F4209122013091230130931C04B4
:104DE00020931B04209120013091210121153105D0
:104DF00041F42DB73EB74091240150912501241B69
:104E0000350BE0911B04F0911C04E217F307A0F4AA
:104E10002E1B3F0B2817390778F0AC014E5F5F4F10
:104E20002417350748F04E0F5F1F50931C04409322
:104E30001B04819391939FCFF0E0E0E09CCFCF9350
:104E4000DF930097E9F0FC01329713821282A09160
:104E50001D04B0911E04ED0130E020E01097A1F494
:104E600020813181820F931F20911B0430911C04FB
:104E70002817390709F061C0F0931C04E0931B0464
:104E8000DF91CF910895EA01CE17DF07E8F54A8157
:104E90005B819E0141155105B1F7E901FB83EA836E
:104EA00049915991C40FD51FEC17FD0761F480811A
:104EB00091810296840F951FE901998388838281ED
:104EC00093819B838A83F0E0E0E012968D919C9120
:104ED00013970097B9F52D913C911197CD0102964A
:104EE000820F931F20911B0430911C04281739074F
:104EF00039F6309751F510921E0410921D04B093AC
:104F00001C04A0931B04BCCFD383C2834081518176
:104F1000840F951FC817D90761F44E5F5F4F8881D2
:104F20009981480F591F518340838A819B819383C4
:104F300082832115310509F0B0CFF0931E04E09370
:104F40001D049ECFFD01DC01C0CF13821282D7CF9A
:104F5000B0E0A0E0EEEAF7E20C94C4258C010097E3
:104F600051F4CB010E9483268C01C801CDB7DEB776
:104F7000E0E10C94E025FC01E60FF71F9C012250B4
:104F80003109E217F30708F49DC0D901CD91DC91F6
:104F90001197C617D70798F0C530D10530F3CE0169
:104FA00004978617970708F3C61BD70B2297C19360
:104FB000D1936D937C93CF010E941F27D6CF5B01C5
:104FC000AC1ABD0A4C018C0E9D1EA0911D04B0911F
:104FD0001E04512C412CF12CE12C109731F58091BD
:104FE0001B0490911C048815990509F05CC04616B5
:104FF000570608F058C08091200190912101009738
:1050000041F48DB79EB74091240150912501841B36
:10501000950BE817F90708F055C0F0931C04E093CE
:105020001B04F90171836083A0CF8D919C9111972E
:1050300012966C90129713967C901397A815B90549
:1050400059F56C0142E0C40ED11CCA14DB0420F1F6
:10505000AC014A195B09DA011296159780F0628259
:10506000738251834083D9016D937C93E114F104E1
:1050700071F0D7011396FC93EE93129776CF229698
:105080008C0F9D1FF90191838083F301EFCFF09383
:105090001E04E0931D0469CF4816590608F42C013C
:1050A0007D01D3019ACFCB010E9483267C0100971A
:1050B00049F0AE01B8010E946528C8010E941F276F
:1050C000870153CF10E000E050CFFB01DC0102C0AC
:1050D00001900D9241505040D8F70895FB01DC013A
:1050E00001900D920020E1F70895FB01DC01415091
:1050F000504048F001900D920020C9F701C01D9268
:0C51000041505040E0F70895F894FFCFB4
:10510C00FFFFFFFFFFFF0C00E90706000F00E90798
:10511C0006000F000C00050000E10000000000007C
:10512C0000001F048000F801FF018401B10101019E
:10513C000101010100C18081000000171615141334
:10514C001200401454000000001606910537062C7E
:10515C00067D063B065906000000001D09F0084CB0
:10516C0009C608E908D608C70800000000FD0C6451
:10517C00054C09140730002F003E003C00526567B7
:10518C006C657220416C61726D65005265676C656F
:10519C00722054656D707300537461727400537493
:1051AC0061727420416C61726D650053746172742C
:1051BC00204461696C79003E20004F4E004F4646FA
:1051CC00004D6F64653A20005265676C657220482B
:1051DC006575726500526574726F3A200020280064
:1051EC0029002A00202020202020202020202020E0
:1051FC002020202000543A0053696D706C650052D9
:0C520C006570656174000D0A00433A00F3
:00000001FF
