:100000000C9474020C949C020C949C020C949C0220
:100010000C949C020C949C020C949C020C949C02E8
:100020000C949C020C949C020C947E140C94ED1481
:100030000C949C020C949C020C949C020C949C02C8
:100040000C949C020C949C020C949C020C949C02B8
:100050000C949C020C949C020C949C020C943414FE
:100060000C949C020C949C020C949C020C949C0298
:100070000C949C020C949C020C949C020C949C0288
:100080000C949C020C949C020C949C020C949C0278
:100090000C941F170C949C020C949C020C949C02D0
:1000A0000C949C020C949C020C949C0205A84CCDD0
:1000B000B2D44EB93836A9020C50B9918688083CA2
:1000C000A6AAAA2ABE000000803F0A0052C3A97453
:1000D000726FC3A9636C6169726167652072C3A99D
:1000E0006163746976C3A90043697263756C617258
:1000F000004A6967676C650052616E646F6D00202D
:100100004D6F64653D002F3230303020496E74658C
:100110007276616C6C653D002F3530205A6F6E65CC
:100120003D00506172616DC3A8747265733A2056C8
:100130006974657373653D00506172616DC3A87425
:1001400072657320736175766567617264C3A973A4
:1001500000434F4E46494755524154494F4E005374
:10016000494D554C4154494F4E2041435449564501
:1001700000454E5445523D4F4B205245543D416E33
:100180006E005245474C4147452048455552450071
:10019000202052656C616973203220205044372042
:1001A000443620003E2052656C6169732032202065
:1001B0005044372044362000454E5445523D41635B
:1001C0007420205245543D4D656E750020205265C7
:1001D0006C61697320312020504436204431320054
:1001E0003E2052656C6169732031202050443620D6
:1001F00044313200544553542052454C4149530038
:10020000080B0002020200000904000001020200C3
:100210000005240010010524010101042402060543
:1002200024060001070581031000400904010002B3
:100230000A00000007050202400000070583024093
:1002400000000403090412010002EF0201404123EF
:10025000368000010102030141726475696E6F20EE
:100260004C4C430041726475696E6F204C656F6E33
:100270006172646F00415454454E54494F4E3A20C8
:1002800043652070726F6772616D6D6520636F6E7C
:100290007472C3B46C65206C6120736F757269737E
:1002A00020210053797374C3A86D6520696E697449
:1002B00069616C6973C3A920210052544320696E9F
:1002C000697469616C6973C3A920210030393A33BC
:1002D000313A3039004F63742031332032303235B7
:1002E0000052544320706572647565202D206D693D
:1002F000736520C3A0206C27686575726520210096
:10030000455252455552205254430045727265750C
:1003100072203A2044533332333120696E74726F45
:10032000757661626C652021005665722E312E3023
:100330002070617220436865776279004D4F555394
:10034000452053494D554C41544F52003D3D3D20B1
:100350004D6F7573652053696D756C61746F722094
:1003600076312E30203D3D3D003D3D3D2046494EFD
:10037000203D3D3D003D3D3D2042554646455220F5
:100380003D3D3D0052C3A974726FC3A9636C61699E
:100390007261676520C3A97465696E742028333063
:1003A0007329000A00202D3E20506F736974696F15
:1003B0006E3A20004D6F7576656D656E743A20005B
:1003C00043697263756C6172004A6967676C6500A6
:1003D00052616E646F6D0053696D756C6174696F05
:1003E0006E2064C3A96D617272C3A965202D204D72
:1003F0006F64653A200053696D756C6174696F6E46
:1004000020617272C3AA74C3A96500525443206D5F
:10041000697320C3A0206A6F75722021000000005C
:1004200000240027002A002D0030000000000025D5
:100430000028002B002E00310000000000230026C1
:100440000029002C002F0004040404040304050206
:10045000020202040302020202060606060606045F
:10046000040202020404040802011040804010202B
:10047000408040800802040180402010020110806A
:1004800010204040200000000200090F000003047B
:1004900001000C000000000000000000000000004F
:1004A000000000001F1C1F1E1F1E1F1F1E1F1E05F9
:1004B000010902A1010901A100850105091901290C
:1004C00003150025019503750181029501750581CC
:1004D0000305010930093109381581257F75089513
:1004E000038106C0C0003E1811241FBECFEFDAE022
:1004F000DEBFCDBF12E0A0E0B1E0E8EAF1E502C066
:1005000005900D92A834B107D9F724E0A8E4B2E031
:1005100001C01D92A238B207E1F712E0C4E7D2E0B1
:1005200004C02197FE010E94CB26C337D107C9F72B
:100530000E940B190C94D2280C940000CF93DF93E7
:10054000FC01818190913304482F490F5527551F95
:10055000483051059CF5A281B381109709F52FE22F
:1005600034E033832283208120933104809332044A
:1005700080913404820F808320913504A22FB091A2
:1005800036048A2F821B8917E8F481813D91C82F98
:10059000D0E0CE5EDE4F38838F5F8183F2CFD9010A
:1005A00018962D913C91199721153105C1F72FE22D
:1005B00034E019963C932E931897D5CF80E0DF91C5
:1005C000CF91089581E0FBCF08950895FC018091BB
:1005D0006603882311F13FB7F89482E08093E90025
:1005E0002091F200822F90E01816190614F481E091
:1005F00090E0882339F0289844E6409365034091C1
:10060000F1004083222339F02091F200211103C030
:100610002BE62093E8003FBF08958FEF9FEF0895EA
:1006200081508F3008F047C0E82FF0E0E65EFC4FC5
:100630000C94CB2637033B0329032F0333035B03BF
:100640005B035B033E03440348034C0352035B0319
:100650005603809180008F77809380000895809169
:1006600080008F7DF9CF80918000877FF5CF84B5A2
:100670008F7784BD089584B58F7DFBCF80919000E6
:100680008F77809390000895809190008F7DF9CFAF
:1006900080919000877FF5CF8091C0008F77809305
:1006A000C00008958091C0008F7DF9CF8091C20075
:1006B000877F8093C2000895CF93DF93282F30E087
:1006C000F901EB57FB4F8491F901EA59FB4FD491A3
:1006D000F901E95BFB4FC491CC23A1F081110E9489
:1006E0001003EC2FF0E0EE0FFF1FE75CFB4FA5912E
:1006F000B491EC91ED2381E090E009F480E0DF918A
:10070000CF91089580E090E0FACF1F93CF93DF93CD
:10071000282F30E0F901EB57FB4F8491F901EA599A
:10072000FB4FD491F901E95BFB4FC491CC23A9F0B5
:10073000162F81110E941003EC2FF0E0EE0FFF1F27
:10074000E55DFB4FA591B4918FB7F894EC91111131
:1007500008C0D095DE23DC938FBFDF91CF911F912E
:100760000895DE2BF8CFCF93DF9390E0FC01EA5998
:10077000FB4F2491895B9B4FFC0184918823D1F02E
:1007800090E0880F991FFC01E35EFB4FA591B491A7
:10079000FC01E55DFB4FC591D491623071F49FB7C8
:1007A000F8943C91822F809583238C93E8812E2BA3
:1007B00028839FBFDF91CF9108958FB7F894EC9174
:1007C0002E2B2C938FBFF6CF3FB7F8948091610307
:1007D00090916203A0916303B091640326B5A89B36
:1007E00005C02F3F19F00196A11DB11D3FBFBA2FC3
:1007F000A92F982F8827BC01CD01620F711D811D83
:10080000911D42E0660F771F881F991F4A95D1F707
:1008100008958F929F92AF92BF92CF92DF92EF9204
:10082000FF924B015C010E94E4036B017C010E947A
:10083000E4036C197D098E099F09683E73408105A8
:100840009105A8F321E0821A9108A108B10888EE69
:10085000C80E83E0D81EE11CF11C81149104A10490
:10086000B10429F7FF90EF90DF90CF90BF90AF9049
:100870009F908F900895CF93C09120016AE070E01F
:1008800080E090E00E94090481E0C11101C080E095
:10089000CF9108952FB7F89460915D0370915E0336
:1008A00080915F03909160032FBF08950895409158
:1008B0009A0250919B02209198023091990242171E
:1008C0005307B4F49091E8009570E1F39091E8003B
:1008D00092FD19C08093F10080919A0290919B0241
:1008E00001968F739927892B19F48EEF8093E80076
:1008F00080919A0290919B02019690939B02809323
:100900009A0281E0089580E00895EF92FF920F939C
:100910001F93CF93DF93F82E192FE62E042F81E03B
:10092000860F880F0E94570483E00E945704CF2D42
:10093000D12FEC0EFD2EF11CCE15DF05B9F007FF0F
:1009400013C0FE0184910E945704182F80E00E947A
:100950005704812321968111EFCFDF91CF911F9111
:100960000F91FF90EF9008958881EDCF81E0F5CF52
:10097000DF92EF92FF920F931F93CF93DF93D82EC6
:100980008A01EB017B01E40EF51ECE15DF0559F05F
:10099000D7FE12C0FE0184910E9457042196811156
:1009A000F4CF0FEF1FEFC801DF91CF911F910F918F
:1009B000FF90EF90DF9008958881EECF2FB7F894E5
:1009C00087708093E9009091E800892F807295FFED
:1009D00004C09091F20080E4891B2FBF08957F929C
:1009E0008F929F92AF92BF92CF92DF92EF92FF923F
:1009F0000F931F93CF93DF93C82E8B017A018091C1
:100A00006603811110C08FEF9FEFDF91CF911F918F
:100A10000F91FF90EF90DF90CF90BF90AF909F909D
:100A20008F907F90089580919E0280FF05C08091F5
:100A3000E00082608093E000CE2DDF2DD12C8AEF84
:100A4000B82E8C2D8770982E8C2D8072882E8C2D30
:100A50008074782E9AE3A92E209719F4DD2009F4EA
:100A600052C08C2D0E94DE0481110AC0BA94BB20B2
:100A700051F261E070E080E090E00E940904ECCF68
:100A80008C171D0611F00CF08C2F9FB7F8949092E4
:100A9000E9002091E80025FD02C09FBFDDCF282F8F
:100AA00030E0C21BD30B882029F08150A0F01092B7
:100AB000F100FBCFF801C7FC0AC0815050F0419112
:100AC0004093F100FACF44914093F1003196815068
:100AD000D0F7020F131FDD2021F0A092E800D12CE7
:100AE000DCCF8091E80085FD07C0A092E800DD24FE
:100AF000D394209791F2F3CF209779F6772069F27B
:100B0000A092E800CACF5D9884E680939D02C70159
:100B10007CCF615030F02091F100FC0120830196E0
:100B2000F8CF289884E6809365030895EF92FF92AA
:100B30000F931F93CF93DF938C017B01D0E0C0E034
:100B4000F701EC0FFD1F6491662361F0D801ED9170
:100B5000FC910190F081E02DC8010995892B11F0DD
:100B60002196EECFCE01DF91CF911F910F91FF9093
:100B7000EF900895AF92BF92CF92DF92EF92FF92E3
:100B80000F931F93CF93DF936C017B018B01040FB5
:100B9000151FEB015E01AE18BF08C017D10759F051
:100BA0006991D601ED91FC910190F081E02DC60193
:100BB0000995892B79F7C501DF91CF911F910F918D
:100BC000FF90EF90DF90CF90BF90AF90089580910D
:100BD000900281110DC082E080938C0284E08093AA
:100BE0008D0210928F0210928E0281E0809390020B
:100BF0008CE892E008950F931F93CF93DF931F9299
:100C0000CDB7DEB782E0898342E450E060E072E075
:100C100080E80E94B8040E94E705DC0112960D915D
:100C20001C910115110589F0D801ED91FC9102800C
:100C3000F381E02DBE016F5F7F4FC801099597FDDD
:100C400004C0F80100851185ECCF89810F90DF91F8
:100C5000CF911F910F910895CF93DF93EC01809175
:100C60002001882331F083E00E94EF041816190652
:100C700034F081E090E09B838A8380E090E0DF9114
:100C8000CF910895CF93DF931F92CDB7DEB76983DD
:100C9000DC01ED91FC910280F381E02D41E050E018
:100CA000BE016F5F7F4F09950F90DF91CF9108953F
:100CB00083E08093E9008091F200882319F08AE3B1
:100CC0008093E800089583E00E94DE0490E0089598
:100CD000CF93DF931F92CDB7DEB7FC018485958556
:100CE00097FD08C02FEF3FEF358724870F90DF91E6
:100CF000CF910895CE0101960E94E602019719F462
:100D0000898190E0F3CF8FEF9FEFF0CF0F931F9388
:100D1000CF93DF931F92CDB7DEB78C01FC018485A2
:100D2000958597FF0BC0CE0101960E94E6020197C0
:100D300071F4898190E0F80195878487F8018485B2
:100D400095850F90DF91CF911F910F9108958FEFAF
:100D50009FEFF1CFFC018485958597FD0BC09FB770
:100D6000F89482E08093E9008091F2009FBF90E0C8
:100D7000019608959FB7F89482E08093E9008091EE
:100D8000F2009FBF90E00895FC01908190539A304B
:100D900008F090E0818180532AE0929F800D112419
:100DA0000895DC01FB0112962C91129784819581A4
:100DB0002817190641F491818081813A31F49D7F91
:100DC00081E0913009F080E008958132E1F79B30B5
:100DD00029F482811F968C9381E008959A3099F7C7
:100DE000828150968C93F8CFDC01FB0188E48083EC
:100DF00089E4818384E482831D969C911D979F7072
:100E00009F5B93831D968D919C9124E09695879589
:100E10002A95E1F78F708F5B848385E00895EF92C8
:100E2000FF920F931F93CF93DF93FB012081213813
:100E300071F52381223259F5DC0112964C912481FF
:100E400035814217130619F5EC010B851C85F12C31
:100E5000E12C0115110589F0F80144815581628169
:100E6000738180E80E94B8048F3F980749F0E80E2C
:100E7000F91ED8010D911C91ECCF81E08F87C7013D
:100E8000DF91CF911F910F91FF90EF90089590E027
:100E900080E0F6CFCF93DF93CDB7DEB769970FB67B
:100EA000F894DEBF0FBECDBFFC01DB018C918F5FDC
:100EB0008C939E012D5F3F4F8DE0D9011D928A9545
:100EC000E9F729E0298384E08A8391E09D8383E028
:100ED0008E832A8721E22B879C879D879F8722E22A
:100EE000288B27E02B8B25E02C8B8E8B20E430E0A9
:100EF000388F2F8B998F82818B8395858685998BEF
:100F00008A8B838180688D8B49E150E0BE016F5FE1
:100F10007F4F80E00E94B80469960FB6F894DEBF58
:100F20000FBECDBFDF91CF91089508952091690242
:100F3000260F3327331F21323105ECF42091B503FE
:100F4000FC0190E080E0243069F082E00895A091F7
:100F500069022191AC01475B5D4FA40FB52FB11D14
:100F60002C930196861798F380916902680F60931D
:100F7000690280E0089581E008951092B50381E050
:100F80008093B40310928F0361E082E00E94850396
:100F900061E083E00E948503E9EBF0E080818E7FD1
:100FA000808380818D7F808388E48093B80085E48E
:100FB0008093BC00089510926E0310926D031092FE
:100FC000BC031092DE030E94BD0784EE92E0909372
:100FD0006A038093690385EE92E09093680380939F
:100FE00067030895CF93DF9391E09093480288239D
:100FF000B9F0C091B800D091BA008091BC008A7B52
:101000008093BC0060E082E00E94850360E083E0A2
:101010000E9485030E94BD07D093BA00C093B80018
:10102000DF91CF9108958F929F92AF92BF92CF920E
:10103000DF92EF92FF920F931F93CF93DF93D091A4
:10104000DE03D13208F0D7C0182FC091DD030E9413
:10105000E4036B017C018091B50381116BC082E0D8
:101060008093B5031093B4038FEF8093B303109272
:10107000B203D093B103ADEBB3E0E1E9F3E080E07C
:10108000D81391C01092900380919003CC0FC82B7D
:10109000C093900380918F03813009F088C0109233
:1010A0008F030E94E4036B017C0180919003809385
:1010B000BB008091B7039091B803A091B903B091A0
:1010C000BA03892B8A2B8B2BA1F00E94E403009199
:1010D000B7031091B8032091B9033091BA036C198A
:1010E0007D098E099F09061717072807390708F495
:1010F00042C08091BC0083FDD8CF85EC8093BC00BA
:101100000E94E4036B017C018091B503823009F4F5
:1011100050C08091B3038F3F09F46FC08091B30337
:10112000803209F46CC08091B303803309F469C044
:1011300084E026C08091B7039091B803A091B903D1
:10114000B091BA03892B8A2B8B2B09F484CF0E9490
:10115000E4038090B7039090B803A090B903B090D7
:10116000BA036C197D098E099F0986169706A80691
:10117000B90608F070CF8091B6030E94F20785E0AF
:101180001092BC031092DE031092BB03DF91CF914B
:101190001F910F91FF90EF90DF90CF90BF90AF9095
:1011A0009F908F9008959D9191938F5F69CF85EE69
:1011B000A5CF8091B7039091B803A091B903B091E6
:1011C000BA03892B8A2B8B2B09F49ECF0E94E40350
:1011D0000091B7031091B8032091B9033091BA037D
:1011E0006C197D098E099F0906171707280739070B
:1011F00008F08ACFC0CF81E0C3CF80E0C1CF82E0CA
:10120000BFCF83E0BDCFFC01A481B581868191E091
:101210009093BB038093DD031092BC031092DE0316
:10122000ED91FC9111970190F081E02DCD01099590
:1012300081E00C94130810927D0460E080E794E054
:101240000C940309CF93DF93EC018B818823A1F0E9
:10125000888191E09093BB038093DD031092BC03DF
:101260001092DE0381E00E94130891E0811190E06A
:10127000892FDF91CF9108950E94DB0781E08B8356
:10128000CE010E942209982F8111E2CFF1CFE09187
:101290006E0380916D03E81730F4F0E0E159FC4FE4
:1012A000808190E008958FEF9FEF089590916E03F5
:1012B00080916D032FEF3FEF981748F4E92FF0E08E
:1012C000E159FC4F208130E09F5F90936E03C9018C
:1012D000089580916D0390916E03891B990B089579
:1012E000CF92DF92EF92FF920F931F93CF93DF93F2
:1012F0007C01CB018A012091BB03222389F0EB0101
:101300006B01C40ED51ECC15DD0569F06991D701BE
:10131000ED91FC910190F081E02DC7010995F3CF8B
:10132000642F0E949607C801DF91CF911F910F9102
:10133000FF90EF90DF90CF900895CF93DF931F92AF
:10134000CDB7DEB769832091BB032223F9F020914A
:10135000DE03203258F021E030E0FC0133832283A9
:1013600090E080E00F90DF91CF9108958091BC03D1
:10137000E82FF0E0E354FC4F998190838F5F8093D6
:10138000BC038093DE0381E090E0ECCF61E0CE010E
:1013900001960E949607F7CF90E080E00895CF93E2
:1013A000DF93D82FC92F0E943B04811116C0A09152
:1013B000210390912003ED2FFC2F24912223A9F0EB
:1013C00081E08A0FB0E0A056BD4F2C9387FF02C08A
:1013D00091E080E03196A82FF0CF6D2F7C2F8FED1C
:1013E00093E0DF91CF910C949605A0932103909305
:1013F0002003DF91CF9108950E94CF098AEC90E0FD
:101400000C94CF090E944A0460932E0370932F031B
:10141000809330039093310380916F0481FF11C05A
:1014200082FD0FC0846080936F0481E080937D040F
:1014300068E080E794E00E9403098CEC90E00C9453
:10144000FC0908952F923F924F925F926F927F9284
:101450008F929F92AF92BF92CF92DF92EF92FF92C4
:101460000F931F93CF93DF935C011B016A01F12C53
:10147000E12CD50114968D919C9186010E191F09BE
:101480008017910708F48C01F501D0810E94E403D4
:101490002B013C018091B503811172C0C02F013234
:1014A00008F0C0E2F1E0F093B50321E0C601801B33
:1014B000910BE816F90608F420E02093B4038FEFAF
:1014C0008093B3031092B2038C0F8093B103A1E019
:1014D000A093900380919003DD0FD82BD0939003BD
:1014E00080918F03813009F090C010928F030E9489
:1014F000E4032B013C01809190038093BB00809119
:10150000B7039091B803A091B903B091BA03892BA6
:101510008A2B8B2BA1F00E94E4032091B70330911A
:10152000B8034091B9035091BA036419750986094B
:101530009709261737074807590708F442C08091D2
:10154000BC0083FDD8CFB5ECB093BC000E94E4038F
:101550002B013C018091B503813009F45AC0809180
:10156000B2038C1710F4C091B203A1E9B3E0EFE627
:10157000F3E080E08C1751F19D9191938F5FFACF4A
:101580008091B7039091B803A091B903B091BA03C9
:10159000892B8A2B8B2B09F47DCF0E94E4032091A9
:1015A000B7033091B8034091B9035091BA0364195D
:1015B000750986099709261737074807590708F05C
:1015C00069CF8091B6030E94F207C0E010926E03CB
:1015D000C0936D03C017110609F057C041018E0C6E
:1015E0009F1CE401CE01881999098017910798F58D
:1015F000D50111968D919C91DC01ED91FC910284B5
:10160000F385E02D09958993EDCFE5EEE093BC00DD
:101610009DCF8091B7039091B803A091B903B09189
:10162000BA03892B8A2B8B2B09F494CF0E94E403F5
:101630002091B7033091B8034091B9035091BA0398
:101640006419750986099709261737074807590746
:1016500008F080CFB6CFE00EF11EEC14FD0408F4C4
:1016600008CF81E0DF91CF911F910F91FF90EF9014
:10167000DF90CF90BF90AF909F908F907F906F90B2
:101680005F904F903F902F90089580E0EBCF1F9395
:10169000CF93DF93DC011496ED91FC91E417F507ED
:1016A00010F490E01FC0122FEA01FC0181819281A9
:1016B000208131E03093BB032093DD031092BC0303
:1016C0001092DE03DC01ED91FC910280F381E02DAC
:1016D0000995C817D90729F7812F0E94130891E0AF
:1016E0008111DFCF892FDF91CF911F910895EF9264
:1016F000FF920F931F93CF93DF9300D000D000D0C1
:101700001F92CDB7DEB78C011982E0906B03F09089
:101710006C0320E041E050E0BE016F5F7F4FC701E6
:101720000E94470B882341F047E050E0BE016F5F05
:101730007F4FC7010E94220AE981EF77FA81FB807F
:101740005D814E814F778F81282F30E094E0359571
:1017500027959A95E1F7922F990F990F291B220F40
:10176000280FD8012C93842F90E024E0959587953D
:101770002A95E1F7982F990F990F891B880F840FED
:1017800011968C931197652F70E034E075956795ED
:101790003A95E1F7862F880F880F681B660F650F53
:1017A00012966C9312974F2D50E064E05595479533
:1017B0006A95E1F7842F880F880F481B440F4F0D5F
:1017C00013964C9313972F2F30E074E0359527959F
:1017D0007A95E1F7822F880F880F281B220F2F0F91
:1017E00014962C9314978E2F90E0F4E0959587959E
:1017F000FA95E1F7982F990F990F891B880F8E0F93
:1018000015968C93C80127960FB6F894DEBF0FBECD
:10181000CDBFDF91CF911F910F91FF90EF90089571
:10182000CF93DF9300D0CDB7DEB78FE08A8321E07E
:1018300041E050E0BE016E5F7F4F80916B0390915D
:101840006C030E94470B41E050E0BE016F5F7F4F89
:1018500080916B0390916C030E94220A89810F9002
:101860000F90DF91CF9108951F93CF93DF93CDB762
:10187000DEB72A970FB6F894DEBF0FBECDBFFC01CE
:101880001A82198235812AE0832F622F0E949726BF
:10189000982F880F890F880F830F8A833481832FB5
:1018A0000E949726982F880F890F880F830F8B83AC
:1018B0003381832F0E949726982F880F890F880FD6
:1018C000830F8C83128131812081422F50E0612F60
:1018D00070E0E4EAF4E081E0831730F49491690F5A
:1018E000711D8F5F3196F8CF333028F0822F8370CF
:1018F00011F46F5F7F4FEDE6F1E04E9FC0014F9F07
:10190000900D5E9F900D112405964D5F5F4F56958B
:10191000479556954795840F951F860F971F67E04B
:1019200070E00E94A326811101C087E08D834AE008
:10193000812F642F0E949726982F880F890F880F78
:10194000810F8E83832F0E949726982F880F890FEF
:10195000880F830F8F83822F0E949726982F880FDE
:10196000890F880F820F888721E048E050E0BE0190
:101970006F5F7F4F80916B0390916C030E94470BC8
:101980000E94100C9FE099878F778A8721E042E0C0
:1019900050E0BE01675F7F4F80916B0390916C03B5
:1019A0000E94470B2A960FB6F894DEBF0FBECDBF3C
:1019B000DF91CF911F9108951F93CF93DF93EC0197
:1019C000162F107F8B8584606C85660F682B8D8544
:1019D00028E0829FC0011124682B612BCE010E9458
:1019E00003096C85660F8D8528E0829FC001112454
:1019F000682B8B85682B612BCE01DF91CF911F91D6
:101A00000C9403090F931F93CF93DF93EC01062FE0
:101A10000E94DC0C8FE890E00197F1F720E1029F33
:101A2000800111246B85602B862F84606C85660F86
:101A3000682B8D8528E0829FC0011124682BCE0180
:101A40000E9403096B85062B6C85660F602B8D85C4
:101A500028E0829FC0011124682BCE01DF91CF9135
:101A60001F910F910C94030910927B0410927C0437
:101A7000E09178048E1708F4E82FF0E0E75BFE4F62
:101A80006081606880E794E00E94020D8FE890E03A
:101A90000197F1F70895E0E7F4E01386148661E01A
:101AA000CF010E94020D8BEF98E10197F1F70895A5
:101AB0000E944B0D80E00E94340D64EF71E080E7DE
:101AC00094E00E94960581E00E94340D80913503D8
:101AD0006CEC71E0811102C060EE71E080E794E08F
:101AE0000E94960582E00E94340D8091350360E9E2
:101AF00071E0813011F464EA71E080E794E00E94C3
:101B0000960583E00E94340D68EB71E080E794E075
:101B10000C94960521E0FC01238714860E94020D97
:101B20008FE990E00197F1F781E090E00895FB01E3
:101B300001900020E9F73197AF01461B570BDC01FC
:101B4000ED91FC910280F381E02D0994009729F03A
:101B5000BC0180E794E00C94970D90E080E008953C
:101B60008F929F92AF92BF92CF92DF92EF92FF92AD
:101B70000F931F93CF93DF93CDB7DEB7A1970FB627
:101B8000F894DEBF0FBECDBF6C01990FEE08FF08C1
:101B9000F7FE43C06DE280E794E00E948A0D8C015D
:101BA00022273327A9012C193D094E095F0919A2E3
:101BB000CE0181967C019AE0892E912CA12CB12C2A
:101BC000CA01B901A50194010E94B724605DF70123
:101BD00062937F01211531054105510589F790E098
:101BE00080E0309729F0BF0180E794E00E94970DD4
:101BF000800F911FA1960FB6F894DEBF0FBECDBF28
:101C0000DF91CF911F910F91FF90EF90DF90CF90D8
:101C1000BF90AF909F908F900895A701960119A251
:101C20008E010F5D1F4F8AE0C82ED12CE12CF12CC4
:101C3000CA01B901A70196010E94B724605DF801AD
:101C400062938F01211531054105510589F790E017
:101C500080E0309779F2BF0180E794E00E94970D11
:101C6000C9CF0E944B0D62E871E080E794E00E94CA
:101C7000960581E00E94340D80913603811104C0E5
:101C800089E891E00E94A60D80910E0190910F01CC
:101C90000A9724F48BE891E00E94A60D80910E0132
:101CA00090910F010E94B00D80913603811104C004
:101CB0008DE891E00E94A60D8FE891E00E94A60DAC
:101CC00080913603813021F489E891E00E94A60DCD
:101CD00080910C0190910D010A9724F48BE891E01A
:101CE0000E94A60D80910C0190910D010E94B00DF3
:101CF00080913603813021F48DE891E00E94A60D99
:101D00008FE891E00E94A60D80913603823021F485
:101D100089E891E00E94A60D80910A0190910B0143
:101D20000E94B00D80913603823021F48DE891E05D
:101D30000E94A60D82E00E94340D8091360383300C
:101D400021F489E891E00E94A60D80911001909104
:101D500011010A9724F48BE891E00E94A60D80916E
:101D60001001909111010E94B00D809136038330D3
:101D700021F48DE891E00E94A60D81E991E00E9496
:101D8000A60D80913603843021F489E891E00E9409
:101D9000A60D80913703909138030A9724F48BE8BD
:101DA00091E00E94A60D80913703909138030E9424
:101DB000B00D80913603843021F48DE891E00E94CB
:101DC000A60D81E991E00E94A60D80913603853031
:101DD00021F489E891E00E94A60D80913903909149
:101DE0003A030A9724F48BE891E00E94A60D8091B3
:101DF000390390913A030E94B00D809136038530EB
:101E000021F48DE891E00E94A60D83E00E94340D3C
:101E100061E771E080E794E00C949605CF93DF933F
:101E200000D000D000D0CDB7DEB70E944B0D6FE5DB
:101E300071E080E794E00E94960581E00E94340DF5
:101E400083E991E00E94A60D86E0EBE2F1E0DE017D
:101E5000119601900D928A95E1F78091320390E0FE
:101E6000880F991F21E030E02C0F3D1F820F931F38
:101E7000FC01808191810E94A60D82E00E94340DB8
:101E80008AE991E00E94A60D80912C0390912D0388
:101E90000E94B00D80EA91E00E94A60D80912A0375
:101EA00090912B030E94B00D82E092E00E94A60D5B
:101EB00083E00E94340D82EA91E026960FB6F894F2
:101EC000DEBF0FBECDBFDF91CF910C94A60D8091E8
:101ED0006F0484FD0DC00E944B0D61E571E080E749
:101EE00094E00E94960580916F04806180936F0456
:101EF00081E00E94340D8AEC91E00E94A60D809151
:101F00003403811104C089E891E00E94A60D8091FC
:101F10000801909109010E94B00D80913403811154
:101F200004C08DE891E00E94A60D82E092E00E943C
:101F3000A60D82E00E94340D85ED91E00E94A60D71
:101F400080913403813021F489E891E00E94A60D4C
:101F500080910601909107010E94B00D8091340399
:101F6000813021F48DE891E00E94A60D82E092E09C
:101F70000E94A60D83E00E94340D80EE91E00E9445
:101F8000A60D80913403823021F489E891E00E940B
:101F9000A60D80910401909105010E94B00D8091E1
:101FA0003403823021F48DE891E00E94A60D82E096
:101FB00092E00C94A60DCF92DF92EF92FF920F93D6
:101FC0001F93CF93DF93CDB7DEB768970FB6F89422
:101FD000DEBF0FBECDBFCE0143960E94770B80912E
:101FE0006F0483FD53C00E944B0D8CE0E1E3F1E0F0
:101FF000DE01119601900D928A95E1F7109133035D
:10200000112321F0153008F014E01150E12EF12CCD
:10201000EE0CFF1C81E090E08C0F9D1FE80EF91E76
:1020200000E00F5F802F0E94340D809133038117F1
:1020300009F4ADC085E092E00E94A60DF701819100
:1020400091917F010E94A60D1111A4C086E0EBE2E0
:10205000F1E0DE011D9601900D928A95E1F7E09185
:102060003203F0E0EE0FFF1F81E090E08C0F9D1F28
:10207000E80FF91F848595850E94A60D1F5F033028
:1020800081F680916F04886080936F0480E00E94E5
:10209000340D87EF91E00E94A60D80E00E94340D80
:1020A000EB88F12C90E3E91A98EFF90A0C8910E01B
:1020B000CD88D12CEAE0CE16D10424F48BE891E04F
:1020C0000E94A60DC6010E94B00D8FE891E00E940B
:1020D000A60D0A30110524F48BE891E00E94A60DAC
:1020E000C8010E94B00D8FE891E00E94A60DC701C3
:1020F00064E670E00E94B7268C010A9724F48BE80E
:1021000091E00E94A60DC8010E94B00D86E092E009
:102110000E94A60DE88CF12C0F8910E0CE88D12CFE
:10212000FAE0CF16D10424F48BE891E00E94A60DCA
:10213000C6010E94B00D81E991E00E94A60D0A300F
:10214000110524F48BE891E00E94A60DC8010E94BD
:10215000B00D81E991E00E94A60D8AE0E816F10435
:1021600024F48BE891E00E94A60DC7010E94B00DF7
:1021700068960FB6F894DEBF0FBECDBFDF91CF914A
:102180001F910F91FF90EF90DF90CF9008958BEE0D
:1021900091E052CF143009F071CF80916F0481FD2E
:1021A0000DC081EF91E00E94A60D80916F0481FF28
:1021B00065CF82FD63CF85EF91E05ECF8EEE91E03B
:1021C000F2CFCF93DF93EC0188819981009711F0D2
:1021D0000E946D27198218821D821C821B821A821E
:1021E000DF91CF910895FC0180819181009711F0DA
:1021F0000C946D2708950F931F93CF93DF93EC01F9
:1022000088819981009759F02A813B8126173707E9
:1022100030F081E0DF91CF911F910F9108958B01F4
:102220006F5F7F4F0E94F627009759F0998388834C
:102230001B830A832C813D81232B59F7FC011082DB
:10224000E8CF80E0E7CF0F931F93CF93DF93EC01AC
:102250000C811D810F5F1F4FB8010E94FB10882366
:1022600091F0288139818C819D8160EA71E0820F33
:10227000931F0E94BC281D830C83CE01DF91CF9158
:102280001F910F910895CE010E94E110F6CFEF92B9
:10229000FF920F931F93CF93DF93EC01FB01E0803C
:1022A000F180E114F10411F104811581011511058A
:1022B000A9F08C819D81080F191FB801CE010E94E1
:1022C000FB10882399F0288139818C819D81B70189
:1022D000820F931F0E94BC281D830C83CE01DF91C7
:1022E000CF911F910F91FF90EF900895CE010E9422
:1022F000E110F4CFEF92FF920F931F93CF93DF93F0
:10230000EC017B018A01BA010E94FB1081110BC014
:10231000CE010E94E110CE01DF91CF911F910F916C
:10232000FF90EF9008951D830C83B70188819981F8
:102330000E94BC28F0CFEF92FF920F931F93CF9390
:10234000DF93CDB7DEB762970FB6F894DEBF0FBE4E
:10235000CDBF8C01CB01F801118210821382128251
:10236000158214824AE09E012F5F3F4F7901B90127
:102370000E94E422F70101900020E9F73197AF01B4
:102380004E195F09B701C8010E947A1162960FB613
:10239000F894DEBF0FBECDBFDF91CF911F910F919B
:1023A000FF90EF90089585ED8093BC008091B70376
:1023B0009091B803A091B903B091BA030796A11DFB
:1023C000B11D23E0B695A795979587952A95D1F7E6
:1023D0002091BC0024FD03C01092B50308954091E4
:1023E000B7035091B8036091B9037091BA03452BBC
:1023F000462B472B69F30097A105B10541F02AE26E
:102400002A95F1F700C00197A109B109E1CF8091A8
:10241000B6030C94F207FF920F931F93CF93DF93B1
:102420008C01EB01F8800E943824F81621F06F2D02
:10243000C8010E944024CE01DF91CF911F910F91DE
:10244000FF900895FF920F931F93CF93DF93EC01BA
:102450008B01FB01F0800E943824F81621F06F2DCB
:10246000CE010E944024F801F1802196CE010E9405
:102470003824F81621F06F2DCE010E944024C801A7
:10248000DF91CF911F910F91FF900895CF93DF932C
:102490001F92CDB7DEB768E071E090E080E00E9467
:1024A000221266E071E084E090E00E94221264E073
:1024B00071E088E090E00E94221262E373E08CE019
:1024C00090E00E940B1280916F0486958170898341
:1024D000BE016F5F7F4F80E190E00E940B1288E3A6
:1024E00091E00E94FC090F90DF91CF910895CF9366
:1024F000DF93EB010E9438248883CE01DF91CF91D6
:1025000008950F931F93CF93DF938C01EB010E94EB
:1025100038248883C80101960E9438248983CE011B
:10252000DF91CF911F910F9108958F929F92AF925B
:10253000BF92CF92DF92EF92FF920F931F93CF93B0
:10254000DF9300D000D000D0CDB7DEB76C010E9481
:102550003B04D60114964D915C9115978823C9F0E0
:102560006D917C918FED93E00E942C0626960FB61C
:10257000F894DEBF0FBECDBFDF91CF911F910F91B9
:10258000FF90EF90DF90CF90BF90AF909F908F9093
:102590000895B0902103EB2CF12C00E810E00E1907
:1025A0001F094017510708F48A011A8219821C82F8
:1025B0001B821E821D8250E040E067E472E0CE0183
:1025C00001960E947A11F60184819581009729F184
:1025D00048018017910708F44C01D601ED91FC9158
:1025E0001197E80DF91DA08010826D917C91611505
:1025F000710561F1FB0101900020E9F73197AF010E
:10260000461B570BCE0101960E947A11F60180817C
:102610009181880E991ED401AC920F3F100761F092
:10262000F701E056FD4F7F01309731F0CD80DE801D
:10263000C114D10481F41082CE0101960E94F310DE
:102640000B0D07FD17C00093210390CFCE0101961B
:102650000E94E110DBCF0C151D0508F468016981AB
:102660007A81A601C7010E94C328EC0CFD1CD7018A
:102670001C92E2CF1092210381E08093200376CF59
:10268000CF93DF9300D000D000D01F92CDB7DEB73C
:1026900068E071E090E080E00E94811266E071E005
:1026A00084E090E00E94811264E071E088E090E0B4
:1026B0000E94811262E373E08CE090E00E94771246
:1026C000BE01695F7F4F80E190E00E94771221E0B8
:1026D0008F81811101C020E080916F0420FB81F97E
:1026E00080936F04809108019091090183339105D3
:1026F00014F082E390E01816190614F081E090E0DF
:10270000909309018093080180910601909107013F
:10271000813D37E0930714F080ED97E08233910517
:1027200014F482E390E09093070180930601809176
:10273000040190910501893833E1930714F088E88A
:1027400093E18233910514F482E390E090930501C4
:102750008093040180913203833008F082E08093FB
:10276000320380916F0420FB82F980936F040E94F2
:102770004A0460932E0370932F0380933003909349
:10278000310380916F0482FF6CC081E080937D04EF
:1027900068E080E794E00E94030982E291E00E94F1
:1027A000CF096091080170910901CE0101960E9444
:1027B0009B11CE0101960E949512CE0101960E94B6
:1027C000F31088E191E00E94CF09609106017091B9
:1027D0000701CE0101960E949B11CE0101960E9435
:1027E0009512CE0101960E94F31086E091E00E94BE
:1027F000CF096091040170910501CE0101960E94FC
:102800009B11CE0101960E949512CE0101960E9465
:10281000F3108FEF90E00E94CF0988EF90E09A8349
:10282000898381EF90E09C838B8388EE90E09E8388
:102830008D83E0913203F0E0EE0FFF1F81E090E026
:102840008C0F9D1FE80FF91F808191810E94FC0968
:1028500027960FB6F894DEBF0FBECDBFDF91CF91A4
:1028600008950E941B0999CF1F920F920FB60F92E5
:1028700011242F933F938F939F93AF93BF93809196
:102880005D0390915E03A0915F03B091600330916E
:102890005C0323E0230F2D3758F50196A11DB11DD0
:1028A00020935C0380935D0390935E03A0935F038A
:1028B000B09360038091610390916203A0916303E0
:1028C000B09164030196A11DB11D809361039093A3
:1028D0006203A0936303B0936403BF91AF919F9190
:1028E0008F913F912F910F900FBE0F901F901895D1
:1028F00026E8230F0296A11DB11DD2CF1F920F9281
:102900000FB60F9211248F939F938091E1009091C5
:10291000E100937F9093E10083FF0FC01092E900E4
:1029200091E09093EB001092EC0092E39093ED0015
:102930001092660398E09093F00082FF22C093E02B
:102940009093E9009091F200992319F09AE3909303
:10295000E80090919D02992341F090919D02915041
:1029600090939D02911101C05D9A90916503992306
:1029700041F090916503915090936503911101C0CE
:10298000289A84FF18C08091E2008E7E8160809337
:10299000E2008091E1008F7E8093E10080919E02B1
:1029A0008E7E806180939E029F918F910F900FBECB
:1029B0000F901F90189580FFF7CF8091E2008E7ED8
:1029C00080618093E2008091E1008E7E8093E1003F
:1029D00080919E028E7E8160E5CF1F920F920FB68E
:1029E0000F921124CF92DF92EF92FF920F931F93D9
:1029F0002F933F934F935F936F937F938F939F9307
:102A0000AF93BF93EF93FF93CF93DF93CDB7DEB731
:102A10006C97DEBFCDBF1092E9008091E80083FF84
:102A200025C068E0CE0145960E94890582EF80931B
:102A3000E8008D8987FF39C09091E80090FFFCCFB6
:102A4000982F907609F034C19E894F89588D2F892F
:102A5000F88C911131C0803861F580919F0280938C
:102A6000F1001092F1008EEF8093E8006C960FB6A3
:102A7000F894DEBF0FBECDBFDF91CF91FF91EF91F4
:102A8000BF91AF919F918F917F916F915F914F9186
:102A90003F912F911F910F91FF90EF90DF90CF907A
:102AA0000F900FBE0F901F9018959EEF9093E80027
:102AB000C7CF1092F100D5CF913059F48111D3CF07
:102AC0004130510581F680919F028D7F80939F0256
:102AD000CACF933049F48111C6CF4130510519F660
:102AE00080919F028260F2CF953041F48091E8009E
:102AF00080FFFCCF20682093E300B5CF963009F02B
:102B0000A9C00B8D1C8D22E01092E90010929B024F
:102B100010929A02F2122EC010929902109298020C
:102B20000E94FB051F8299E09983FA8291E09E83BF
:102B300090EA98879AEF998720919A0230919B02A8
:102B4000275F3F4F3C832B838D831092E9001092C7
:102B50009B0210929A02109399020093980249E006
:102B600050E0BE016F5F7F4F80E00E94B8040E947A
:102B7000FB0579CF10939902009398020E94E70514
:102B8000DC0112960D911C910115110509F451C13A
:102B9000D801ED91FC910480F581E02DBE016B5EC2
:102BA0007F4FC8010995009709F03EC1F8010085E3
:102BB0001185EACFF3E0FF120EC08F89882309F454
:102BC00040C0823061F440E860E184E692E00E9417
:102BD0008504811148CF81E28093EB0047CF81309B
:102BE00029F440E86BE088E592E0F1CF833099F773
:102BF0000E94E705DC011296ED90FC908E010F5FBC
:102C00001F4F6801E114F10479F0D701ED91FC91B7
:102C10000680F781E02DB801C7010995080F111D45
:102C2000F701E084F184EECFD8011C92F601019007
:102C30000020E9F73197BF016C197D0940E0C6011A
:102C4000C6CF62E472E0FB01449150E080E80E944C
:102C5000B80409CF973009F4BECF983021F481E051
:102C60008093F10000CF993009F0FDCE837009F018
:102C7000B2CFE3E1F1E081E031E096E3219122235C
:102C800071F08093E9003093EB00DF0111972C91F4
:102C90002093EC009093ED008F5F873079F78EE7FB
:102CA0008093EA001092EA008F8980936603DBCE5E
:102CB0008B8D9C8D1092E90010929B0210929A02CB
:102CC0009093990280939802898D811192C08E8988
:102CD0009D89913A49F4813209F07DCF47E050E077
:102CE00069E171E080E0B3CF913209F074CF8332B3
:102CF00069F48F89988DB0E0A0E0809300019093F3
:102D00000101A0930201B0930301ADCE803269F4BA
:102D10008091E80082FFFCCF67E089E191E00E94AA
:102D200089058BEF8093E8009ECE823209F09BCE1E
:102D30008F8980932001EEEFFFE7859194918B3F7F
:102D40009C4D51F1E0E0F8E08091190190911A0159
:102D5000A0911B01B0911C01803B9440A105B105DD
:102D6000F1F48091200180FD1AC0EE3F8AE0F8075F
:102D700089F587E797E7918380838091600080934E
:102D80009C0288E19BE00FB6F894A89580936000C0
:102D90000FBE9093600067CEEEEFFAE0D5CF808152
:102DA00091818737974709F05ECEA89580916000A2
:102DB00088618093600080919C0280936000EE3F68
:102DC0002AE0F20789F08091FE0A9091FF0A918330
:102DD000808349CE808191818737980751F2909303
:102DE000FF0A8093FE0AC5CF1092FF0A1092FE0AD6
:102DF0003ACE0E94E705DC0112960D911C91011557
:102E0000110509F4E8CED801ED91FC910190F08113
:102E1000E02DBE016B5E7F4FC8010995811123CE65
:102E2000F80100851185EBCF181619060CF41BCE9E
:102E3000D2CEF1E0FF12BECE66E472E004CF1F9264
:102E40000F920FB60F9211242F933F934F935F93DE
:102E50006F937F938F939F93AF93BF93EF93FF9362
:102E60008091B900887F803609F44AC0F0F5883235
:102E700009F4A7C018F5803109F49BC0B8F4882381
:102E800009F4F9C0883009F494C0FF91EF91BF9123
:102E9000AF919F918F917F916F915F914F913F91F2
:102EA0002F910F900FBE0F901F901895883109F445
:102EB00088C0803251F78093B30314C0803409F482
:102EC0009DC040F48033B9F38833F9F68093B3039F
:102ED00085ECB0C0803509F485C0883509F496C00A
:102EE000883499F60E94D311D0CF883909F48CC068
:102EF00038F5883729F050F4883611F0803729F6F4
:102F000083E08093B50310928B0257C0883809F490
:102F10007BC0803919F0803809F0B7CF80918B02DF
:102F2000803208F071C0E0918B0281E08E0F8093B7
:102F30008B028091BB00F0E0E559FD4F80833DC0DE
:102F4000803B39F0E0F4803A09F479C0883A09F01E
:102F50009CCF84E08093B50310926A0210926902BC
:102F6000E0916903F0916A030995809169028111EA
:102F70000FC081E0809369021092490209C0803C31
:102F800009F4A6CF883C09F4A3CF883B09F07DCF94
:102F9000E0916A0281E08E0F80936A02F0E0E75BC5
:102FA000FD4F80818093BB0090916A0280916902FD
:102FB00029C0809190038093BB0085EC8093BC0076
:102FC00064CF9091B2038091B103981758F5E091C6
:102FD000B20381E08E0F8093B203F0E0EF56FC4F16
:102FE0008081E9CFE091B20381E08E0F8093B2033C
:102FF0008091BB00F0E0EF56FC4F80839091B203CC
:103000008091B1039817C8F285E8D8CFE091B20358
:1030100081E08E0F8093B2038091BB00F0E0EF5609
:10302000FC4F80838091B40381115CCF81E0809359
:103030008F0384EA8093BC001092B50326CF85EC01
:103040008093BC001092B50380918B02803230F4E3
:10305000E0918B02F0E0E559FD4F108260918B0208
:1030600070E0E0916703F09168038BE692E00995C8
:1030700010928B020ACF1092B30334CFCF931092E9
:10308000E2031092E10388EE93E0A0E0B0E08093C9
:10309000E3039093E403A093E503B093E60381E593
:1030A00091E09093E0038093DF038FEF9FEF909385
:1030B000EC038093EB031092560480914E0481112F
:1030C00013C010924904109248048FEA94E0909340
:1030D0004B0480934A0486E390E090934D048093E0
:1030E0004C0481E080934E048091400481112AC0F9
:1030F000C1E0C0933304C093340489E394E0909317
:10310000360480933504109238041092370483E615
:1031100091E09093300480932F0410923B0410921E
:103120003A0410923D0410923C04C0933E04C093B4
:103130003F0481EC809339040E94E7050E949E02BF
:10314000C0934004E0913A04F0913B04309709F0B9
:1031500059C088E494E090933B0480933A048091B2
:103160003C0490913D0420914C0430914D04820F19
:10317000931F90933D0480933C0410925A04109244
:10318000590488EE93E0A0E0B0E080935B04909354
:103190005C04A0935D04B0935E048FE691E090938D
:1031A000580480935704109273041092720481E8BB
:1031B00091E0909371048093700487E594E090937C
:1031C00075048093740487E2809376048FE0809383
:1031D000770483E0809378041092790410927A0443
:1031E00010927B0410927C0410927D0486E0EDE343
:1031F000F1E0A3E6B4E001900D928A95E1F7CF915A
:103200000895FC01808191810097D9F788E494E0CA
:1032100091838083A4CFCF93DF93CDB7DEB7A09700
:103220000FB6F894DEBF0FBECDBF789484B5826030
:1032300084BD84B5816084BD85B5826085BD85B55A
:10324000816085BD80916E00816080936E001092D8
:103250008100809181008260809381008091810053
:1032600081608093810080918000816080938000E4
:1032700080919100826080939100809191008160A3
:103280008093910080919000816080939000809164
:10329000C10084608093C1008091C10082608093EE
:1032A000C1008091C10081608093C1008091C30002
:1032B00081608093C3008091C00082608093C000D1
:1032C0008091C20081608093C20080917A00846006
:1032D00080937A0080917A00826080937A00809156
:1032E0007A00816080937A0080917A008068809370
:1032F0007A001092660310929F0210929E028091B3
:10330000D70081608093D70080EA8093D80089B588
:10331000806189BD89B5826089BD09B400FEFDCF99
:1033200061E070E080E090E00E9409048091D800A4
:103330008F7C80618093D8008091E000807F8093B3
:10334000E0008091E1008E7E8093E1008DE080932B
:10335000E200559A209A61E088E00E94B303B9E444
:10336000EB2EB1E0FB2E03E411E062E0D8018D9179
:103370008D010E94B303E016F106B9F761E08CE01D
:103380000E94B30361E086E00E94B30360E08CE03A
:103390000E94850360E086E00E9485038FEF9FEF27
:1033A0009093EC038093EB038CE493E00E94FC0980
:1033B0000E94DB0760E080E794E00E94030962E37B
:1033C00070E080E090E00E94090410927B0410926B
:1033D0007C0460E380E794E00E94DC0C8BE991E4DC
:1033E0000197F1F760E380E794E00E94DC0C83E54D
:1033F00092E00197F1F760E380E794E00E94DC0C33
:103400000FE810E0C8010197F1F760E280E794E06F
:103410000E94DC0CC8010197F1F768E280E794E0B4
:103420000E94020DC8010197F1F710927B041092DF
:103430007C0460917904862F8460809379046C60A9
:1034400080E794E00E94020DC8010197F1F70E9405
:103450004B0D10927B0410927C0460917A04862FAD
:10346000826080937A04666080E794E00E94020D97
:10347000C8010197F1F70E9440130E944B0D81E0B3
:103480000E94340D6CE373E080E794E00E9496059F
:1034900082E00E94340D69E273E080E794E00E94CC
:1034A000960560ED77E080E090E00E94090480914D
:1034B0006B0390916C03009711F00E946D2786E0DA
:1034C00090E00E94D1268C0188E6F801808387E590
:1034D00094E092838183138280E290E095838483D9
:1034E00010936C0300936B030E94DB0781E0D8010B
:1034F00013968C93C8010E942209811156C08BE05B
:1035000093E00E94FC090E944B0D60E073E080E7AD
:1035100094E00E94960560ED77E080E090E00E94E4
:1035200009040E94DB0F83EA92E00E94FC0985E710
:1035300092E00E94FC090E943B04882309F4FDC12B
:1035400080916F0485FDF9C1806280936F04809142
:103550002103811105C080912003882309F4CAC08A
:1035600065E773E08FED93E00E94960565E472E0F5
:103570008FED93E00E94970D80912003882309F43A
:1035800096C00091210310E000561D4FC801805ADB
:103590009240803891050CF08AC0F80161918F014A
:1035A0008FED93E00E944206F1CF0E94100C90E054
:1035B000880F892F881F990B892B09F457C081EE3A
:1035C00092E00E94FC094BE050E065ED72E0CE0114
:1035D00001960E94DB22CE010A960E94C4068C87C7
:1035E000E981E154E33110F50E2E000CFF0BE5509C
:1035F000F54E0C94CB26411B161B161B551B161B98
:103600003F1B161B161B161B0E1B161B161B481BDF
:10361000531B511B161B161B161B4F1B8A81813611
:1036200051F18B818E3649F586E08D87CE01059666
:103630000E94C4068E8748E050E06CEC72E0CE0138
:1036400001960E94DB22CE0101960E94C4068F875C
:10365000CE0104960E94C406888BCE0107960E9474
:10366000C406898BCE010C960E94340C8AEB92E042
:103670000E94FC0956CF81E0D8CF87E0D6CF82E008
:10368000D4CF8B81823711F484E0CFCF88E0CDCFC7
:103690008B81823711F483E0C8CF85E0C6CF89E003
:1036A000C4CF8AE0C2CF8BE0C0CF8CE0BECF00EAAF
:1036B00012E020912103C801805A92402817190670
:1036C00049F044F0D8016D918D018FED93E00E9497
:1036D0004206EFCF69E673E08FED93E00E94960516
:1036E00065E472E08FED93E00E94970D1092210344
:1036F000109220030E944A04698F7A8F8B8F9C8FCF
:1037000080916F0481FF25C182FF23C10E944A047A
:1037100000912E0310912F0320913003309131033B
:10372000601B710B820B930B60337547810591050C
:1037300008F40FC180916F048B7F80936F040E9407
:103740001B0984E893E00E94FC0980916F0480FFCC
:103750007BC30E944A046D8F7E8F8F8F98A38091C8
:10376000220390912303A0912403B09125034D8D52
:103770005E8D6F8D78A1481B590B6A0B7B0B809176
:10378000040190910501092E000CAA0BBB0B4817F0
:1037900059076A077B0750F080913203813009F4A2
:1037A00068C208F4E2C0823009F4C2C280915803B2
:1037B00090915903A0915A03B0915B03298D3A8DE2
:1037C0004B8D5C8D281B390B4A0B5B0BDA01C90151
:1037D000883E9340A105B10590F0898D9A8DAB8DFF
:1037E000BC8D8093580390935903A0935A03B093D0
:1037F0005B0380915703811102C00E94DB0F80910F
:10380000530390915403A0915503B0915603298D11
:103810003A8D4B8D5C8D281B390B4A0B5B0BDA0103
:10382000C90184369105A105B105A8F0898D9A8D4D
:10383000AB8DBC8D8093530390935403A093550399
:10384000B093560380915703823029F480916F041E
:1038500080FD0E940E0F93E6C92E94E0D92E2BE333
:10386000A22E23E0B22E33E4232E31E0332EF12CAE
:1038700040ED442E43E0542E59EC652E53E0752E56
:1038800060EC862E63E0962ED1018D911D010E9481
:103890005C038C01F60180818017110651F0298D9F
:1038A0003A8D4B8D5C8DD5012D933D934D935C935B
:1038B0001397F50181919191A191B1915F01EE244E
:1038C000E3940115110509F4E12C298D3A8D4B8DF6
:1038D0005C8D281B390B4A0B5B0BDA01C901C397BE
:1038E000A105B105D8F0D60116968C9116978017D0
:1038F0001106A1F01696EC920115110579F40E94BB
:10390000020A80915703823009F47DC408F0A1C2F5
:10391000882309F4D8C2813009F4C0C3D601ED92DE
:103920006D01F394B6E0FB12AFCF80E090E0892BFD
:1039300009F401CE0E940000FECD0E943B048111DB
:10394000D9CE80916F0485FFD5CE8F7D80936F0493
:10395000D1CE80916F0481FDF8CE82FFF6CE8B7FB1
:1039600080936F040E941B09F0CE0E94832224E7FB
:1039700032E040E050E00E944E240E941B2320E0F1
:1039800030E048EC52E40E945A252B013C01C090E3
:103990000801D090090189E18C9D40018D9D900C1A
:1039A0001124092C000CAA08BB080D2C000CEE08F1
:1039B000FF08C814D904EA04FB048CF48C189D0891
:1039C000AE08BF0841F00E948322A50194010E9425
:1039D0004E244B015C01C80CD91CEA1CFB1CC30122
:1039E000B2010E9455254B015C01B601DD0C880B2C
:1039F000990B0E941B236B017C01AC019B01C5014B
:103A0000B4010E947A230E94CC254B011B01C30103
:103A1000B2010E9446269B01AC01C701B6010E947B
:103A20007A230E94CC256B018B0180912C0390910D
:103A30002D03209106013091070137FF02C02F5F4F
:103A40003F4F35952795880E991E97FE03C0919498
:103A500081949108281539052CF46DEF7FEF0E94B1
:103A6000B7261B0180912A0390912B03C80ED91E03
:103A7000D7FE03C0D194C194D1082C153D052CF478
:103A80006DEF7FEF0E94B7268B012114310421F4E2
:103A90000115110509F48ACE8091560489832A8282
:103AA0000B831C828091400481112BC0FF24F3946E
:103AB000F0923304F092340489E394E09093360456
:103AC00080933504109238041092370483E691E015
:103AD0009093300480932F0410923B0410923A0488
:103AE00010923D0410923C04F0923E04F0923F0488
:103AF00081EC809339040E94E7050E949E02F092B7
:103B0000400481E0888F41E050E0BE01685E7F4F55
:103B1000809132040E94EF0497FD0AC08091320424
:103B200044E050E0BE016F5F7F4F80640E94EF046D
:103B300080912C0390912D03820D931D90932D0362
:103B400080932C0380912A0390912B03800F911F67
:103B500090932B0380932A0388E00E945C0361E02A
:103B6000892B09F060E088E00E9485032D8D3E8D51
:103B70004F8D58A1209322033093230340932403B5
:103B80005093250384EB93E00E94CF09B801CE0146
:103B900042960E949B11B101CE0101960E949B1199
:103BA0001D861C861F861E86198A188A69817A815D
:103BB0006115710531F04D815E81CE010C960E9438
:103BC0007A11CE010C960E942311BE016E5E7F4FCA
:103BD0000E9447110E949512CE010C960E94F3108C
:103BE000CE0101960E94F310CE0142960E94F3107E
:103BF00085EA93E00E94CF0960912A0370912B031C
:103C0000CE0142960E949B1160912C0370912D036E
:103C1000CE0101960E949B111D861C861F861E8662
:103C2000198A188A69817A816115710531F04D818F
:103C30005E81CE010C960E947A11CE010C960E94F4
:103C40002311BE016E5E7F4F0E9447110E949512A4
:103C500083EA93E00E94CF09CE010C960E94F310F4
:103C6000CE0101960E94F310CE0142960E94F310FD
:103C70009DCD0E9483222B013C01009108011091EF
:103C800009010E9483224B015C01E0900801F09041
:103C900009010E9483222FE030E040E050E00E94C2
:103CA0004E24672B682B692B39F1C301B2012BE03D
:103CB00030E040E050E00E944E24655071098109D7
:103CC0009109069F1001079F300C169F300C11249C
:103CD000C501B4012BE030E040E050E00E944E24EA
:103CE0006550710981099109E69E8001E79E100DDA
:103CF000F69E100D1124C9CE20902C0330902D0378
:103D000037FE03C0EFEF2E1A3E0A35942794319404
:103D10002194310800912A0310912B0317FF02C050
:103D20000F5F1F4F15950795119501951109ADCEA0
:103D3000809106019091070163E070E00E94B72630
:103D4000072E000C880B990B0E941B234B015C0172
:103D5000C0902603D0902703E0902803F090290319
:103D6000C701B6010E9455259B01AC01C501B401F4
:103D70000E947A232B013C0160912C0370912D034A
:103D8000072E000C880B990B0E941B239B01AC0192
:103D9000C301B2010E94E8240E94CC251B01C70187
:103DA000B6010E9446269B01AC01C501B4010E94E8
:103DB0007A234B015C0160912A0370912B03072E3B
:103DC000000C880B990B0E941B239B01AC01C501C1
:103DD000B4010E94E8240E94CC258B016091080167
:103DE00070910901072E000C880B990B0E941B2370
:103DF0002DEC3CEC4CE45DE30E947A2320E030E0C3
:103E000040E251E40E945A25A70196010E94E9244C
:103E10006B017C0123EC35EF48EC50E40E94412615
:103E200087FF09C0C0922603D0922703E09228039F
:103E3000F09229032ACE10922603109227031092A3
:103E400028031092290321CE60E088E00E948503B8
:103E5000ADCC833009F4E7C1843009F05FCD0E9416
:103E6000020A83E0F81609F490C28F1508F410C214
:103E700091E0F91609F422C1A2E0FA1609F416C27B
:103E800020913903309137034091100150910E0178
:103E900060910C0180910A0190910B01803DF7E047
:103EA0009F0710F0805D974089836A835B834C8312
:103EB0003D832E83CE0101960E94340C8BE094E06A
:103EC0000E94FC09FBC0B2E0FB1609F4D5C0E4E097
:103ED000FE1609F4DBC0F11021CD8091330382304E
:103EE000B1F188F48823F9F0813009F017CD80937F
:103EF00057031092340380916F048F7E80936F0478
:103F00000E94670F0BCD843009F491C008F45DC0A6
:103F1000853009F003CD83E0809357031092350379
:103F20000E94580DFBCC8091320390E0019663E033
:103F300070E00E94B726809332030E94461280915F
:103F40006F04877F80936F040E94DB0FE7CC809122
:103F50006F04816080936F0482E080935703109216
:103F60002D0310922C0310922B0310922A0310920F
:103F700026031092270310922803109229030E940F
:103F80004A04609322037093230380932403909345
:103F9000250387ED93E00E94CF095A8249827C82F3
:103FA0006B829E828D82E0913203F0E0EE0FFF1F64
:103FB00021E030E02C0F3D1FE20FF31F8081918143
:103FC0000E94FC090E940E0FA9CCCE0101960E940E
:103FD000770B898190E08053984F90930B018093E9
:103FE0000A018A8190E090930D0180930C018B81EE
:103FF00090E090930F0180930E018C8190E090935C
:104000001101809310018D8190E09093380380938B
:1040100037038E8190E090933A038093390384E0D4
:1040200080935703109236030E94310E77CC809113
:104030006F0481FB992790F921E0922790FB81F989
:10404000A9F0846080936F0420937D0468E080E78A
:1040500094E00E9403090E944A0460932E03709327
:104060002F03809330039093310367CF8B7F80932E
:104070006F040E941B09EFCF80913303882321F046
:104080008150809333035BCF85E0FBCF8091330376
:10409000853011F08F5FF5CF80E0F3CF0E94020AE8
:1040A00033E0F31609F468C03F1590F041E0F416D0
:1040B000E9F052E0F516E9F00E944612109257031B
:1040C00080916F04877F80936F040E944B0D3CCFDB
:1040D00074E0F71609F45BC085E0F812EDCF80912B
:1040E0003403882309F48DC081504EC00E944013D0
:1040F000E5CF80913403813051F1A8F0823009F08E
:10410000FFCE809104019091050197FD32C0873563
:10411000E3E19E0714F086E593E1C29690930501D2
:1041200080930401EDCE80910801909109018F3FA9
:10413000AFEF9A070CF450C08133910514F080E37F
:1041400090E002969093090180930801D9CE809166
:1041500006019091070197FD51C08F39B7E09B0789
:1041600014F08EE997E0C2969093070180930601C0
:10417000C7CE82E390E0D2CF8091340390E00196E5
:1041800063E070E00E94B72680933403B9CE80913B
:104190003403813021F190F0823009F0B1CE80916A
:1041A000040190910501843691051CF38B3B23E1BA
:1041B000920714F08AEB93E1C297B0CF8091080187
:1041C00090910901833091053CF08533910514F0FD
:1041D00084E390E00297B6CF81E090E0B3CF809186
:1041E0000601909107018436910544F08330F8E090
:1041F0009F0714F082E098E0C297B6CF82E390E088
:10420000B3CF82E0C1CF31E0F31288CB80916F044D
:10421000109257038E7F877F80936F0486EF93E021
:104220000E94FC0991CE0E94020A41E0F41609F4B2
:1042300045CFF41670F052E0F51619F074E0F7125D
:104240006DCB81E090913503911180E0809335032F
:1042500067CE8091350361E081110EC08CE00E9431
:10426000850368EE73E080E090E00E94090460E05E
:104270008CE00E94850354CE86E00E94850368EEA0
:1042800073E080E090E00E94090460E086E0F1CFF6
:10429000B4E0FB1609F483C0E5E0FE12F1CD809195
:1042A0003603882309F4E1C0815074C0809136033D
:1042B0008230E1F190F4882331F1813009F0B4CEFD
:1042C00080910C0190910D018C30910564F501965F
:1042D00090930D0180930C01A7CE843009F446C061
:1042E000B0F1853009F0A0CE8091390390913A0366
:1042F0008B3391051CF48C010F5F1F4F10933A0311
:104300000093390391CE80910E0190910F018F316E
:10431000910534F4019690930F0180930E0184CEA1
:1043200081E090E0F8CF81E090E0D2CF80910A0167
:1043300090910B018E3E27E0920734F40196909302
:104340000B0180930A0170CE89EE97E0F8CF80913F
:10435000100190911101873191051CF48C010F5FC0
:104360001F4F10931101009310015ECE809137030F
:10437000909138038B3391051CF48C010F5F1F4F14
:1043800010933803009337034FCE80913603853066
:1043900020F48F5F8093360347CE80E0FBCF80917F
:1043A0003603823091F170F4882301F1813009F0F5
:1043B0003BCE80910C0190910D018230910514F15A
:1043C000019786CF8430F1F168F1853009F02CCE69
:1043D0008091390390913A03181619060CF042C0E7
:1043E000019790933A03809339031ECE80910E017A
:1043F00090910F018230910514F001978CCF8FE1DD
:1044000090E089CF8CE090E063CF80910A01909199
:104410000B018A3E37E0930714F0019790CF8EEEA0
:1044200097E08DCF80911001909111011816190617
:1044300034F401979093110180931001F5CD87E139
:1044400090E0F8CF80913703909138031816190641
:1044500034F401979093380380933703E5CD8BE3D1
:1044600090E0F8CF8BE390E0BCCF85E093CF8F92C4
:104470009F92AF92BF92CF92DF92EF92FF92CF9333
:10448000DF93EC01688179818A819B8161157105D7
:104490008105910521F464E279ED8BE597E02DE14A
:1044A00033EF41E050E00E944E2449015A019B0144
:1044B000AC01A7EAB1E40E946D246B017C01ACEE73
:1044C000B4EFA50194010E947B24C60ED71EE81EFE
:1044D000F91EF7FE06C081E0C81AD108E10880E89D
:1044E000F80AC882D982EA82FB82C701B6019F77A7
:1044F000DF91CF91FF90EF90DF90CF90BF90AF9082
:104500009F908F9008958F929F92AF92BF92CF927B
:10451000DF92EF92FF9260912101709122018091D0
:10452000230190912401611571058105910521F404
:1045300064E279ED8BE597E02DE133EF41E050E067
:104540000E944E2449015A019B01AC01A7EAB1E443
:104550000E946D246B017C01ACEEB4EFA5019401C7
:104560000E947B24C60ED71EE81EF91EF7FE06C069
:1045700081E0C81AD108E10880E8F80AC092210158
:10458000D0922201E0922301F0922401C701B601EA
:104590009F77FF90EF90DF90CF90BF90AF909F906C
:1045A0008F900895609321017093220180932301DD
:1045B000909324010895FB01DC0102C005900D9247
:1045C00041505040D8F70895BB274A3031F4992321
:1045D00022F4BDE2909581959F4F0C94F022BB2769
:1045E000FB015527AA27880F991FAA1FA41710F0AF
:1045F000A41B83955051B9F7A05DAA3308F0A95DBB
:10460000A193009779F7B111B1931192CB010C945A
:104610000923DC01FC01672F71917723E1F73297C1
:1046200004C07C916D9370836291AE17BF07C8F38D
:104630000895E89409C097FB3EF490958095709595
:1046400061957F4F8F4F9F4F9923A9F0F92F96E9DE
:10465000BB279395F695879577956795B795F11153
:10466000F8CFFAF4BB0F11F460FF1BC06F5F7F4FF0
:104670008F4F9F4F16C0882311F096E911C0772302
:1046800021F09EE8872F762F05C0662371F096E80B
:10469000862F70E060E02AF09A95660F771F881FDA
:1046A000DAF7880F9695879597F90895990F00087E
:1046B000550FAA0BE0E8FEEF16161706E807F907F4
:1046C000C0F012161306E407F50798F0621B730B8F
:1046D000840B950B39F40A2661F0232B242B252B10
:1046E00021F408950A2609F4A140A6958FEF811DB3
:1046F000811D08950E948D230C94FE230E94F023B7
:1047000038F00E94F72320F0952311F00C94E72352
:104710000C94ED2311240C9432240E940F2470F386
:10472000959FC1F3950F50E0551F629FF001729F56
:10473000BB27F00DB11D639FAA27F00DB11DAA1F65
:10474000649F6627B00DA11D661F829F2227B00DB2
:10475000A11D621F739FB00DA11D621F839FA00D3D
:10476000611D221F749F3327A00D611D231F849F8D
:10477000600D211D822F762F6A2F11249F575040E4
:104780009AF0F1F088234AF0EE0FFF1FBB1F661F5F
:10479000771F881F91505040A9F79E3F510580F028
:1047A0000C94E7230C9432245F3FE4F3983ED4F357
:1047B000869577956795B795F795E7959F5FC1F7CC
:1047C000FE2B880F911D9695879597F9089597F977
:1047D0009F6780E870E060E008959FEF80EC0895A7
:1047E00000240A94161617061806090608950024D0
:1047F0000A9412161306140605060895092E03944A
:10480000000C11F4882352F0BB0F40F4BF2B11F4BD
:1048100060FF04C06F5F7F4F8F4F9F4F089557FD1C
:104820009058440F551F59F05F3F71F04795880F1E
:1048300097FB991F61F09F3F79F0879508951216B5
:1048400013061406551FF2CF4695F1DF08C0161661
:1048500017061806991FF1CF869571056105089412
:104860000895E894BB2766277727CB0197F9089529
:10487000F999FECF92BD81BDF89A992780B5089528
:10488000262FF999FECF1FBA92BD81BD20BD0FB66C
:10489000F894FA9AF99A0FBE01960895052E97FB9F
:1048A0001EF400940E94652457FD07D00E94B7248F
:1048B00007FC03D04EF40C94652450954095309538
:1048C00021953F4F4F4F5F4F08959095809570957C
:1048D00061957F4F8F4F9F4F08950E94D924A59FC8
:1048E000900DB49F900DA49F800D911D11240895EB
:1048F000B7FF0C946D240E946D24821B930B0895C6
:104900002F923F924F925F926F927F928F929F92DF
:10491000AF92BF92CF92DF92EF92FF920F931F93CD
:10492000CF93DF93CDB7DEB7CA1BDB0B0FB6F8947E
:10493000DEBF0FBECDBF09942A88398848885F84BE
:104940006E847D848C849B84AA84B984C884DF802F
:10495000EE80FD800C811B81AA81B981CE0FD11D13
:104960000FB6F894DEBF0FBECDBFED010895A1E2F2
:104970001A2EAA1BBB1BFD010DC0AA1FBB1FEE1FD9
:10498000FF1FA217B307E407F50720F0A21BB30B24
:10499000E40BF50B661F771F881F991F1A9469F7A0
:1049A00060957095809590959B01AC01BD01CF01FC
:1049B0000895A29FB001B39FC001A39F700D811DF8
:1049C0001124911DB29F700D811D1124911D089518
:1049D0005058BB27AA270E9400250C94FE230E9452
:1049E000F02338F00E94F72320F039F49F3F19F4A8
:1049F00026F40C94ED230EF4E095E7FB0C94E723EA
:104A0000E92F0E940F2458F3BA176207730784072F
:104A1000950720F079F4A6F50C9431240EF4E09576
:104A20000B2EBA2FA02D0B01B90190010C01CA0168
:104A3000A0011124FF27591B99F0593F50F4503E13
:104A400068F11A16F040A22F232F342F4427585F05
:104A5000F3CF469537952795A795F0405395C9F71D
:104A60007EF41F16BA0B620B730B840BBAF09150D5
:104A7000A1F0FF0FBB1F661F771F881FC2F70EC074
:104A8000BA0F621F731F841F48F487957795679547
:104A9000B795F7959E3F08F0B0CF9395880F08F033
:104AA0009927EE0F9795879508950E940426E39520
:104AB0000C942D260E946E250C94FE230E94F72351
:104AC00058F00E94F02340F029F45F3F29F00C9445
:104AD000E72351110C9432240C94ED230E940F24EF
:104AE00068F39923B1F3552391F3951B550BBB271D
:104AF000AA2762177307840738F09F5F5F4F220F62
:104B0000331F441FAA1FA9F335D00E2E3AF0E0E858
:104B100032D091505040E695001CCAF72BD0FE2FA2
:104B200029D0660F771F881FBB1F26173707480736
:104B3000AB07B0E809F0BB0B802DBF01FF279358EE
:104B40005F4F3AF09E3F510578F00C94E7230C94A8
:104B500032245F3FE4F3983ED4F3869577956795CA
:104B6000B795F7959F5FC9F7880F911D9695879523
:104B700097F90895E1E0660F771F881FBB1F621742
:104B800073078407BA0720F0621B730B840BBA0B00
:104B9000EE1F88F7E09508950E94D3256894B1111F
:104BA0000C94322408950E94172488F09F5798F09F
:104BB000B92F9927B751B0F0E1F0660F771F881F22
:104BC000991F1AF0BA95C9F714C0B13091F00E943C
:104BD0003124B1E008950C943124672F782F882771
:104BE000B85F39F0B93FCCF3869577956795B39563
:104BF000D9F73EF490958095709561957F4F8F4FD2
:104C00009F4F08950C94ED230E941724D8F3E89445
:104C1000E0E0BB279F57F0F02AED3FE049EC06C0EB
:104C2000EE0FBB0F661F771F881F28F0B23A62078E
:104C30007307840728F0B25A620B730B840BE39559
:104C40009A9572F7803830F49A95BB0F661F771FDC
:104C5000881FD2F790480C945026EF93E0FF07C0CE
:104C6000A2EA2AED3FE049EC5FEB0E9400250E949A
:104C7000FE230F90039401FC9058ECEAF0E00C94B2
:104C80005C260E94562308F48FEF08959F930E949C
:104C900004260F9007FCEE5F0C942D269F3F31F009
:104CA000915020F4879577956795B795880F911D5A
:104CB0009695879597F908959F938F937F936F9318
:104CC000FF93EF939B01AC010E947A23EF91FF9138
:104CD0000E9470262F913F914F915F910C947A23FF
:104CE000DF93CF931F930F93FF92EF92DF927B019D
:104CF0008C01689406C0DA2EEF010E948D23FE011C
:104D0000E894A5912591359145915591A6F3EF0130
:104D10000E940025FE019701A801DA9469F7DF904F
:104D2000EF90FF900F911F91CF91DF910895991B04
:104D300079E004C0991F961708F0961B881F7A9592
:104D4000C9F780950895AA1BBB1B51E107C0AA1F94
:104D5000BB1FA617B70710F0A61BB70B881F991F1C
:104D60005A95A9F780959095BC01CD01089597FBC0
:104D7000072E16F4009407D077FD09D00E94A326D1
:104D800007FC05D03EF4909581959F4F089570954E
:104D900061957F4F0895EE0FFF1F0590F491E02D70
:104DA00009940F931F93CF93DF938230910510F4F2
:104DB00082E090E0E0918004F091810430E020E016
:104DC000B0E0A0E0309799F42115310509F44AC00C
:104DD000281B390B24303105D8F58A819B81611558
:104DE000710589F1FB0193838283FE0111C040812B
:104DF00051810281138148175907E0F0481759077C
:104E000099F4109761F012960C93129713961C93D5
:104E10003296CF01DF91CF911F910F9108950093AA
:104E2000800410938104F4CF2115310551F042170D
:104E3000530738F0A901DB019A01BD01DF01F80138
:104E4000C1CFEF01F9CF9093810480938004CDCF3F
:104E5000FE01E20FF31F81939193225031093983B0
:104E60002883D7CF20917E0430917F04232B41F4F7
:104E7000209127013091280130937F0420937E04F4
:104E800020912501309126012115310541F42DB7DE
:104E90003EB74091290150912A01241B350BE09126
:104EA0007E04F0917F04E217F307A0F42E1B3F0B62
:104EB0002817390778F0AC014E5F5F4F241735078C
:104EC00048F04E0F5F1F50937F0440937E04819300
:104ED00091939FCFF0E0E0E09CCFCF93DF930097DA
:104EE000E9F0FC01329713821282A0918004B09104
:104EF0008104ED0130E020E01097A1F420813181A0
:104F0000820F931F20917E0430917F042817390768
:104F100009F061C0F0937F04E0937E04DF91CF91AC
:104F20000895EA01CE17DF07E8F54A815B819E010B
:104F300041155105B1F7E901FB83EA834991599184
:104F4000C40FD51FEC17FD0761F480819181029693
:104F5000840F951FE90199838883828193819B83C4
:104F60008A83F0E0E0E012968D919C911397009770
:104F7000B9F52D913C911197CD010296820F931FA7
:104F800020917E0430917F042817390739F6309735
:104F900051F51092810410928004B0937F04A09385
:104FA0007E04BCCFD383C28340815181840F951F7F
:104FB000C817D90761F44E5F5F4F88819981480F08
:104FC000591F518340838A819B819383828321155A
:104FD000310509F0B0CFF0938104E09380049ECFB7
:104FE000FD01DC01C0CF13821282D7CFB0E0A0E078
:104FF000ECEFF7E20C9482248C01009751F4CB0182
:105000000E94D1268C01C801CDB7DEB7E0E10C9437
:105010009E24FC01E60FF71F9C0122503109E21784
:10502000F30708F49DC0D901CD91DC911197C61703
:10503000D70798F0C530D10530F3CE010497861715
:10504000970708F3C61BD70B2297C193D1936D9393
:105050007C93CF010E946D27D6CF5B01AC1ABD0AAD
:105060004C018C0E9D1EA0918004B0918104512CA6
:10507000412CF12CE12C109731F580917E04909118
:105080007F048815990509F05CC04616570608F09C
:1050900058C08091250190912601009741F48DB769
:1050A0009EB74091290150912A01841B950BE81766
:1050B000F90708F055C0F0937F04E0937E04F901EE
:1050C00071836083A0CF8D919C91119712966C9003
:1050D000129713967C901397A815B90559F56C0192
:1050E00042E0C40ED11CCA14DB0420F1AC014A1901
:1050F0005B09DA011296159780F062827382518300
:105100004083D9016D937C93E114F10471F0D701D0
:105110001396FC93EE93129776CF22968C0F9D1FD9
:10512000F90191838083F301EFCFF0938104E09341
:10513000800469CF4816590608F42C017D01D3017B
:105140009ACFCB010E94D1267C01009749F0AE0195
:10515000B8010E94B328C8010E946D27870153CF70
:1051600010E000E050CFFB01DC0102C001900D9285
:1051700041505040D8F70895FB01DC0101900D9299
:105180000020E1F70895FB01DC014150504048F058
:1051900001900D920020C9F701C01D92415050406E
:0851A000E0F70895F894FFCF39
:1051A800FFFFFFFFE803C8000500E9070A000D003C
:1051B8000C0000C1808100000000E1000000000038
:1051C8000001000000000082048000B301BA01C1A0
:1051D8000193010802160224023102390201010179
:1051E8000101011716151413120040145400000091
:1051F8000042062C0663065806AA066806860600BC
:10520800000000D1064A070F07F406000000009DC1
:10521800097009CC095604690956094709000000B4
:10522800008A0DBA05CC0995073E0030003C002FD6
:10523800003A004D6F64653A2000506F733A2000C1
:105248002C0052455455524E203D204172726574CF
:1052580065720052616E646F6D004A6967676C65BC
:105268000043697263756C61720056697465737383
:10527800653A2020005A6F6E653A202020202000D1
:1052880044656C61693A20202020003E20004F4E82
:10529800004F4646002A00202020202020202020E1
:1052A8002020202020202000436F6E6669677572D9
:1052B8006174696F6E0044656D6172726572205326
:1052C800696D75005265676C657220486575726511
:1052D80000526574726F3A200054657374205265E9
:0852E8006C616973000D0A00FE
:00000001FF
