:100000000C9442020C946A020C946A020C946A02E8
:100010000C946A020C946A020C946A020C946A02B0
:100020000C946A020C946A020C9463140C94D2141B
:100030000C946A020C946A020C946A020C946A0290
:100040000C946A020C946A020C946A020C946A0280
:100050000C946A020C946A020C946A020C941914AF
:100060000C946A020C946A020C946A020C946A0260
:100070000C946A020C946A020C946A020C946A0250
:100080000C946A020C946A020C946A020C946A0240
:100090000C9404170C946A020C946A020C946A0281
:1000A0000C946A020C946A020C946A0205A84CCD66
:1000B000B2D44EB93836A9020C50B9918688083CA2
:1000C000A6AAAA2ABE000000803F0A0052C3A97453
:1000D000726FC3A9636C6169726167652072C3A99D
:1000E0006163746976C3A90043697263756C617258
:1000F000004A6967676C650052616E646F6D00202D
:100100004D6F64653D002F3230303020496E74658C
:100110007276616C6C653D002F3530205A6F6E65CC
:100120003D00506172616DC3A8747265733A2056C8
:100130006974657373653D00506172616DC3A87425
:1001400072657320736175766567617264C3A973A4
:1001500000434F4E46494755524154494F4E005374
:10016000494D554C4154494F4E2041435449564501
:1001700000454E5445523D4F4B205245543D416E33
:100180006E005245474C4147452048455552450071
:1001900054455354204F555450555400080B0002F9
:1001A0000202000009040000010202000005240010
:1001B00010010524010101042402060524060001A2
:1001C0000705810310004009040100020A00000035
:1001D00007050202400000070583024000000403F7
:1001E000090412010002EF020140412336800001A0
:1001F0000102030141726475696E6F204C4C43002B
:1002000041726475696E6F204C656F6E6172646FC8
:1002100000415454454E54494F4E3A204365207096
:10022000726F6772616D6D6520636F6E7472C3B4B7
:100230006C65206C6120736F7572697320210053A7
:10024000797374C3A86D6520696E697469616C699E
:1002500073C3A920210052544320696E69746961F7
:100260006C6973C3A920210030393A32373A3534EA
:10027000004F6374203137203230323500525443FE
:1002800020706572647565202D206D69736520C3CB
:10029000A0206C2768657572652021004552524583
:1002A00055522052544300457272657572203A20AF
:1002B00044533332333120696E74726F75766162E4
:1002C0006C652021005665722E312E3020706172CF
:1002D00020436865776279004D4F55534520534957
:1002E0004D554C41544F52003D3D3D204D6F75736F
:1002F000652053696D756C61746F722076312E3094
:10030000203D3D3D003D3D3D2046494E203D3D3D8B
:10031000003D3D3D20425546464552203D3D3D0075
:1003200052C3A974726FC3A9636C61697261676516
:1003300020C3A97465696E74202833307329000ABC
:1003400000202D3E20506F736974696F6E3A200053
:100350004D6F7576656D656E743A20004369726302
:10036000756C6172004A6967676C650052616E6402
:100370006F6D0053696D756C6174696F6E2064C335
:10038000A96D617272C3A965202D204D6F64653A15
:10039000200053696D756C6174696F6E20617272B3
:1003A000C3AA74C3A96500525443206D697320C366
:1003B000A0206A6F75722021000000000024002731
:1003C000002A002D00300000000000250028002B2E
:1003D000002E003100000000002300260029002C20
:1003E000002F0004040404040304050202020204B2
:1003F00003020202020606060606060404020202C0
:100400000404040802011040804010204080408015
:10041000080204018040201002011080102040409A
:10042000200000000200090F0000030401000C007E
:1004300000000000000000000000000000000000BC
:100440001F1C1F1E1F1E1F1F1E1F1E05010902A1AC
:10045000010901A1008501050919012903150025DC
:100460000195037501810295017505810305010957
:1004700030093109381581257F750895038106C03B
:10048000C000231811241FBECFEFDAE0DEBFCDBFBE
:1004900012E0A0E0B1E0E8E5F2E502C005900D92BF
:1004A000AE38B107D9F724E0AEE8B2E001C01D9242
:1004B000A83CB207E1F712E0C2E4D2E004C0219701
:1004C000FE010E942327C134D107C9F70E94F0180A
:1004D0000C942A290C940000CF93DF93FC018181B6
:1004E00090917904482F490F5527551F48305105E1
:1004F0009CF5A281B381109709F525E734E0338399
:1005000022832081209377048093780480917A0459
:10051000820F808320917B04A22FB0917C048A2FCC
:10052000821B8917E8F481813D91C82FD0E0CE5E0F
:10053000DE4F38838F5F8183F2CFD90118962D91DA
:100540003C91199721153105C1F725E734E019963B
:100550003C932E931897D5CF80E0DF91CF910895EB
:1005600081E0FBCF08950895FC018091AC038823BE
:1005700011F13FB7F89482E08093E9002091F200F6
:10058000822F90E01816190614F481E090E0882379
:1005900039F0289844E64093AB034091F100408342
:1005A000222339F02091F200211103C02BE6209381
:1005B000E8003FBF08958FEF9FEF089581508F307F
:1005C00008F047C0E82FF0E0E851FD4F0C942327D6
:1005D00005030903F702FD02010329032903290387
:1005E0000C03120316031A0320032903240380912A
:1005F00080008F77809380000895809180008F7DA8
:10060000F9CF80918000877FF5CF84B58F7784BD47
:10061000089584B58F7DFBCF809190008F77809374
:1006200090000895809190008F7DF9CF8091900087
:10063000877FF5CF8091C0008F778093C0000895A9
:100640008091C0008F7DF9CF8091C200877F809319
:10065000C2000895CF93DF93282F30E0F901EF5DBA
:10066000FB4F8491F901EE5FFB4FD491F901ED51FD
:10067000FC4FC491CC23A1F081110E94DE02EC2F2B
:10068000F0E0EE0FFF1FEB52FC4FA591B491EC91FF
:10069000ED2381E090E009F480E0DF91CF910895AF
:1006A00080E090E0FACF1F93CF93DF93282F30E0C4
:1006B000F901EF5DFB4F8491F901EE5FFB4FD4919F
:1006C000F901ED51FC4FC491CC23A9F0162F8111F3
:1006D0000E94DE02EC2FF0E0EE0FFF1FE953FC4F0B
:1006E000A591B4918FB7F894EC91111108C0D095F1
:1006F000DE23DC938FBFDF91CF911F910895DE2B16
:10070000F8CFCF93DF9390E0FC01EE5FFB4F249195
:100710008D519C4FFC0184918823D1F090E0880F8B
:10072000991FFC01E754FC4FA591B491FC01E953DA
:10073000FC4FC591D491623071F49FB7F8943C910D
:10074000822F809583238C93E8812E2B28839FBF53
:10075000DF91CF9108958FB7F894EC912E2B2C93C5
:100760008FBFF6CF3FB7F8948091A7039091A8036D
:10077000A091A903B091AA0326B5A89B05C02F3F5D
:1007800019F00196A11DB11D3FBFBA2FA92F982FB7
:100790008827BC01CD01620F711D811D911D42E0B2
:1007A000660F771F881F991F4A95D1F708958F927A
:1007B0009F92AF92BF92CF92DF92EF92FF924B0146
:1007C0005C010E94B2036B017C010E94B2036C19B0
:1007D0007D098E099F09683E734081059105A8F344
:1007E00021E0821A9108A108B10888EEC80E83E0C2
:1007F000D81EE11CF11C81149104A104B10429F755
:10080000FF90EF90DF90CF90BF90AF909F908F9030
:100810000895CF93C09120016AE070E080E090E0FD
:100820000E94D70381E0C11101C080E0CF910895FB
:100830002FB7F8946091A3037091A4038091A5034E
:100840009091A6032FBF089508954091E002509122
:10085000E1022091DE023091DF0242175307B4F427
:100860009091E8009570E1F39091E80092FD19C035
:100870008093F1008091E0029091E10201968F73E4
:100880009927892B19F48EEF8093E8008091E0027C
:100890009091E10201969093E1028093E00281E061
:1008A000089580E00895EF92FF920F931F93CF93E6
:1008B000DF93F82E192FE62E042F81E0860F880F84
:1008C0000E94250483E00E942504CF2DD12FEC0E39
:1008D000FD2EF11CCE15DF05B9F007FF13C0FE0198
:1008E00084910E942504182F80E00E942504812312
:1008F00021968111EFCFDF91CF911F910F91FF9042
:10090000EF9008958881EDCF81E0F5CFDF92EF92EF
:10091000FF920F931F93CF93DF93D82E8A01EB01A1
:100920007B01E40EF51ECE15DF0559F0D7FE12C08F
:10093000FE0184910E94250421968111F4CF0FEFCE
:100940001FEFC801DF91CF911F910F91FF90EF90A2
:10095000DF9008958881EECF2FB7F8948770809349
:10096000E9009091E800892F807295FF04C0909172
:10097000F20080E4891B2FBF08957F928F929F928F
:10098000AF92BF92CF92DF92EF92FF920F931F939D
:10099000CF93DF93C82E8B017A018091AC03811134
:1009A00010C08FEF9FEFDF91CF911F910F91FF90BC
:1009B000EF90DF90CF90BF90AF909F908F907F90FF
:1009C00008958091E40280FF05C08091E00082607C
:1009D0008093E000CE2DDF2DD12C8AEFB82E8C2D08
:1009E0008770982E8C2D8072882E8C2D8074782E96
:1009F0009AE3A92E209719F4DD2009F452C08C2D1A
:100A00000E94AC0481110AC0BA94BB2051F261E08B
:100A100070E080E090E00E94D703ECCF8C171D06B9
:100A200011F00CF08C2F9FB7F8949092E900209170
:100A3000E80025FD02C09FBFDDCF282F30E0C21B9C
:100A4000D30B882029F08150A0F01092F100FBCF49
:100A5000F801C7FC0AC0815050F041914093F10069
:100A6000FACF44914093F10031968150D0F7020FB4
:100A7000131FDD2021F0A092E800D12CDCCF809163
:100A8000E80085FD07C0A092E800DD24D3942097FC
:100A900091F2F3CF209779F6772069F2A092E800DF
:100AA000CACF5D9884E68093E302C7017CCF615092
:100AB00030F02091F100FC0120830196F8CF2898B6
:100AC00084E68093AB030895EF92FF920F931F93F8
:100AD000CF93DF938C017B01D0E0C0E0F701EC0FF6
:100AE000FD1F6491662361F0D801ED91FC910190A6
:100AF000F081E02DC8010995892B11F02196EECFE8
:100B0000CE01DF91CF911F910F91FF90EF9008954B
:100B1000AF92BF92CF92DF92EF92FF920F931F930B
:100B2000CF93DF936C017B018B01040F151FEB0149
:100B30005E01AE18BF08C017D10759F06991D60100
:100B4000ED91FC910190F081E02DC6010995892B72
:100B500079F7C501DF91CF911F910F91FF90EF9031
:100B6000DF90CF90BF90AF9008958091D602811111
:100B70000DC082E08093D20284E08093D302109271
:100B8000D5021092D40281E08093D60282ED92E0E9
:100B900008950F931F93CF93DF931F92CDB7DEB7C6
:100BA00082E0898342E450E06CE971E080E80E94D1
:100BB00086040E94B505DC0112960D911C91011569
:100BC000110589F0D801ED91FC910280F381E02DAF
:100BD000BE016F5F7F4FC801099597FD04C0F80102
:100BE00000851185ECCF89810F90DF91CF911F9106
:100BF0000F910895CF93DF93EC018091200188231A
:100C000031F083E00E94BD041816190634F081E02B
:100C100090E09B838A8380E090E0DF91CF910895FC
:100C2000CF93DF931F92CDB7DEB76983DC01ED91DF
:100C3000FC910280F381E02D41E050E0BE016F5F46
:100C40007F4F09950F90DF91CF91089583E08093B6
:100C5000E9008091F200882319F08AE38093E8008C
:100C6000089583E00E94AC0490E00895CF93DF9351
:100C70001F92CDB7DEB7FC018485958597FD08C02E
:100C80002FEF3FEF358724870F90DF91CF910895A5
:100C9000CE0101960E94B402019719F4898190E077
:100CA000F3CF8FEF9FEFF0CF0F931F93CF93DF938F
:100CB0001F92CDB7DEB78C01FC018485958597FF27
:100CC0000BC0CE0101960E94B402019771F4898194
:100CD00090E0F80195878487F801848595850F90C9
:100CE000DF91CF911F910F9108958FEF9FEFF1CF7B
:100CF000FC018485958597FD0BC09FB7F89482E031
:100D00008093E9008091F2009FBF90E001960895E2
:100D10009FB7F89482E08093E9008091F2009FBF32
:100D200090E00895FC01908190539A3008F090E093
:100D3000818180532AE0929F800D11240895DC0167
:100D4000FB0112962C911297848195812817190620
:100D500041F491818081813A31F49D7F81E091302D
:100D600009F080E008958132E1F79B3029F4828117
:100D70001F968C9381E008959A3099F7828150965E
:100D80008C93F8CFDC01FB0188E4808389E48183C4
:100D900084E482831D969C911D979F709F5B938333
:100DA0001D968D919C9124E0969587952A95E1F763
:100DB0008F708F5B848385E00895EF92FF920F938D
:100DC0001F93CF93DF93FB012081213871F523819D
:100DD000223259F5DC0112964C912481358142175B
:100DE000130619F5EC010B851C85F12CE12C01157E
:100DF000110589F0F801448155816281738180E891
:100E00000E9486048F3F980749F0E80EF91ED8012A
:100E10000D911C91ECCF81E08F87C701DF91CF91BD
:100E20001F910F91FF90EF90089590E080E0F6CF32
:100E3000CF93DF93CDB7DEB769970FB6F894DEBFD7
:100E40000FBECDBFFC01DB018C918F5F8C939E01A7
:100E50002D5F3F4F8DE0D9011D928A95E9F729E07A
:100E6000298384E08A8391E09D8383E08E832A87AF
:100E700021E22B879C879D879F8722E2288B27E092
:100E80002B8B25E02C8B8E8B20E430E0388F2F8B42
:100E9000998F82818B8395858685998B8A8B8381B7
:100EA00080688D8B49E150E0BE016F5F7F4F80E02D
:100EB0000E94860469960FB6F894DEBF0FBECDBFC0
:100EC000DF91CF91089508952091AF02260F332727
:100ED000331F21323105ECF42091FB03FC0190E03B
:100EE00080E0243069F082E00895A091AF02219162
:100EF000AC0141575D4FA40FB52FB11D2C93019646
:100F0000861798F38091AF02680F6093AF0280E07C
:100F1000089581E008951092FB0381E08093FA0325
:100F20001092D50361E082E00E94530361E083E008
:100F30000E945303E9EBF0E080818E7F8083808103
:100F40008D7F808388E48093B80085E48093BC0023
:100F500008951092B4031092B303109202041092F9
:100F600024040E948B0782EB92E09093B00380935D
:100F7000AF0383EB92E09093AE038093AD030895AB
:100F8000CF93DF9391E090938E028823B9F0C091C4
:100F9000B800D091BA008091BC008A7B8093BC00DD
:100FA00060E082E00E94530360E083E00E9453030C
:100FB0000E948B07D093BA00C093B800DF91CF9105
:100FC00008958F929F92AF92BF92CF92DF92EF924D
:100FD000FF920F931F93CF93DF93D0912404D132CC
:100FE00008F0D7C0182FC09123040E94B2036B01F0
:100FF0007C018091FB0381116BC082E08093FB0335
:101000001093FA038FEF8093F9031092F803D093B3
:10101000F703A3E0B4E0E7EDF3E080E0D81391C07C
:101020001092D6038091D603CC0FC82BC093D60361
:101030008091D503813009F088C01092D5030E94B9
:10104000B2036B017C018091D6038093BB00809139
:10105000FD039091FE03A091FF03B0910004892B42
:101060008A2B8B2BA1F00E94B2030091FD031091FB
:10107000FE032091FF03309100046C197D098E0955
:101080009F09061717072807390708F442C08091FF
:10109000BC0083FDD8CF85EC8093BC000E94B203D6
:1010A0006B017C018091FB03823009F450C0809178
:1010B000F9038F3F09F46FC08091F903803209F47E
:1010C0006CC08091F903803309F469C084E026C0C4
:1010D0008091FD039091FE03A091FF03B091000465
:1010E000892B8A2B8B2B09F484CF0E94B20380902A
:1010F000FD039090FE03A090FF03B09000046C19D4
:101100007D098E099F0986169706A806B90608F07C
:1011100070CF8091FC030E94C00785E0109202040A
:101120001092240410920104DF91CF911F910F912E
:10113000FF90EF90DF90CF90BF90AF909F908F90F7
:1011400008959D9191938F5F69CF85EEA5CF809192
:10115000FD039091FE03A091FF03B0910004892B41
:101160008A2B8B2B09F49ECF0E94B2030091FD03C2
:101170001091FE032091FF03309100046C197D094A
:101180008E099F09061717072807390708F08ACF25
:10119000C0CF81E0C3CF80E0C1CF82E0BFCF83E08A
:1011A000BDCFFC01A481B581868191E090930104BB
:1011B000809323041092020410922404ED91FC9178
:1011C00011970190F081E02DCD01099581E00C94FB
:1011D000E1071092C30460E086EB94E00C94D10820
:1011E000CF93DF93EC018B818823A1F0888191E07C
:1011F000909301048093230410920204109224041B
:1012000081E00E94E10791E0811190E0892FDF9158
:10121000CF9108950E94A90781E08B83CE010E949F
:10122000F008982F8111E2CFF1CFE091B4038091C3
:10123000B303E81730F4F0E0EB54FC4F808190E00A
:1012400008958FEF9FEF08959091B4038091B303B9
:101250002FEF3FEF981748F4E92FF0E0EB54FC4FE5
:10126000208130E09F5F9093B403C901089580917D
:10127000B3039091B403891B990B0895CF92DF9229
:10128000EF92FF920F931F93CF93DF937C01CB01DB
:101290008A0120910104222389F0EB016B01C40E25
:1012A000D51ECC15DD0569F06991D701ED91FC9152
:1012B0000190F081E02DC7010995F3CF642F0E94C2
:1012C0006407C801DF91CF911F910F91FF90EF90BC
:1012D000DF90CF900895CF93DF931F92CDB7DEB705
:1012E0006983209101042223F9F020912404203203
:1012F00058F021E030E0FC013383228390E080E06D
:101300000F90DF91CF91089580910204E82FF0E0D3
:10131000ED5FFB4F998190838F5F809302048093F0
:10132000240481E090E0ECCF61E0CE0101960E94C0
:101330006407F7CF90E080E00895CF93DF93D82F34
:10134000C92F0E940904811116C0A09167039091D2
:101350006603ED2FFC2F24912223A9F081E08A0F50
:10136000B0E0AA51BD4F2C9387FF02C091E080E00E
:101370003196A82FF0CF6D2F7C2F85E294E0DF917E
:10138000CF910C946405A093670390936603DF915B
:10139000CF9108950E949D098AEC90E00C949D09DC
:1013A0000E9418046093740370937503809376030E
:1013B000909377038091B50481FF11C082FD0FC027
:1013C00084608093B50481E08093C30468E086EB79
:1013D00094E00E94D1088CEC90E00C94CA09089526
:1013E0002F923F924F925F926F927F928F929F9235
:1013F000AF92BF92CF92DF92EF92FF920F931F9323
:10140000CF93DF935C011B016A01F12CE12CD50124
:1014100014968D919C9186010E191F0980179107D2
:1014200008F48C01F501D0810E94B2032B013C012C
:101430008091FB03811172C0C02F013208F0C0E21D
:10144000F1E0F093FB0321E0C601801B910BE8164D
:10145000F90608F420E02093FA038FEF8093F90354
:101460001092F8038C0F8093F703A1E0A093D603AA
:101470008091D603DD0FD82BD093D6038091D5036E
:10148000813009F090C01092D5030E94B2032B0165
:101490003C018091D6038093BB008091FD03909125
:1014A000FE03A091FF03B0910004892B8A2B8B2BA4
:1014B000A1F00E94B2032091FD033091FE03409100
:1014C000FF035091000464197509860997092617CE
:1014D00037074807590708F442C08091BC0083FDD4
:1014E000D8CFB5ECB093BC000E94B2032B013C01F5
:1014F0008091FB03813009F45AC08091F8038C1766
:1015000010F4C091F803A7EDB3E0E5EBF3E080E061
:101510008C1751F19D9191938F5FFACF8091FD03CC
:101520009091FE03A091FF03B0910004892B8A2BB8
:101530008B2B09F47DCF0E94B2032091FD033091E3
:10154000FE034091FF035091000464197509860958
:101550009709261737074807590708F069CF809180
:10156000FC030E94C007C0E01092B403C093B30311
:10157000C017110609F057C041018E0C9F1CE401F1
:10158000CE01881999098017910798F5D501119610
:101590008D919C91DC01ED91FC910284F385E02D0D
:1015A00009958993EDCFE5EEE093BC009DCF809146
:1015B000FD039091FE03A091FF03B0910004892BDD
:1015C0008A2B8B2B09F494CF0E94B2032091FD0348
:1015D0003091FE034091FF03509100046419750996
:1015E00086099709261737074807590708F080CF5B
:1015F000B6CFE00EF11EEC14FD0408F408CF81E034
:10160000DF91CF911F910F91FF90EF90DF90CF90DE
:10161000BF90AF909F908F907F906F905F904F9012
:101620003F902F90089580E0EBCF1F93CF93DF93EF
:10163000DC011496ED91FC91E417F50710F490E0AD
:101640001FC0122FEA01FC0181819281208131E0CB
:101650003093010420932304109202041092240476
:10166000DC01ED91FC910280F381E02D0995C81712
:10167000D90729F7812F0E94E10791E08111DFCF7F
:10168000892FDF91CF911F910895EF92FF920F93D1
:101690001F93CF93DF9300D000D000D01F92CDB71F
:1016A000DEB78C011982E090B103F090B20320E024
:1016B00041E050E0BE016F5F7F4FC7010E94150BF4
:1016C000882341F047E050E0BE016F5F7F4FC701C4
:1016D0000E94F009E981EF77FA81FB805D814E81FC
:1016E0004F778F81282F30E094E0359527959A9594
:1016F000E1F7922F990F990F291B220F280FD8017C
:101700002C93842F90E024E0959587952A95E1F716
:10171000982F990F990F891B880F840F11968C931E
:101720001197652F70E034E0759567953A95E1F76C
:10173000862F880F880F681B660F650F12966C93B3
:1017400012974F2D50E064E0559547956A95E1F763
:10175000842F880F880F481B440F4F0D13964C930E
:1017600013972F2F30E074E0359527957A95E1F7A0
:10177000822F880F880F281B220F2F0F14962C936F
:1017800014978E2F90E0F4E095958795FA95E1F700
:10179000982F990F990F891B880F8E0F15968C9390
:1017A000C80127960FB6F894DEBF0FBECDBFDF91FC
:1017B000CF911F910F91FF90EF900895CF93DF93FA
:1017C00000D0CDB7DEB78FE08A8321E041E050E062
:1017D000BE016E5F7F4F8091B1039091B2030E9472
:1017E000150B41E050E0BE016F5F7F4F8091B10368
:1017F0009091B2030E94F00989810F900F90DF91C0
:10180000CF9108951F93CF93DF93CDB7DEB72A977B
:101810000FB6F894DEBF0FBECDBFFC011A8219824D
:1018200035812AE0832F622F0E94EF26982F880FA0
:10183000890F880F830F8A833481832F0E94EF26BC
:10184000982F880F890F880F830F8B833381832F05
:101850000E94EF26982F880F890F880F830F8C83A3
:10186000128131812081422F50E0612F70E0E0E44D
:10187000F4E081E0831730F49491690F711D8F5F5C
:101880003196F8CF333028F0822F837011F46F5FD8
:101890007F4FEDE6F1E04E9FC0014F9F900D5E9FA0
:1018A000900D112405964D5F5F4F569547955695BF
:1018B0004795840F951F860F971F67E070E00E9481
:1018C000FB26811101C087E08D834AE0812F642FC0
:1018D0000E94EF26982F880F890F880F810F8E8323
:1018E000832F0E94EF26982F880F890F880F830F70
:1018F0008F83822F0E94EF26982F880F890F880FE1
:10190000820F888721E048E050E0BE016F5F7F4F83
:101910008091B1039091B2030E94150B0E94DE0BDF
:101920009FE099878F778A8721E042E050E0BE01EF
:10193000675F7F4F8091B1039091B2030E94150BB6
:101940002A960FB6F894DEBF0FBECDBFDF91CF91C0
:101950001F9108951F93CF93DF93EC01162F107FF3
:101960008B8584606C85660F682B8D8528E0829F4F
:10197000C0011124682B612BCE010E94D1086C8517
:10198000660F8D8528E0829FC0011124682B8B850E
:10199000682B612BCE01DF91CF911F910C94D10860
:1019A0000F931F93CF93DF93EC01062F0E94AA0C95
:1019B0008FE890E00197F1F720E1029F8001112468
:1019C0006B85602B862F84606C85660F682B8D85F8
:1019D00028E0829FC0011124682BCE010E94D1080B
:1019E0006B85062B6C85660F602B8D8528E0829FAA
:1019F000C0011124682BCE01DF91CF911F910F916F
:101A00000C94D1081092C1041092C204E091BE045B
:101A10008E1708F4E82FF0E0EF5AFE4F60816068FF
:101A200086EB94E00E94D00C8FE890E00197F1F7EC
:101A30000895E6EBF4E01386148661E0CF010E947E
:101A4000D00C8BEF98E10197F1F7089521E0FC01AC
:101A5000238714860E94D00C8FE990E00197F1F75C
:101A600081E090E00895FB0101900020E9F73197B3
:101A7000AF01461B570BDC01ED91FC910280F38115
:101A8000E02D0994009729F0BC0186EB94E00C94BA
:101A9000330D90E080E00895EF92FF921F93CF9373
:101AA000DF93CDB7DEB728970FB6F894DEBF0FBE31
:101AB000CDBF0E94190D60E971E086EB94E00E94B1
:101AC000640588E0EBE2F1E0DE01119601900D92F1
:101AD0008A95E1F7CE0101967C0110E0812F0E94EA
:101AE000020D80917B0381131DC081E991E00E946A
:101AF000420D8CE492E00E94420DF7018191919198
:101B00007F010E94420D1F5F143041F728960FB6E7
:101B1000F894DEBF0FBECDBFDF91CF911F91FF9034
:101B2000EF9008958CE492E0E2CF8F929F92AF9273
:101B3000BF92CF92DF92EF92FF920F931F93CF93BA
:101B4000DF93CDB7DEB7A1970FB6F894DEBF0FBE17
:101B5000CDBF6C01990FEE08FF08F7FE43C06DE2A0
:101B600086EB94E00E94260D8C0122273327A901E1
:101B70002C193D094E095F0919A2CE0181967C01FD
:101B80009AE0892E912CA12CB12CCA01B901A50192
:101B900094010E940F25605DF70162937F0121157A
:101BA00031054105510589F790E080E0309729F033
:101BB000BF0186EB94E00E94330D800F911FA19628
:101BC0000FB6F894DEBF0FBECDBFDF91CF911F914E
:101BD0000F91FF90EF90DF90CF90BF90AF909F90CC
:101BE0008F900895A701960119A28E010F5D1F4FD6
:101BF0008AE0C82ED12CE12CF12CCA01B901A70131
:101C000096010E940F25605DF80162938F012115F6
:101C100031054105510589F790E080E0309779F270
:101C2000BF0186EB94E00E94330DC9CF0E94190DCD
:101C300062E871E086EB94E00E94640581E00E9416
:101C4000020D80917C03811104C081E991E00E9422
:101C5000420D80910E0190910F010A9724F481EDBD
:101C600091E00E94420D80910E0190910F010E941F
:101C7000950D80917C03811104C083ED91E00E9459
:101C8000420D85ED91E00E94420D80917C038130F0
:101C900021F481E991E00E94420D80910C01909124
:101CA0000D010A9724F481ED91E00E94420D80918C
:101CB0000C0190910D010E94950D80917C03813063
:101CC00021F483ED91E00E94420D85ED91E00E94A8
:101CD000420D80917C03823021F481E991E00E94E1
:101CE000420D80910A0190910B010E94950D809107
:101CF0007C03823021F483ED91E00E94420D82E06A
:101D00000E94020D80917C03833021F481E991E0EF
:101D10000E94420D80911001909111010A9724F4C4
:101D200081ED91E00E94420D80911001909111018E
:101D30000E94950D80917C03833021F483ED91E026
:101D40000E94420D87ED91E00E94420D80917C033C
:101D5000843021F481E991E00E94420D80917D035D
:101D600090917E030A9724F481ED91E00E94420D48
:101D700080917D0390917E030E94950D80917C035C
:101D8000843021F483ED91E00E94420D87ED91E0D3
:101D90000E94420D80917C03853021F481E991E01D
:101DA0000E94420D80917F03909180030A9724F452
:101DB00081ED91E00E94420D80917F03909180031C
:101DC0000E94950D80917C03853021F483ED91E094
:101DD0000E94420D83E00E94020D61E771E086EBF4
:101DE00094E00C946405CF93DF9300D000D000D032
:101DF000CDB7DEB70E94190D6FE571E086EB94E078
:101E00000E94640581E00E94020D89ED91E00E942C
:101E1000420D86E0E3E3F1E0DE01119601900D92C0
:101E20008A95E1F78091780390E0880F991F21E06F
:101E300030E02C0F3D1F820F931FFC0180819181A8
:101E40000E94420D82E00E94020D80EE91E00E940D
:101E5000420D80917203909173030E94950D86EE5E
:101E600091E00E94420D80917003909171030E9455
:101E7000950D88E492E00E94420D83E00E94020DDD
:101E800088EE91E026960FB6F894DEBF0FBECDBF68
:101E9000DF91CF910C94420D8091B50484FD0DC06B
:101EA0000E94190D61E571E086EB94E00E946405E3
:101EB0008091B50480618093B50481E00E94020D99
:101EC00080E192E00E94420D80917A03811104C06A
:101ED00081E991E00E94420D8091080190910901F1
:101EE0000E94950D80917A03811104C083ED91E0E9
:101EF0000E94420D88E492E00E94420D82E00E941E
:101F0000020D8BE192E00E94420D80917A038130B4
:101F100021F481E991E00E94420D809106019091A7
:101F200007010E94950D80917A03813021F483EDA1
:101F300091E00E94420D88E492E00E94420D83E00D
:101F40000E94020D86E292E00E94420D80917A0387
:101F5000823021F481E991E00E94420D80910401D8
:101F6000909105010E94950D80917A03823021F4B1
:101F700083ED91E00E94420D88E492E00C94420DC2
:101F8000CF92DF92EF92FF920F931F93CF93DF9345
:101F9000CDB7DEB768970FB6F894DEBF0FBECDBFE2
:101FA000CE0143960E94450B8091B50483FD53C03A
:101FB0000E94190D8CE0E9E3F1E0DE011196019039
:101FC0000D928A95E1F710917903112321F01530D4
:101FD00008F014E01150E12EF12CEE0CFF1C81E012
:101FE00090E08C0F9D1FE80EF91E00E00F5F802F20
:101FF0000E94020D80917903811709F4ADC08BE432
:1020000092E00E94420DF701819191917F010E941F
:10201000420D1111A4C086E0E3E3F1E0DE011D965C
:1020200001900D928A95E1F7E0917803F0E0EE0FD0
:10203000FF1F81E090E08C0F9D1FE80FF91F848542
:1020400095850E94420D1F5F033081F68091B50493
:1020500088608093B50480E00E94020D8DE392E0D9
:102060000E94420D80E00E94020DEB88F12C90E36B
:10207000E91A98EFF90A0C8910E0CD88D12CEAE032
:10208000CE16D10424F481ED91E00E94420DC601E8
:102090000E94950D85ED91E00E94420D0A301105D8
:1020A00024F481ED91E00E94420DC8010E94950D3B
:1020B00085ED91E00E94420DC70164E670E00E9448
:1020C0000F278C010A9724F481ED91E00E94420DC4
:1020D000C8010E94950D8CE492E00E94420DE88CAC
:1020E000F12C0F8910E0CE88D12CFAE0CF16D10464
:1020F00024F481ED91E00E94420DC6010E94950DED
:1021000087ED91E00E94420D0A30110524F481ED23
:1021100091E00E94420DC8010E94950D87ED91E06B
:102120000E94420D8AE0E816F10424F481ED91E06A
:102130000E94420DC7010E94950D68960FB6F89453
:10214000DEBF0FBECDBFDF91CF911F910F91FF90EA
:10215000EF90DF90CF90089581E392E052CF14305A
:1021600009F071CF8091B50481FD0DC087E392E045
:102170000E94420D8091B50481FF65CF82FD63CF3F
:102180008BE392E05ECF84E392E0F2CFCF93DF93D4
:10219000EC0188819981009711F00E94C52719826E
:1021A00018821D821C821B821A82DF91CF910895B2
:1021B000FC0180819181009711F00C94C52708954E
:1021C0000F931F93CF93DF93EC0188819981009740
:1021D00059F02A813B812617370730F081E0DF91E3
:1021E000CF911F910F9108958B016F5F7F4F0E94D8
:1021F0004E28009759F0998388831B830A832C818A
:102200003D81232B59F7FC011082E8CF80E0E7CF16
:102210000F931F93CF93DF93EC010C811D810F5F10
:102220001F4FB8010E94E010882391F02881398166
:102230008C819D8166EE71E0820F931F0E941429AC
:102240001D830C83CE01DF91CF911F910F910895D3
:10225000CE010E94C610F6CFEF92FF920F931F930C
:10226000CF93DF93EC01FB01E080F180E114F104F6
:1022700011F10481158101151105A9F08C819D8151
:10228000080F191FB801CE010E94E010882399F0B1
:10229000288139818C819D81B701820F931F0E9413
:1022A00014291D830C83CE01DF91CF911F910F91D3
:1022B000FF90EF900895CE010E94C610F4CFEF92E8
:1022C000FF920F931F93CF93DF93EC017B018A0161
:1022D000BA010E94E01081110BC0CE010E94C6100D
:1022E000CE01DF91CF911F910F91FF90EF90089554
:1022F0001D830C83B701888199810E941429F0CF36
:10230000EF92FF920F931F93CF93DF93CDB7DEB77A
:1023100062970FB6F894DEBF0FBECDBF8C01CB0124
:10232000F8011182108213821282158214824AE00F
:102330009E012F5F3F4F7901B9010E943C23F701B5
:1023400001900020E9F73197AF014E195F09B701FD
:10235000C8010E945F1162960FB6F894DEBF0FBEEF
:10236000CDBFDF91CF911F910F91FF90EF90089516
:1023700085ED8093BC008091FD039091FE03A091B8
:10238000FF03B09100040796A11DB11D23E0B6958F
:10239000A795979587952A95D1F72091BC0024FDA4
:1023A00003C01092FB0308954091FD035091FE037A
:1023B0006091FF0370910004452B462B472B69F376
:1023C0000097A105B10541F02AE22A95F1F700C076
:1023D0000197A109B109E1CF8091FC030C94C007DA
:1023E000FF920F931F93CF93DF938C01EB01F88043
:1023F0000E949024F81621F06F2DC8010E949824A5
:10240000CE01DF91CF911F910F91FF900895FF9220
:102410000F931F93CF93DF93EC018B01FB01F080AF
:102420000E949024F81621F06F2DCE010E9498246E
:10243000F801F1802196CE010E949024F81621F037
:102440006F2DCE010E949824C801DF91CF911F917A
:102450000F91FF900895CF93DF931F92CDB7DEB712
:1024600068E071E090E080E00E94071266E071E0B1
:1024700084E090E00E94071264E071E088E090E060
:102480000E94071268E773E08CE090E00E94F01170
:102490008091B504869581708983BE016F5F7F4FFF
:1024A00080E190E00E94F01188E391E00E94CA0967
:1024B0000F90DF91CF910895CF93DF93EB010E94AE
:1024C00090248883CE01DF91CF9108950F931F93BD
:1024D000CF93DF938C01EB010E9490248883C80185
:1024E00001960E9490248983CE01DF91CF911F91A4
:1024F0000F9108958F929F92AF92BF92CF92DF92E9
:10250000EF92FF920F931F93CF93DF9300D000D0F1
:1025100000D0CDB7DEB76C010E940904D601149635
:102520004D915C9115978823C9F06D917C9185E25E
:1025300094E00E94FA0526960FB6F894DEBF0FBE0F
:10254000CDBFDF91CF911F910F91FF90EF90DF9062
:10255000CF90BF90AF909F908F900895B0906703F9
:10256000EB2CF12C00E810E00E191F094017510761
:1025700008F48A011A8219821C821B821E821D8223
:1025800050E040E06DE872E0CE0101960E945F11DC
:10259000F60184819581009729F148018017910700
:1025A00008F44C01D601ED91FC911197E80DF91D4D
:1025B000A08010826D917C916115710561F1FB0124
:1025C00001900020E9F73197AF01461B570BCE0170
:1025D00001960E945F11F60180819181880E991EFB
:1025E000D401AC920F3F100761F0F701EA51FD4FA3
:1025F0007F01309731F0CD80DE80C114D10481F4A9
:102600001082CE0101960E94D8100B0D07FD17C055
:102610000093670390CFCE0101960E94C610DBCFD6
:102620000C151D0508F4680169817A81A601C701AE
:102630000E941B29EC0CFD1CD7011C92E2CF1092CA
:10264000670381E08093660376CFCF93DF9300D05A
:1026500000D000D01F92CDB7DEB768E071E090E007
:1026600080E00E94661266E071E084E090E00E94E3
:10267000661264E071E088E090E00E94661268E70C
:1026800073E08CE090E00E945C12BE01695F7F4FB6
:1026900080E190E00E945C1221E08F81811101C0F5
:1026A00020E08091B50420FB81F98093B5048091EE
:1026B0000801909109018333910514F082E390E0C1
:1026C0001816190614F081E090E0909309018093A8
:1026D00008018091060190910701813D37E0930741
:1026E00014F080ED97E08233910514F482E390E0DA
:1026F0009093070180930601809104019091050158
:10270000893833E1930714F088E893E18233910527
:1027100014F482E390E0909305018093040180918A
:102720007803833008F082E0809378038091B504C9
:1027300020FB82F98093B5040E941804609374030F
:102740007093750380937603909377038091B5041B
:1027500082FF6CC081E08093C30468E086EB94E064
:102760000E94D10882E291E00E949D0960910801D7
:1027700070910901CE0101960E948011CE0101964F
:102780000E947A12CE0101960E94D81088E191E051
:102790000E949D096091060170910701CE0101968A
:1027A0000E948011CE0101960E947A12CE010196FC
:1027B0000E94D81086E091E00E949D09609104017A
:1027C00070910501CE0101960E948011CE01019603
:1027D0000E947A12CE0101960E94D8108FEF90E0ED
:1027E0000E949D0988EF90E09A83898381EF90E0B1
:1027F0009C838B8388EE90E09E838D83E0917803A9
:10280000F0E0EE0FFF1F81E090E08C0F9D1FE80FBE
:10281000F91F808191810E94CA0927960FB6F8940A
:10282000DEBF0FBECDBFDF91CF9108950E94E908B2
:1028300099CF1F920F920FB60F9211242F933F93AF
:102840008F939F93AF93BF938091A3039091A40321
:10285000A091A503B091A6033091A20323E0230F1A
:102860002D3758F50196A11DB11D2093A203809329
:10287000A3039093A403A093A503B093A603809110
:10288000A7039091A803A091A903B091AA03019670
:10289000A11DB11D8093A7039093A803A093A90342
:1028A000B093AA03BF91AF919F918F913F912F91C8
:1028B0000F900FBE0F901F90189526E8230F0296D9
:1028C000A11DB11DD2CF1F920F920FB60F921124EE
:1028D0008F939F938091E1009091E100937F90937B
:1028E000E10083FF0FC01092E90091E09093EB00AC
:1028F0001092EC0092E39093ED001092AC0398E0FC
:102900009093F00082FF22C093E09093E9009091B1
:10291000F200992319F09AE39093E8009091E30272
:10292000992341F09091E30291509093E302911129
:1029300001C05D9A9091AB03992341F09091AB0354
:1029400091509093AB03911101C0289A84FF18C055
:102950008091E2008E7E81608093E2008091E100B0
:102960008F7E8093E1008091E4028E7E806180936F
:10297000E4029F918F910F900FBE0F901F901895BA
:1029800080FFF7CF8091E2008E7E80618093E2002D
:102990008091E1008E7E8093E1008091E4028E7E42
:1029A0008160E5CF1F920F920FB60F921124CF9244
:1029B000DF92EF92FF920F931F932F933F934F93CA
:1029C0005F936F937F938F939F93AF93BF93EF9397
:1029D000FF93CF93DF93CDB7DEB76C97DEBFCDBF4C
:1029E0001092E9008091E80083FF25C068E0CE01E5
:1029F00045960E94570582EF8093E8008D8987FFF6
:102A000039C09091E80090FFFCCF982F907609F0A4
:102A100034C19E894F89588D2F89F88C911131C00E
:102A2000803861F58091E5028093F1001092F10009
:102A30008EEF8093E8006C960FB6F894DEBF0FBE61
:102A4000CDBFDF91CF91FF91EF91BF91AF919F915A
:102A50008F917F916F915F914F913F912F911F9136
:102A60000F91FF90EF90DF90CF900F900FBE0F90DF
:102A70001F9018959EEF9093E800C7CF1092F10039
:102A8000D5CF913059F48111D3CF4130510581F622
:102A90008091E5028D7F8093E502CACF933049F49F
:102AA0008111C6CF4130510519F68091E50282604F
:102AB000F2CF953041F48091E80080FFFCCF206890
:102AC0002093E300B5CF963009F0A9C00B8D1C8D83
:102AD00022E01092E9001092E1021092E002F2125C
:102AE0002EC01092DF021092DE020E94C9051F82E2
:102AF00099E09983FA8291E09E8390EA98879AEF11
:102B000099872091E0023091E102275F3F4F3C839B
:102B10002B838D831092E9001092E1021092E00263
:102B20001093DF020093DE0249E050E0BE016F5FC8
:102B30007F4F80E00E9486040E94C90579CF1093E0
:102B4000DF020093DE020E94B505DC0112960D91B2
:102B50001C910115110509F451C1D801ED91FC91A9
:102B60000480F581E02DBE016B5E7F4FC8010995A1
:102B7000009709F03EC1F80100851185EACFF3E026
:102B8000FF120EC08F89882309F440C0823061F49F
:102B900040E860E180E092E00E945304811148CF58
:102BA00081E28093EB0047CF813029F440E86BE06D
:102BB00084EF91E0F1CF833099F70E94B505DC01F5
:102BC0001296ED90FC908E010F5F1F4F6801E1148B
:102BD000F10479F0D701ED91FC910680F781E02DA9
:102BE000B801C7010995080F111DF701E084F184B0
:102BF000EECFD8011C92F60101900020E9F7319741
:102C0000BF016C197D0940E0C601C6CF6EED71E0D1
:102C1000FB01449150E080E80E94860409CF973080
:102C200009F4BECF983021F481E08093F10000CF09
:102C3000993009F0FDCE837009F0B2CFE3E1F1E005
:102C400081E031E096E32191222371F08093E90045
:102C50003093EB00DF0111972C912093EC009093BF
:102C6000ED008F5F873079F78EE78093EA0010924E
:102C7000EA008F898093AC03DBCE8B8D9C8D109204
:102C8000E9001092E1021092E0029093DF0280933B
:102C9000DE02898D811192C08E899D89913A49F415
:102CA000813209F07DCF47E050E069E171E080E0DA
:102CB000B3CF913209F074CF833269F48F89988D44
:102CC000B0E0A0E08093000190930101A093020185
:102CD000B0930301ADCE803269F48091E80082FFA9
:102CE000FCCF67E089E191E00E9457058BEF80936C
:102CF000E8009ECE823209F09BCE8F89809320011E
:102D0000EEEFFFE7859194918B3F9C4D51F1E0E010
:102D1000F8E08091190190911A01A0911B01B091E6
:102D20001C01803B9440A105B105F1F48091200184
:102D300080FD1AC0EE3F8AE0F80789F587E797E73C
:102D400091838083809160008093E20288E19BE020
:102D50000FB6F894A895809360000FBE9093600022
:102D600067CEEEEFFAE0D5CF808191818737974724
:102D700009F05ECEA8958091600088618093600024
:102D80008091E20280936000EE3F2AE0F20789F032
:102D90008091FE0A9091FF0A9183808349CE8081C1
:102DA00091818737980751F29093FF0A8093FE0A2A
:102DB000C5CF1092FF0A1092FE0A3ACE0E94B505C6
:102DC000DC0112960D911C910115110509F4E8CE54
:102DD000D801ED91FC910190F081E02DBE016B5E78
:102DE0007F4FC8010995811123CEF8010085118517
:102DF000EBCF181619060CF41BCED2CEF1E0FF1261
:102E0000BECE62EE71E004CF1F920F920FB60F920A
:102E100011242F933F934F935F936F937F938F93DF
:102E20009F93AF93BF93EF93FF938091B900887FF7
:102E3000803609F44AC0F0F5883209F4A7C018F5C5
:102E4000803109F49BC0B8F4882309F4F9C08830B4
:102E500009F494C0FF91EF91BF91AF919F918F9131
:102E60007F916F915F914F913F912F910F900FBE86
:102E70000F901F901895883109F488C0803251F75F
:102E80008093F90314C0803409F49DC040F480336A
:102E9000B9F38833F9F68093F90385ECB0C0803537
:102EA00009F485C0883509F496C0883499F60E94E3
:102EB000B811D0CF883909F48CC038F5883729F09B
:102EC00050F4883611F0803729F683E08093FB03B5
:102ED0001092D10257C0883809F47BC0803919F0AC
:102EE000803809F0B7CF8091D102803208F071C0EC
:102EF000E091D10281E08E0F8093D1028091BB00DE
:102F0000F0E0EF54FD4F80833DC0803B39F0E0F4AA
:102F1000803A09F479C0883A09F09CCF84E0809324
:102F2000FB031092B0021092AF02E091AF03F09158
:102F3000B00309958091AF0281110FC081E08093A9
:102F4000AF0210928F0209C0803C09F4A6CF883CE2
:102F500009F4A3CF883B09F07DCFE091B00281E076
:102F60008E0F8093B002F0E0E157FD4F8081809397
:102F7000BB009091B0028091AF0229C08091D6032E
:102F80008093BB0085EC8093BC0064CF9091F803E4
:102F90008091F703981758F5E091F80381E08E0FC0
:102FA0008093F803F0E0E952FC4F8081E9CFE09193
:102FB000F80381E08E0F8093F8038091BB00F0E06E
:102FC000E952FC4F80839091F8038091F7039817A2
:102FD000C8F285E8D8CFE091F80381E08E0F8093A6
:102FE000F8038091BB00F0E0E952FC4F80838091B0
:102FF000FA0381115CCF81E08093D50384EA80934A
:10300000BC001092FB0326CF85EC8093BC0010928D
:10301000FB038091D102803230F4E091D102F0E0E4
:10302000EF54FD4F10826091D10270E0E091AD034A
:10303000F091AE0381EB92E009951092D1020ACF94
:103040001092F90334CFCF931092280410922704E2
:1030500088EE93E0A0E0B0E08093290490932A04E6
:10306000A0932B04B0932C0489E591E0909326045F
:10307000809325048FEF9FEF909332048093310467
:1030800010929C0480919404811113C010928F04BB
:1030900010928E048BE494E09093910480939004BA
:1030A00086E390E0909393048093920481E0809370
:1030B00094048091860481112AC0C1E0C0937904F0
:1030C000C0937A048FE794E090937C0480937B0410
:1030D00010927E0410927D048BE691E0909376042A
:1030E00080937504109281041092800410928304DE
:1030F00010928204C0938404C093850481EC809371
:103100007F040E94B5050E946C02C0938604E09182
:103110008004F0918104309709F059C08EE894E062
:103120009093810480938004809182049091830421
:103130002091920430919304820F931F9093830403
:10314000809382041092A00410929F0488EE93E072
:10315000A0E0B0E08093A1049093A204A093A30404
:10316000B093A40487E791E090939E0480939D041C
:103170001092B9041092B80489E891E09093B704D2
:103180008093B6048DE994E09093BB048093BA04D5
:1031900087E28093BC048FE08093BD0483E080933A
:1031A000BE041092BF041092C0041092C104109289
:1031B000C2041092C30486E0E5E4F1E0A9EAB4E0B9
:1031C00001900D928A95E1F7CF910895FC018081DD
:1031D00091810097D9F78EE894E091838083A4CF02
:1031E000CF93DF93CDB7DEB7A0970FB6F894DEBFCD
:1031F0000FBECDBF789484B5826084BD84B58160F4
:1032000084BD85B5826085BD85B5816085BD8091B1
:103210006E00816080936E00109281008091810029
:103220008260809381008091810081608093810021
:103230008091800081608093800080919100826005
:1032400080939100809191008160809391008091A2
:1032500090008160809390008091C1008460809391
:10326000C1008091C10082608093C1008091C10043
:1032700081608093C1008091C30081608093C3000E
:103280008091C00082608093C0008091C200816004
:103290008093C20080917A00846080937A0080914C
:1032A0007A00826080937A0080917A0081608093B6
:1032B0007A0080917A00806880937A001092AC0343
:1032C0001092E5021092E4028091D7008160809311
:1032D000D70080EA8093D80089B5806189BD89B51F
:1032E000826089BD09B400FEFDCF61E070E080E03E
:1032F00090E00E94D7038091D8008F7C80618093FA
:10330000D8008091E000807F8093E0008091E10010
:103310008E7E8093E1008DE08093E200559A209AA2
:1033200061E088E00E948103A1E5EA2EA1E0FA2E87
:103330000BE411E062E0D8018D918D010E948103C0
:10334000E016F106B9F761E08CE00E94810361E0CC
:1033500086E00E94810360E08CE00E94530360E0FD
:1033600086E00E94530361E089E00E94810361E0EE
:103370008AE00E9481038FEF9FEF90933204809345
:10338000310488EE92E00E94CA090E94A90760E019
:1033900086EB94E00E94D10862E370E080E090E068
:1033A0000E94D7031092C1041092C20460E386EB1E
:1033B00094E00E94AA0C8BE991E40197F1F760E395
:1033C00086EB94E00E94AA0C83E592E00197F1F766
:1033D00060E386EB94E00E94AA0C0FE810E0C801BD
:1033E0000197F1F760E286EB94E00E94AA0CC80115
:1033F0000197F1F768E286EB94E00E94D00CC801D7
:103400000197F1F71092C1041092C2046091BF04B9
:10341000862F84608093BF046C6086EB94E00E94EA
:10342000D00CC8010197F1F70E94190D1092C10448
:103430001092C2046091C004862F82608093C00401
:10344000666086EB94E00E94D00CC8010197F1F70A
:103450000E9425130E94190D81E00E94020D68ED63
:1034600072E086EB94E00E94640582E00E94020D07
:1034700065EC72E086EB94E00E94640560ED77E015
:1034800080E090E00E94D7038091B1039091B20355
:10349000009711F00E94C52786E090E00E9429273E
:1034A0008C0188E6F80180838DE994E09283818322
:1034B000138280E290E0958384831093B20300939B
:1034C000B1030E94A90781E0D80113968C93C8012B
:1034D0000E94F008811155C087EA92E00E94CA0953
:1034E0000E94190D6CE972E086EB94E00E9464057D
:1034F00060ED77E080E090E00E94D7030E94C00F6B
:103500008FE392E00E94CA0981E192E00E94CA0919
:103510000E940904882309F4F9C18091B50485FD4E
:10352000F5C180628093B50480916703811105C065
:1035300080916603882309F4CAC061E173E085E2E3
:1035400094E00E9464056BE872E085E294E00E94DA
:10355000330D80916603811196C006EE12E0209132
:103560006703C801865E92402817190609F00CF41B
:103570009EC0D8016D918D0185E294E00E941006F5
:10358000EECF0E94DE0B90E0880F892F881F990BE9
:10359000892B09F457C08DE792E00E94CA094BE0DD
:1035A00050E061E772E0CE0101960E943323CE0124
:1035B0000A960E9492068C87E981E154E33110F566
:1035C0000E2E000CFF0BE951F54E0C9423272D1BFA
:1035D000021B021B411B021B2B1B021B021B021B9B
:1035E000FA1A021B021B341B3F1B3D1B021B021B52
:1035F000021B3B1B8A81813651F18B818E3649F546
:1036000086E08D87CE0105960E9492068E8748E05F
:1036100050E068E672E0CE0101960E943323CE01AD
:1036200001960E9492068F87CE0104960E94920610
:10363000888BCE0107960E949206898BCE010C964C
:103640000E94020C86E592E00E94CA0957CF81E0F1
:10365000D8CF87E0D6CF82E0D4CF8B81823711F4E8
:1036600084E0CFCF88E0CDCF8B81823711F483E027
:10367000C8CF85E0C6CF89E0C4CF8AE0C2CF8BE057
:10368000C0CF8CE0BECF0091670310E00A511D4F00
:10369000C801865E9240803891050CF05ECFF8013B
:1036A00061918F0185E294E00E941006F1CF65E000
:1036B00073E085E294E00E9464056BE872E085E2C5
:1036C00094E00E94330D10926703109266030E94EB
:1036D0001804698F7A8F8B8F9C8F8091B50481FF3E
:1036E00021C182FF1FC10E94180400917403109130
:1036F00075032091760330917703601B710B820B69
:10370000930B603375478105910508F40BC18091D7
:10371000B5048B7F8093B5040E94E90880E293E0B2
:103720000E94CA098091B50480FF77C30E941804E3
:103730006D8F7E8F8F8F98A380916803909169031E
:10374000A0916A03B0916B034D8D5E8D6F8D78A152
:10375000481B590B6A0B7B0B80910401909105016A
:10376000092E000CAA0BBB0B481759076A077B07E9
:1037700050F080917803813009F464C208F4DEC00F
:10378000823009F4BEC280919E0390919F03A09164
:10379000A003B091A103298D3A8D4B8D5C8D281B20
:1037A000390B4A0B5B0BDA01C901883E9340A10536
:1037B000B10590F0898D9A8DAB8DBC8D80939E0361
:1037C00090939F03A093A003B093A10380919D03C6
:1037D000811102C00E94C00F8091990390919A03B9
:1037E000A0919B03B0919C03298D3A8D4B8D5C8DEC
:1037F000281B390B4A0B5B0BDA01C9018436910592
:10380000A105B105A8F0898D9A8DAB8DBC8D8093F3
:10381000990390939A03A0939B03B0939C03809188
:103820009D03823029F48091B50480FD0E94F30E3F
:1038300099EAC92E94E0D92E21E8A22E23E0B22ED7
:103840003BE4432E31E0532EF12C4CE6642E43E052
:10385000742E55E6852E53E0952ED2018D912D01C3
:103860000E942A038C01F60180818017110651F015
:10387000298D3A8D4B8D5C8DD5012D933D934D93C4
:103880005C931397F50181919191A191B1915F01A1
:10389000EE24E3940115110509F4E12C298D3A8DEC
:1038A0004B8D5C8D281B390B4A0B5B0BDA01C90170
:1038B000C397A105B105D8F0D60116968C9116973D
:1038C00080171106A1F01696EC920115110579F4F6
:1038D0000E94D00980919D03823009F47FC408F0D2
:1038E000A1C2882309F4D8C2813009F4C2C3F60109
:1038F000E1926F01F394F6E0FF12AFCF80E090E029
:10390000892B09F405CE0E94000002CE0E94090412
:103910008111DDCE8091B50485FFD9CE8F7D809356
:10392000B504D5CE8091B50481FDFCCE82FFFACEE0
:103930008B7F8093B5040E94E908F4CE0E94DB22BD
:1039400024E732E040E050E00E94A6240E94732366
:1039500020E030E048EC52E40E94B2252B013C010B
:10396000C0900801D090090189E18C9D40018D9D96
:10397000900C1124092C000CAA08BB080D2C000C7B
:10398000EE08FF08C814D904EA04FB048CF48C1870
:103990009D08AE08BF0841F00E94DB22A5019401FA
:1039A0000E94A6244B015C01C80CD91CEA1CFB1C1C
:1039B000C301B2010E94AD254B015C01B601DD0CD3
:1039C000880B990B0E9473236B017C01AC019B0156
:1039D000C501B4010E94D2230E9424264B011B0181
:1039E000C301B2010E949E269B01AC01C701B60132
:1039F0000E94D2230E9424266B018B0180917203C6
:103A000090917303209106013091070137FF02C0A6
:103A10002F5F3F4F35952795880E991E97FE03C05F
:103A2000919481949108281539052CF46DEF7FEF5E
:103A30000E940F271B018091700390917103C80EA3
:103A4000D91ED7FE03C0D194C194D1082C153D05D1
:103A50002CF46DEF7FEF0E940F278B0121143104AE
:103A600021F40115110509F48ECE80919C048983FF
:103A70002A820B831C828091860481112BC0FF2433
:103A8000F394F0927904F0927A048FE794E09093A3
:103A90007C0480937B0410927E0410927D048BE65C
:103AA00091E09093760480937504109281041092B3
:103AB00080041092830410928204F0928404F092A5
:103AC000850481EC80937F040E94B5050E946C02FE
:103AD000F092860481E0888F41E050E0BE01685E8C
:103AE0007F4F809178040E94BD0497FD0AC08091A9
:103AF000780444E050E0BE016F5F7F4F80640E9415
:103B0000BD048091720390917303820D931D909375
:103B10007303809372038091700390917103800FFF
:103B2000911F909371038093700388E00E942A0391
:103B300061E0892B09F060E088E00E9453032D8D3D
:103B40003E8D4F8D58A120936803309369034093B5
:103B50006A0350936B0380E593E00E949D09B801CE
:103B6000CE0142960E948011B101CE0101960E94C1
:103B700080111D861C861F861E86198A188A6981F7
:103B80007A816115710531F04D815E81CE010C960F
:103B90000E945F11CE010C960E940811BE016E5E5C
:103BA0007F4F0E942C110E947A12CE010C960E9427
:103BB000D810CE0101960E94D810CE0142960E94E4
:103BC000D81081E493E00E949D0960917003709188
:103BD0007103CE0142960E94801160917203709130
:103BE0007303CE0101960E9480111D861C861F86DC
:103BF0001E86198A188A69817A816115710531F0EA
:103C00004D815E81CE010C960E945F11CE010C9613
:103C10000E940811BE016E5E7F4F0E942C110E940F
:103C20007A128FE393E00E949D09CE010C960E94C8
:103C3000D810CE0101960E94D810CE0142960E9463
:103C4000D810A1CD0E94DB224B015C01009108013C
:103C5000109109010E94DB226B017C016090080138
:103C6000709009010E94DB222FE030E040E050E03C
:103C70000E94A624672B682B692B39F1C501B4017A
:103C80002BE030E040E050E00E94A624655071092E
:103C900081099109069F1001079F300C169F300C77
:103CA0001124C701B6012BE030E040E050E00E9453
:103CB000A6246550710981099109669E8001679E5D
:103CC000100D769E100D1124C9CE209072033090F5
:103CD000730337FE03C0EFEF2E1A3E0A3594279484
:103CE000319421943108009170031091710317FFF2
:103CF00002C00F5F1F4F159507951195019511098A
:103D0000ADCE809106019091070163E070E00E94C2
:103D10000F27072E000C880B990B0E9473234B0171
:103D20005C01C0906C03D0906D03E0906E03F09046
:103D30006F03C701B6010E94AD259B01AC01C5010F
:103D4000B4010E94D2232B013C0160917203709157
:103D50007303072E000C880B990B0E9473239B01A1
:103D6000AC01C301B2010E9440250E9424261B0120
:103D7000C701B6010E949E269B01AC01C501B4019A
:103D80000E94D2234B015C0160917003709171031A
:103D9000072E000C880B990B0E9473239B01AC012A
:103DA000C501B4010E9440250E9424268B01609128
:103DB000080170910901072E000C880B990B0E94D5
:103DC00073232DEC3CEC4CE45DE30E94D22320E015
:103DD00030E040E251E40E94B225A70196010E9422
:103DE00041256B017C0123EC35EF48EC50E40E9447
:103DF000992687FF09C0C0926C03D0926D03E092B0
:103E00006E03F0926F032ACE10926C0310926D0332
:103E100010926E0310926F0321CE60E088E00E9442
:103E20005303B1CC833009F4E9C1843009F05FCD8C
:103E30000E94D00993E0F91609F4FFC29F1508F417
:103E40007FC2A1E0FA1609F424C1B2E0FB1609F41E
:103E500085C220917F0330917D03409110015091E4
:103E60000E0160910C0180910A0190910B01803D3F
:103E700077E0970710F0805D974089836A835B83C2
:103E80004C833D832E83CE0101960E94020C87EA6B
:103E900093E00E94CA09FDC0B2E0FB1609F4D7C046
:103EA000E4E0FE1609F4DDC0F11021CD8091790324
:103EB0008230B1F188F48823F9F0813009F017CD10
:103EC00080939D0310927A038091B5048F7E809336
:103ED000B5040E944C0F0BCD843009F493C008F454
:103EE0005FC0853009F003CD83E080939D0310927D
:103EF0007B030E944C0DFBCC8091780390E00196EF
:103F000063E070E00E940F27809378030E942B12D9
:103F10008091B504877F8093B5040E94C00FE7CCE1
:103F20008091B50481608093B50482E080939D0305
:103F30001092730310927203109271031092700327
:103F400010926C0310926D0310926E0310926F0327
:103F50000E941804609368037093690380936A0356
:103F600090936B0383E793E00E949D097A826982B4
:103F70009C828B828CE593E09E838D83E091780315
:103F8000F0E0EE0FFF1F21E030E02C0F3D1FE20FAD
:103F9000F31F808191810E94CA090E94F30EA7CC71
:103FA000CE0101960E94450B898190E08053984F85
:103FB00090930B0180930A018A8190E090930D0108
:103FC00080930C018B8190E090930F0180930E0100
:103FD0008C8190E090931101809310018D8190E08D
:103FE00090937E0380937D038E8190E09093800375
:103FF00080937F0384E080939D0310927C030E9452
:10400000160E75CC8091B50481FB992790F921E0BB
:10401000922790FB81F9A9F084608093B5042093E6
:10402000C30468E086EB94E00E94D1080E94180463
:104030006093740370937503809376039093770372
:1040400065CF8B7F8093B5040E94E908EFCF809104
:104050007903882321F081508093790359CF85E03B
:10406000FBCF80917903853011F08F5FF5CF80E031
:10407000F3CF0E94D00933E0F31609F468C03F156E
:1040800090F041E0F416E9F052E0F516E9F00E94F4
:104090002B1210929D038091B504877F8093B50405
:1040A0000E94190D3ACF74E0F71609F45BC085E061
:1040B000F812EDCF80917A03882309F48DC08150E6
:1040C0004EC00E942513E5CF80917A03813051F1D3
:1040D000A8F0823009F0FDCE809104019091050195
:1040E00097FD32C08735E3E19E0714F086E593E142
:1040F000C2969093050180930401EBCE8091080154
:10410000909109018F3FAFEF9A070CF450C08133B3
:10411000910514F080E390E002969093090180935A
:104120000801D7CE809106019091070197FD51C0FB
:104130008F39B7E09B0714F08EE997E0C296909311
:10414000070180930601C5CE82E390E0D2CF809133
:104150007A0390E0019663E070E00E940F2780935D
:104160007A03B7CE80917A03813021F190F08230CA
:1041700009F0AFCE8091040190910501843691053C
:104180001CF38B3B23E1920714F08AEB93E1C29777
:10419000B0CF8091080190910901833091053CF0E6
:1041A0008533910514F084E390E00297B6CF81E067
:1041B00090E0B3CF8091060190910701843691057C
:1041C00044F08330F8E09F0714F082E098E0C29753
:1041D000B6CF82E390E0B3CF82E0C1CF31E0F312FB
:1041E00086CB8091B50410929D038E7F877F80934C
:1041F000B50482E993E00E94CA098FCE0E94D009DB
:1042000041E0F41609F445CFF41670F052E0F516CB
:1042100009F48AC074E0F7126ACB80917B03833083
:1042200009F48CC08F5F85C080917B03813009F4D5
:1042300042C090F1823009F44BC0833009F059CE6E
:1042400082E2809380008AE18093810020E43CE94F
:10425000309387002093860040E659E050938B000E
:1042600040938A0068EE73E080E090E00E94D703FC
:1042700088EB9BE090938B0080938A0064E670E06B
:1042800080E090E00E94D703809180008F7D809332
:10429000800060E08AE00CC061E08CE00E94530383
:1042A00068EE73E080E090E00E94D70360E08CE06D
:1042B0000E9453031ECE61E086E00E94530368EE25
:1042C00073E080E090E00E94D70360E086E0F0CFEA
:1042D00082E8809380008AE18093810080E49CE9F9
:1042E0009093870080938600A0E6B9E0B0938900A0
:1042F000A093880068EE73E080E090E00E94D7030E
:10430000E8EBFBE0F0938900E093880064E670E05E
:1043100080E090E00E94D703809180008F778093A7
:10432000800060E089E0C4CF80917B03882321F086
:10433000815080937B03DDCD83E0FBCF80E0F9CF1C
:10434000E4E0FE1609F483C0F5E0FF1282CD80910F
:104350007C03882309F4E1C0815074C080917C0300
:104360008230E1F190F4882331F1813009F047CEB9
:1043700080910C0190910D018C30910564F50196AE
:1043800090930D0180930C013ACE843009F446C01D
:10439000B0F1853009F033CE80917F039091800396
:1043A0008B3391051CF48C010F5F1F4F109380031A
:1043B00000937F0324CE80910E0190910F018F31E5
:1043C000910534F4019690930F0180930E0117CE5E
:1043D00081E090E0F8CF81E090E0D2CF80910A01B7
:1043E00090910B018E3EA7E09A0734F401969093CA
:1043F0000B0180930A0103CE89EE97E0F8CF8091FC
:10440000100190911101873191051CF48C010F5F0F
:104410001F4F1093110100931001F1CD80917D0386
:1044200090917E038B3391051CF48C010F5F1F4F1D
:1044300010937E0300937D03E2CD80917C03853051
:1044400020F48F5F80937C03DACD80E0FBCF8091F6
:104450007C03823091F170F4882301F1813009F0FE
:10446000CECD80910C0190910D018230910514F117
:10447000019786CF8430F1F168F1853009F0BFCD26
:1044800080917F0390918003181619060CF042C0AA
:1044900001979093800380937F03B1CD80910E01AB
:1044A00090910F018230910514F001978CCF8FE12C
:1044B00090E089CF8CE090E063CF80910A019091E9
:1044C0000B018A3EB7E09B0714F0019790CF8EEE68
:1044D00097E08DCF80911001909111011816190667
:1044E00034F40197909311018093100188CD87E1F6
:1044F00090E0F8CF80917D0390917E031816190605
:1045000034F4019790937E0380937D0378CD8BE301
:1045100090E0F8CF8BE390E0BCCF85E093CF8F9213
:104520009F92AF92BF92CF92DF92EF92FF92CF9382
:10453000DF93EC01688179818A819B816115710526
:104540008105910521F464E279ED8BE597E02DE199
:1045500033EF41E050E00E94A62449015A019B013B
:10456000AC01A7EAB1E40E94C5246B017C01ACEE6A
:10457000B4EFA50194010E94D324C60ED71EE81EF5
:10458000F91EF7FE06C081E0C81AD108E10880E8EC
:10459000F80AC882D982EA82FB82C701B6019F77F6
:1045A000DF91CF91FF90EF90DF90CF90BF90AF90D1
:1045B0009F908F9008958F929F92AF92BF92CF92CB
:1045C000DF92EF92FF926091210170912201809120
:1045D000230190912401611571058105910521F454
:1045E00064E279ED8BE597E02DE133EF41E050E0B7
:1045F0000E94A62449015A019B01AC01A7EAB1E43B
:104600000E94C5246B017C01ACEEB4EFA5019401BE
:104610000E94D324C60ED71EE81EF91EF7FE06C060
:1046200081E0C81AD108E10880E8F80AC0922101A7
:10463000D0922201E0922301F0922401C701B60139
:104640009F77FF90EF90DF90CF90BF90AF909F90BB
:104650008F9008956093210170932201809323012C
:10466000909324010895FB01DC0102C005900D9296
:1046700041505040D8F70895BB274A3031F4992370
:1046800022F4BDE2909581959F4F0C944823BB275F
:10469000FB015527AA27880F991FAA1FA41710F0FE
:1046A000A41B83955051B9F7A05DAA3308F0A95D0A
:1046B000A193009779F7B111B1931192CB010C94AA
:1046C0006123DC01FC01672F71917723E1F73297B9
:1046D00004C07C916D9370836291AE17BF07C8F3DD
:1046E0000895E89409C097FB3EF4909580957095E5
:1046F00061957F4F8F4F9F4F9923A9F0F92F96E92E
:10470000BB279395F695879577956795B795F111A2
:10471000F8CFFAF4BB0F11F460FF1BC06F5F7F4F3F
:104720008F4F9F4F16C0882311F096E911C0772351
:1047300021F09EE8872F762F05C0662371F096E85A
:10474000862F70E060E02AF09A95660F771F881F29
:10475000DAF7880F9695879597F90895990F0008CD
:10476000550FAA0BE0E8FEEF16161706E807F90743
:10477000C0F012161306E407F50798F0621B730BDE
:10478000840B950B39F40A2661F0232B242B252B5F
:1047900021F408950A2609F4A140A6958FEF811D02
:1047A000811D08950E94E5230C9456240E944824FC
:1047B00038F00E944F2420F0952311F00C943F24F0
:1047C0000C94452411240C948A240E94672470F3CD
:1047D000959FC1F3950F50E0551F629FF001729FA6
:1047E000BB27F00DB11D639FAA27F00DB11DAA1FB5
:1047F000649F6627B00DA11D661F829F2227B00D02
:10480000A11D621F739FB00DA11D621F839FA00D8C
:10481000611D221F749F3327A00D611D231F849FDC
:10482000600D211D822F762F6A2F11249F57504033
:104830009AF0F1F088234AF0EE0FFF1FBB1F661FAE
:10484000771F881F91505040A9F79E3F510580F077
:104850000C943F240C948A245F3FE4F3983ED4F3F5
:10486000869577956795B795F795E7959F5FC1F71B
:10487000FE2B880F911D9695879597F9089597F9C6
:104880009F6780E870E060E008959FEF80EC0895F6
:1048900000240A941616170618060906089500241F
:1048A0000A9412161306140605060895092E039499
:1048B000000C11F4882352F0BB0F40F4BF2B11F40D
:1048C00060FF04C06F5F7F4F8F4F9F4F089557FD6C
:1048D0009058440F551F59F05F3F71F04795880F6E
:1048E00097FB991F61F09F3F79F087950895121605
:1048F00013061406551FF2CF4695F1DF08C01616B1
:1049000017061806991FF1CF869571056105089461
:104910000895E894BB2766277727CB0197F9089578
:10492000F999FECF92BD81BDF89A992780B5089577
:10493000262FF999FECF1FBA92BD81BD20BD0FB6BB
:10494000F894FA9AF99A0FBE01960895052E97FBEE
:104950001EF400940E94BD2457FD07D00E940F252D
:1049600007FC03D04EF40C94BD245095409530952F
:1049700021953F4F4F4F5F4F0895909580957095CB
:1049800061957F4F8F4F9F4F08950E943125A59FBE
:10499000900DB49F900DA49F800D911D112408953A
:1049A000B7FF0C94C5240E94C524821B930B089565
:1049B0002F923F924F925F926F927F928F929F922F
:1049C000AF92BF92CF92DF92EF92FF920F931F931D
:1049D000CF93DF93CDB7DEB7CA1BDB0B0FB6F894CE
:1049E000DEBF0FBECDBF09942A88398848885F840E
:1049F0006E847D848C849B84AA84B984C884DF807F
:104A0000EE80FD800C811B81AA81B981CE0FD11D62
:104A10000FB6F894DEBF0FBECDBFED010895A1E241
:104A20001A2EAA1BBB1BFD010DC0AA1FBB1FEE1F28
:104A3000FF1FA217B307E407F50720F0A21BB30B73
:104A4000E40BF50B661F771F881F991F1A9469F7EF
:104A500060957095809590959B01AC01BD01CF014B
:104A60000895A29FB001B39FC001A39F700D811D47
:104A70001124911DB29F700D811D1124911D089567
:104A80005058BB27AA270E9458250C9456240E94F0
:104A9000482438F00E944F2420F039F49F3F19F445
:104AA00026F40C9445240EF4E095E7FB0C943F2487
:104AB000E92F0E94672458F3BA1762077307840727
:104AC000950720F079F4A6F50C9489240EF4E0956E
:104AD0000B2EBA2FA02D0B01B90190010C01CA01B8
:104AE000A0011124FF27591B99F0593F50F4503E63
:104AF00068F11A16F040A22F232F342F4427585F55
:104B0000F3CF469537952795A795F0405395C9F76C
:104B10007EF41F16BA0B620B730B840BBAF0915024
:104B2000A1F0FF0FBB1F661F771F881FC2F70EC0C3
:104B3000BA0F621F731F841F48F487957795679596
:104B4000B795F7959E3F08F0B0CF9395880F08F082
:104B50009927EE0F9795879508950E945C26E39517
:104B60000C9485260E94C6250C9456240E944F243E
:104B700058F00E94482440F029F45F3F29F00C943B
:104B80003F2451110C948A240C9445240E946724DC
:104B900068F39923B1F3552391F3951B550BBB276C
:104BA000AA2762177307840738F09F5F5F4F220FB1
:104BB000331F441FAA1FA9F335D00E2E3AF0E0E8A8
:104BC00032D091505040E695001CCAF72BD0FE2FF2
:104BD00029D0660F771F881FBB1F26173707480786
:104BE000AB07B0E809F0BB0B802DBF01FF2793583E
:104BF0005F4F3AF09E3F510578F00C943F240C949F
:104C00008A245F3FE4F3983ED4F3869577956795C1
:104C1000B795F7959F5FC9F7880F911D9695879572
:104C200097F90895E1E0660F771F881FBB1F621791
:104C300073078407BA0720F0621B730B840BBA0B4F
:104C4000EE1F88F7E09508950E942B266894B11115
:104C50000C948A2408950E946F2488F09F5798F03E
:104C6000B92F9927B751B0F0E1F0660F771F881F71
:104C7000991F1AF0BA95C9F714C0B13091F00E948B
:104C80008924B1E008950C948924672F782F882710
:104C9000B85F39F0B93FCCF3869577956795B395B2
:104CA000D9F73EF490958095709561957F4F8F4F21
:104CB0009F4F08950C9445240E946F24D8F3E894E4
:104CC000E0E0BB279F57F0F02AED3FE049EC06C03B
:104CD000EE0FBB0F661F771F881F28F0B23A6207DE
:104CE0007307840728F0B25A620B730B840BE395A9
:104CF0009A9572F7803830F49A95BB0F661F771F2C
:104D0000881FD2F790480C94A826EF93E0FF07C0C5
:104D1000A2EA2AED3FE049EC5FEB0E9458250E9491
:104D200056240F90039401FC9058ECEAF0E00C94A8
:104D3000B4260E94AE2308F48FEF08959F930E943B
:104D40005C260F9007FCEE5F0C9485269F3F31F0A8
:104D5000915020F4879577956795B795880F911DA9
:104D60009695879597F908959F938F937F936F9367
:104D7000FF93EF939B01AC010E94D223EF91FF912F
:104D80000E94C8262F913F914F915F910C94D2239E
:104D9000DF93CF931F930F93FF92EF92DF927B01EC
:104DA0008C01689406C0DA2EEF010E94E523FE0113
:104DB000E894A5912591359145915591A6F3EF0180
:104DC0000E945825FE019701A801DA9469F7DF9047
:104DD000EF90FF900F911F91CF91DF910895991B54
:104DE00079E004C0991F961708F0961B881F7A95E2
:104DF000C9F780950895AA1BBB1B51E107C0AA1FE4
:104E0000BB1FA617B70710F0A61BB70B881F991F6B
:104E10005A95A9F780959095BC01CD01089597FB0F
:104E2000072E16F4009407D077FD09D00E94FB26C8
:104E300007FC05D03EF4909581959F4F089570959D
:104E400061957F4F0895EE0FFF1F0590F491E02DBF
:104E500009940F931F93CF93DF938230910510F441
:104E600082E090E0E091C604F091C70430E020E0D9
:104E7000B0E0A0E0309799F42115310509F44AC05B
:104E8000281B390B24303105D8F58A819B816115A7
:104E9000710589F1FB0193838283FE0111C040817A
:104EA00051810281138148175907E0F048175907CB
:104EB00099F4109761F012960C93129713961C9325
:104EC0003296CF01DF91CF911F910F9108950093FA
:104ED000C6041093C704F4CF2115310551F04217D1
:104EE000530738F0A901DB019A01BD01DF01F80188
:104EF000C1CFEF01F9CF9093C7048093C604CDCF03
:104F0000FE01E20FF31F81939193225031093983FF
:104F10002883D7CF2091C4043091C504232B41F4BA
:104F200020912701309128013093C5042093C404B7
:104F300020912501309126012115310541F42DB72D
:104F40003EB74091290150912A01241B350BE09175
:104F5000C404F091C504E217F307A0F42E1B3F0B25
:104F60002817390778F0AC014E5F5F4F24173507DB
:104F700048F04E0F5F1F5093C5044093C4048193C3
:104F800091939FCFF0E0E0E09CCFCF93DF93009729
:104F9000E9F0FC01329713821282A091C604B0910D
:104FA000C704ED0130E020E01097A1F420813181A9
:104FB000820F931F2091C4043091C504281739072C
:104FC00009F061C0F093C504E093C404DF91CF9170
:104FD0000895EA01CE17DF07E8F54A815B819E015B
:104FE00041155105B1F7E901FB83EA8349915991D4
:104FF000C40FD51FEC17FD0761F4808191810296E3
:10500000840F951FE90199838883828193819B8313
:105010008A83F0E0E0E012968D919C9113970097BF
:10502000B9F52D913C911197CD010296820F931FF6
:105030002091C4043091C5042817390739F63097F8
:1050400051F51092C7041092C604B093C504A09302
:10505000C404BCCFD383C28340815181840F951F88
:10506000C817D90761F44E5F5F4F88819981480F57
:10507000591F518340838A819B81938382832115A9
:10508000310509F0B0CFF093C704E093C6049ECF7A
:10509000FD01DC01C0CF13821282D7CFB0E0A0E0C7
:1050A000E4E5F8E20C94DA248C01009751F4CB018A
:1050B0000E9429278C01C801CDB7DEB7E0E10C942E
:1050C000F624FC01E60FF71F9C0122503109E2177C
:1050D000F30708F49DC0D901CD91DC911197C61753
:1050E000D70798F0C530D10530F3CE010497861765
:1050F000970708F3C61BD70B2297C193D1936D93E3
:105100007C93CF010E94C527D6CF5B01AC1ABD0AA4
:105110004C018C0E9D1EA091C604B091C704512C69
:10512000412CF12CE12C109731F58091C404909121
:10513000C5048815990509F05CC04616570608F0A5
:1051400058C08091250190912601009741F48DB7B8
:105150009EB74091290150912A01841B950BE817B5
:10516000F90708F055C0F093C504E093C404F901B1
:1051700071836083A0CF8D919C91119712966C9052
:10518000129713967C901397A815B90559F56C01E1
:1051900042E0C40ED11CCA14DB0420F1AC014A1950
:1051A0005B09DA011296159780F06282738251834F
:1051B0004083D9016D937C93E114F10471F0D70120
:1051C0001396FC93EE93129776CF22968C0F9D1F29
:1051D000F90191838083F301EFCFF093C704E0934B
:1051E000C60469CF4816590608F42C017D01D30185
:1051F0009ACFCB010E9429277C01009749F0AE018C
:10520000B8010E940B29C8010E94C527870153CF0E
:1052100010E000E050CFFB01DC0102C001900D92D4
:1052200041505040D8F70895FB01DC0101900D92E8
:105230000020E1F70895FB01DC014150504048F0A7
:1052400001900D920020C9F701C01D9241505040BD
:08525000E0F70895F894FFCF88
:10525800FFFFFFFFE803C8000500E9070A000D008B
:105268000C0000C1808100000000E1000000000087
:1052780000010000000000C80480009301A301B3EE
:1052880001C301F90100020702D9014E025C026A5A
:105298000277027F0201010101010117161514139B
:1052A8001200401454000000001006FA05310626CA
:1052B80006780636065406000000009F061807DD2B
:1052C80006C206000000006B093E099A092404374B
:1052D800092409150900000000260D88059A0963AC
:1052E800073E0052656C6169732031205044364492
:1052F80031320052656C6169732032205044374462
:10530800362000536572766F203120205042354494
:10531800392000536572766F20322020504236447F
:105328003130003C002F003A004D6F64653A200090
:10533800506F733A20002C0052455455524E203D70
:1053480020417272657465720052616E646F6D00FF
:105358004A6967676C650043697263756C617200BE
:10536800566974657373653A2020005A6F6E653A02
:1053780020202020200044656C61693A20202020EC
:10538800003E20004F4E004F4646002A00202020B5
:105398002020202020202020202020202000436FB3
:1053A8006E66696775726174696F6E0044656D61D8
:1053B800727265722053696D75005265676C65720B
:1053C80020486575726500526574726F3A20005402
:0E53D800657374204F7574707574000D0A00B3
:00000001FF
