:100000000C941E020C9446020C9446020C94460278
:100010000C9446020C9446020C9446020C94460240
:100020000C9446020C9446020C94E30F0C9452106C
:100030000C9446020C9446020C9446020C94460220
:100040000C9446020C9446020C9446020C94460210
:100050000C9446020C9446020C9446020C94990FA0
:100060000C9446020C9446020C9446020C944602F0
:100070000C9446020C9446020C9446020C944602E0
:100080000C9446020C9446020C9446020C944602D0
:100090000C9484120C9446020C9446020C94460272
:1000A0000C9446020C9446020C94460205A84CCDD2
:1000B000B2D44EB93836A9020C50B9918688083CA2
:1000C000A6AAAA2ABE000000803F0A0052C3A97453
:1000D000726FC3A9636C6169726167652072C3A99D
:1000E0006163746976C3A90043697263756C617258
:1000F000004A6967676C650052616E646F6D00202D
:100100004D6F64653D002F3230303020496E74658C
:100110007276616C6C653D002F3530205A6F6E65CC
:100120003D00506172616DC3A8747265733A2056C8
:100130006974657373653D00506172616DC3A87425
:1001400072657320736175766567617264C3A973A4
:1001500000434F4E46494755524154494F4E005374
:10016000494D554C4154494F4E2041435449564501
:1001700000202052656C6169732032202050443782
:1001800020443620003E2052656C61697320322085
:10019000205044372044362000454E5445523D41BE
:1001A000637420205245543D4D656E7500202052E9
:1001B000656C61697320312020504436204431320F
:1001C000003E2052656C6169732031202050443616
:1001D0002044313200544553542052454C41495338
:1001E00000080B00020202000009040000010202E4
:1001F0000000052400100105240101010424020669
:1002000005240600010705810310004009040100D0
:10021000020A0000000705020240000007058302F1
:100220004000000403090412010002EF02014041F2
:1002300023368000010102030141726475696E6F0B
:10024000204C4C430041726475696E6F204C656FA1
:100250006E6172646F00415454454E54494F4E3A9A
:100260002043652070726F6772616D6D6520636FEA
:100270006E7472C3B46C65206C6120736F757269A3
:100280007320210053797374C3A86D6520696E696A
:100290007469616C6973C3A92021005665722E319F
:1002A0002E302070617220436865776279004D4F6F
:1002B0005553452053494D554C41544F52003D3DF7
:1002C0003D204D6F7573652053696D756C61746F5A
:1002D000722076312E30203D3D3D003D3D3D204693
:1002E000494E203D3D3D003D3D3D20425546464561
:1002F00052203D3D3D0052C3A974726FC3A9636C87
:1003000061697261676520C3A97465696E7420288C
:1003100033307329000A00202D3E20506F7369741A
:10032000696F6E3A20004D6F7576656D656E743A33
:10033000200043697263756C6172004A6967676C7B
:10034000650052616E646F6D0053696D756C617408
:10035000696F6E2064C3A96D617272C3A965202D97
:10036000204D6F64653A200053696D756C61746946
:100370006F6E20617272C3AA74C3A9650000000089
:1003800000240027002A002D003000000000002576
:100390000028002B002E0031000000000023002662
:1003A0000029002C002F00040404040403040502A7
:1003B0000202020403020202020606060606060400
:1003C00004020202040404080201104080401020CC
:1003D000408040800802040180402010020110800B
:1003E00010204040200000000200090F000003041C
:1003F00001000C00000000000000000000000000F0
:100400000000000005010902A1010901A100850108
:1004100005091901290315002501950375018102BC
:1004200095017505810305010930093109381581E8
:10043000257F750895038106C0C0A31311241FBE34
:10044000CFEFDAE0DEBFCDBF12E0A0E0B1E0E4ED37
:10045000F3E402C005900D92AC32B107D9F724E065
:10046000ACE2B2E001C01D92AB35B207E1F712E099
:10047000CEE1D2E004C02197FE010E94CD1FCD3114
:10048000D107C9F70E9470140C94E8210C94000065
:10049000CF93DF93FC01818190910C04482F490F89
:1004A0005527551F483051059CF5A281B3811097FF
:1004B00009F528E034E033832283208120930A0465
:1004C00080930B0480910D04820F808320910E0491
:1004D000A22FB0910F048A2F821B8917E8F4818123
:1004E0003D91C82FD0E0C65FDE4F38838F5F818398
:1004F000F2CFD90118962D913C911997211531050C
:10050000C1F728E034E019963C932E931897D5CF85
:1005100080E0DF91CF91089581E0FBCFFC018091D5
:10052000B703882311F13FB7F89482E08093E90084
:100530002091F200822F90E01816190614F481E041
:1005400090E0882339F0289844E64093B603409120
:10055000F1004083222339F02091F200211103C0E1
:100560002BE62093E8003FBF08958FEF9FEF08959B
:1005700081508F3008F047C0E82FF0E0EE53FD4F78
:100580000C94CD1FDF02E302D102D702DB0203038A
:1005900003030303E602EC02F002F402FA0203038F
:1005A000FE02809180008F77809380000895809173
:1005B00080008F7DF9CF80918000877FF5CF84B553
:1005C0008F7784BD089584B58F7DFBCF8091900097
:1005D0008F77809390000895809190008F7DF9CF60
:1005E00080919000877FF5CF8091C0008F778093B6
:1005F000C00008958091C0008F7DF9CF8091C20026
:10060000877F8093C2000895CF93DF93282F30E037
:10061000F901EB51FC4F8491F901EA53FC4FD4915D
:10062000F901E955FC4FC491CC23A1F081110E943E
:10063000B802EC2FF0E0EE0FFF1FE756FC4FA5913C
:10064000B491EC91ED2381E090E009F480E0DF913A
:10065000CF91089580E090E0FACF1F93CF93DF937E
:10066000282F30E0F901EB51FC4F8491F901EA5356
:10067000FC4FD491F901E955FC4FC491CC23A9F06A
:10068000162F81110E94B802EC2FF0E0EE0FFF1F31
:10069000E557FC4FA591B4918FB7F894EC911111E7
:1006A00008C0D095DE23DC938FBFDF91CF911F91DF
:1006B0000895DE2BF8CFCF93DF9390E0FC01EA534F
:1006C000FC4F249189559C4FFC0184918823D1F0E3
:1006D00090E0880F991FFC01E358FC4FA591B4915D
:1006E000FC01E557FC4FC591D491623071F49FB77E
:1006F000F8943C91822F809583238C93E8812E2B54
:1007000028839FBFDF91CF9108958FB7F894EC9124
:100710002E2B2C938FBFF6CF3FB7F8948091B20366
:100720009091B303A091B403B091B50326B5A89BF3
:1007300005C02F3F19F00196A11DB11D3FBFBA2F73
:10074000A92F982F8827BC01CD01620F711D811D33
:10075000911D42E0660F771F881F991F4A95D1F7B8
:1007600008958F929F92AF92BF92CF92DF92EF92B5
:10077000FF924B015C010E948C036B017C010E9483
:100780008C036C197D098E099F09683E73408105B1
:100790009105A8F321E0821A9108A108B10888EE1A
:1007A000C80E83E0D81EE11CF11C81149104A10441
:1007B000B10429F7FF90EF90DF90CF90BF90AF90FA
:1007C0009F908F900895CF93C09118016AE070E0D8
:1007D00080E090E00E94B10381E0C11101C080E09F
:1007E000CF9108952FB7F8946091AE037091AF0345
:1007F0008091B0039091B1032FBF0895089508959B
:1008000008954091EC025091ED022091EA0230915E
:10081000EB0242175307B4F49091E8009570E1F3AE
:100820009091E80092FD19C08093F1008091EC0254
:100830009091ED0201968F739927892B19F48EEF11
:100840008093E8008091EC029091ED0201969093E4
:10085000ED028093EC0281E0089580E00895EF922C
:10086000FF920F931F93CF93DF93F82E192FE62E4D
:10087000042F81E0860F880F0E94010483E00E940C
:100880000104CF2DD12FEC0EFD2EF11CCE15DF056E
:10089000B9F007FF13C0FE0184910E940104182FD4
:1008A00080E00E940104812321968111EFCFDF9126
:1008B000CF911F910F91FF90EF9008958881EDCF18
:1008C00081E0F5CFDF92EF92FF920F931F93CF93CA
:1008D000DF93D82E8A01EB017B01E40EF51ECE15C5
:1008E000DF0559F0D7FE12C0FE0184910E94010479
:1008F00021968111F4CF0FEF1FEFC801DF91CF9147
:100900001F910F91FF90EF90DF9008958881EECFB7
:100910002FB7F89487708093E9009091E800892FB1
:10092000807295FF04C09091F20080E4891B2FBF74
:1009300008957F928F929F92AF92BF92CF92DF9253
:10094000EF92FF920F931F93CF93DF93C82E8B01EB
:100950007A018091B703811110C08FEF9FEFDF9173
:10096000CF911F910F91FF90EF90DF90CF90BF90AC
:10097000AF909F908F907F9008958091F00280FFBC
:1009800005C08091E00082608093E000CE2DDF2DD5
:10099000D12C8AEFB82E8C2D8770982E8C2D8072DA
:1009A000882E8C2D8074782E9AE3A92E209719F426
:1009B000DD2009F452C08C2D0E94880481110AC0E8
:1009C000BA94BB2051F261E070E080E090E00E94B8
:1009D000B103ECCF8C171D0611F00CF08C2F9FB7D4
:1009E000F8949092E9002091E80025FD02C09FBF95
:1009F000DDCF282F30E0C21BD30B882029F0815097
:100A0000A0F01092F100FBCFF801C7FC0AC08150A2
:100A100050F041914093F100FACF44914093F1009E
:100A200031968150D0F7020F131FDD2021F0A092E4
:100A3000E800D12CDCCF8091E80085FD07C0A092B2
:100A4000E800DD24D394209791F2F3CF209779F634
:100A5000772069F2A092E800CACF5D9884E680937F
:100A6000EF02C7017CCF615030F02091F100FC0112
:100A700020830196F8CF289884E68093B6030895E2
:100A8000EF92FF920F931F93CF93DF938C017B0123
:100A9000D0E0C0E0F701EC0FFD1F6491662361F028
:100AA000D801ED91FC910190F081E02DC8010995EC
:100AB000892B11F02196EECFCE01DF91CF911F91BE
:100AC0000F91FF90EF900895AF92BF92CF92DF9277
:100AD000EF92FF920F931F93CF93DF936C017B01F3
:100AE0008B01040F151FEB015E01AE18BF08C01784
:100AF000D10759F06991D601ED91FC910190F081F7
:100B0000E02DC6010995892B79F7C501DF91CF91B9
:100B10001F910F91FF90EF90DF90CF90BF90AF901B
:100B200008958091E20281110DC082E08093DE027F
:100B300084E08093DF021092E1021092E00281E0F3
:100B40008093E2028EED92E008950F931F93CF936E
:100B5000DF931F92CDB7DEB782E0898342E450E095
:100B600061EE71E080E80E9462040E949105DC0160
:100B700012960D911C910115110589F0D801ED9186
:100B8000FC910280F381E02DBE016F5F7F4FC801B1
:100B9000099597FD04C0F80100851185ECCF898186
:100BA0000F90DF91CF911F910F910895CF93DF9315
:100BB000EC0180911801882331F083E00E949904B0
:100BC0001816190634F081E090E09B838A8380E058
:100BD00090E0DF91CF910895CF93DF931F92CDB72F
:100BE000DEB76983DC01ED91FC910280F381E02D99
:100BF00041E050E0BE016F5F7F4F09950F90DF919C
:100C0000CF91089583E08093E9008091F2008823DA
:100C100019F08AE38093E800089583E00E94880435
:100C200090E00895CF93DF931F92CDB7DEB7FC011C
:100C30008485958597FD08C02FEF3FEF3587248782
:100C40000F90DF91CF910895CE0101960E948E0200
:100C5000019719F4898190E0F3CF8FEF9FEFF0CFE8
:100C60000F931F93CF93DF931F92CDB7DEB78C0105
:100C7000FC018485958597FF0BC0CE0101960E94EB
:100C80008E02019771F4898190E0F801958784873D
:100C9000F801848595850F90DF91CF911F910F9179
:100CA00008958FEF9FEFF1CFFC018485958597FD27
:100CB0000BC09FB7F89482E08093E9008091F20026
:100CC0009FBF90E0019608959FB7F89482E08093CB
:100CD000E9008091F2009FBF90E00895DC01FB01E4
:100CE00012962C911297848195812817190641F448
:100CF00091818081813A31F49D7F81E0913009F0CA
:100D000080E008958132E1F79B3029F482811F96BB
:100D10008C9381E008959A3099F7828150968C9354
:100D2000F8CFDC01FB0188E4808389E4818384E4DB
:100D300082831D969C911D979F709F5B93831D9648
:100D40008D919C9124E0969587952A95E1F78F7077
:100D50008F5B848385E00895EF92FF920F931F933A
:100D6000CF93DF93FB012081213871F5238122325B
:100D700059F5DC0112964C912481358142171306F6
:100D800019F5EC010B851C85F12CE12C01151105E1
:100D900089F0F801448155816281738180E80E9465
:100DA00062048F3F980749F0E80EF91ED8010D91B3
:100DB0001C91ECCF81E08F87C701DF91CF911F910C
:100DC0000F91FF90EF90089590E080E0F6CFCF93E1
:100DD000DF93CDB7DEB769970FB6F894DEBF0FBECD
:100DE000CDBFFC01DB018C918F5F8C939E012D5F49
:100DF0003F4F8DE0D9011D928A95E9F729E02983BB
:100E000084E08A8391E09D8383E08E832A8721E2B8
:100E10002B879C879D879F8722E2288B27E02B8B3F
:100E200025E02C8B8E8B20E430E0388F2F8B998F30
:100E300082818B8395858685998B8A8B8381806857
:100E40008D8B49E150E0BE016F5F7F4F80E00E94D3
:100E5000620469960FB6F894DEBF0FBECDBFDF9176
:100E6000CF910895089520916D02260F3327331FE7
:100E700021323105ECF42091B602FC0190E080E0D3
:100E8000243069F082E00895A0916D022191AC01B7
:100E9000435B5D4FA40FB52FB11D2C9301968617B0
:100EA00098F380916D02680F60936D0280E0089561
:100EB00081E008951092B60281E08093B50210920D
:100EC000900261E082E00E942D0361E083E00E94D5
:100ED0002D03E9EBF0E080818E7F808380818D7F20
:100EE000808388E48093B80085E48093BC000895F3
:100EF000CF93DF9391E090934C028823B9F0C09197
:100F0000B800D091BA008091BC008A7B8093BC006D
:100F100060E082E00E942D0360E083E00E942D03E8
:100F20000E945A07D093BA00C093B800DF91CF91C6
:100F30000895CF92DF92EF92FF920F931F93CF937A
:100F4000DF93FC01A481B581868191E09093BC027E
:100F50008093DD021092F7021092F602ED91FC915F
:100F600011970190F081E02DCD010995D091F60205
:100F7000D13208F094C0C091DD020E948C036B0155
:100F80007C018091B602811165C082E08093B60237
:100F900081E08093B5028FEF8093B4021092B30288
:100FA000D093B202ADEBB2E0E2E9F2E080E0D81318
:100FB00085C01092910280919102CC0FC82BC093F2
:100FC000910280919002813009F07CC010929002D1
:100FD0000E948C036B017C01809191028093BB0085
:100FE0008091B8029091B902A091BA02B091BB026F
:100FF000892B8A2B8B2B99F00E948C030091B802CD
:101000001091B9022091BA023091BB026C197D098E
:101010008E099F090617170728073907E0F1809105
:10102000BC0083FDD9CF85EC8093BC000E948C036B
:101030006B017C018091B602823009F445C0809139
:10104000B4028F3F61F18091B402803241F180910E
:10105000B40225C08091B8029091B902A091BA0261
:10106000B091BB02892B8A2B8B2B09F48ACF0E946B
:101070008C030091B8021091B9022091BA0230910C
:10108000BB026C197D098E099F09061717072807EF
:10109000390708F076CF8091B7020E947807109246
:1010A000F7021092F6021092BC02DF91CF911F91CD
:1010B0000F91FF90EF90DF90CF9008959D919193C5
:1010C0008F5F75CF85EEB0CF8091B8029091B90255
:1010D000A091BA02B091BB02892B8A2B8B2B09F409
:1010E000A9CF0E948C030091B8021091B9022091FF
:1010F000BA023091BB026C197D098E099F0906174F
:1011000017072807390708F095CFC5CF1092560466
:1011100060E089E494E00C949907E091F9028091F1
:10112000F802E81730F4F0E0E45DFD4F808190E0D4
:1011300008958FEF9FEF08959091F9028091F80242
:101140002FEF3FEF981748F4E92FF0E0E45DFD4FF3
:10115000208130E09F5F9093F902C901089580914A
:10116000F8029091F902891B990B0895CF92DF92B2
:10117000EF92FF920F931F93CF93DF937C01CB01EC
:101180008A012091BC02222389F0EB016B01C40E7D
:10119000D51ECC15DD0569F06991D701ED91FC9163
:1011A0000190F081E02DC7010995F3CF642F0E94D3
:1011B0003307C801DF91CF911F910F91FF90EF90FE
:1011C000DF90CF900895CF93DF931F92CDB7DEB716
:1011D00069832091BC022223F9F02091F60220328B
:1011E00058F021E030E0FC013383228390E080E07E
:1011F0000F90DF91CF9108958091F702E82FF0E0F2
:10120000E354FD4F998190838F5F8093F702809321
:10121000F60281E090E0ECCF61E0CE0101960E9401
:101220003307F7CF90E080E00895CF93DF93D82F76
:10123000C92F0E94E303811116C0A0917B039091F6
:101240007A03ED2FFC2F24912223A9F081E08A0F4D
:10125000B0E0A650BD4F2C9387FF02C091E080E024
:101260003196A82FF0CF6D2F7C2F88EB93E0DF9184
:10127000CF910C944005A0937B0390937A03DF9168
:10128000CF9108950E9415098AEC90E00C941509FD
:101290000E94F203609388037093890380938A030A
:1012A00090938B038091480481FF11C082FD0FC091
:1012B00084608093480481E08093560468E089E468
:1012C00094E00E9499078CEC90E00C9442090895F8
:1012D000FB0101900020E9F73197AF01461B570B46
:1012E000DC01ED91FC910280F381E02D09940097DF
:1012F00029F0BC0189E494E00C94680990E080E056
:1013000008951F93CF93DF93EC01162F107F8B85E9
:1013100084606C85660F682B8D8528E0829FC001F4
:101320001124682B612BCE010E9499076C85660FF2
:101330008D8528E0829FC0011124682B8B85682B46
:10134000612BCE01DF91CF911F910C9499070F93E0
:101350001F93CF93DF93EC01062F0E9481098FE842
:1013600090E00197F1F720E1029F800111246B8545
:10137000602B862F84606C85660F682B8D8528E036
:10138000829FC0011124682BCE010E9499076B85B2
:10139000062B6C85660F602B8D8528E0829FC0012F
:1013A0001124682BCE01DF91CF911F910F910C94E6
:1013B00099071092540410925504E09151046E174D
:1013C00008F4E62FF0E0E15CFE4F609150048617D0
:1013D00008F4682F8081680F606889E494E00E94B7
:1013E000A7098FE890E00197F1F70895E9E4F4E0A8
:1013F0001386148661E0CF010E94A7098BEF98E164
:101400000197F1F708950E94F60960E080E00E94DC
:10141000D90965ED71E089E494E00E94400561E03E
:1014200080E00E94D90980918F036DEA71E08111FB
:1014300002C061EC71E089E494E00E94400562E042
:1014400080E00E94D90980918F0361E771E08130CB
:1014500011F465E871E089E494E00E94400563E0DE
:1014600080E00E94D90969E971E089E494E00C9474
:101470004005EF92FF920F931F93CF93DF93CDB769
:10148000DEB760970FB6F894DEBF0FBECDBF809178
:10149000480483FD54C00E94F6098AE0E3E2F1E0CB
:1014A000DE01119601900D928A95E1F710918D035E
:1014B000112321F0143008F013E01150E12EF12C2B
:1014C000EE0CFF1C81E090E08C0F9D1FE80EF91ED2
:1014D00000E00F5F602F80E00E94D90980918D03AA
:1014E000811709F44CC08AE192E00E947709F70164
:1014F000819191917F010E947709111143C086E08B
:10150000EDE2F1E0DE011B9601900D928A95E1F784
:10151000E0918C03F0E0EE0FFF1F81E090E08C0F74
:101520009D1FE80FF91F828593850E9477091F5F31
:10153000033079F68091480488608093480460E025
:1015400080E00E94D9098BE891E00E9477098091A0
:10155000480480FF2DC060E08FE00E94D90989E82F
:1015600091E060960FB6F894DEBF0FBECDBFDF915D
:10157000CF911F910F91FF90EF900C9477098FE717
:1015800091E0B3CF133099F68091480481FD0DC0EE
:1015900085E891E00E9477098091480481FFC7CFD8
:1015A00082FDC5CF89E891E0C0CF82E891E0F2CF1B
:1015B00060960FB6F894DEBF0FBECDBFDF91CF911E
:1015C0001F910F91FF90EF90089521E0FC01238778
:1015D00014860E94A7098FE990E00197F1F781E056
:1015E00090E008958F929F92AF92BF92CF92DF9238
:1015F000EF92FF920F931F93CF93DF93CDB7DEB798
:10160000A1970FB6F894DEBF0FBECDBF6C01990F46
:10161000EE08FF08F7FE43C06DE289E494E00E9403
:10162000E50A8C0122273327A9012C193D094E090F
:101630005F0919A2CE0181967C019AE0892E912C36
:10164000A12CB12CCA01B901A50194010E94D91D98
:10165000605DF70162937F01211531054105510558
:1016600089F790E080E0309729F0BF0189E494E0A9
:101670000E946809800F911FA1960FB6F894DEBFF3
:101680000FBECDBFDF91CF911F910F91FF90EF90D3
:10169000DF90CF90BF90AF909F908F900895A7015B
:1016A000960119A28E010F5D1F4F8AE0C82ED12C22
:1016B000E12CF12CCA01B901A70196010E94D91DA4
:1016C000605DF80162938F012115310541055105D7
:1016D00089F790E080E0309779F2BF0189E494E0E7
:1016E0000E946809C9CFCF93DF9300D000D000D00B
:1016F000CDB7DEB70E94F6096FE571E089E494E0AA
:101700000E94400561E080E00E94D9098CE991E0E7
:101710000E94770986E0EDE2F1E0DE01119601908A
:101720000D928A95E1F780918C0390E0880F991FC4
:1017300021E030E02C0F3D1F820F931FFC018081C0
:1017400091810E94770962E080E00E94D9098AEEC7
:1017500091E00E94770980918603909187030E940F
:10176000F20A80EF91E00E947709809184039091C2
:1017700085030E94F20A87E192E00E94770963E004
:1017800080E00E94D90982EF91E026960FB6F89486
:10179000DEBF0FBECDBFDF91CF910C947709809152
:1017A000480484FD0DC00E94F60961E571E089E4FA
:1017B00094E00E9440058091480480618093480431
:1017C00061E080E00E94D90983E092E00E947709FD
:1017D00080918E03811104C08EE092E00E9477090F
:1017E00080910801909109010E94F20A80918E0374
:1017F000811104C080E192E00E94770987E192E0C4
:101800000E94770962E080E00E94D90982E192E0BB
:101810000E94770980918E03813021F48EE092E05E
:101820000E94770980910601909107010E94F20AB7
:1018300080918E03813021F480E192E00E9477094B
:1018400087E192E00E94770963E080E00E94D90975
:101850008DE192E00E94770980918E03823021F41D
:101860008EE092E00E947709809104019091050139
:101870000E94F20A80918E03823021F480E192E08E
:101880000E94770987E192E00C947709CF93DF9368
:10189000EC0188819981009711F00E9483201982C0
:1018A00018821D821C821B821A82DF91CF910895BB
:1018B000FC0180819181009711F00C9483200895A0
:1018C0000F931F93CF93DF93EC0188819981009749
:1018D00059F02A813B812617370730F081E0DF91EC
:1018E000CF911F910F9108958B016F5F7F4F0E94E1
:1018F0000C21009759F0998388831B830A832C81DC
:101900003D81232B59F7FC011082E8CF80E0E7CF1F
:101910000F931F93CF93DF93EC010C811D810F5F19
:101920001F4FB8010E94600C882391F028813981F3
:101930008C819D8160EF71E0820F931F0E94D22104
:101940001D830C83CE01DF91CF911F910F910895DC
:10195000CE010E94460CF6CFEF92FF920F931F9399
:10196000CF93DF93EC01FB01E080F180E114F104FF
:1019700011F10481158101151105A9F08C819D815A
:10198000080F191FB801CE010E94600C882399F03E
:10199000288139818C819D81B701820F931F0E941C
:1019A000D2211D830C83CE01DF91CF911F910F9126
:1019B000FF90EF900895CE010E94460CF4CFEF9275
:1019C000FF920F931F93CF93DF93EC017B018A016A
:1019D000BA010E94600C81110BC0CE010E94460C1E
:1019E000CE01DF91CF911F910F91FF90EF9008955D
:1019F0001D830C83B701888199810E94D221F0CF89
:101A0000EF92FF920F931F93CF93DF93CDB7DEB783
:101A100062970FB6F894DEBF0FBECDBF8C01CB012D
:101A2000F8011182108213821282158214824AE018
:101A30009E012F5F3F4F7901B9010E94061CF701FB
:101A400001900020E9F73197AF014E195F09B70106
:101A5000C8010E94DF0C62960FB6F894DEBF0FBE7D
:101A6000CDBFDF91CF911F910F91FF90EF9008951F
:101A700085ED8093BC008091B8029091B902A0914D
:101A8000BA02B091BB020796A11DB11D23E0B69525
:101A9000A795979587952A95D1F72091BC0024FDAD
:101AA00003C01092B60208954091B8025091B90255
:101AB0006091BA027091BB02452B462B472B69F30C
:101AC0000097A105B10541F02AE22A95F1F700C07F
:101AD0000197A109B109E1CF8091B7020C94780771
:101AE000FF920F931F93CF93DF938C01EB01F8804C
:101AF0000E945A1DF81621F06F2DC8010E94621D28
:101B0000CE01DF91CF911F910F91FF900895FF9229
:101B10000F931F93CF93DF93EC018B01FB01F080B8
:101B20000E945A1DF81621F06F2DCE010E94621DF1
:101B3000F801F1802196CE010E945A1DF81621F07D
:101B40006F2DCE010E94621DC801DF91CF911F91C0
:101B50000F91FF900895CF93DF931F92CDB7DEB71B
:101B600068E071E090E080E00E94870D66E071E03F
:101B700084E090E00E94870D64E071E088E090E0EE
:101B80000E94870D6CE873E08CE090E00E94700D7D
:101B900080914804869581708983BE016F5F7F4F75
:101BA00080E190E00E94700D88E391E00E9442097C
:101BB0000F90DF91CF910895CF93DF93EB010E94B7
:101BC0005A1D8883CE01DF91CF9108950F931F9303
:101BD000CF93DF938C01EB010E945A1D8883C801CB
:101BE00001960E945A1D8983CE01DF91CF911F91EA
:101BF0000F9108958F929F92AF92BF92CF92DF92F2
:101C0000EF92FF920F931F93CF93DF9300D000D0FA
:101C100000D0CDB7DEB76C010E94E303D601149665
:101C20004D915C9115978823C9F06D917C9188EB5B
:101C300093E00E94D60526960FB6F894DEBF0FBE3D
:101C4000CDBFDF91CF911F910F91FF90EF90DF906B
:101C5000CF90BF90AF909F908F900895B0907B03EE
:101C6000EB2CF12C00E810E00E191F09401751076A
:101C700008F48A011A8219821C821B821E821D822C
:101C800050E040E06AE272E0CE0101960E94DF0C73
:101C9000F60184819581009729F148018017910709
:101CA00008F44C01D601ED91FC911197E80DF91D56
:101CB000A08010826D917C916115710561F1FB012D
:101CC00001900020E9F73197AF01461B570BCE0179
:101CD00001960E94DF0CF60180819181880E991E89
:101CE000D401AC920F3F100761F0F701E650FD4FB1
:101CF0007F01309731F0CD80DE80C114D10481F4B2
:101D00001082CE0101960E94580C0B0D07FD17C0E2
:101D100000937B0390CFCE0101960E94460CDBCF4F
:101D20000C151D0508F4680169817A81A601C701B7
:101D30000E94D921EC0CFD1CD7011C92E2CF10921D
:101D40007B0381E080937A0376CFCF93DF9300D03B
:101D500000D000D01F92CDB7DEB768E071E090E010
:101D600080E00E94E60D66E071E084E090E00E9471
:101D7000E60D64E071E088E090E00E94E60D6CE81A
:101D800073E08CE090E00E94DC0DBE01695F7F4F44
:101D900080E190E00E94DC0D21E08F81811101C083
:101DA00020E08091480420FB81F9809348048091D1
:101DB0000801909109018333910514F082E390E0CA
:101DC0001816190614F081E090E0909309018093B1
:101DD00008018091060190910701813D37E093074A
:101DE00014F080ED97E08233910514F482E390E0E3
:101DF0009093070180930601809104019091050161
:101E0000893833E1930714F088E893E18233910530
:101E100014F482E390E09093050180930401809193
:101E20008C03833008F082E080938C038091480417
:101E300020FB82F9809348040E94F2036093880398
:101E40007093890380938A0390938B038091480455
:101E500082FF6CC081E08093560468E089E494E0DE
:101E60000E94990782E291E00E94150960910801A1
:101E700070910901CE0101960E94000DCE010196DC
:101E80000E94FA0DCE0101960E94580C88E191E063
:101E90000E9415096091060170910701CE0101961B
:101EA0000E94000DCE0101960E94FA0DCE0101960E
:101EB0000E94580C86E091E00E941509609104018F
:101EC00070910501CE0101960E94000DCE01019690
:101ED0000E94FA0DCE0101960E94580C8FEF90E0FF
:101EE0000E94150988EF90E09A83898381EF90E042
:101EF0009C838B8388EE90E09E838D83E0918C039E
:101F0000F0E0EE0FFF1F81E090E08C0F9D1FE80FC7
:101F1000F91F808191810E94420927960FB6F8949B
:101F2000DEBF0FBECDBFDF91CF9108950E9486081E
:101F300099CF1F920F920FB60F9211242F933F93B8
:101F40008F939F93AF93BF938091AE039091AF0314
:101F5000A091B003B091B1033091AD0323E0230F02
:101F60002D3758F50196A11DB11D2093AD03809327
:101F7000AE039093AF03A093B003B093B1038091ED
:101F8000B2039091B303A091B403B091B50301964D
:101F9000A11DB11D8093B2039093B303A093B4032A
:101FA000B093B503BF91AF919F918F913F912F91C6
:101FB0000F900FBE0F901F90189526E8230F0296E2
:101FC000A11DB11DD2CF1F920F920FB60F921124F7
:101FD0008F939F938091E1009091E100937F909384
:101FE000E10083FF0FC01092E90091E09093EB00B5
:101FF0001092EC0092E39093ED001092B70398E0FA
:102000009093F00082FF22C093E09093E9009091BA
:10201000F200992319F09AE39093E8009091EF026F
:10202000992341F09091EF0291509093EF0291111A
:1020300001C05D9A9091B603992341F09091B60347
:1020400091509093B603911101C0289A84FF18C053
:102050008091E2008E7E81608093E2008091E100B9
:102060008F7E8093E1008091F0028E7E806180936C
:10207000F0029F918F910F900FBE0F901F901895B7
:1020800080FFF7CF8091E2008E7E80618093E20036
:102090008091E1008E7E8093E1008091F0028E7E3F
:1020A0008160E5CF1F920F920FB60F921124CF924D
:1020B000DF92EF92FF920F931F932F933F934F93D3
:1020C0005F936F937F938F939F93AF93BF93EF93A0
:1020D000FF93CF93DF93CDB7DEB76C97DEBFCDBF55
:1020E0001092E9008091E80083FF25C068E0CE01EE
:1020F00045960E94330582EF8093E8008D8987FF23
:1021000039C09091E80090FFFCCF982F907609F0AD
:1021100034C19E894F89588D2F89F88C911131C017
:10212000803861F58091F1028093F1001092F10006
:102130008EEF8093E8006C960FB6F894DEBF0FBE6A
:10214000CDBFDF91CF91FF91EF91BF91AF919F9163
:102150008F917F916F915F914F913F912F911F913F
:102160000F91FF90EF90DF90CF900F900FBE0F90E8
:102170001F9018959EEF9093E800C7CF1092F10042
:10218000D5CF913059F48111D3CF4130510581F62B
:102190008091F1028D7F8093F102CACF933049F490
:1021A0008111C6CF4130510519F68091F10282604C
:1021B000F2CF953041F48091E80080FFFCCF206899
:1021C0002093E300B5CF963009F0A9C00B8D1C8D8C
:1021D00022E01092E9001092ED021092EC02F2124D
:1021E0002EC01092EB021092EA020E94A5051F82F7
:1021F00099E09983FA8291E09E8390EA98879AEF1A
:1022000099872091EC023091ED02275F3F4F3C838C
:102210002B838D831092E9001092ED021092EC0254
:102220001093EB020093EA0249E050E0BE016F5FB9
:102230007F4F80E00E9462040E94A50579CF109331
:10224000EB020093EA020E949105DC0112960D91C7
:102250001C910115110509F451C1D801ED91FC91B2
:102260000480F581E02DBE016B5E7F4FC8010995AA
:10227000009709F03EC1F80100851185EACFF3E02F
:10228000FF120EC08F89882309F440C0823061F4A8
:1022900040E860E185E492E00E942F04811148CF7C
:1022A00081E28093EB0047CF813029F440E86BE076
:1022B00089E392E0F1CF833099F70E949105DC0128
:1022C0001296ED90FC908E010F5F1F4F6801E11494
:1022D000F10479F0D701ED91FC910680F781E02DB2
:1022E000B801C7010995080F111DF701E084F184B9
:1022F000EECFD8011C92F60101900020E9F731974A
:10230000BF016C197D0940E0C601C6CF63E272E0EF
:10231000FB01449150E080E80E94620409CF9730AD
:1023200009F4BECF983021F481E08093F10000CF12
:10233000993009F0FDCE837009F0B2CFEBE0F1E007
:1023400081E031E096E32191222371F08093E9004E
:102350003093EB00DF0111972C912093EC009093C8
:10236000ED008F5F873079F78EE78093EA00109257
:10237000EA008F898093B703DBCE8B8D9C8D109202
:10238000E9001092ED021092EC029093EB02809320
:10239000EA02898D811192C08E899D89913A49F412
:1023A000813209F07DCF47E050E061E171E080E0EB
:1023B000B3CF913209F074CF833269F48F89988D4D
:1023C000B0E0A0E08093000190930101A09302018E
:1023D000B0930301ADCE803269F48091E80082FFB2
:1023E000FCCF67E081E191E00E9433058BEF8093A1
:1023F000E8009ECE823209F09BCE8F89809318012F
:10240000EEEFFFE7859194918B3F9C4D51F1E0E019
:10241000F8E08091110190911201A0911301B09107
:102420001401803B9440A105B105F1F4809118019D
:1024300080FD1AC0EE3F8AE0F80789F587E797E745
:1024400091838083809160008093EE0288E19BE01D
:102450000FB6F894A895809360000FBE909360002B
:1024600067CEEEEFFAE0D5CF80819181873797472D
:1024700009F05ECEA895809160008861809360002D
:102480008091EE0280936000EE3F2AE0F20789F02F
:102490008091FE0A9091FF0A9183808349CE8081CA
:1024A00091818737980751F29093FF0A8093FE0A33
:1024B000C5CF1092FF0A1092FE0A3ACE0E949105F3
:1024C000DC0112960D911C910115110509F4E8CE5D
:1024D000D801ED91FC910190F081E02DBE016B5E81
:1024E0007F4FC8010995811123CEF8010085118520
:1024F000EBCF181619060CF41BCED2CEF1E0FF126A
:10250000BECE67E272E004CF1F920F920FB60F9219
:1025100011242F933F934F935F936F937F938F93E8
:102520009F93AF93BF93EF93FF938091B900887F00
:10253000803609F44AC0F0F5883209F4A7C018F5CE
:10254000803109F49BC0B8F4882309F4F9C08830BD
:1025500009F494C0FF91EF91BF91AF919F918F913A
:102560007F916F915F914F913F912F910F900FBE8F
:102570000F901F901895883109F488C0803251F768
:102580008093B40214C0803409F49DC040F48033B9
:10259000B9F38833F9F68093B40285ECB0C0803586
:1025A00009F485C0883509F496C0883499F60E94EC
:1025B000380DD0CF883909F48CC038F5883729F028
:1025C00050F4883611F0803729F683E08093B60204
:1025D00010928F0257C0883809F47BC0803919F0F7
:1025E000803809F0B7CF80918F02803208F071C037
:1025F000E0918F0281E08E0F80938F028091BB006B
:10260000F0E0E159FD4F80833DC0803B39F0E0F4BC
:10261000803A09F479C0883A09F09CCF84E080932D
:10262000B60210926E0210926D02E091F402F091E7
:10263000F502099580916D0281110FC081E08093B0
:102640006D0210924D0209C0803C09F4A6CF883C6F
:1026500009F4A3CF883B09F07DCFE0916E0281E0C1
:102660008E0F80936E02F0E0E35BFD4F80818093DC
:10267000BB0090916E0280916D0229C08091910201
:102680008093BB0085EC8093BC0064CF9091B30233
:102690008091B202981758F5E091B30281E08E0F55
:1026A0008093B302F0E0EE56FD4F8081E9CFE091D8
:1026B000B30281E08E0F8093B3028091BB00F0E003
:1026C000EE56FD4F80839091B3028091B20298172D
:1026D000C8F285E8D8CFE091B30281E08E0F8093F5
:1026E000B3028091BB00F0E0EE56FD4F80838091F5
:1026F000B50281115CCF81E08093900284EA8093DF
:10270000BC001092B60226CF85EC8093BC001092DC
:10271000B60280918F02803230F4E0918F02F0E0B7
:10272000E159FD4F108260918F0270E0E091F2025A
:10273000F091F3028FE692E0099510928F020ACF92
:102740001092B40234CFCF931092BB031092BA030D
:1027500088EE93E0A0E0B0E08093BC039093BD03CB
:10276000A093BE03B093BF0387E491E09093B903B5
:102770008093B8038FEF9FEF9093C5038093C403BA
:1027800010922F0480912704811113C0109222040B
:102790001092210484E094E0909324048093230415
:1027A00086E390E0909326048093250481E0809353
:1027B00027048091190481112AC0C1E0C0930C0440
:1027C000C0930D0482E194E090930F0480930E0473
:1027D000109211041092100489E591E0909309047D
:1027E000809308041092140410921304109216049B
:1027F00010921504C0931704C093180481EC8093C1
:1028000012040E9491050E944802C0931904E091AD
:102810001304F0911404309709F059C081E294E058
:1028200090931404809313048091150490911604DE
:102830002091250430912604820F931F9093160453
:1028400080931504109233041092320488EE93E0C2
:10285000A0E0B0E08093340490933504A093360454
:10286000B093370485E691E090933104809330046F
:1028700010924C0410924B0487E791E090934A0425
:102880008093490480E394E090934E0480934D0438
:1028900087E280934F048FE08093500483E080931D
:1028A0005104109252041092530410925404109246
:1028B00055041092560486E0E3E3F1E0ACE3B4E0A3
:1028C00001900D928A95E1F7CF910895FC018081E6
:1028D00091810097D9F781E294E091838083A4CF1E
:1028E000CF93DF93CDB7DEB76B970FB6F894DEBF0B
:1028F0000FBECDBF789484B5826084BD84B58160FD
:1029000084BD85B5826085BD85B5816085BD8091BA
:102910006E00816080936E00109281008091810032
:10292000826080938100809181008160809381002A
:10293000809180008160809380008091910082600E
:1029400080939100809191008160809391008091AB
:1029500090008160809390008091C100846080939A
:10296000C1008091C10082608093C1008091C1004C
:1029700081608093C1008091C30081608093C30017
:102980008091C00082608093C0008091C20081600D
:102990008093C20080917A00846080937A00809155
:1029A0007A00826080937A0080917A0081608093BF
:1029B0007A0080917A00806880937A001092B70341
:1029C0001092F1021092F0028091D7008160809302
:1029D000D70080EA8093D80089B5806189BD89B528
:1029E000826089BD09B400FEFDCF61E070E080E047
:1029F00090E00E94B1038091D8008F7C8061809329
:102A0000D8008091E000807F8093E0008091E10019
:102A10008E7E8093E1008DE08093E200559A209AAB
:102A200061E088E00E945B03AFE3EA2EA1E0FA2EAA
:102A300009E311E062E0D8018D918D010E945B03F2
:102A4000E016F106B9F761E08CE00E945B0361E0FB
:102A500086E00E945B0360E08CE00E942D0360E052
:102A600086E00E942D038FEF9FEF9093C503809324
:102A7000C4038EEB92E00E9442091092F902109278
:102A8000F8021092F7021092F6020E945A078FEF96
:102A900093E09093F5028093F40280E094E09093A9
:102AA000F3028093F20260E089E494E00E949907C7
:102AB00062E370E080E090E00E94B1031092540461
:102AC0001092550460E389E494E00E9481098BE947
:102AD00091E40197F1F760E389E494E00E948109B1
:102AE00083E592E00197F1F760E389E494E00E94C6
:102AF00081090FE810E0C8010197F1F760E289E46D
:102B000094E00E948109C8010197F1F768E289E425
:102B100094E00E94A709C8010197F1F710925404AC
:102B20001092550460915204862F84608093520461
:102B30006C6089E494E00E94A709C8010197F1F74D
:102B40000E94F609109254041092550460915304A7
:102B5000862F826080935304666089E494E00E942B
:102B6000A709C8010197F1F70E94A50E0E94F60976
:102B700061E080E00E94D9096EEA72E089E494E0A5
:102B80000E94400562E080E00E94D9096BE972E092
:102B900089E494E00E94400560ED77E080E090E0F9
:102BA0000E94B1030E94390A84E892E00E9442091F
:102BB00086E592E00E9442090E94E303882309F41B
:102BC0004FC18091480485FD4BC1806280934804C9
:102BD00080917B03811105C080917A03882309F4D9
:102BE00046C067EE72E088EB93E00E94400568E221
:102BF00072E088EB93E00E94680980917A03882351
:102C000099F000917B0310E006501D4FC8018A5FC8
:102C100092408038910544F4F80161918F0188EB6E
:102C200093E00E94EC05F2CF0AEF12E020917B03C3
:102C3000C8018A5F92402817190649F044F0D8016C
:102C40006D918D0188EB93E00E94EC05EFCF6BED69
:102C500072E088EB93E00E94400568E272E088EB46
:102C600093E00E94680910927B0310927A030E94FD
:102C7000F2036C8B7D8B8E8B9F8B8091480481FF40
:102C8000FBC082FFF9C00E94F203009188031091FB
:102C9000890320918A0330918B03601B710B820B97
:102CA000930B603375478105910508F4E5C0809169
:102CB00048048B7F809348040E94860886EF92E048
:102CC0000E9442098091480480FF51C30E94F20390
:102CD000688F798F8A8F9B8F80917C0390917D0381
:102CE000A0917E03B0917F03488D598D6A8D7B8DB5
:102CF000481B590B6A0B7B0B8091040190910501D5
:102D0000092E000CAA0BBB0B481759076A077B0753
:102D100050F080918C03813009F43EC208F4B8C0B1
:102D2000823009F498C28091A9039091AA03A091DE
:102D3000AB03B091AC032C883D884E885F88281A7D
:102D4000390A4A0A5B0AD201C10184369105A105FC
:102D5000B105A8F02C883D884E885F882092A90391
:102D60003092AA034092AB035092AC038091A80327
:102D7000823029F48091480480FD0E94730B2CE37B
:102D8000E22E24E0F22E30E9C32E33E0D32E29E3E5
:102D900031E0398F288F10E042E4642E43E0742E36
:102DA0005BE3852E53E0952E62E3A62E63E0B62EFC
:102DB000A88DB98D8D91B98FA88F0E940403F7015A
:102DC00020812817190651F02C883D884E885F888D
:102DD000D6012D923D924D925C921397F60141914E
:102DE0005191619171916F0101E0009709F400E048
:102DF0002C883D884E885F88241A350A460A570A6F
:102E0000B201A1014333510561057105D0F0D7012D
:102E100016962C9116972817190699F016960C936A
:102E2000892B79F40E9448098091A803813009F424
:102E300058C308F4A1C2823009F402C4833009F4F3
:102E40000FC4F70101937F011F5F163009F0B0CF67
:102E500080E090E0892B09F4AFCE0E940000ACCE58
:102E60000E94E303811103CF8091480485FFFFCEC8
:102E70008F7D80934804FBCE8091480481FD22CF52
:102E800082FF20CF8B7F809348040E9486081ACF50
:102E90000E94AE1B24E732E040E050E00E94701D2B
:102EA0000E943D1C20E030E048EC52E40E947C1E71
:102EB0002B013C01C0900801D090090189E18C9D53
:102EC00040018D9D900C1124092C000CAA08BB0810
:102ED0000D2C000CEE08FF08C814D904EA04FB040A
:102EE0008CF48C189D08AE08BF0841F00E94AE1B00
:102EF000A50194010E94701D4B015C01C80CD91CF6
:102F0000EA1CFB1CC301B2010E94771E4B015C014D
:102F1000B601DD0C880B990B0E943D1C6B017C01F6
:102F2000AC019B01C501B4010E949C1C0E94EE1ED5
:102F30004B011B01C301B2010E94681F9B01AC0140
:102F4000C701B6010E949C1C0E94EE1E6B018B0102
:102F500080918603909187032091060130910701AB
:102F600037FF02C02F5F3F4F35952795880E991E7A
:102F700097FE03C0919481949108281539052CF48B
:102F80006DEF7FEF0E94B91F1B0180918403909128
:102F90008503C80ED91ED7FE03C0D194C194D108B1
:102FA0002C153D052CF46DEF7FEF0E94B91F8B01AE
:102FB0002114310421F40115110509F4B4CE8091D6
:102FC0002F0489832A820B831C828091190481112A
:102FD0002BC0FF24F394F0920C04F0920D0482E1D4
:102FE00094E090930F0480930E04109211041092B9
:102FF000100489E591E090930904809308041092ED
:103000001404109213041092160410921504F092F6
:103010001704F092180481EC809312040E94910529
:103020000E944802F092190481E08B8B41E050E04D
:10303000BE016D5E7F4F80910B040E94990497FD45
:103040000AC080910B0444E050E0BE016F5F7F4FE7
:1030500080640E9499048091860390918703820D79
:10306000931D9093870380938603809184039091AE
:103070008503800F911F909385038093840388E0DC
:103080000E94040361E0892B09F060E088E00E945F
:103090002D03288D398D4A8D5B8D20937C033093D1
:1030A0007D0340937E0350937F0386E293E00E946A
:1030B0001509B801CE010D960E94000DB101CE0197
:1030C00001960E94000D18861F821A8619861C869A
:1030D0001B8669817A816115710531F04D815E81B0
:1030E000CE0107960E94DF0CCE0107960E94880C45
:1030F000BE01635F7F4F0E94AC0C0E94FA0DCE01AF
:1031000007960E94580CCE0101960E94580CCE01E1
:103110000D960E94580C87E193E00E94150960917A
:10312000840370918503CE010D960E94000D60917D
:10313000860370918703CE0101960E94000D1886C8
:103140001F821A8619861C861B8669817A81611501
:10315000710531F04D815E81CE0107960E94DF0C32
:10316000CE0107960E94880CBE01635F7F4F0E94CC
:10317000AC0C0E94FA0D85E193E00E941509CE0186
:1031800007960E94580CCE0101960E94580CCE0161
:103190000D960E94580CC7CD0E94AE1B2B013C011E
:1031A00000910801109109010E94AE1B4B015C01C6
:1031B000E0900801F09009010E94AE1B2FE030E082
:1031C00040E050E00E94701D672B682B692B39F19D
:1031D000C301B2012BE030E040E050E00E94701DDE
:1031E0006550710981099109069F1001079F300CF4
:1031F000169F300C1124C501B4012BE030E040E0F3
:1032000050E00E94701D6550710981099109E69E88
:103210008001E79E100DF69E100D1124C9CE20905E
:1032200086033090870337FE03C0EFEF2E1A3E0A65
:10323000359427943194219431080091840310919E
:10324000850317FF02C00F5F1F4F15950795119556
:1032500001951109ADCE809106019091070163E0BF
:1032600070E00E94B91F072E000C880B990B0E947A
:103270003D1C4B015C01C0908003D0908103E09025
:103280008203F0908303C701B6010E94771E9B0161
:10329000AC01C501B4010E949C1C2B013C01609152
:1032A000860370918703072E000C880B990B0E94F0
:1032B0003D1C9B01AC01C301B2010E940A1E0E9489
:1032C000EE1E1B01C701B6010E94681F9B01AC01E5
:1032D000C501B4010E949C1C4B015C0160918403F8
:1032E00070918503072E000C880B990B0E943D1CE2
:1032F0009B01AC01C501B4010E940A1E0E94EE1E92
:103300008B016091080170910901072E000C880B58
:10331000990B0E943D1C2DEC3CEC4CE45DE30E94BB
:103320009C1C20E030E040E251E40E947C1EA7019A
:1033300096010E940B1E6B017C0123EC35EF48ECDB
:1033400050E40E94631F87FF09C0C0928003D0929F
:103350008103E0928203F09283032ACE10928003CD
:1033600010928103109282031092830321CE60E0B9
:1033700088E00E942D03D7CC123009F4A0C014308D
:1033800009F4A7C011115DCD80918D038230A1F1A8
:1033900088F48823E9F0813009F053CD8093A803A5
:1033A00010928E03809148048F7E809348040E947F
:1033B000CF0B47CD833009F45DC0843009F041CD97
:1033C00083E08093A80310928F030E94030A39CDF3
:1033D00080918C0390E0019663E070E00E94B91F39
:1033E00080938C030E94AB0D80914804877F80936B
:1033F00048040E94390A25CD909148049160909329
:1034000048048093A80310928703109286031092B9
:10341000850310928403109280031092810310920E
:103420008203109283030E94F20360937C037093E3
:103430007D0380937E0390937F0389E493E00E9451
:1034400015097A8269829C828B82BE82AD82E0916C
:103450008C03F0E0EE0FFF1F22242394312C2C0E5E
:103460003D1EE20DF31D808191810E9442090E9460
:10347000730BE7CC8091480481FB992790F921E0F8
:10348000922790FB81F9A9F08460809348042093EF
:10349000560468E089E494E00E9499070E94F203D0
:1034A000609388037093890380938A0390938B03BE
:1034B00099CF8B7F809348040E948608EFCF80913C
:1034C0008D03882321F0815080938D038DCF84E07C
:1034D000FBCF80918D03843011F08F5FF5CF80E0BA
:1034E000F3CF0E944809133009F463C080F411300F
:1034F000D1F01230D9F00E94AB0D1092A803809148
:103500004804877F809348040E94F60972CF1430E4
:1035100009F45AC0153079F780918E03882309F495
:103520008DC081504EC00E94A50EE7CF80918E03C2
:10353000813051F1A8F0823009F039CF8091040137
:103540009091050197FD32C0873543E1940714F04F
:1035500086E593E1C296909305018093040127CFFD
:1035600080910801909109018F3F2FEF92070CF491
:1035700050C08133910514F080E390E0029690935F
:1035800009018093080113CF8091060190910701F2
:1035900097FD51C08F3937E0930714F08EE997E01B
:1035A000C296909307018093060101CF82E390E0D9
:1035B000D2CF80918E0390E0019663E070E00E948C
:1035C000B91F80938E03F3CE80918E03813021F159
:1035D00090F0823009F0EBCE8091040190910501CA
:1035E000843691051CF38B3BA3E19A0714F08AEB18
:1035F00093E1C297B0CF8091080190910901833087
:1036000091053CF08533910514F084E390E0029736
:10361000B6CF81E090E0B3CF809106019091070191
:103620008436910544F0833058E0950714F082E029
:1036300098E0C297B6CF82E390E0B3CF82E0C1CFEB
:10364000113009F0FECB809148041092A8038E7FC0
:10365000877F8093480488E693E00E944209C9CEA0
:103660000E944809113009F448CF68F0123019F06F
:10367000143009F0E6CB81E090918F03911180E046
:1036800080938F03A2CE80918F0361E081110EC0E1
:103690008CE00E942D0368EE73E080E090E00E94D1
:1036A000B10360E08CE00E942D038FCE86E00E9483
:1036B0002D0368EE73E080E090E00E94B10360E0CB
:1036C00086E0F1CF8F929F92AF92BF92CF92DF921E
:1036D000EF92FF92CF93DF93EC01688179818A8129
:1036E0009B81611571058105910521F464E279EDF5
:1036F0008BE597E02DE133EF41E050E00E94701D33
:1037000049015A019B01AC01A7EAB1E40E948F1D57
:103710006B017C01ACEEB4EFA50194010E949D1DEC
:10372000C60ED71EE81EF91EF7FE06C081E0C81AB5
:10373000D108E10880E8F80AC882D982EA82FB82CF
:10374000C701B6019F77DF91CF91FF90EF90DF9097
:10375000CF90BF90AF909F908F9008958F929F923F
:10376000AF92BF92CF92DF92EF92FF9260911901D8
:1037700070911A0180911B0190911C0161157105D6
:103780008105910521F464E279ED8BE597E02DE167
:1037900033EF41E050E00E94701D49015A019B0146
:1037A000AC01A7EAB1E40E948F1D6B017C01ACEE75
:1037B000B4EFA50194010E949D1DC60ED71EE81E00
:1037C000F91EF7FE06C081E0C81AD108E10880E8BA
:1037D000F80AC0921901D0921A01E0921B01F092EE
:1037E0001C01C701B6019F77FF90EF90DF90CF904B
:1037F000BF90AF909F908F90089560931901709340
:103800001A0180931B0190931C010895BB274A3035
:1038100031F4992322F4BDE2909581959F4F0C9449
:10382000121CBB27FB015527AA27880F991FAA1F27
:10383000A41710F0A41B83955051B9F7A05DAA33CB
:1038400008F0A95DA193009779F7B111B193119296
:10385000CB010C942B1CDC01FC01672F71917723A9
:10386000E1F7329704C07C916D9370836291AE173B
:10387000BF07C8F30895E89409C097FB3EF49095FC
:103880008095709561957F4F8F4F9F4F9923A9F039
:10389000F92F96E9BB279395F695879577956795C8
:1038A000B795F111F8CFFAF4BB0F11F460FF1BC00C
:1038B0006F5F7F4F8F4F9F4F16C0882311F096E99F
:1038C00011C0772321F09EE8872F762F05C066234D
:1038D00071F096E8862F70E060E02AF09A95660F06
:1038E000771F881FDAF7880F9695879597F90895BF
:1038F000990F0008550FAA0BE0E8FEEF1616170601
:10390000E807F907C0F012161306E407F50798F068
:10391000621B730B840B950B39F40A2661F0232B81
:10392000242B252B21F408950A2609F4A140A695FD
:103930008FEF811D811D08950E94AF1C0C94201DE6
:103940000E94121D38F00E94191D20F0952311F0DD
:103950000C94091D0C940F1D11240C94541D0E94ED
:10396000311D70F3959FC1F3950F50E0551F629F75
:10397000F001729FBB27F00DB11D639FAA27F00DC8
:10398000B11DAA1F649F6627B00DA11D661F829FEF
:103990002227B00DA11D621F739FB00DA11D621FD4
:1039A000839FA00D611D221F749F3327A00D611DF1
:1039B000231F849F600D211D822F762F6A2F1124D3
:1039C0009F5750409AF0F1F088234AF0EE0FFF1F06
:1039D000BB1F661F771F881F91505040A9F79E3F5D
:1039E000510580F00C94091D0C94541D5F3FE4F3C5
:1039F000983ED4F3869577956795B795F795E795B3
:103A00009F5FC1F7FE2B880F911D9695879597F9BB
:103A1000089597F99F6780E870E060E008959FEF50
:103A200080EC089500240A94161617061806090655
:103A3000089500240A941216130614060506089524
:103A4000092E0394000C11F4882352F0BB0F40F4AC
:103A5000BF2B11F460FF04C06F5F7F4F8F4F9F4FEC
:103A6000089557FD9058440F551F59F05F3F71F06E
:103A70004795880F97FB991F61F09F3F79F08795D5
:103A80000895121613061406551FF2CF4695F1DF5E
:103A900008C0161617061806991FF1CF86957105EE
:103AA000610508940895E894BB2766277727CB0122
:103AB00097F90895F999FECF92BD81BDF89A99279B
:103AC00080B50895262FF999FECF1FBA92BD81BD0A
:103AD00020BD0FB6F894FA9AF99A0FBE0196089590
:103AE000052E97FB1EF400940E94871D57FD07D0FA
:103AF0000E94D91D07FC03D04EF40C94871D5095ED
:103B00004095309521953F4F4F4F5F4F08959095C9
:103B10008095709561957F4F8F4F9F4F08950E94BC
:103B2000FB1DA59F900DB49F900DA49F800D911D2E
:103B300011240895B7FF0C948F1D0E948F1D821BC6
:103B4000930B08952F923F924F925F926F927F92C4
:103B50008F929F92AF92BF92CF92DF92EF92FF929D
:103B60000F931F93CF93DF93CDB7DEB7CA1BDB0B49
:103B70000FB6F894DEBF0FBECDBF09942A883988EE
:103B800048885F846E847D848C849B84AA84B984F5
:103B9000C884DF80EE80FD800C811B81AA81B98101
:103BA000CE0FD11D0FB6F894DEBF0FBECDBFED0115
:103BB0000895A1E21A2EAA1BBB1BFD010DC0AA1F6E
:103BC000BB1FEE1FFF1FA217B307E407F50720F086
:103BD000A21BB30BE40BF50B661F771F881F991F01
:103BE0001A9469F760957095809590959B01AC014A
:103BF000BD01CF010895A29FB001B39FC001A39F53
:103C0000700D811D1124911DB29F700D811D112415
:103C1000911D08955058BB27AA270E94221E0C947C
:103C2000201D0E94121D38F00E94191D20F039F449
:103C30009F3F19F426F40C940F1D0EF4E095E7FB5A
:103C40000C94091DE92F0E94311D58F3BA17620721
:103C500073078407950720F079F4A6F50C94531D9B
:103C60000EF4E0950B2EBA2FA02D0B01B901900197
:103C70000C01CA01A0011124FF27591B99F0593FDB
:103C800050F4503E68F11A16F040A22F232F342F23
:103C90004427585FF3CF469537952795A795F04071
:103CA0005395C9F77EF41F16BA0B620B730B840B86
:103CB000BAF09150A1F0FF0FBB1F661F771F881F3E
:103CC000C2F70EC0BA0F621F731F841F48F4879596
:103CD00077956795B795F7959E3F08F0B0CF939588
:103CE000880F08F09927EE0F9795879508950E9401
:103CF000261FE3950C944F1F0E94901E0C94201DCC
:103D00000E94191D58F00E94121D40F029F45F3FD7
:103D100029F00C94091D51110C94541D0C940F1D85
:103D20000E94311D68F39923B1F3552391F3951B3C
:103D3000550BBB27AA2762177307840738F09F5FCC
:103D40005F4F220F331F441FAA1FA9F335D00E2E39
:103D50003AF0E0E832D091505040E695001CCAF7A6
:103D60002BD0FE2F29D0660F771F881FBB1F261769
:103D700037074807AB07B0E809F0BB0B802DBF0140
:103D8000FF2793585F4F3AF09E3F510578F00C940F
:103D9000091D0C94541D5F3FE4F3983ED4F38695BF
:103DA00077956795B795F7959F5FC9F7880F911D30
:103DB0009695879597F90895E1E0660F771F881F1C
:103DC000BB1F621773078407BA0720F0621B730BCF
:103DD000840BBA0BEE1F88F7E09508950E94F51E3C
:103DE0006894B1110C94541D08950E94391D88F0F7
:103DF0009F5798F0B92F9927B751B0F0E1F0660FAF
:103E0000771F881F991F1AF0BA95C9F714C0B130EF
:103E100091F00E94531DB1E008950C94531D672F3B
:103E2000782F8827B85F39F0B93FCCF3869577951E
:103E30006795B395D9F73EF4909580957095619507
:103E40007F4F8F4F9F4F08950C940F1D0E94391D77
:103E5000D8F3E894E0E0BB279F57F0F02AED3FE06D
:103E600049EC06C0EE0FBB0F661F771F881F28F0B6
:103E7000B23A62077307840728F0B25A620B730BD9
:103E8000840BE3959A9572F7803830F49A95BB0FBE
:103E9000661F771F881FD2F790480C94721FEF930C
:103EA000E0FF07C0A2EA2AED3FE049EC5FEB0E9489
:103EB000221E0E94201D0F90039401FC9058ECEAF2
:103EC000F0E00C947E1F0E94781C08F48FEF089598
:103ED0009F930E94261F0F9007FCEE5F0C944F1FCC
:103EE0009F3F31F0915020F4879577956795B7956E
:103EF000880F911D9695879597F908959F938F93B5
:103F00007F936F93FF93EF939B01AC010E949C1CE6
:103F1000EF91FF910E94921F2F913F914F915F91DE
:103F20000C949C1CDF93CF931F930F93FF92EF92FF
:103F3000DF927B018C01689406C0DA2EEF010E94AB
:103F4000AF1CFE01E894A5912591359145915591BD
:103F5000A6F3EF010E94221EFE019701A801DA9448
:103F600069F7DF90EF90FF900F911F91CF91DF9154
:103F7000089597FB072E16F4009407D077FD09D01B
:103F80000E94D31F07FC05D03EF4909581959F4F6A
:103F90000895709561957F4F0895EE0FFF1F05906E
:103FA000F491E02D0994AA1BBB1B51E107C0AA1F85
:103FB000BB1FA617B70710F0A61BB70B881F991FCA
:103FC0005A95A9F780959095BC01CD0108950F935E
:103FD0001F93CF93DF938230910510F482E090E03D
:103FE000E0915904F0915A0430E020E0B0E0A0E004
:103FF000309799F42115310509F44AC0281B390B73
:1040000024303105D8F58A819B816115710589F1CC
:10401000FB0193838283FE0111C0408151810281A3
:10402000138148175907E0F04817590799F410977A
:1040300061F012960C93129713961C933296CF014F
:10404000DF91CF911F910F91089500935904109320
:104050005A04F4CF2115310551F04217530738F0B7
:10406000A901DB019A01BD01DF01F801C1CFEF0118
:10407000F9CF90935A0480935904CDCFFE01E20FFB
:10408000F31F819391932250310939832883D7CF2D
:104090002091570430915804232B41F420911F01A3
:1040A00030912001309358042093570420911D0132
:1040B00030911E012115310541F42DB73EB74091D5
:1040C000210150912201241B350BE0915704F091FE
:1040D0005804E217F307A0F42E1B3F0B28173907EB
:1040E00078F0AC014E5F5F4F2417350748F04E0F54
:1040F0005F1F5093580440935704819391939FCF2F
:10410000F0E0E0E09CCFCF93DF930097E9F0FC0173
:10411000329713821282A0915904B0915A04ED0192
:1041200030E020E01097A1F420813181820F931FAD
:1041300020915704309158042817390709F061C0BD
:10414000F0935804E0935704DF91CF910895EA016A
:10415000CE17DF07E8F54A815B819E0141155105C5
:10416000B1F7E901FB83EA8349915991C40FD51F47
:10417000EC17FD0761F4808191810296840F951FF1
:10418000E90199838883828193819B838A83F0E00C
:10419000E0E012968D919C9113970097B9F52D91BF
:1041A0003C911197CD010296820F931F20915704E5
:1041B000309158042817390739F6309751F5109285
:1041C0005A0410925904B0935804A0935704BCCFDA
:1041D000D383C28340815181840F951FC817D907AB
:1041E00061F44E5F5F4F88819981480F591F518359
:1041F00040838A819B81938382832115310509F055
:10420000B0CFF0935A04E09359049ECFFD01DC0136
:10421000C0CF13821282D7CFB0E0A0E0E2E1F1E29A
:104220000C94A41D8C01009751F4CB010E94E71F50
:104230008C01C801CDB7DEB7E0E10C94C01DFC01D4
:10424000E60FF71F9C0122503109E217F30708F42B
:104250009DC0D901CD91DC911197C617D70798F071
:10426000C530D10530F3CE0104978617970708F3C0
:10427000C61BD70B2297C193D1936D937C93CF012B
:104280000E948320D6CF5B01AC1ABD0A4C018C0E74
:104290009D1EA0915904B0915A04512C412CF12C2F
:1042A000E12C109731F580915704909158048815AE
:1042B000990509F05CC04616570608F058C0809171
:1042C0001D0190911E01009741F48DB79EB740915A
:1042D000210150912201841B950BE817F90708F082
:1042E00055C0F0935804E0935704F901718360833B
:1042F000A0CF8D919C91119712966C901297139666
:104300007C901397A815B90559F56C0142E0C40ECD
:10431000D11CCA14DB0420F1AC014A195B09DA0193
:104320001296159780F06282738251834083D9017F
:104330006D937C93E114F10471F0D7011396FC9313
:10434000EE93129776CF22968C0F9D1FF9019183E1
:104350008083F301EFCFF0935A04E093590469CFBF
:104360004816590608F42C017D01D3019ACFCB01E0
:104370000E94E71F7C01009749F0AE01B8010E943E
:10438000C921C8010E948320870153CF10E000E0BB
:1043900050CFFB01DC0102C001900D924150504012
:1043A000D8F70895FB01DC0101900D920020E1F7A0
:1043B0000895FB01DC014150504048F001900D92FE
:1043C0000020C9F701C01D9241505040E0F7089508
:0443D000F894FFCF8F
:1043D400FFFFFFFFE803C800050000C18081000063
:1043E4000000E10000000000000100000000005B8C
:1043F4000480009C01A301B101BF01C701D301DA0C
:1044040001E1010101010101011716151413120044
:1044140040145400000000EC05D6050D06020654B5
:104424000612063006000000006E06E706AC069190
:104434000600000000E308B6081209FE03AF089C5A
:10444400088D0800000000E50A6405120932073EE1
:1044540020004F4E004F4646002A004D4F5553450D
:104464002053494D554C41544F5220004D6F6465C3
:104474003A2000436F6E66696775726174696F6E86
:104484000044656D61727265722053696D750052E6
:104494006574726F3A2000546573742052656C61C0
:1044A40069730052616E646F6D004A6967676C6579
:1044B4000043697263756C617200506F733A200037
:1044C4002C0052455455524E203D20417272657461
:1044D400657200566974657373653A2020003E0066
:1044E4003C005A6F6E653A20202020200044656C01
:0C44F40061693A20202020000D0A000021
:00000001FF
