:100000000C9421030C9449030C9449030C94490368
:100010000C9449030C9449030C9449030C94490330
:100020000C9449030C9449030C9432170C94A117B7
:100030000C9449030C9449030C9449030C94490310
:100040000C9449030C9449030C9449030C94490300
:100050000C9449030C9449030C9449030C94E8163E
:100060000C9449030C9449030C9449030C944903E0
:100070000C9449030C9449030C9449030C944903D0
:100080000C9449030C9449030C9449030C944903C0
:100090000C94D3190C9449030C9449030C94490310
:1000A0000C9449030C9449030C9449030A0052C36D
:1000B000A974726FC3A9636C61697261676520720C
:1000C000C3A96163746976C3A9004461696C79004E
:1000D000416C61726D005265706561740053696DA9
:1000E000706C6500204D6F64653A200054696D6541
:1000F000723A200053657474696E67732073617679
:10010000656400454E5445523D4F4B205245543D89
:10011000416E6E005365636F6E6465733A20004DE7
:10012000696E757465733A20005245474C414745E6
:100130002054454D505300454E5445523D4F4B20A1
:100140005245543D416E6E00546F7573206C65735B
:10015000206A6F7572733A0048657572653A2000BF
:100160005245474C414745204441494C590052456E
:10017000474C41474520414C41524D4500454E5466
:1001800045523D4F4B205245543D416E6E00524505
:10019000474C4147452048455552450043484F4943
:1001A0005820534F52544945530052455455524ECE
:1001B000203D205265746F75720052656C616973E1
:1001C0002031206163746976650054696D65722021
:1001D0007465726D696E65002A2A2A2046494E4967
:1001E000202A2A2A0054455354204F555450555420
:1001F00000416C61726D6520617272C3AA74C3A9FB
:100200006500080B00020202000009040000010260
:10021000020000052400100105240101010424024C
:1002200006052406000107058103100040090401AA
:1002300000020A00000007050202400000070583D3
:10024000024000000403090412010002EF02014011
:100250004123368000010102030141726475696E19
:100260006F204C4C430041726475696E6F204C6581
:100270006F6E6172646F0052544320696E697469D5
:10028000616C6973C3A920210032313A33353A30A9
:1002900034004F63742031332032303235005254F1
:1002A0004320706572647565202D206D697365202B
:1002B000C3A0206C276865757265202100455252E5
:1002C0004555522052544300457272657572203A6A
:1002D0002044533332333120696E74726F75766106
:1002E000626C652021005665722E302E31207061BF
:1002F000722043686577627900534D41525420540F
:10030000494D4552003D3D3D20536D61727420546E
:10031000696D65722076302E31203D3D3D003D3DBA
:100320003D2046494E203D3D3D003D3D3D2042554E
:1003300046464552203D3D3D0052C3A974726FC3ED
:10034000A9636C61697261676520C3A97465696E90
:10035000742028333073290052455455524E203DA5
:1003600020417272657465720052656C6169732018
:100370003120616374697665002A2A2A20414C4144
:10038000524D452021202A2A2A002A2A2A20414C7F
:1003900041524D45204445434C454E434845452038
:1003A00021202A2A2A004E6F7576656175206A6FB2
:1003B0007572202D20616C61726D65206461696CBD
:1003C000792072C3A961726DC3A965002020202025
:1003D00000202020200052455455524E203D2041FF
:1003E0007272657465720054656D70732072657306
:1003F00074616E743A0054494D455220524550453F
:10040000415420230054494D45522053494D504CEE
:10041000450054494D45522046494E490020464921
:100420004E49004359434C45200052455455524EC5
:10043000203D204172726574657200414C41524DFD
:1004400045204441494C5900414C41524D452041C1
:1004500043544956450000000000230026002900AF
:100460002C002F0020526570656174002053696D67
:10047000706C650054696D65722064C3A96D61720A
:1004800072C3A93A20000A00416C61726D65207147
:10049000756F74696469656E6E653A200020C3A04B
:1004A0002000416C61726D652070726F6772616DC2
:1004B0006DC3A9653A20004552524555523A204134
:1004C0006C61726D652064616E73206C6520706173
:1004D0007373C3A90052455455524E203D205265B6
:1004E000746F7572005265676C65722061206E6F63
:1004F000757665617500446174652F686575726510
:100500002070617373656500455252455552204114
:100510004C41524D4500525443206D697320C3A095
:10052000206A6F757220210054696D6572206172B6
:1005300072C3AA74C3A9002A2A2A2054494D4552DD
:100540002046494E492021202A2A2A002046494E89
:1005500049202A2A2A002A2A2A204359434C452086
:1005600000416C61726D6520617272C3AA74C3A987
:1005700065206175746F6D6174697175656D656E07
:100580007400416C61726D65206461696C79202D25
:10059000207072C3AA746520706F75722064656DD7
:1005A00061696E005369676E616C20736F72746964
:1005B00065207465726D696EC3A900000000002497
:1005C0000027002A002D0030000000000025002830
:1005D000002B002E0031000404040404030405026F
:1005E00002020204030202020206060606060604CE
:1005F000040202020404040802011040804010209A
:1006000040804080080204018040201002011080D8
:1006100010204040200000000200090F00000304E9
:1006200001000C00000000000000000000000000BD
:10063000000000001F1C1F1E1F1E1F1F1E1F1E006C
:10064000F21A11241FBECFEFDAE0DEBFCDBF24E0E7
:10065000AAE7B2E001C01D92AF38B207E1F712E09D
:10066000A0E0B1E0E6E1F6E502C005900D92AA3700
:10067000B107D9F713E0C1E2D3E004C02197FE012E
:100680000E940229C032D107C9F70E946A1B0C944C
:10069000092B0C94000008950895FC0180919403A7
:1006A000882311F13FB7F89482E08093E90020910C
:1006B000F200822F90E01816190614F481E090E001
:1006C000882339F0289844E6409393034091F10041
:1006D0004083222339F02091F200211103C02BE640
:1006E0002093E8003FBF08958FEF9FEF08952FB745
:1006F000F89483E08093E9009091E800892F80725C
:1007000095FF04C09091F20080E4891B2FBF0895EB
:1007100080918B0381110DC082E08093870384E078
:100720008093880310928A031092890381E080935A
:100730008B0387E893E0089581508F3008F047C01D
:10074000E82FF0E0EA55FC4F0C940229C303C703DD
:10075000B503BB03BF03E703E703E703CA03D00303
:10076000D403D803DE03E703E203809180008F7790
:10077000809380000895809180008F7DF9CF8091D3
:100780008000877FF5CF84B58F7784BD089584B5C9
:100790008F7DFBCF809190008F778093900008959C
:1007A000809190008F7DF9CF80919000877FF5CF69
:1007B0008091C0008F778093C00008958091C00021
:1007C0008F7DF9CF8091C200877F8093C20008950A
:1007D0001F93CF93DF93282F30E0F901EB5EF94FA1
:1007E0008491F901EA50FA4FD491F901E952FA4F94
:1007F000C491CC23A9F0162F81110E949C03EC2FE9
:10080000F0E0EE0FFF1FE753FA4FA591B4918FB7B9
:10081000F894EC91111108C0D095DE23DC938FBFC2
:10082000DF91CF911F910895DE2BF8CFCF93DF9307
:1008300090E0FC01EA50FA4F249189529A4FFC0152
:1008400084918823D1F090E0880F991FFC01E55432
:10085000FA4FA591B491FC01E753FA4FC591D49199
:10086000623071F49FB7F8943C91822F8095832376
:100870008C93E8812E2B28839FBFDF91CF91089521
:100880008FB7F894EC912E2B2C938FBFF6CF3FB7F8
:10089000F8948091830390918403A0918503B09193
:1008A000860326B5A89B05C02F3F19F00196A11D10
:1008B000B11D3FBFBA2FA92F982F8827BC01CD01AA
:1008C000620F711D811D911D42E0660F771F881F09
:1008D000991F4A95D1F708958F929F92AF92BF9238
:1008E000CF92DF92EF92FF924B015C010E9447048E
:1008F0006B017C010E9447046C197D098E099F09D8
:10090000683E734081059105A8F321E0821A9108A1
:10091000A108B10888EEC80E83E0D81EE11CF11CC6
:1009200081149104A104B10429F7FF90EF90DF90A6
:10093000CF90BF90AF909F908F900895CF93C0912C
:1009400020016AE070E080E090E00E946C0481E0A9
:10095000C11101C080E0CF9108952FB7F894609144
:100960007F037091800380918103909182032FBF58
:1009700008954091C0025091C1022091BE02309171
:10098000BF0242175307B4F49091E8009570E1F369
:100990009091E80092FD19C08093F1008091C0020F
:1009A0009091C10201968F739927892B19F48EEFCC
:1009B0008093E8008091C0029091C10201969093CB
:1009C000C1028093C00281E0089580E00895EF9213
:1009D000FF920F931F93CF93DF93F82E192FE62EDC
:1009E000042F81E0860F880F0E94B90483E00E94E3
:1009F000B904CF2DD12FEC0EFD2EF11CCE15DF0545
:100A0000B9F007FF13C0FE0184910E94B904182FAA
:100A100080E00E94B904812321968111EFCFDF91FC
:100A2000CF911F910F91FF90EF9008958881EDCFA6
:100A300081E0F5CFDF92EF92FF920F931F93CF9358
:100A4000DF93D82E8A01EB017B01E40EF51ECE1553
:100A5000DF0559F0D7FE12C0FE0184910E94B9044F
:100A600021968111F4CF0FEF1FEFC801DF91CF91D5
:100A70001F910F91FF90EF90DF9008958881EECF46
:100A80000F931F93CF93DF931F92CDB7DEB782E012
:100A9000898342E450E062E072E080E80E941A0537
:100AA0000E948803DC0112960D911C91011511051D
:100AB00089F0D801ED91FC910280F381E02DBE0117
:100AC0006F5F7F4FC801099597FD04C0F80100854D
:100AD0001185ECCF89810F90DF91CF911F910F91FC
:100AE0000895615030F02091F100FC0120830196BF
:100AF000F8CF289884E6809393030895EF92FF92AD
:100B00000F931F93CF93DF938C017B01D0E0C0E064
:100B1000F701EC0FFD1F6491662361F0D801ED91A0
:100B2000FC910190F081E02DC8010995892B11F00D
:100B30002196EECFCE01DF91CF911F910F91FF90C3
:100B4000EF900895AF92BF92CF92DF92EF92FF9213
:100B50000F931F93CF93DF936C017B018B01040FE5
:100B6000151FEB015E01AE18BF08C017D10759F081
:100B70006991D601ED91FC910190F081E02DC601C3
:100B80000995892B79F7C501DF91CF911F910F91BD
:100B9000FF90EF90DF90CF90BF90AF9008958F922D
:100BA0009F92AF92BF92CF92DF92EF92FF920F93FC
:100BB0001F93CF93DF936C017B018A018091200109
:100BC000882309F45CC080919403882309F457C0FA
:100BD0008091C40280FF05C08091E0008260809314
:100BE000E000E801B12C8AEFA82E93E0892E2AE3D9
:100BF000922E209711F4BB20D9F10E947703811126
:100C00000AC0AA94AA20D9F161E070E080E090E0E7
:100C10000E946C04EECF8C171D0611F00CF08C2F87
:100C20009FB7F8948092E9002091E80025FD02C06A
:100C30009FBFDFCF282F30E0C21BD30BF7018150BD
:100C400020F041914093F100FACFE20EF31EBB2059
:100C500021F09092E800B12CEBCF8091E80085FD67
:100C6000E7CF9092E800BB24B394209709F3F3CF29
:100C70005D9884E68093C302101611063CF081E073
:100C800090E0F6019383828310E000E0C801DF91D9
:100C9000CF911F910F91FF90EF90DF90CF90BF9079
:100CA000AF909F908F900895CF93DF931F92CDB711
:100CB000DEB76983DC01ED91FC910280F381E02DC8
:100CC00041E050E0BE016F5F7F4F09950F90DF91CB
:100CD000CF91089583E08093E9008091F20088230A
:100CE00019F08AE38093E80008950E94770390E06A
:100CF0000895CF93DF931F92CDB7DEB7FC018485B3
:100D0000958597FD08C02FEF3FEF358724870F901B
:100D1000DF91CF910895CE0101960E944D03019776
:100D200019F4898190E0F3CF8FEF9FEFF0CF0F930D
:100D30001F93CF93DF931F92CDB7DEB78C01FC01D9
:100D40008485958597FF0BC0CE0101960E944D03C7
:100D5000019771F4898190E0F80195878487F80103
:100D6000848595850F90DF91CF911F910F91089504
:100D70008FEF9FEFF1CFFC018485958597FD0BC028
:100D80009FB7F89482E08093E9008091F2009FBFC2
:100D900090E0019608959FB7F89482E08093E9006F
:100DA0008091F2009FBF90E00895FC0190819053E4
:100DB0009A3008F090E0818180532AE0929F800D64
:100DC00011240895DC0150E0E4E3F6E081E08617A9
:100DD00030F49491490F511D8F5F3196F8CF6330F5
:100DE00038F0CD0183709927892B11F44F5F5F4F45
:100DF0009D012D5F3F4F36952795369527956DE6DA
:100E000071E0A69FC001A79F900DB69F900D112481
:100E10000197820F931F840F951F0895EF92FF9201
:100E20000F931F93CF93DF93EC0188814A816981EF
:100E300090E00E94E2069C01A8E1B0E00E947E28BA
:100E40002B817B018C01E20EF11C011D111DA801FB
:100E50009701ACE3B0E00E943C282C817B018C011F
:100E6000E20EF11C011D111DA80197010E943C28F2
:100E7000AB01BC019D81892F90E0B0E0A0E08058DB
:100E80009C4BA249B74C8A019B01080F191F2A1FCE
:100E90003B1FC901B801DF91CF911F910F91FF90C6
:100EA000EF900895089520919B02260F3327331F5A
:100EB00021323105ECF42091E303FC0190E080E065
:100EC000243069F082E00895A0919B022191AC0149
:100ED00045585D4FA40FB52FB11D2C930196861771
:100EE00098F380919B02680F60939B0280E00895C5
:100EF00081E008951092E30381E08093E203109271
:100F0000BD0361E082E00E94E80361E083E00E94AB
:100F1000E803E9EBF0E080818E7F808380818D7F24
:100F2000808388E48093B80085E48093BC000895B2
:100F300010929C0310929B031092EA0310920C04EF
:100F40000E947A078BE493E0909398038093970331
:100F50008CE493E090939603809395030895CF9348
:100F6000DF9391E090937A028823B9F0C091B800A2
:100F7000D091BA008091BC008A7B8093BC0060E075
:100F800082E00E94E80360E083E00E94E8030E94A0
:100F90007A07D093BA00C093B800DF91CF9108953B
:100FA0008F929F92AF92BF92CF92DF92EF92FF9279
:100FB0000F931F93CF93DF93D0910C04D13208F09D
:100FC000D7C0182FC0910B040E9447046B017C010D
:100FD0008091E30381116BC082E08093E30310935F
:100FE000E2038FEF8093E1031092E003D093DF03DD
:100FF000ABEEB3E0EFEBF3E080E0D81391C01092DA
:10100000BE038091BE03CC0FC82BC093BE0380915A
:10101000BD03813009F088C01092BD030E944704CF
:101020006B017C018091BE038093BB008091E5033E
:101030009091E603A091E703B091E803892B8A2BF6
:101040008B2BA1F00E9447040091E5031091E60369
:101050002091E7033091E8036C197D098E099F09FF
:10106000061717072807390708F442C08091BC000B
:1010700083FDD8CF85EC8093BC000E9447046B01B0
:101080007C018091E303823009F450C08091E10338
:101090008F3F09F46FC08091E103803209F46CC086
:1010A0008091E103803309F469C084E026C0809117
:1010B000E5039091E603A091E703B091E803892B43
:1010C0008A2B8B2B09F484CF0E9447048090E50380
:1010D0009090E603A090E703B090E8036C197D09B7
:1010E0008E099F0986169706A806B90608F070CFE4
:1010F0008091E4030E94AF0785E01092EA0310920A
:101100000C041092E903DF91CF911F910F91FF9092
:10111000EF90DF90CF90BF90AF909F908F90089509
:101120009D9191938F5F69CF85EEA5CF8091E50367
:101130009091E603A091E703B091E803892B8A2BF5
:101140008B2B09F49ECF0E9447040091E503109178
:10115000E6032091E7033091E8036C197D098E09BD
:101160009F09061717072807390708F08ACFC0CF4D
:1011700081E0C3CF80E0C1CF82E0BFCF83E0BDCFAD
:10118000FC01A481B581868191E09093E90380936D
:101190000B041092EA0310920C04ED91FC9111974C
:1011A0000190F081E02DCD01099581E00C94D007EC
:1011B00010928A0460E08DE794E00C94C008CF930D
:1011C000DF93EC018B818823A1F0888191E09093DB
:1011D000E90380930B041092EA0310920C0481E05F
:1011E0000E94D00791E0811190E0892FDF91CF918B
:1011F00008950E94980781E08B83CE010E94DF084A
:10120000982F8111E2CFF1CF0895E0919C03809156
:101210009B03E81730F4F0E0E356FC4F808190E048
:1012200008958FEF9FEF089590919C0380919B0309
:101230002FEF3FEF981748F4E92FF0E0E356FC4F0B
:10124000208130E09F5F90939C03C90108958091B5
:101250009B0390919C03891B990B0895CF92DF9279
:10126000EF92FF920F931F93CF93DF937C01CB01FB
:101270008A012091E903222389F0EB016B01C40E5E
:10128000D51ECC15DD0569F06991D701ED91FC9172
:101290000190F081E02DC7010995F3CF642F0E94E2
:1012A0005307C801DF91CF911F910F91FF90EF90ED
:1012B000DF90CF900895CF93DF931F92CDB7DEB725
:1012C00069832091E9032223F9F020910C04203254
:1012D00058F021E030E0FC013383228390E080E08D
:1012E0000F90DF91CF9108958091EA03E82FF0E00D
:1012F000E551FC4F998190838F5F8093EA0380933F
:101300000C0481E090E0ECCF61E0CE0101960E94F8
:101310005307F7CF90E080E008958091180180FF97
:1013200004C060E08CE00E94E8038091180181FF16
:1013300004C060E086E00E94E8038091180182FF0B
:1013400015C088EB9BE0909389008093880064E649
:1013500070E080E090E00E946C04809180008F77C4
:101360008093800060E089E00E94E803809118018A
:1013700083FF15C088EB9BE090938B0080938A00DD
:1013800064E670E080E090E00E946C048091800050
:101390008F7D8093800060E08AE00C94E8030895DC
:1013A000CF93DF93D82FC92F0E949E04811116C0BE
:1013B000A091470390914603ED2FFC2F2491222307
:1013C000A9F081E08A0FB0E0AA53BD4F2C9387FFAC
:1013D00002C091E080E03196A82FF0CF6D2F7C2FD6
:1013E0008DE094E0DF91CF910C947E05A0934703AC
:1013F00090934603DF91CF9108950E94D0098CEA23
:1014000090E00C94D009EBE7F4E08081877E8E7F3A
:1014100080838181109275038E7F8D7F818381EF20
:1014200091E00C94FD090E94AD0460934903709310
:101430004A0380934B0390934C0380917B0485FF78
:1014400011C086FD0FC0806480937B0481E080938F
:101450008A0468E08DE794E00E94C0088EEA90E07C
:101460000C94FD0908952F923F924F925F926F92D4
:101470007F928F929F92AF92BF92CF92DF92EF9224
:10148000FF920F931F93CF93DF935C011B016A01BF
:10149000F12CE12CD50114968D919C9186010E19A9
:1014A0001F098017910708F48C01F501D0810E9473
:1014B00047042B013C018091E303811172C0C02FCE
:1014C000013208F0C0E2F1E0F093E30321E0C6014D
:1014D000801B910BE816F90608F420E02093E20344
:1014E0008FEF8093E1031092E0038C0F8093DF0372
:1014F000A1E0A093BE038091BE03DD0FD82BD09353
:10150000BE038091BD03813009F090C01092BD03ED
:101510000E9447042B013C018091BE038093BB00D5
:101520008091E5039091E603A091E703B091E80371
:10153000892B8A2B8B2BA1F00E9447042091E50375
:101540003091E6034091E7035091E803641975096F
:1015500086099709261737074807590708F442C034
:101560008091BC0083FDD8CFB5ECB093BC000E9445
:1015700047042B013C018091E303813009F45AC0F8
:101580008091E0038C1710F4C091E003AFEBB3E05F
:10159000EDE9F3E080E08C1751F19D9191938F5F1D
:1015A000FACF8091E5039091E603A091E703B09113
:1015B000E803892B8A2B8B2B09F47DCF0E944704EB
:1015C0002091E5033091E6034091E7035091E80351
:1015D00064197509860997092617370748075907B7
:1015E00008F069CF8091E4030E94AF07C0E0109239
:1015F0009C03C0939B03C017110609F057C041011B
:101600008E0C9F1CE401CE0188199909801791075F
:1016100098F5D50111968D919C91DC01ED91FC918D
:101620000284F385E02D09958993EDCFE5EEE093F3
:10163000BC009DCF8091E5039091E603A091E70364
:10164000B091E803892B8A2B8B2B09F494CF0E944D
:1016500047042091E5033091E6034091E703509160
:10166000E80364197509860997092617370748079B
:10167000590708F080CFB6CFE00EF11EEC14FD0440
:1016800008F408CF81E0DF91CF911F910F91FF9077
:10169000EF90DF90CF90BF90AF909F908F907F9012
:1016A0006F905F904F903F902F90089580E0EBCF28
:1016B0001F93CF93DF93DC011496ED91FC91E41717
:1016C000F50710F490E01FC0122FEA01FC018181A0
:1016D0009281208131E03093E90320930B04109232
:1016E000EA0310920C04DC01ED91FC910280F3817D
:1016F000E02D0995C817D90729F7812F0E94D00737
:1017000091E08111DFCF892FDF91CF911F91089553
:10171000EF92FF920F931F93CF93DF9300D000D0EF
:1017200000D01F92CDB7DEB78C011982E0909903EB
:10173000F0909A0320E041E050E0BE016F5F7F4FE0
:10174000C7010E94580B882341F047E050E0BE01DA
:101750006F5F7F4FC7010E94330AE981EF77FA81FB
:10176000FB805D814E814F778F81282F30E094E0A0
:10177000359527959A95E1F7922F990F990F291B87
:10178000220F280FD8012C93842F90E024E0959508
:1017900087952A95E1F7982F990F990F891B880F44
:1017A000840F11968C931197652F70E034E0759536
:1017B00067953A95E1F7862F880F880F681B660FAB
:1017C000650F12966C9312974F2D50E064E055957B
:1017D00047956A95E1F7842F880F880F481B440FBF
:1017E0004F0D13964C9313972F2F30E074E03595DF
:1017F00027957A95E1F7822F880F880F281B220FF3
:101800002F0F14962C9314978E2F90E0F4E095955B
:101810008795FA95E1F7982F990F990F891B880FF3
:101820008E0F15968C93C80127960FB6F894DEBFDD
:101830000FBECDBFDF91CF911F910F91FF90EF9021
:101840000895CF93DF9300D0CDB7DEB78FE08A83C2
:1018500021E041E050E0BE016E5F7F4F809199032F
:1018600090919A030E94580B41E050E0BE016F5FD7
:101870007F4F8091990390919A030E94330A898146
:101880000F900F90DF91CF910895EF92FF920F93F9
:101890001F93CF93DF93CDB7DEB72A970FB6F89497
:1018A000DEBF0FBECDBF8C01CE0101967C0188E06A
:1018B000F70111928A95E9F7F80135812AE0832F23
:1018C000622F0E948D28982F880F890F880F830F11
:1018D0008A833481832F0E948D28982F880F890F47
:1018E000880F830F8B833381832F0E948D28982F3D
:1018F000880F890F880F830F8C83808142816181DB
:1019000090E00E94E206069667E070E00E94992847
:10191000811101C087E08D83F80132812AE0832F95
:10192000622F0E948D28982F880F890F880F830FB0
:101930008E833181832F0E948D28982F880F890FE5
:10194000880F830F8F833081832F0E948D28982FDB
:10195000880F890F880F830F888721E048E050E0C7
:10196000B7018091990390919A030E94580B0E94AD
:10197000210C9FE099878F778A8721E042E050E031
:10198000BE01675F7F4F8091990390919A030E94F7
:10199000580B2A960FB6F894DEBF0FBECDBFDF916D
:1019A000CF911F910F91FF90EF9008951F93CF93C8
:1019B000DF93EC01162F107F8B8584606C85660F9A
:1019C000682B8D8528E0829FC0011124682B612B34
:1019D000CE010E94C0086C85660F8D8528E0829F2D
:1019E000C0011124682B8B85682B612BCE01DF9100
:1019F000CF911F910C94C0080F931F93CF93DF9347
:101A0000EC01062F0E94D60C8FE890E00197F1F7C9
:101A100020E1029F800111246B85602B862F84605A
:101A20006C85660F682B8D8528E0829FC00111248C
:101A3000682BCE010E94C0086B85062B6C85660F53
:101A4000602B8D8528E0829FC0011124682BCE0178
:101A5000DF91CF911F910F910C94C008EDE7F4E056
:101A60001386148661E0CF010E94FC0C8BEF98E195
:101A70000197F1F708951092880410928904E0917B
:101A800085046E1708F4E62FF0E0E25BFE4F6091EC
:101A90008404861708F4682F8081680F60688DE7DA
:101AA00094E00E94FC0C8FE890E00197F1F7089514
:101AB0000E942E0D68ED71E08DE794E00E947E0596
:101AC00061E080E00E943B0D6AEC71E08DE794E0FC
:101AD0000E947E0562E080E00E943B0D6AEB71E0AF
:101AE0008DE794E00E947E0563E080E00E943B0D5C
:101AF0006AEA71E08DE794E00C947E0521E0FC0138
:101B0000238714860E94FC0C8FE990E00197F1F77F
:101B100081E090E00895CF93DF93EC018881998173
:101B2000009711F00E94A429198218821D821C823C
:101B30001B821A82DF91CF910895FC0180819181EF
:101B4000009711F00C94A4290895FB010190002046
:101B5000E9F73197AF01461B570BDC01ED91FC9182
:101B60000280F381E02D0994009729F0BC018DE7F4
:101B700094E00C94A50D90E080E00895EF92FF9220
:101B80001F93CF93DF93CDB7DEB728970FB6F894A6
:101B9000DEBF0FBECDBF0E942E0D65EE71E08DE75A
:101BA00094E00E947E0588E0E7E2F1E0DE01119614
:101BB00001900D928A95E1F7CE0101967C0110E02B
:101BC000612F80E00E943B0D8091580381131DC05E
:101BD00082E891E00E94B40D81E692E00E94B40D8B
:101BE000F701819191917F010E94B40D1F5F143024
:101BF00039F728960FB6F894DEBF0FBECDBFDF9140
:101C0000CF911F91FF90EF90089581E692E0E2CF8F
:101C1000CF92DF92EF92FF921F93CF93DF93CDB7D6
:101C2000DEB72C970FB6F894DEBF0FBECDBF0E9473
:101C30002E0D6CE971E08DE794E00E947E0588E04E
:101C4000E7E2F1E0DE01119601900D928A95E1F74D
:101C500080912F0190913001A0913101B09132011A
:101C600089879A87AB87BC87CE0101967C016E017C
:101C700099E0C90ED11C10E0612F80E00E943B0D5D
:101C80008091570381132AC082E891E00E94B40D2D
:101C9000F60181916F0190911801892311F184EC73
:101CA00091E00E94B40D81E692E00E94B40DF7012C
:101CB000819191917F010E94B40D1F5F1430E1F674
:101CC0002C960FB6F894DEBF0FBECDBFDF91CF913B
:101CD0001F91FF90EF90DF90CF90089581E692E002
:101CE000D5CF81E692E0DDCF8F929F92AF92BF92E7
:101CF000CF92DF92EF92FF920F931F93CF93DF93D8
:101D0000CDB7DEB7A1970FB6F894DEBF0FBECDBF3B
:101D10006C01990FEE08FF08F7FE43C06DE28DE7F6
:101D200094E00E947E0D8C0122273327A9012C19F3
:101D30003D094E095F0919A2CE0181967C019AE006
:101D4000892E912CA12CB12CCA01B901A5019401B5
:101D50000E94C128605DF70162937F012115310562
:101D60004105510589F790E080E0309729F0BF01E7
:101D70008DE794E00E94A50D800F911FA1960FB6EC
:101D8000F894DEBF0FBECDBFDF91CF911F910F91B1
:101D9000FF90EF90DF90CF90BF90AF909F908F908B
:101DA0000895A701960119A28E010F5D1F4F8AE0C9
:101DB000C82ED12CE12CF12CCA01B901A701960142
:101DC0000E94C128605DF80162938F0121153105E1
:101DD0004105510589F790E080E0309779F2BF0125
:101DE0008DE794E00E94A50DC9CFEF92FF920F936B
:101DF0001F93CF93DF937C018B01EA018AE0E81601
:101E0000F10424F482EC91E00E94B40DC7010E9419
:101E1000740E86EC91E00E94B40D0A30110524F492
:101E200082EC91E00E94B40DC8010E94740ED7FDAF
:101E300019C086EC91E00E94B40DCE0164E670E01A
:101E40000E94AD28EC010A9724F482EC91E00E94F4
:101E5000B40DCE01DF91CF911F910F91FF90EF90C4
:101E60000C94740EDF91CF911F910F91FF90EF9022
:101E700008950E942E0D6EE871E08DE794E00E94B7
:101E80007E0561E080E00E943B0D8091520381114C
:101E900004C082E891E00E94B40D809112019091FB
:101EA00013010A9724F482EC91E00E94B40D809112
:101EB0001201909113010E94740E809152038111BE
:101EC00004C088EC91E00E94B40D86EC91E00E9481
:101ED000B40D80915203813021F482E891E00E9498
:101EE000B40D80911001909111010A9724F482ECB5
:101EF00091E00E94B40D80911001909111010E9417
:101F0000740E80915203813021F488EC91E00E949C
:101F1000B40D86EC91E00E94B40D809152038230A2
:101F200021F482E891E00E94B40D80910E0190911D
:101F30000F010E94740E80915203823021F488ECCC
:101F400091E00E94B40D62E080E00E943B0D809120
:101F50005203833021F482E891E00E94B40D809115
:101F60001401909115010A9724F482EC91E00E94EB
:101F7000B40D80911401909115010E94740E80910E
:101F80005203833021F488EC91E00E94B40D88E77D
:101F900092E00E94B40D80915203843021F482E8D3
:101FA00091E00E94B40D80915303909154030A97DD
:101FB00024F482EC91E00E94B40D8091530390913F
:101FC00054030E94740E80915203843021F488ECF3
:101FD00091E00E94B40D88E792E00E94B40D8091D8
:101FE0005203853021F482E891E00E94B40D809183
:101FF0005503909156030A9724F482EC91E00E94D5
:10200000B40D80915503909156030E94740E8091F7
:102010005203853021F488EC91E00E94B40D63E016
:1020200080E00E943B0D6DE771E08DE794E00C9439
:102030007E050E942E0D809174036EE671E0823061
:1020400011F060E671E08DE794E00E947E058091DA
:10205000740361E0823009F0B9C080E00E943B0D5A
:1020600080915103811104C082E891E00E94B40D77
:1020700080910C0190910D010A9724F482EC91E07B
:102080000E94B40D80910C0190910D010E94740E7C
:1020900080915103811104C088EC91E00E94B40D3D
:1020A00086EC91E00E94B40D80915103813021F4BF
:1020B00082E891E00E94B40D80910A0190910B0199
:1020C0000A9724F482EC91E00E94B40D80910A01F9
:1020D00090910B010E94740E80915103813021F484
:1020E00088EC91E00E94B40D86EC91E00E94B40D62
:1020F00080915103823021F482E891E00E94B40D76
:1021000080910801909109010E94740E8091510301
:10211000823021F488EC91E00E94B40D62E080E00E
:102120000E943B0D68E571E08DE794E00E947E051A
:1021300080915103833021F482E891E00E94B40D34
:1021400080910601909107010A9724F482EC91E0B6
:102150000E94B40D80910601909107010E94740EB7
:1021600080915103833021F488EC91E00E94B40DFA
:1021700088E792E00E94B40D80915103843021F4ED
:1021800082E891E00E94B40D80914F03909150033A
:102190000A9724F482EC91E00E94B40D80914F03E1
:1021A000909150030E94740E80915103843021F469
:1021B00088EC91E00E94B40D63E080E00E943B0D4A
:1021C00067E371E08DE794E00C947E0580E00E9467
:1021D0003B0D68E471E08DE794E00E947E0562E0CB
:1021E00080E00E943B0D80915103811104C082E880
:1021F00091E00E94B40D80910601909107010A9729
:1022000024F482EC91E00E94B40D8091060190913B
:1022100007010E94740E80915103811104C088EC63
:1022200091E00E94B40D88E792E00E94B40D809185
:102230005103813021F482E891E00E94B40D809135
:102240004F03909150030A9724F482EC91E00E948E
:10225000B40D80914F03909150030E94740E8091B1
:102260005103813009F0A8CFA3CF0E942E0D69E25F
:1022700071E08DE794E00E947E0561E080E00E94BD
:102280003B0D6FE171E08DE794E00E947E05809147
:102290004E03811104C082E891E00E94B40D809148
:1022A0001601909117010E94740E80914E038111C6
:1022B00004C088EC91E00E94B40D62E080E00E94CE
:1022C0003B0D64E171E08DE794E00E947E05809112
:1022D0004E03813021F482E891E00E94B40D809198
:1022E0007203909173030E94740E80914E038130AB
:1022F00021F488EC91E00E94B40D63E080E00E943C
:102300003B0D63E071E08DE794E00C947E05EF9265
:10231000FF920F931F93CF93DF937C018B01EA0110
:102320008AE0E816F10424F482EC91E00E94B40DF6
:10233000C7010E94740E88E792E00E94B40D0A3033
:10234000110524F482EC91E00E94B40DC8010E94B2
:10235000740ECF3FDC07A1F088E792E00E94B40D35
:10236000CA30D10524F482EC91E00E94B40DCE0174
:10237000DF91CF911F910F91FF90EF900C94740E0D
:10238000DF91CF911F910F91FF90EF900895EF9201
:10239000FF920F931F93CF93DF93CDB7DEB76C9768
:1023A0000FB6F894DEBF0FBECDBFCE0147960E9498
:1023B000880B80917C0481FD75C00E942E0D8EE0FB
:1023C00092E09A83898385E192E098878F8382E205
:1023D00092E09A8789878BE292E09C878B8783E3E0
:1023E00092E09E878D87809174039EEF980F28ED71
:1023F00031E0923010F42AEC31E03C832B839230B0
:1024000008F083C0823009F483C088EF91E09E8396
:102410008D8310914D03112321F0163008F015E043
:102420001150E12EF12CEE0CFF1C81E090E08C0F9E
:102430009D1FE80EF91E00E00F5F602F80E00E94F4
:102440003B0D80914D03811709F465C080E692E051
:102450000E94B40DF701819191917F010E94B40D0A
:1024600011115CC088E0E3E3F1E0DE011F9601900A
:102470000D928A95E1F7E0917403F0E0EE0FFF1FF3
:1024800081E090E08C0F9D1FE80FF91F86859785EE
:102490000E94B40D1F5F033079F680917C04826046
:1024A00080937C0460E080E00E943B0D82E592E036
:1024B0000E94B40D60E080E00E943B0D83E692E054
:1024C0000E94B40D4F8950E04053584F688D70E022
:1024D000898D90E00E94F50E81E692E00E94B40D95
:1024E0004C8D50E06B8D70E08A8D90E00E948711DA
:1024F0006C960FB6F894DEBF0FBECDBFDF91CF91C3
:102500001F910F91FF90EF90089585EE91E07FCF9E
:102510008BEE91E07CCF84E092E09ACF123039F5D7
:10252000809174038250823008F4B4CF8FE392E03C
:102530000E94B40D80911601909117010E94740EB3
:1025400088E792E00E94B40D80917203909173032A
:102550000A9724F482EC91E00E94B40D80917203FA
:10256000909173030E94740E82E492E091CF143034
:10257000F9F48091180180FF04C084E492E00E9485
:10258000B40D8091180181FF04C087E492E00E949D
:10259000B40D8091180182FF04C08AE492E00E9489
:1025A000B40D8091180183FF75CF8DE492E070CF58
:1025B000153009F06FCF80917B0485FD0DC08AE056
:1025C00092E00E94B40D80917B0485FF63CF86FD6D
:1025D00061CF80E592E05CCF87E092E0F2CF0F938D
:1025E0001F93CF93DF93EC0188819981009759F075
:1025F0002A813B812617370730F081E0DF91CF91A8
:102600001F910F9108958B016F5F7F4F0E942D2ABC
:10261000009759F0998388831B830A832C813D811D
:10262000232B59F7FC011082E8CF80E0E7CFEF922F
:10263000FF920F931F93CF93DF936115710541F4C0
:1026400080E0DF91CF911F910F91FF90EF9008955F
:1026500041155105B1F07B01EC010C811D81040F86
:10266000151FB8010E94EF12882351F32881398188
:102670008C819D81B701820F931F0E94F32A1D83D5
:102680000C8381E0DECFCF93DF93EC01FB0101905F
:102690000020E9F73197AF01461B570B0E94171333
:1026A000811103C0CE010E948B0DCE01DF91CF912D
:1026B0000895CF93DF93EC01FB0144815581608144
:1026C00071810E941713811103C0CE010E948B0DEE
:1026D000CE01DF91CF910895EF92FF920F931F9358
:1026E000CF93DF93EC017B018A01BA010E94EF12C4
:1026F00081110BC0CE010E948B0DCE01DF91CF91D5
:102700001F910F91FF90EF9008951D830C83B701E7
:10271000888199810E94F32AF0CFFB01019000206B
:10272000E9F73197AF01461B570B0C946C130F93CD
:102730001F93CF93DF93CDB7DEB762970FB6F894B0
:10274000DEBF0FBECDBF8C01CB01F801118210821C
:1027500013821282158214824AE0BE016F5F7F4F9E
:102760000E94F127BE016F5F7F4FC8010E948D1349
:1027700062960FB6F894DEBF0FBECDBFDF91CF914A
:102780001F910F9108950F931F93CF93DF93CDB7B0
:10279000DEB729970FB6F894DEBF0FBECDBF8C0110
:1027A000862FF80111821082138212821582148200
:1027B0004AE0BE016F5F7F4F90E00E94FC27BE01A0
:1027C0006F5F7F4FC8010E948D1329960FB6F89452
:1027D000DEBF0FBECDBFDF91CF911F910F91089546
:1027E000FB01DC0111961C921E9213961C921E9204
:1027F000129715961C921E9214978617970749F008
:10280000608171816115710521F0448155810C94BD
:102810006C13089585ED8093BC008091E503909141
:10282000E603A091E703B091E8030796A11DB11D4F
:1028300023E0B695A795979587952A95D1F720918E
:10284000BC0024FD03C01092E30308954091E5030A
:102850005091E6036091E7037091E803452B462B06
:10286000472B69F30097A105B10541F02AE22A95AB
:10287000F1F700C00197A109B109E1CF8091E4030C
:102880000C94AF07FF920F931F93CF93DF938C01AC
:10289000EB01F8800E942628F81621F06F2DC80160
:1028A0000E942E28CE01DF91CF911F910F91FF90B2
:1028B0000895FF920F931F93CF93DF93EC018B0149
:1028C000FB01F0800E942628F81621F06F2DCE0122
:1028D0000E942E28F801F1802196CE010E94262820
:1028E000F81621F06F2DCE010E942E28C801DF912D
:1028F000CF911F910F91FF900895CF93DF931F9277
:10290000CDB7DEB766E171E090E080E00E94591437
:1029100062E773E084E090E00E94591464E773E09A
:1029200088E090E00E94421468E071E08CE090E062
:102930000E9459146AE071E080E190E00E9459140D
:102940006CE071E084E190E00E94591466E071E06F
:1029500088E190E00E9459146FE473E08CE190E00C
:102960000E94591480917B0485FB882780F9898314
:10297000BE016F5F7F4F80E290E00E94421468E1E9
:1029800071E088E290E00E94421484EF90E00E949F
:10299000FD090F90DF91CF910895CF93DF93EB0165
:1029A0000E9426288883CE01DF91CF9108950F934E
:1029B0001F93CF93DF938C01EB010E94262888831D
:1029C000C80101960E9426288983CE01DF91CF910C
:1029D0001F910F9108958F929F92AF92BF92CF92C5
:1029E000DF92EF92FF920F931F93CF93DF9300D06C
:1029F00000D000D0CDB7DEB76C010E949E04D60196
:102A000014964D915C9115978823C9F06D917C9136
:102A10008DE094E00E94CF0526960FB6F894DEBFB5
:102A20000FBECDBFDF91CF911F910F91FF90EF901F
:102A3000DF90CF90BF90AF909F908F900895B0900F
:102A40004703EB2CF12C00E810E00E191F0940178A
:102A5000510708F48A011A8219821C821B821E8285
:102A60001D8250E040E066E772E0CE0101960E94D0
:102A70006C13F601848195810097E9F04801801775
:102A8000910708F44C01D601ED91FC911197E80DE6
:102A9000F91DA08010826D917C91CE010196611587
:102AA000710511F10E948D13F60180819181880ECC
:102AB000991ED401AC920F3F100761F0F701EA5361
:102AC000FD4F7F01309731F0CD80DE80C114D104FD
:102AD00071F41082CE0101960E949D0D0B0D07FD31
:102AE00015C00093470398CF0E948B0DDDCF0C15C6
:102AF0001D0508F4680169817A81A601C7010E9459
:102B0000FA2AEC0CFD1CD7011C92E4CF109247036B
:102B100081E08093460380CFCF93DF93CDB7DEB7BC
:102B200065970FB6F894DEBF0FBECDBF66E171E0CA
:102B300090E080E00E94D71462E773E084E090E0C8
:102B40000E94D71464E773E088E090E00E94CD14FF
:102B500068E071E08CE090E00E94D7146AE071E0D8
:102B600080E190E00E94D7146CE071E084E190E095
:102B70000E94D71466E071E088E190E00E94D714CB
:102B80006FE473E08CE190E00E94D714BE016B5EAD
:102B90007F4F80E290E00E94CD1491E08D898111F9
:102BA00001C090E080917B0490FB85F980937B04C9
:102BB00068E171E088E290E00E94CD1480911601F6
:102BC000909117018436910514F083E690E097FF09
:102BD00002C090E080E090931701809316018091ED
:102BE0007203909173038C33910514F08BE390E0A2
:102BF00097FF02C090E080E090937303809372038C
:102C000080917403843008F083E080937403809192
:102C10000801909109018F3E27E0920714F08EEE93
:102C200097E0893E27E0920714F489EE97E09093AD
:102C300009018093080180910A0190910B018D3068
:102C4000910514F08CE090E01816190614F081E05C
:102C500090E090930B0180930A0180910C01909178
:102C60000D018032910514F08FE190E018161906DD
:102C700014F081E090E090930D0180930C0180911D
:102C80000601909107018831910514F087E190E0E9
:102C900097FF02C090E080E09093070180930601C7
:102CA00080914F03909150038C33910514F08BE386
:102CB00090E097FF02C090E080E0909350038093F3
:102CC0004F0380911801803108F08FE08093180144
:102CD00090917B04892F95FB86F980937B040E9459
:102CE000AD046093490370934A0380934B03909320
:102CF0004C0380917B0486FF68C081E080938A0446
:102D000068E08DE794E00E94C0088CEE90E00E949D
:102D1000D0096091720370917303CE010F960E94E7
:102D200097136091160170911701CE0101960E94D0
:102D30009713BE016F5F7F4FCE0109960E94F0137B
:102D400068E772E0CE0109960E944313BE01615FFD
:102D50007F4F0E9459130E94EB14CE0109960E94E6
:102D60009D0DCE0101960E949D0DCE010F960E94F1
:102D70009D0D84EE90E00E94D0098DED90E09A8345
:102D8000898386ED90E09C838B8380ED90E09E8329
:102D90008D838AEC90E098878F83E0917403F0E054
:102DA000EE0FFF1F81E090E08C0F9D1FE80FF91FD1
:102DB000808191810E94FD0965960FB6F894DEBF6F
:102DC0000FBECDBFDF91CF9108950E94D8089DCF4F
:102DD0001F920F920FB60F9211242F933F938F9350
:102DE0009F93AF93BF9380917F0390918003A091B5
:102DF0008103B091820330917E0323E0230F2D37AE
:102E000058F50196A11DB11D20937E0380937F0389
:102E100090938003A0938103B093820380918303F6
:102E200090918403A0918503B09186030196A11D22
:102E3000B11D8093830390938403A0938503B09383
:102E40008603BF91AF919F918F913F912F910F90EA
:102E50000FBE0F901F90189526E8230F0296A11D14
:102E6000B11DD2CF1F920F920FB60F9211248F93E4
:102E70009F938091E1009091E100937F9093E10016
:102E800083FF0FC01092E90091E09093EB00109245
:102E9000EC0092E39093ED001092940398E09093ED
:102EA000F00082FF22C093E09093E9009091F2003D
:102EB000992319F09AE39093E8009091C302992323
:102EC00041F09091C30291509093C302911101C0BF
:102ED0005D9A90919303992341F0909193039150BF
:102EE00090939303911101C0289A84FF18C0809198
:102EF000E2008E7E81608093E2008091E1008F7E0F
:102F00008093E1008091C4028E7E80618093C40230
:102F10009F918F910F900FBE0F901F90189580FF7B
:102F2000F7CF8091E2008E7E80618093E2008091F5
:102F3000E1008E7E8093E1008091C4028E7E8160EC
:102F4000E5CF1F920F920FB60F921124CF92DF920E
:102F5000EF92FF920F931F932F933F934F935F93A3
:102F60006F937F938F939F93AF93BF93EF93FF9351
:102F7000CF93DF93CDB7DEB76C97DEBFCDBF109296
:102F8000E9008091E80083FF25C068E0CE01459606
:102F90000E94710582EF8093E8008D8987FF39C018
:102FA0009091E80090FFFCCF982F907609F034C103
:102FB0009E894F89588D2F89F88C911131C08038A6
:102FC00061F58091C5028093F1001092F1008EEFBF
:102FD0008093E8006C960FB6F894DEBF0FBECDBFAD
:102FE000DF91CF91FF91EF91BF91AF919F918F9121
:102FF0007F916F915F914F913F912F911F910F9111
:10300000FF90EF90DF90CF900F900FBE0F901F902A
:1030100018959EEF9093E800C7CF1092F100D5CF9E
:10302000913059F48111D3CF4130510581F680910F
:10303000C5028D7F8093C502CACF933049F48111B8
:10304000C6CF4130510519F68091C5028260F2CF9A
:10305000953041F48091E80080FFFCCF20682093F8
:10306000E300B5CF963009F0A9C00B8D1C8D22E08E
:103070001092E9001092C1021092C002F2122EC00A
:103080001092BF021092BE020E9440051F8299E07A
:103090009983FA8291E09E8390EA98879AEF9987C4
:1030A0002091C0023091C102275F3F4F3C832B83A8
:1030B0008D831092E9001092C1021092C002109309
:1030C000BF020093BE0249E050E0BE016F5F7F4F38
:1030D00080E00E941A050E94400579CF1093BF023C
:1030E0000093BE020E948803DC0112960D911C9190
:1030F0000115110509F451C1D801ED91FC9104802D
:10310000F581E02DBE016B5E7F4FC80109950097E8
:1031100009F03EC1F80100851185EACFF3E0FF1206
:103120000EC08F89882309F440C0823061F440E8E2
:1031300060E186E692E00E94E704811148CF81E2D7
:103140008093EB0047CF813029F440E86BE08AE5BB
:1031500092E0F1CF833099F70E948803DC01129648
:10316000ED90FC908E010F5F1F4F6801E114F10498
:1031700079F0D701ED91FC910680F781E02DB8013F
:10318000C7010995080F111DF701E084F184EECF06
:10319000D8011C92F60101900020E9F73197BF0198
:1031A0006C197D0940E0C601C6CF64E472E0FB0102
:1031B000449150E080E80E941A0509CF973009F445
:1031C000BECF983021F481E08093F10000CF993098
:1031D00009F0FDCE837009F0B2CFE2E4F1E081E0C6
:1031E00031E096E32191222371F08093E90030933E
:1031F000EB00DF0111972C912093EC009093ED00F0
:103200008F5F873079F78EE78093EA001092EA00AB
:103210008F8980939403DBCE8B8D9C8D1092E90077
:103220001092C1021092C0029093BF028093BE021E
:10323000898D811192C08E899D89913A49F481329C
:1032400009F07DCF47E050E069E171E080E0B3CF65
:10325000913209F074CF833269F48F89988DB0E090
:10326000A0E08093000190930101A0930201B0932C
:103270000301ADCE803269F48091E80082FFFCCF7B
:1032800067E089E191E00E9471058BEF8093E8008F
:103290009ECE823209F09BCE8F8980932001EEEF83
:1032A000FFE7859194918B3F9C4D51F1E0E0F8E070
:1032B0008091190190911A01A0911B01B0911C01FC
:1032C000803B9440A105B105F1F48091200180FD7F
:1032D0001AC0EE3F8AE0F80789F587E797E7918300
:1032E0008083809160008093C20288E19BE00FB6EA
:1032F000F894A895809360000FBE9093600067CE0D
:10330000EEEFFAE0D5CF808191818737974709F0BA
:103310005ECEA89580916000886180936000809166
:10332000C20280936000EE3F2AE0F20789F08091AC
:10333000FE0A9091FF0A9183808349CE808191811A
:103340008737980751F29093FF0A8093FE0AC5CF02
:103350001092FF0A1092FE0A3ACE0E948803DC0106
:1033600012960D911C910115110509F4E8CED801B2
:10337000ED91FC910190F081E02DBE016B5E7F4FDD
:10338000C8010995811123CEF80100851185EBCF85
:10339000181619060CF41BCED2CEF1E0FF12BECEE9
:1033A00068E472E004CF1F920F920FB60F921124BF
:1033B0002F933F934F935F936F937F938F939F933D
:1033C000AF93BF93EF93FF938091B900887F8036CE
:1033D00009F44AC0F0F5883209F4A7C018F5803125
:1033E00009F49BC0B8F4882309F4F9C0883009F4C3
:1033F00094C0FF91EF91BF91AF919F918F917F9179
:103400006F915F914F913F912F910F900FBE0F9051
:103410001F901895883109F488C0803251F7809345
:10342000E10314C0803409F49DC040F48033B9F343
:103430008833F9F68093E10385ECB0C0803509F458
:1034400085C0883509F496C0883499F60E940A141C
:10345000D0CF883909F48CC038F5883729F050F47A
:10346000883611F0803729F683E08093E3031092C9
:10347000BD0257C0883809F47BC0803919F0803804
:1034800009F0B7CF8091BD02803208F071C0E091A1
:10349000BD0281E08E0F8093BD028091BB00F0E001
:1034A000E356FD4F80833DC0803B39F0E0F4803A25
:1034B00009F479C0883A09F09CCF84E08093E30353
:1034C00010929C0210929B02E0919703F091980356
:1034D000099580919B0281110FC081E080939B022E
:1034E00010927B0209C0803C09F4A6CF883C09F405
:1034F000A3CF883B09F07DCFE0919C0281E08E0F45
:1035000080939C02F0E0E558FD4F80818093BB00E2
:1035100090919C0280919B0229C08091BE03809370
:10352000BB0085EC8093BC0064CF9091E003809158
:10353000DF03981758F5E091E00381E08E0F809348
:10354000E003F0E0E154FC4F8081E9CFE091E0033B
:1035500081E08E0F8093E0038091BB00F0E0E154A6
:10356000FC4F80839091E0038091DF039817C8F2AD
:1035700085E8D8CFE091E00381E08E0F8093E003EF
:103580008091BB00F0E0E154FC4F80838091E20326
:1035900081115CCF81E08093BD0384EA8093BC00FD
:1035A0001092E30326CF85EC8093BC001092E303D6
:1035B0008091BD02803230F4E091BD02F0E0E3562C
:1035C000FD4F10826091BD0270E0E0919503F09193
:1035D00096038DE992E009951092BD020ACF1092F0
:1035E000E10334CF1092100410920F0488EE93E0A0
:1035F000A0E0B0E08093110490931204A093130410
:10360000B093140426E531E030930E0420930D04AA
:103610002FEF3FEF30931A042093190410926004A7
:1036200010925F048093610490936204A0936304FA
:10363000B093640488E691E090935E0480935D0407
:103640001092800410927F048AE791E090937E04A8
:1036500080937D048DE594E09093820480938104AF
:1036600087E2809383048FE08093840483E08093D7
:103670008504109286041092870410928804109298
:10368000890410928A0486E0EBE3F1E0AFE6B4E04F
:1036900001900D928A95E1F710926E0410926D04DC
:1036A00010926C0410926904E4E3F6E081E08C303F
:1036B00049F09491823009F49F5F21E0280F319600
:1036C000992331F080936A0481E080936B0408951C
:1036D000822FEDCFCF93DF93CDB7DEB7E1970FB653
:1036E000F894DEBF0FBECDBF789484B5826084BDF0
:1036F00084B5816084BD85B5826085BD85B58160F6
:1037000085BD80916E00816080936E001092810073
:10371000809181008260809381008091810081602E
:1037200080938100809180008160809380008091EF
:1037300091008260809391008091910081608093DC
:103740009100809190008160809390008091C100F1
:1037500084608093C1008091C10082608093C10029
:103760008091C10081608093C1008091C30081601D
:103770008093C3008091C00082608093C0008091DC
:10378000C20081608093C20080917A00846080933F
:103790007A0080917A00826080937A0080917A002A
:1037A000816080937A0080917A00806880937A00AB
:1037B000109294031092C5021092C4028091D70017
:1037C00081608093D70080EA8093D80089B58061BA
:1037D00089BD89B5826089BD09B400FEFDCF61E075
:1037E00070E080E090E00E946C048091D8008F7CB3
:1037F00080618093D8008091E000807F8093E0001A
:103800008091E1008E7E8093E1008DE08093E20064
:10381000559A209A61E088E00E9416044EE4E42E56
:1038200041E0F42E08E411E062E0D8018D918D01B1
:103830000E941604E016F106B9F761E08CE00E94E0
:10384000160461E086E00E94160460E08CE00E94AD
:10385000E80360E086E00E94E80361E089E00E94FE
:10386000160461E08AE00E9416048FEF9FEF9093A8
:103870001A048093190485E093E00E94FD090E94D8
:10388000980760E08DE794E00E94C00862E370E072
:1038900080E090E00E946C041092880410928904E9
:1038A00060E38DE794E00E94D60C8BE991E40197E8
:1038B000F1F760E38DE794E00E94D60C83E592E097
:1038C0000197F1F760E38DE794E00E94D60C0FE8D2
:1038D00010E0C8010197F1F760E28DE794E00E94E3
:1038E000D60CC8010197F1F768E28DE794E00E94D9
:1038F000FC0CC8010197F1F710928804109289041A
:1039000060918604862F8460809386046C608DE7C6
:1039100094E00E94FC0CC8010197F1F70E942E0D63
:10392000109288041092890460918704862F826027
:103930008093870466608DE794E00E94FC0CC801C8
:103940000197F1F70E948C150E942E0D61E080E036
:103950000E943B0D69EF72E08DE794E00E947E05C6
:1039600062E080E00E943B0D66EE72E08DE794E03D
:103970000E947E0560ED77E080E090E00E946C049C
:103980008091990390919A03009711F00E94A429C5
:1039900086E090E00E9408298C0188E6F801808387
:1039A0008DE594E092838183138280E290E0958399
:1039B000848310939A03009399030E94980781E0EF
:1039C000D80113968C93C8010E94DF0881115FC053
:1039D00088EC92E00E94FD090E942E0D6DEB72E0D2
:1039E0008DE794E00E947E0560ED77E080E090E056
:1039F0000E946C040E94C71120E4222E2CE9322E72
:103A000020912F01309130014091310150913201CC
:103A10002EA73FA748AB59AB0E949E04882309F408
:103A200024C280917C0482FD20C2846080937C0447
:103A300080914703811105C080914603882309F4D2
:103A4000CBC06AE273E08DE094E00E947E0564E7FB
:103A500072E08DE094E00E94A50D809146038823DA
:103A600009F497C0E09047030E2D10E00A531D4F54
:103A7000C801865C9240803891050CF08AC0D8015C
:103A80006D918D018DE094E00E945406F1CF0E946B
:103A9000210C90E0880F892F881F990B892B09F43E
:103AA00057C08EE992E00E94FD094BE050E062E9C8
:103AB00072E0CE0101960E94E827CE010A960E948C
:103AC000D5068C87E981E154E33110F50E2E000C08
:103AD000FF0BE359F24E0C940229B31D881D881D7B
:103AE000C71D881DB11D881D881D881D801D881D4E
:103AF000881DBA1DC51DC31D881D881D881DC11DBB
:103B00008A81813651F18B818E3649F586E08D8729
:103B1000CE0105960E94D5068E8748E050E069E800
:103B200072E0CE0101960E94E827CE0101960E9424
:103B3000D5068F87CE0104960E94D506888BCE01CC
:103B400007960E94D506898BCE010C960E94450CE3
:103B500087E792E00E94FD094DCF81E0D8CF87E052
:103B6000D6CF82E0D4CF8B81823711F484E0CFCFDF
:103B700088E0CDCF8B81823711F483E0C8CF85E018
:103B8000C6CF89E0C4CF8AE0C2CF8BE0C0CF8CE043
:103B9000BECF06EC12E020914703C801865C92403C
:103BA0002817190649F044F0F80161918F018DE062
:103BB00094E00E945406EFCF6EE173E08DE094E054
:103BC0000E947E0564E772E08DE094E00E94A50DFE
:103BD00010924703109246030E94AD042B013C0152
:103BE00080917B0485FF4DC186FF4BC10E94AD04CF
:103BF000C0904903D0904A03E0904B03F0904C03EF
:103C00006C197D098E099F096033754781059105FF
:103C100008F437C180917B048F7B80937B040E94E2
:103C2000D80889E393E00E94FD09809118019091E2
:103C30007B0490FF32C180FF04C061E08CE00E94F1
:103C4000E8038091180181FF04C061E086E00E94D2
:103C5000E8038091180182FF10C082E88093800001
:103C60008AE180938100309287002092860020E6CE
:103C700039E030938900209388008091180183FFF8
:103C800012C0809180008062809380008AE18093DE
:103C90008100309287002092860040E659E05093E0
:103CA0008B0040938A0080917A0390917B03A091CE
:103CB0007C03B0917D03A3019201281B390B4A0BB1
:103CC0005B0BDA01C901883E9340A105B10558F0AC
:103CD00080917B048E7F80937B040E948D0984EA0F
:103CE00095E00E94FD098091760390917703A09161
:103CF0007803B0917903B301A201481B590B6A0BF9
:103D00007B0BDB01CA01883E9340A105B10508F495
:103D10004FC140927603509277036092780370927D
:103D2000790380917B0483FF93C084FD91C08091CF
:103D30007503873009F08CC0CE0101960E94880B74
:103D400080917403833099F48B8190E02091040179
:103D5000309105018217930751F010924803909318
:103D600005018093040186EA93E00E94FD09809199
:103D70007403823009F097C0898190E08053984F96
:103D800020910801309109018217930709F060C062
:103D90002A8180910A0190910B012817190609F0D8
:103DA00057C02B8180910C0190910D0128171906A5
:103DB00009F04EC02C8180910601909107012817CF
:103DC000190609F045C02D8180914F039091500351
:103DD00028171906E9F58E8181113AC080917B047C
:103DE0008061816080937B040E94AD0460937A03BC
:103DF00070937B0380937C0390937D038AE893E028
:103E00000E94FD0980917403823009F065C08091A1
:103E10007C048E7F80937C040E942E0D69E773E002
:103E20008DE794E00E947E0561E080E00E943B0DFA
:103E300069E673E08DE794E00E947E0563E080E030
:103E40000E943B0D68E573E08DE794E00E947E05DB
:103E500080917503853009F443C0873009F435C279
:103E60008111A6C00E94C711A3C00E949E048111A7
:103E7000B3CE80917C0482FFAFCE8B7F80937C0495
:103E8000ABCE80917B0485FDD0CE86FFCECE8F7BDE
:103E900080937B040E94D808C8CE837009F423CF96
:103EA0000E948D0920CF833099F62C8180910601E4
:103EB000909107012817190659F62D8180914F031B
:103EC000909150032817190609F0C2CF8E818111F5
:103ED000BFCF8091480380CF81E080934803B8CF63
:103EE000CE010C960E94880BCE010C960E940E0704
:103EF0004B015C0189E694E00E940E07861A970A3E
:103F0000A80AB90A80911601909117012CE3289F05
:103F10006001299FD00C112480917203909173034A
:103F2000C80ED91E0D2C000CEE08FF088C149D0441
:103F3000AE04BF040CF45DC180917403813009F0BC
:103F400038C1809171038F5F80937103CE01019618
:103F50000E94880B86E0FE013196A9E6B4E001904C
:103F60000D928A95E1F780917B04816080937B04B8
:103F70000E94AD0460937A0370937B0380937C036B
:103F800090937D0383E294E00E94D00960917103D5
:103F9000CE0101960E94C313CE0101960E94EB143C
:103FA000CE0101960E949D0D8DE194E00E94FD09D5
:103FB00080917B0484FF0EC080FD0CC0909174033F
:103FC000933009F0F4C18F7E80937B0482E895E002
:103FD0000E94FD0980917B0481FF6DC08091750373
:103FE000853009F068C0CE010C960E94880BCE0186
:103FF0000C960E940E076B017C0189E694E00E94FA
:104000000E07C61AD70AE80AF90A2091160130915C
:1040100017014CE3429FC001439F900D1124209152
:10402000720330917303820F931F092E000CAA0BA9
:10403000BB0BC816D906EA06FB06ECF180917403A7
:10404000813009F0D5C1809171038F5F8093710336
:10405000CE0101960E94880B86E0FE013196A9E60A
:10406000B4E001900D928A95E1F780917B048F77FF
:10407000816080937B040E94AD0460937A03709307
:104080007B0380937C0390937D0386E595E00E94FB
:10409000D00960917103CE0101960E94C313CE0135
:1040A00001960E94EB14CE0101960E949D0D8CE4B6
:1040B00095E00E94FD099FE6C92E94E0D92E49E5BE
:1040C00053E05BA74AA768E471E07DA76CA710E006
:1040D000ACA5BDA52D91BDA7ACA730E0F901EB5E65
:1040E000F94F8491F901EA50FA4FE490F901E9524D
:1040F000FA4FF490FF2009F496C181110E949C03AD
:10410000EF2DF0E0EE0FFF1FEA5AFB4FA591B4919F
:10411000EC91EE2291E080E009F490E0E92EF82E97
:10412000F60181916F018E151F0439F0AAA5BBA578
:104130004D925D926D927C921397EAA5FBA58191B9
:104140009191A191B191FBA7EAA7A3019201281B2C
:10415000390B4A0B5B0BDA01C901C397A105B10505
:1041600008F4A3C2D60115968C918E151F0409F48C
:104170009CC281E0E114F10409F480E0F60185833A
:10418000E114F10409F091C20E94130AE091750351
:10419000E93008F08AC2F0E0E053FF4D0C940229A8
:1041A00016227924DD24D625E826B827CF27E22752
:1041B0001D2780917B048D7F8460816080937B04C8
:1041C0000E94AD0460937A0370937B0380937C0319
:1041D00090937D0386E08093750380917B048F77B5
:1041E00080937B0482E194E00E94FD090E94580DB7
:1041F000DFCE80917B0487FD31C00E942E0D80911F
:10420000740365E074E0882311F066EF73E08DE7D6
:1042100094E00E947E0580917403813031F4809196
:10422000710390E001960E94740E61E080E00E94AC
:104230003B0D67EE73E08DE794E00E947E0563E03E
:1042400080E00E943B0D66ED73E08DE794E00E94F4
:104250007E0580917B04806880937B04C818D90810
:10426000EA08FB08F7FE03C0C12CD12C760162E0FE
:1042700080E00E943B0D61ED73E08DE794E00E94C9
:104280007E05C701B6012CE330E040E050E00E941B
:10429000E32869014FEF5FEFC6010E9487116CECC4
:1042A00073E08DE794E00E947E0580917403813075
:1042B00009F07ECE60E08EE00E943B0D809171039C
:1042C00090E001960E94740E73CECE0101960E947A
:1042D000880B80917C0480FD1DC00E942E0D809172
:1042E000740368E474E0823011F06BE374E08DE7EE
:1042F00094E00E947E0563E080E00E943B0D6AE24C
:1043000074E08DE794E00E947E0580917C048160DA
:1043100080937C0461E080E00E943B0D87E792E09F
:104320000E94B40D80917403823091F44091080191
:104330005091090160910A0170910B0180910C016B
:1043400090910D010E94F50E81E692E00E94B40D5D
:1043500060914F037091500350E040E0809106015E
:10436000909107010E94871162E080E00E943B0D5E
:1043700083E692E00E94B40D80917403823071F460
:10438000498150E04053584F6A8170E08B8190E042
:104390000E94F50E81E692E00E94B40D4E8150E03D
:1043A0006D8170E08C8190E00E94871101CE809138
:1043B0007A0390917B03A0917C03B0917D03A301CC
:1043C0009201281B390B4A0B5B0BDA01C901803AB9
:1043D0009F40A105B10508F4FDCD81E695E00E945E
:1043E000FD090E94030A0E942E0D0E94C711F2CD02
:1043F00080917B048D7F8460816080937B040E9428
:10440000AD0460937A0370937B0380937C03909355
:104410007D0386E08093750387E395E00E94FD09A4
:104420000E94580D48CEF12CE12C7ACE123009F4BE
:104430004EC2143009F455C2111137C1E0914D0339
:10444000E73008F032C1F0E0E85DFD4D0C94022940
:104450002F223F225422002432243A245F248091C8
:10446000740390E0019683709927809374030E94EF
:104470007D1480917C048D7F80937C0484C0809126
:1044800074038250823040F482E08093750310926E
:1044900051030E94191009C181E0809375031092A5
:1044A0004E030E94351101C1809174038250823005
:1044B00008F04DC1CE0184960E94880B8091740350
:1044C000823009F003C120914F03309106014091E1
:1044D0000C0150910A018091080190910901803DE1
:1044E000F7E09F0710F0805D97408E8F5F8F48A3A5
:1044F00039A32AA31BA2CE014E960E940E074B01A0
:104500005C01CE0184960E940E07681579058A0524
:104510009B05E0F10E942E0D68E075E08DE794E0C8
:104520000E947E0561E080E00E943B0D66EF74E032
:104530008DE794E00E947E0562E080E00E943B0DE2
:1045400065EE74E08DE794E00E947E0563E080E014
:104550000E943B0D65ED74E08DE794E00E947E05BE
:1045600087EB94E00E94FD0968EB7BE080E090E03F
:104570000E946C041092750380917C048D7F80935F
:104580007C040E942E0D0E94C7118FC082EA94E025
:104590000E94D0096091080170910901CE01019635
:1045A0000E94971360910A0170910B01CE010C9645
:1045B0000E94971360910C0170910D01CE014896F5
:1045C0000E949713BE01685E7F4FCE0142960E9403
:1045D000F01366EC71E0CE0142960E944313BE01D7
:1045E000645F7F4F0E94591366EC71E00E94431391
:1045F000BE016F5F7F4F0E9459130E94EB14CE01E2
:1046000042960E949D0DCE0148960E949D0DCE01BE
:104610000C960E949D0DCE0101960E949D0D8DE984
:1046200094E00E94D00960914F0370915003CE0135
:1046300001960E9497136091060170910701CE01C7
:1046400042960E949713BE016E5E7F4FCE010C967C
:104650000E94F01368E772E0CE010C960E944313AB
:10466000BE016F5F7F4F0E9459130E94EB1486E8D2
:1046700094E00E94D009CE010C960E949D0DCE01BF
:1046800042960E949D0DCE0101960E949D0D809143
:104690007B0488608F7E80937B0480917C048E7F76
:1046A00080937C0487E080937503F60131978E2D0B
:1046B000817080831F5F163009F00ACD80E090E0A2
:1046C000892B09F4A9C90E940000A6C988E894E0D2
:1046D0000E94D00960914F0370915003CE01019662
:1046E0000E9497136091060170910701CE014296D6
:1046F0000E949713BE016E5E7F4FCE010C960E9402
:10470000F01368E772E0CE010C960E944313BE01DD
:104710006F5F7F4F0E9459130E94EB1486E894E06C
:104720000E94D009CE010C960E949D0DCE014296AA
:104730000E949D0DCE0101960E949D0D109248038E
:104740008EA190E09093050180930401A0CFCE014B
:1047500001960E94880B86E0FE013196A9E6B4E03E
:1047600001900D928A95E1F780917B0482608B7FA6
:104770008F7780937B041092710385E0809375039B
:1047800084E794E00E94D0096091720370917303F2
:10479000CE0101960E949713609116017091170146
:1047A000CE0142960E949713BE016E5E7F4FCE01EE
:1047B0000C960E94F01368E772E0CE010C960E94FE
:1047C0004313BE016F5F7F4F0E9459130E94EB1489
:1047D000CE010C960E949D0DCE0142960E949D0D29
:1047E000CE0101960E949D0D80917403811105C038
:1047F0008CE694E00E94FD0958CF84E694E0FACF5D
:10480000CE0101960E94880B898190E08053984FD9
:1048100090930F0180930E018A8190E09093110193
:10482000809310018B8190E090931301809312018B
:104830008C8190E090931501809314018D8190E01C
:1048400090935403809353038E8190E0909356038A
:104850008093550383E080937503109252030E9466
:10486000390F23CF1092570384E0809375030E9481
:10487000080E1BCF80917B0485FB992790F921E0DE
:10488000922790FB85F9A9F0806480937B042093A4
:104890008A0468E08DE794E00E94C0080E94AD049D
:1048A0006093490370934A0380934B0390934C03A6
:1048B000DECD8F7B80937B040E94D808EFCF88E009
:1048C00080937503109258030E94BE0DEECE809126
:1048D0004D03882321F0815080934D03CACD86E09B
:1048E000FBCF80914D03863011F08F5FF5CF80E0D4
:1048F000F3CF0E94130A1330D1F138F4113081F054
:10490000123089F00E947D1435CE1430C1F115307B
:10491000C9F780914E03882309F44DC081502CC003
:104920000E948C1527CE80914E03811110C080917A
:104930001601909117018336910534F401969093F6
:10494000170180931601ADCD90E080E0F8CF809103
:104950007203909173038B33910534F40196909315
:104960007303809372039DCD90E080E0F8CF81E0E7
:1049700090914E03911180E080934E0392CD8091EF
:104980004E0381110CC080911601909117011816E9
:10499000190614F40197D3CF83E690E0D0CF80912D
:1049A0007203909173031816190614F40197D7CF68
:1049B0008BE390E0D4CF81E0DFCF0E94130A133065
:1049C00009F485C018F5113009F4AACF123009F0A6
:1049D00099CF9091740380915103923009F05FC098
:1049E000823009F44BC020F58823A9F1813009F009
:1049F00050CD80910A0190910B018C309105DCF52E
:104A0000019690930B0180930A0143CD143009F471
:104A100072C0153009F076CF9091740380915103E4
:104A2000923009F0BFC0882309F4BAC0815058C041
:104A30008330D1F1843009F02CCD80914F039091D7
:104A400050038B3391050CF03FC0019690935003B7
:104A500080934F031ECD80910C0190910D018F31F9
:104A6000910534F4019690930D0180930C0111CDC2
:104A700081E090E0F8CF81E090E0C3CF8091080121
:104A8000909109018E3E27E0920734F401969093AD
:104A9000090180930801FDCC89EE97E0F8CF8823C7
:104AA00019F0813051F2F5CC809106019091070107
:104AB0008731910534F401969093070180930601A4
:104AC000E8CC90E080E0F8CF90E080E0BFCF90911C
:104AD000740380915103923041F4843020F48F5F4D
:104AE00080935103D6CC80E0FBCF91E0811190E020
:104AF00090935103CECC90917403809151039230E6
:104B0000D9F5823061F170F48823D1F0813009F059
:104B1000C0CC80910A0190910B0182309105E4F0A4
:104B200001976FCF833069F1843009F0B2CC809166
:104B30004F0390915003181619067CF5019786CF04
:104B400080910C0190910D018230910514F0019734
:104B50008ACF8FE190E087CF8CE090E052CF8091B8
:104B60000801909109018A3E37E0930714F00197FC
:104B70008ECF8EEE97E08BCF882319F08130B9F27B
:104B800088CC80910601909107011816190614F43B
:104B9000019792CF87E190E08FCF8BE390E056CFE3
:104BA00084E09ECF811142CF81E09ACF0E94130A08
:104BB000133009F4A8C040F5113009F4DBCC1230F1
:104BC00079F1209155033091530340911401509194
:104BD00012016091100180910E0190910F01803DB2
:104BE00077E0970710F0805D974089836A835B8345
:104BF0004C833D832E83CE0101960E94450C86E1B5
:104C000095E00E94FD09B6CC143009F486C0153039
:104C1000C1F680915203882309F4D8C0815078C02E
:104C2000809152038230D9F190F4882329F18130A8
:104C300009F015CE80911001909111018C309105F1
:104C40005CF50196909311018093100108CE843099
:104C500009F446C0A8F1853009F001CE80915503D2
:104C6000909156038B3391050CF04AC001969093B6
:104C7000560380935503F3CD809112019091130157
:104C80008F31910534F401969093130180931201B2
:104C9000E6CD81E090E0F8CF81E090E0D3CF809145
:104CA0000E0190910F018E3EA7E09A0734F4019611
:104CB00090930F0180930E01D2CD89EE97E0F8CF4B
:104CC00080911401909115018731910534F401967A
:104CD0009093150180931401C2CD90E080E0F8CF4D
:104CE00080915303909154038B33910534F40196D2
:104CF0009093540380935303B2CD90E080E0F8CFBB
:104D000090E080E0B4CF80915203853020F48F5F33
:104D100080935203A4CD80E0FBCF80915203823078
:104D200069F170F48823D9F0813009F098CD809131
:104D300010019091110182309105ECF0019782CF22
:104D40008430A9F140F1853009F089CD8091550377
:104D50009091560318161906B4F5019788CF8091E3
:104D60001201909113018230910514F001978CCFBC
:104D70008FE190E089CF8CE090E064CF80910E01CC
:104D800090910F018A3EB7E09B0714F0019790CFF6
:104D90008EEE97E08DCF8091140190911501181639
:104DA000190614F4019794CF87E190E091CF809198
:104DB0005303909154031816190614F4019798CFD1
:104DC0008BE390E095CF8BE390E051CF85E0A0CFCF
:104DD0000E94130A2EA53FA548A959A929833A8301
:104DE0004B835C83113009F48DCD58F01230C9F03B
:104DF000143009F05ACC809157038330E1F08F5F73
:104E000015C0E091570341E050E04C0F5D1F4E0F7D
:104E1000511DFA0180911801908189278093180112
:104E200026CD80915703882321F08150809357032A
:104E30001ECD83E0FBCF80E0F9CF0E94130A113032
:104E400009F498CB68F0123009F486C0143009F0E8
:104E50002CCC80915803833009F488C08F5F81C0C7
:104E600080915803813009F440C080F1823009F408
:104E700049C0833009F028CD82E2809380008AE126
:104E8000809381003092870020928600A0E6B9E0EE
:104E9000B0938B00A0938A0068EE73E080E090E00E
:104EA0000E946C04E8EBFBE0F0938B00E0938A0037
:104EB00064E670E080E090E00E946C0480918000E5
:104EC0008F7D8093800060E08AE00CC061E08CE020
:104ED0000E94E80368EE73E080E090E00E946C04BA
:104EE00060E08CE00E94E803EFCC61E086E00E9485
:104EF000E80368EE73E080E090E00E946C0460E0FC
:104F000086E0F0CF82E8809380008AE18093810080
:104F1000309287002092860060E679E070938900E5
:104F20006093880068EE73E080E090E00E946C047B
:104F300088EB9BE0909389008093880064E670E0A2
:104F400080E090E00E946C04809180008F778093D5
:104F5000800060E089E0C6CF80915803882321F06B
:104F6000815080935803B0CC83E0FBCF80E0F9CF31
:104F7000113009F09ACB80917B04887F8F778093E2
:104F80007B04109271031092750380917C048D7FD5
:104F900080937C0488E295E00E94FD09F4CA1130F8
:104FA00009F083CB80917B048E7F80937B040E94E9
:104FB0008D0980917B048B7F8F7780937B04109287
:104FC000750357CA113009F070CB0E94030ADBCA7F
:104FD000FB01DC0102C005900D9241505040D8F712
:104FE0000895BB274A3031F4992322F4BDE290950D
:104FF00081959F4F0C94FD27BB27FB015527AA27BE
:10500000880F991FAA1FA41710F0A41B8395505155
:10501000B9F7A05DAA3308F0A95DA193009779F7CD
:10502000B111B1931192CB010C941628DC01FC0153
:10503000672F71917723E1F7329704C07C916D93CC
:1050400070836291AE17BF07C8F30895F999FECF38
:1050500092BD81BDF89A992780B50895262FF999B8
:10506000FECF1FBA92BD81BD20BD0FB6F894FA9A4B
:10507000F99A0FBE019608950E947E28A59F900D73
:10508000B49F900DA49F800D911D112408952F921F
:105090003F924F925F926F927F928F929F92AF92C8
:1050A000BF92CF92DF92EF92FF920F931F93CF9315
:1050B000DF93CDB7DEB7CA1BDB0B0FB6F894DEBFAC
:1050C0000FBECDBF09942A88398848885F846E84D2
:1050D0007D848C849B84AA84B984C884DF80EE801C
:1050E000FD800C811B81AA81B981CE0FD11D0FB625
:1050F000F894DEBF0FBECDBFED010895A29FB001B1
:10510000B39FC001A39F700D811D1124911DB29FFB
:10511000700D811D1124911D0895991B79E004C023
:10512000991F961708F0961B881F7A95C9F78095E6
:105130000895AA1BBB1B51E107C0AA1FBB1FA617DE
:10514000B70710F0A61BB70B881F991F5A95A9F730
:1051500080959095BC01CD01089597FB072E16F41C
:10516000009407D077FD09D00E94992807FC05D04C
:105170003EF4909581959F4F0895709561957F4F6E
:105180000895A1E21A2EAA1BBB1BFD010DC0AA1F88
:10519000BB1FEE1FFF1FA217B307E407F50720F0A0
:1051A000A21BB30BE40BF50B661F771F881F991F1B
:1051B0001A9469F760957095809590959B01AC0164
:1051C000BD01CF010895052E97FB1EF400940E94A7
:1051D000FA2857FD07D00E94C12807FC03D04EF4DF
:1051E0000C94FA2850954095309521953F4F4F4F9C
:1051F0005F4F089590958095709561957F4F8F4F83
:105200009F4F0895EE0FFF1F0590F491E02D099434
:105210000F931F93CF93DF938230910510F482E0B8
:1052200090E0E0918D04F0918E0430E020E0B0E059
:10523000A0E0309799F42115310509F44AC0281BE4
:10524000390B24303105D8F58A819B8161157105B0
:1052500089F1FB0193838283FE0111C0408151815A
:105260000281138148175907E0F04817590799F44C
:10527000109761F012960C93129713961C93329626
:10528000CF01DF91CF911F910F91089500938D046D
:1052900010938E04F4CF2115310551F042175307B6
:1052A00038F0A901DB019A01BD01DF01F801C1CF8E
:1052B000EF01F9CF90938E0480938D04CDCFFE0142
:1052C000E20FF31F81939193225031093983288390
:1052D000D7CF20918B0430918C04232B41F4209163
:1052E00023013091240130938C0420938B0420916E
:1052F0002101309122012115310541F42DB73EB72E
:105300004091250150912601241B350BE0918B041F
:10531000F0918C04E217F307A0F42E1B3F0B281723
:10532000390778F0AC014E5F5F4F2417350748F01E
:105330004E0F5F1F50938C0440938B048193919385
:105340009FCFF0E0E0E09CCFCF93DF930097E9F0B0
:10535000FC01329713821282A0918D04B0918E04C9
:10536000ED0130E020E01097A1F420813181820F1F
:10537000931F20918B0430918C042817390709F072
:1053800061C0F0938C04E0938B04DF91CF9108957A
:10539000EA01CE17DF07E8F54A815B819E014115DE
:1053A0005105B1F7E901FB83EA8349915991C40F93
:1053B000D51FEC17FD0761F4808191810296840F5F
:1053C000951FE90199838883828193819B838A83D6
:1053D000F0E0E0E012968D919C9113970097B9F55B
:1053E0002D913C911197CD010296820F931F209130
:1053F0008B0430918C042817390739F6309751F512
:1054000010928E0410928D04B0938C04A0938B04A0
:10541000BCCFD383C28340815181840F951FC817AD
:10542000D90761F44E5F5F4F88819981480F591FFA
:10543000518340838A819B81938382832115310527
:1054400009F0B0CFF0938E04E0938D049ECFFD0160
:10545000DC01C0CF13821282D7CFB0E0A0E0E3E33B
:10546000FAE20C9449288C01009751F4CB010E9478
:1054700008298C01C801CDB7DEB7E0E10C9465289E
:10548000FC01E60FF71F9C0122503109E217F307D8
:1054900008F49DC0D901CD91DC911197C617D707AB
:1054A00098F0C530D10530F3CE01049786179707E1
:1054B00008F3C61BD70B2297C193D1936D937C93AE
:1054C000CF010E94A429D6CF5B01AC1ABD0A4C01C2
:1054D0008C0E9D1EA0918D04B0918E04512C412CF8
:1054E000F12CE12C109731F580918B0490918C0474
:1054F0008815990509F05CC04616570608F058C093
:105500008091210190912201009741F48DB79EB7BF
:105510004091250150912601841B950BE817F9074E
:1055200008F055C0F0938C04E0938B04F90171836B
:105530006083A0CF8D919C91119712966C901297D9
:1055400013967C901397A815B90559F56C0142E0A4
:10555000C40ED11CCA14DB0420F1AC014A195B094A
:10556000DA011296159780F062827382518340832C
:10557000D9016D937C93E114F10471F0D701139676
:10558000FC93EE93129776CF22968C0F9D1FF90114
:1055900091838083F301EFCFF0938E04E0938D0429
:1055A00069CF4816590608F42C017D01D3019ACF22
:1055B000CB010E9408297C01009749F0AE01B80197
:1055C0000E94EA2AC8010E94A429870153CF10E053
:1055D00000E050CFFB01DC0102C001900D92415070
:1055E0005040D8F70895FB01DC0101900D92002096
:1055F000E1F70895FB01DC014150504048F0019073
:105600000D920020C9F701C01D9241505040E0F7B3
:105610000895F894FFCFFFFFFFFFFFFF0C00E9079D
:1056200006000F00E90706000F000C00050001004E
:10563000E100000000000000008F0480008401945D
:1056400001A401B4010102040866026D02D101FE49
:105650000101010101010100C18081000000171654
:105660001514131200401454000000005406CF0516
:1056700075066A06BB0679069706000000005B09FE
:105680002E098A09040927091409050900000000E8
:105690007E0DA2058A0952073E0052656C6169734E
:1056A0002031205044364431320052656C616973B8
:1056B00020322050443744362000536572766F20E4
:1056C00031202050423544392000536572766F20D6
:1056D00032202050423644313000A5002F003C00DB
:1056E0005265676C657220416C61726D6500526530
:1056F000676C65722054656D7073005374617274C9
:1057000000537461727420416C61726D6500537452
:10571000617274204461696C79003E20004F4E0034
:105720004F4646004D6F64653A20005265676C65D0
:105730007220486575726500536F727469653A200E
:1057400000526574726F3A200054657374204F756F
:105750007470757400202800290052310052320004
:105760005331005332002A00202020202020202006
:10577000202020202020202000543A0053696D7002
:105780006C6500526570656174000D0A00433A0053
:10579000FFFFFFFFFFFFFFFFFFFFFFFFFFFFFFFF19
:1057A000FFFFFFFFFFFFFFFFFFFFFFFFFFFFFFFF09
:1057B000FFFFFFFFFFFFFFFFFFFFFFFFFFFFFFFFF9
:1057C000FFFFFFFFFFFFFFFFFFFFFFFFFFFFFFFFE9
:1057D000FFFFFFFFFFFFFFFFFFFFFFFFFFFFFFFFD9
:1057E000FFFFFFFFFFFFFFFFFFFFFFFFFFFFFFFFC9
:1057F000FFFFFFFFFFFFFFFFFFFFFFFFFFFFFFFFB9
:1058000090E087CF8CE090E052CF80911001909192
:1058100011018A3E37E0930714F001978ECF8EEE88
:1058200097E08BCF882319F08130B9F27FCB80913C
:105830000E0190910F011816190614F4019792CFDA
:1058400087E190E08FCF8BE390E056CF84E09ECF4E
:10585000811142CF81E09ACF0E941C0C133009F4D1
:10586000A8C040F5113009F4DBCB123079F120915A
:105870003B033091390340911C0150911A01609112
:1058800018018091160190911701803D77E09707EC
:1058900010F0805D974089836A835B834C833D83EE
:1058A0002E83CE0101960E944E0E8EE297E00E945A
:1058B000060CB6CB143009F486C01530C1F68091C1
:1058C0003803882309F4D8C0815078C08091380308
:1058D0008230D9F190F4882329F1813009F024CD68
:1058E00080911801909119018C3091055CF5019619
:1058F000909319018093180117CD843009F446C0A4
:10590000A8F1853009F010CD80913B0390913C03C4
:105910008B3391050CF04AC0019690933C03809321
:105920003B0302CD80911A0190911B018F319105AB
:1059300034F4019690931B0180931A01F5CC81E019
:1059400090E0F8CF81E090E0D3CF80911601909164
:1059500017018E3EA7E09A0734F401969093170141
:1059600080931601E1CC89EE97E0F8CF80911C017D
:1059700090911D018731910534F4019690931D019A
:1059800080931C01D1CC90E080E0F8CF8091390366
:1059900090913A038B33910534F4019690933A0336
:1059A00080933903C1CC90E080E0F8CF90E080E0B4
:1059B000B4CF80913803853020F48F5F8093380313
:1059C000B3CC80E0FBCF80913803823069F170F472
:1059D0008823D9F0813009F0A7CC809118019091EB
:1059E000190182309105ECF0019782CF8430A9F142
:1059F00040F1853009F098CC80913B0390913C03B5
:105A000018161906B4F5019788CF80911A01909164
:105A10001B018230910514F001978CCF8FE190E04B
:105A200089CF8CE090E064CF8091160190911701AE
:105A30008A3EB7E09B0714F0019790CF8EEE97E077
:105A40008DCF80911C0190911D011816190614F438
:105A5000019794CF87E190E091CF809139039091A5
:105A60003A031816190614F4019798CF8BE390E0C7
:105A700095CF8BE390E051CF85E0A0CF113009F0B6
:105A800002CA80918704887F8F7780938704109261
:105A9000610310926503809188048D7F8093880450
:105AA00080E497E00E94060C0E940F13ECC91130AD
:105AB00009F0E9C9809187048E7F8093870460E0B4
:105AC00088E00E944905809187048B7F8F778093BF
:105AD00087041092650319CA113009F0D4C90E94D5
