:100000000C94C7000C94EF000C94EF000C94EF00DC
:100010000C94EF000C94EF000C94EF000C94EF00A4
:100020000C94EF000C94EF000C94A0060C940F07B6
:100030000C94EF000C94EF000C94EF000C94EF0084
:100040000C94EF000C94EF000C94EF000C94EF0074
:100050000C94EF000C94EF000C94EF000C94410909
:100060000C94EF000C94EF000C94EF000C94EF0054
:100070000C94EF000C94EF000C94EF000C94EF0044
:100080000C94EF000C94EF000C94EF000C94EF0034
:100090000C948B090C94EF000C94EF000C94EF007F
:1000A0000C94EF000C94EF000C94EF0000000000A3
:1000B000250028002B002E00310004040404040352
:1000C00004050202020204030202020206060606F8
:1000D000060604040202020404040802011040801F
:1000E000401020408040800802040180402010021F
:1000F00001108010204040200000000200090F0085
:1001000000030401000C00000000000000000000DB
:1001100000000000000000080B00020202000009BD
:100120000400000102020000052400100105240162
:1001300001010424020605240600010705810310BD
:10014000004009040100020A000000070502024005
:1001500000000705830240000004030904120100A7
:1001600002EF0201404123368000010102030141F8
:10017000726475696E6F204C4C43004172647569FE
:100180006E6F204C656F6E6172646F00AA0A112455
:100190001FBECFEFDAE0DEBFCDBF11E0A0E0B1E0DF
:1001A000EEE5F8E102C005900D92A238B107D9F74B
:1001B00022E0A2E8B1E001C01D92A53CB207E1F740
:1001C00010E0C7ECD0E004C02197FE010E94270C8C
:1001D000C63CD107C9F70E94E50A0C942D0C0C947B
:1001E0000000FC0180915A02882311F13FB7F89476
:1001F00082E08093E9002091F200822F90E01816AF
:10020000190614F481E090E0882339F0289844E638
:10021000409359024091F1004083222339F020910C
:10022000F200211103C02BE62093E8003FBF0895A0
:100230008FEF9FEF08952FB7F89483E08093E90044
:100240009091E800892F807295FF04C09091F20090
:1002500080E4891B2FBF08958091510281110DC048
:1002600082E080934D0284E080934E02109250020F
:1002700010924F0281E0809351028DE492E0089544
:10028000CF93DF931F92CDB7DEB76983DC01ED9189
:10029000FC910280F381E02D41E050E0BE016F5FF0
:1002A0007F4F09950F90DF91CF91089583E0809360
:1002B000E9008091F200882319F08AE38093E80036
:1002C00008950E941B0190E00895CF93DF931F9241
:1002D000CDB7DEB7FC018485958597FD08C02FEF6B
:1002E0003FEF358724870F90DF91CF910895CE019E
:1002F00001960E94F100019719F4898190E0F3CFF3
:100300008FEF9FEFF0CF0F931F93CF93DF931F9249
:10031000CDB7DEB78C01FC018485958597FF0BC0B6
:10032000CE0101960E94F100019771F4898190E05D
:10033000F80195878487F801848595850F90DF9172
:10034000CF911F910F9108958FEF9FEFF1CFFC0197
:100350008485958597FD0BC09FB7F89482E08093C4
:10036000E9008091F2009FBF90E0019608959FB749
:10037000F89482E08093E9008091F2009FBF90E0C2
:1003800008954091470250914802209145023091D2
:10039000460242175307B4F49091E8009570E1F3D8
:1003A0009091E80092FD19C08093F100809147027E
:1003B0009091480201968F739927892B19F48EEF3B
:1003C0008093E800809147029091480201969093B3
:1003D00048028093470281E0089580E00895EF92FB
:1003E000FF920F931F93CF93DF93F82E192FE62ED2
:1003F000042F81E0860F880F0E94C10183E00E94D4
:10040000C101CF2DD12FEC0EFD2EF11CCE15DF0535
:10041000B9F007FF13C0FE0184910E94C101182F9B
:1004200080E00E94C101812321968111EFCFDF91ED
:10043000CF911F910F91FF90EF9008958881EDCF9C
:1004400081E0F5CFDF92EF92FF920F931F93CF934E
:10045000DF93D82E8A01EB017B01E40EF51ECE1549
:10046000DF0559F0D7FE12C0FE0184910E94C10140
:1004700021968111F4CF0FEF1FEFC801DF91CF91CB
:100480001F910F91FF90EF90DF9008958881EECF3C
:100490000F931F93CF93DF931F92CDB7DEB782E008
:1004A000898342E450E067E171E080E80E94220223
:1004B0000E942C01DC0112960D911C910115110571
:1004C00089F0D801ED91FC910280F381E02DBE010D
:1004D0006F5F7F4FC801099597FD04C0F801008543
:1004E0001185ECCF89810F90DF91CF911F910F91F2
:1004F0000895615030F02091F100FC0120830196B5
:10050000F8CF289884E6809359020895282F30E088
:10051000F901E850FF4F9491F901E752FF4F8491A0
:1005200026543F4FF9012491222309F430C0992326
:10053000E9F091509F30D0F4E92FF0E0EE55FD4FF7
:100540000C94270CD002D402B102C802CC02B6022D
:10055000B602B602D702DD02E102E502EB02B60204
:10056000EF02909180009F7790938000E22FF0E05F
:10057000EE0FFF1FE455FF4FA591B4919FB7F8947C
:10058000EC91611132C080958E238C939FBF0895AA
:10059000909180009F7DE8CF90918000977FE4CF7D
:1005A00094B59F7794BDE2CF94B59F7DFBCF90919A
:1005B00090009F7790939000D9CF909190009F7D6D
:1005C000F9CF90919000977FF5CF9091C0009F77E1
:1005D0009093C000CBCF9091C0009F7DF9CF9091B8
:1005E000C200977F9093C200C1CF8E2BCECF3FB772
:1005F000F8948091410290914202A0914302B091FF
:10060000440226B5A89B05C02F3F19F00196A11DF5
:10061000B11D3FBFBA2FA92F982F8827BC01CD014C
:10062000620F711D811D911D42E0660F771F881FAB
:10063000991F4A95D1F708958F929F92AF92BF92DA
:10064000CF92DF92EF92FF924B015C010E94F70282
:100650006B017C010E94F7026C197D098E099F09CC
:10066000683E734081059105A8F321E0821A910844
:10067000A108B10888EEC80E83E0D81EE11CF11C69
:1006800081149104A104B10429F7FF90EF90DF9049
:10069000CF90BF90AF909F908F9008958F929F9230
:1006A000AF92BF92CF92DF92EF92FF920F931F9380
:1006B000CF93DF936C017B018A0180910B0188232A
:1006C00009F45CC080915A02882309F457C08091D4
:1006D0004C0280FF05C08091E00082608093E000C2
:1006E000E801B12C8AEFA82E93E0892E2AE3922EFE
:1006F000209711F4BB20D9F10E941B0181110AC07F
:10070000AA94AA20D9F161E070E080E090E00E9414
:100710001C03EECF8C171D0611F00CF08C2F9FB729
:10072000F8948092E9002091E80025FD02C09FBF67
:10073000DFCF282F30E0C21BD30BF701815020F010
:1007400041914093F100FACFE20EF31EBB2021F05D
:100750009092E800B12CEBCF8091E80085FDE7CFC7
:100760009092E800BB24B394209709F3F3CF5D98EF
:1007700084E680934B02101611063CF081E090E075
:10078000F6019383828310E000E0C801DF91CF91EE
:100790001F910F91FF90EF90DF90CF90BF90AF909F
:1007A0009F908F90089508950895AF92BF92CF9231
:1007B000DF92EF92FF920F931F93CF93DF936C0121
:1007C0007B018B01040F151FEB015E01AE18BF0802
:1007D000C017D10759F06991D601ED91FC910190B4
:1007E000F081E02DC6010995892B79F7C501DF91CC
:1007F000CF911F910F91FF90EF90DF90CF90BF901E
:10080000AF90089508952091C301260F3327331F19
:1008100021323105ECF420910C02FC0190E080E0E3
:10082000243069F082E00895A091C3012191AC01C8
:100830004D555E4FA40FB52FB11D2C930196861711
:1008400098F38091C301680F6093C30180E008951D
:1008500081E0089510920C0281E080930B021092C7
:10086000E60161E082E00E94860261E083E00E948E
:100870008602E9EBF0E080818E7F808380818D7F2E
:10088000808388E48093B80085E48093BC00089559
:10089000CF93DF9391E09093A2018823B9F0C091A8
:1008A000B800D091BA008091BC008A7B8093BC00D4
:1008B00060E082E00E94860260E083E00E9486029F
:1008C0000E942A04D093BA00C093B800DF91CF9160
:1008D0000895CF92DF92EF92FF920F931F93CF93E1
:1008E000DF93FC01A481B581868191E0909312028F
:1008F000809333021092390210923802ED91FC91EC
:1009000011970190F081E02DCD010995D091380229
:10091000D13208F094C0C09133020E94F7026B01FB
:100920007C0180910C02811165C082E080930C02F1
:1009300081E080930B028FEF80930A0210920902EC
:10094000D0930802A3E1B2E0E8EEF1E080E0D81332
:1009500085C01092E7018091E701CC0FC82BC093AE
:10096000E7018091E601813009F07CC01092E60138
:100970000E94F7026B017C018091E7018093BB002C
:1009800080910E0290910F02A0911002B09111027D
:10099000892B8A2B8B2B99F00E94F70200910E0273
:1009A00010910F0220911002309111026C197D09F3
:1009B0008E099F090617170728073907E0F180916C
:1009C000BC0083FDD9CF85EC8093BC000E94F70268
:1009D0006B017C0180910C02823009F445C080914A
:1009E0000A028F3F61F180910A02803241F18091C9
:1009F0000A0225C080910E0290910F02A091100270
:100A0000B0911102892B8A2B8B2B09F48ACF0E947B
:100A1000F70200910E0210910F0220911002309106
:100A200011026C197D098E099F09061717072807FF
:100A3000390708F076CF80910D020E944804109289
:100A400039021092380210921202DF91CF911F9159
:100A50000F91FF90EF90DF90CF9008959D9191932B
:100A60008F5F75CF85EEB0CF80910E0290910F020F
:100A7000A0911002B0911102892B8A2B8B2B09F4C3
:100A8000A9CF0E94F70200910E0210910F0220914F
:100A90001002309111026C197D098E099F09061709
:100AA00017072807390708F095CFC5CF0895E091BB
:100AB0003B0280913A02E81730F4F0E0EE57FE4F27
:100AC000808190E008958FEF9FEF089590913B0211
:100AD00080913A022FEF3FEF981748F4E92FF0E0AA
:100AE000EE57FE4F208130E09F5F90933B02C9019B
:100AF000089580913A0290913B02891B990B0895C9
:100B0000CF92DF92EF92FF920F931F93CF93DF93D9
:100B10007C01CB018A0120911202222389F0EB0192
:100B20006B01C40ED51ECC15DD0569F06991D701A6
:100B3000ED91FC910190F081E02DC7010995F3CF73
:100B4000642F0E940304C801DF91CF911F910F9180
:100B5000FF90EF90DF90CF900895CF93DF931F9297
:100B6000CDB7DEB76983209112022223F9F02091DC
:100B70003802203258F021E030E0FC013383228338
:100B800090E080E00F90DF91CF910895809139023D
:100B9000E82FF0E0ED5EFD4F998190838F5F8093A9
:100BA00039028093380281E090E0ECCF61E0CE0121
:100BB00001960E940304F7CF90E080E00895FC01C5
:100BC00001900020E9F73197AF01481B590BBC0198
:100BD00087EB92E00C94D5031F93CF93DF93EC0146
:100BE000162F107F8B8584606C85660F682B8D8532
:100BF00028E0829FC0011124682B612BCE010E9446
:100C000069046C85660F8D8528E0829FC0011124E0
:100C1000682B8B85682B612BCE01DF91CF911F91C3
:100C20000C9469040F931F93CF93DF93EC01062F6D
:100C30000E94EC058FE890E00197F1F720E1029F18
:100C4000800111246B85602B862F84606C85660F74
:100C5000682B8D8528E0829FC0011124682BCE016E
:100C60000E9469046B85062B6C85660F602B8D8551
:100C700028E0829FC0011124682BCE01DF91CF9123
:100C80001F910F910C9469041092C2021092C3023A
:100C9000E091BF028E1708F4E82FF0E0ED5EFE4F02
:100CA0006081606887EB92E00E9412068FE890E016
:100CB0000197F1F7089521E0FC01238714860E9433
:100CC00012068FE990E00197F1F781E090E0089536
:100CD00085ED8093BC0080910E0290910F02A0914F
:100CE0001002B09111020796A11DB11D23E0B69527
:100CF000A795979587952A95D1F72091BC0024FD5B
:100D000003C010920C02089540910E0250910F0200
:100D10006091100270911102452B462B472B69F30D
:100D20000097A105B10541F02AE22A95F1F700C02C
:100D30000197A109B109E1CF80910D020C944804FB
:100D40001F920F920FB60F9211248F939F93809151
:100D5000E1009091E100937F9093E10083FF0FC049
:100D60001092E90091E09093EB001092EC0092E376
:100D70009093ED0010925A0298E09093F00082FF59
:100D800022C093E09093E9009091F200992319F02A
:100D90009AE39093E80090914B02992341F090914F
:100DA0004B02915090934B02911101C05D9A90912A
:100DB0005902992341F09091590291509093590210
:100DC000911101C0289A84FF18C08091E2008E7EA4
:100DD00081608093E2008091E1008F7E8093E1004A
:100DE00080914C028E7E806180934C029F918F9106
:100DF0000F900FBE0F901F90189580FFF7CF809136
:100E0000E2008E7E80618093E2008091E1008E7E20
:100E10008093E10080914C028E7E8160E5CF1F922D
:100E20000F920FB60F921124CF92DF92EF92FF92A2
:100E30000F931F932F933F934F935F936F937F93E2
:100E40008F939F93AF93BF93EF93FF93CF93DF93D2
:100E5000CDB7DEB76C97DEBFCDBF1092E9008091B1
:100E6000E80083FF25C068E0CE0145960E94790224
:100E700082EF8093E8008D8987FF39C09091E80068
:100E800090FFFCCF982F907609F034C19E894F894E
:100E9000588D2F89F88C911131C0803861F580917F
:100EA0004A028093F1001092F1008EEF8093E800E7
:100EB0006C960FB6F894DEBF0FBECDBFDF91CF9119
:100EC000FF91EF91BF91AF919F918F917F916F9122
:100ED0005F914F913F912F911F910F91FF90EF9054
:100EE000DF90CF900F900FBE0F901F9018959EEF40
:100EF0009093E800C7CF1092F100D5CF913059F40C
:100F00008111D3CF4130510581F680914A028D7F06
:100F100080934A02CACF933049F48111C6CF413041
:100F2000510519F680914A028260F2CF953041F462
:100F30008091E80080FFFCCF20682093E300B5CFCC
:100F4000963009F0A9C00B8D1C8D22E01092E900AB
:100F50001092480210924702F2122EC010924602DE
:100F6000109245020E9448021F8299E09983FA82FA
:100F700091E09E8390EA98879AEF998720914702A3
:100F800030914802275F3F4F3C832B838D83109223
:100F9000E900109248021092470210934602009313
:100FA000450249E050E0BE016F5F7F4F80E00E9444
:100FB00022020E94480279CF109346020093450214
:100FC0000E942C01DC0112960D911C910115110556
:100FD00009F451C1D801ED91FC910480F581E02D17
:100FE000BE016B5E7F4FC8010995009709F03EC1B5
:100FF000F80100851185EACFF3E0FF120EC08F895A
:10100000882309F440C0823061F440E860E18BE756
:1010100091E00E94EF01811148CF81E28093EB00C3
:1010200047CF813029F440E86BE08FE691E0F1CFC3
:10103000833099F70E942C01DC011296ED90FC9010
:101040008E010F5F1F4F6801E114F10479F0D701A1
:10105000ED91FC910680F781E02DB801C70109955B
:10106000080F111DF701E084F184EECFD8011C9226
:10107000F60101900020E9F73197BF016C197D0955
:1010800040E0C601C6CF69E571E0FB01449150E044
:1010900080E80E94220209CF973009F4BECF983031
:1010A00021F481E08093F10000CF993009F0FDCE6A
:1010B000837009F0B2CFEDE0F1E081E031E096E33A
:1010C0002191222371F08093E9003093EB00DF013E
:1010D00011972C912093EC009093ED008F5F873057
:1010E00079F78EE78093EA001092EA008F89809367
:1010F0005A02DBCE8B8D9C8D1092E9001092480233
:10110000109247029093460280934502898D811187
:1011100092C08E899D89913A49F4813209F07DCF40
:1011200047E050E064E071E080E0B3CF913209F035
:1011300074CF833269F48F89988DB0E0A0E08093FA
:10114000000190930101A0930201B0930301ADCE81
:10115000803269F48091E80082FFFCCF67E084E090
:1011600091E00E9479028BEF8093E8009ECE82325C
:1011700009F09BCE8F8980930B01EEEFFFE78591FD
:1011800094918B3F9C4D51F1E0E0F8E08091040197
:1011900090910501A0910601B0910701803B944018
:1011A000A105B105F1F480910B0180FD1AC0EE3F5D
:1011B0008AE0F80789F587E797E791838083809134
:1011C00060008093490288E19BE00FB6F894A895EF
:1011D000809360000FBE9093600067CEEEEFFAE060
:1011E000D5CF808191818737974709F05ECEA8954A
:1011F00080916000886180936000809149028093B3
:101200006000EE3F2AE0F20789F08091FE0A90919B
:10121000FF0A9183808349CE808191818737980727
:1012200051F29093FF0A8093FE0AC5CF1092FF0AF5
:101230001092FE0A3ACE0E942C01DC0112960D910A
:101240001C910115110509F4E8CED801ED91FC912E
:101250000190F081E02DBE016B5E7F4FC8010995C2
:10126000811123CEF80100851185EBCF18161906E0
:101270000CF41BCED2CEF1E0FF12BECE6DE571E0D4
:1012800004CF1F920F920FB60F9211242F933F930A
:101290008F939F93AF93BF9380913D0290913E02B5
:1012A000A0913F02B091400230913C0223E0230F15
:1012B0002D3758F50196A11DB11D20933C02809356
:1012C0003D0290933E02A0933F02B0934002809172
:1012D000410290914202A0914302B09144020196D2
:1012E000A11DB11D8093410290934202A09343023D
:1012F000B0934402BF91AF919F918F913F912F91F5
:101300000F900FBE0F901F90189526E8230F02969E
:10131000A11DB11DD2CF1F920F920FB60F921124B3
:101320002F933F934F935F936F937F938F939F93ED
:10133000AF93BF93EF93FF938091B900887F80367E
:1013400009F44AC0F0F5883209F4A7C018F58031D5
:1013500009F49BC0B8F4882309F4F9C0883009F473
:1013600094C0FF91EF91BF91AF919F918F917F9129
:101370006F915F914F913F912F910F900FBE0F9002
:101380001F901895883109F488C0803251F78093F6
:101390000A0214C0803409F49DC040F48033B9F3CC
:1013A0008833F9F680930A0285ECB0C0803509F4E1
:1013B00085C0883509F496C0883499F60E9468067D
:1013C000D0CF883909F48CC038F5883729F050F42B
:1013D000883611F0803729F683E080930C02109252
:1013E000E50157C0883809F47BC0803919F080388E
:1013F00009F0B7CF8091E501803208F071C0E0912B
:10140000E50181E08E0F8093E5018091BB00F0E063
:10141000EB53FE4F80833DC0803B39F0E0F4803ACF
:1014200009F479C0883A09F09CCF84E080930C02DB
:101430001092C4011092C301E0913602F09137027C
:1014400009958091C30181110FC081E08093C30190
:101450001092A30109C0803C09F4A6CF883C09F48E
:10146000A3CF883B09F07DCFE091C40181E08E0FCE
:101470008093C401F0E0ED55FE4F80818093BB0066
:101480009091C4018091C30129C08091E7018093AC
:10149000BB0085EC8093BC0064CF909109028091E1
:1014A0000802981758F5E091090281E08E0F8093A9
:1014B0000902F0E0E851FE4F8081E9CFE091090296
:1014C00081E08E0F809309028091BB00F0E0E8512B
:1014D000FE4F808390910902809108029817C8F20C
:1014E00085E8D8CFE091090281E08E0F8093090250
:1014F0008091BB00F0E0E851FE4F808380910B02A9
:1015000081115CCF81E08093E60184EA8093BC0086
:1015100010920C0226CF85EC8093BC0010920C0236
:101520008091E501803230F4E091E501F0E0EB5389
:10153000FE4F10826091E50170E0E0913402F0917D
:10154000350285EC91E009951092E5010ACF1092E1
:101550000A0234CFEBE5F2E01382128248EE53E048
:1015600060E070E044835583668377838BE191E08C
:10157000918380838FEF9FEF95878487ABEAB2E0FA
:1015800013961C921E92129714964D935D936D9331
:101590007C9317978DE291E011969C938E93E7EBE5
:1015A000F2E0138212828FE391E091838083B5830E
:1015B000A48387E286838FE0878383E08087118618
:1015C00012861386148615860895789484B58260F1
:1015D00084BD84B5816084BD85B5826085BD85B5D7
:1015E000816085BD80916E00816080936E00109255
:1015F00081008091810082608093810080918100D0
:101600008160809381008091800081608093800060
:10161000809191008260809391008091910081601F
:1016200080939100809190008160809390008091E0
:10163000C10084608093C1008091C100826080936A
:10164000C1008091C10081608093C1008091C3007E
:1016500081608093C3008091C00082608093C0004D
:101660008091C20081608093C20080917A00846082
:1016700080937A0080917A00826080937A008091D2
:101680007A00816080937A0080917A0080688093EC
:101690007A0010925A0210924A0210924C028091E3
:1016A000D70081608093D70080EA8093D80089B505
:1016B000806189BD89B5826089BD09B400FEFDCF16
:1016C00061E070E080E090E00E941C038091D8000F
:1016D0008F7C80618093D8008091E000807F809330
:1016E000E0008091E1008E7E8093E1008DE08093A8
:1016F000E200559A209A10923B0210923A02109200
:101700003902109238020E942A0483ED93E09093EC
:1017100037028093360284ED93E0909335028093F4
:10172000340260E087EB92E00E94690462E370E0BB
:1017300080E090E00E941C031092C2021092C3024B
:1017400060E387EB92E00E94EC058BE991E401975E
:10175000F1F760E387EB92E00E94EC0583E592E00D
:101760000197F1F760E387EB92E00E94EC05CFE888
:10177000D0E0CE010197F1F760E287EB92E00E94A2
:10178000EC05CE010197F1F768E287EB92E00E9449
:101790001206CE010197F1F71092C2021092C30215
:1017A0006091C002862F84608093C0026C6087EBDA
:1017B00092E00E941206CE010197F1F71092C20248
:1017C0001092C30261E087EB92E00E9412068BEF59
:1017D00098E10197F1F71092C2021092C302609152
:1017E000C102862F82608093C102666087EB92E01F
:1017F0000E9412062197F1F781E08093C40268E00D
:1018000087EB92E00E94690480E00E94440687E42E
:1018100091E00E94DF0581E00E94440687E591E0A7
:101820000E94DF0582E00E94440686E691E00E9465
:10183000DF0583E00E94440683E791E00E94DF0514
:10184000C0E0D0E02097F1F30E940000FBCFEE0F44
:10185000FF1F0590F491E02D0994F894FFCFFFFF4E
:10186000FFFF00E100000000000000C180810000D7
:1018700000004014540000000040014E0361015676
:1018800001A7016501830100000000AD058005DCB2
:10189000055605790566055705000000005B06D56D
:1018A00003DC0502044D696E75746572696520502C
:1018B00072657465004170707579657A2073757210
:1018C000204F4B0054656D70733A2030303A303001
:1018D00000457461743A20417474656E746500004B
:1018E000FFFFFFFFFFFFFFFFFFFFFFFFFFFFFFFF08
:1018F000FFFFFFFFFFFFFFFFFFFFFFFFFFFFFFFFF8
:10190000F8948091CB029091CC02A091CD02B0913D
:10191000CE022FBF8093C6029093C702A093C80245
:10192000B093C9026FE671E081EE92E00E94DF059C
:10193000209749F20E940000C6CFEE0FFF1F0590CE
:10194000F491E02D0994F894FFCFFFFFFFFF00E131
:1019500000000000000000C1808100000000401471
:1019600054000000008103FC02A2039703E803A6D1
:1019700003C40300000000AD058005DC05560579B1
:101980000566055705000000007006CF02DC050261
:10199000040D0A00496E697469616C697361746948
:1019A0006F6E206465206C27C3A96372616E204C42
:1019B000434420313678342E2E2E004C4344206C84
:1019C00069676E652031203A204D696E75746572C5
:1019D0006965205072657465004C4344206C6967EA
:1019E0006E652032203A204170707579657A2073D7
:1019F0007572204F4B0054656D70733A2030303A49
:101A00003030004C4344206C69676E652033203AC7
:101A10002054656D707320696E697469616C6973B7
:101A2000C3A900457461743A20417474656E74658D
:101A3000004C4344206C69676E652034203A204591
:101A4000746174203D20417474656E746500FFFFFD
:101A5000FFFFFFFFFFFFFFFFFFFFFFFFFFFFFFFF96
:101A6000FFFFFFFFFFFFFFFFFFFFFFFFFFFFFFFF86
:101A7000FFFFFFFFFFFFFFFFFFFFFFFFFFFFFFFF76
:101A800058F5E091F50281E08E0F8093F502F0E0C9
:101A9000EC52FD4F8081E9CFE091F50281E08E0F9D
:101AA0008093F5028091BB00F0E0EC52FD4F808303
:101AB0009091F5028091F4029817C8F285E8D8CF8A
:101AC000E091F50281E08E0F8093F5028091BB00DA
:101AD000F0E0EC52FD4F80838091F70281115CCFE2
:101AE00081E08093D20284EA8093BC001092F802D5
:101AF00026CF85EC8093BC001092F80280913402CE
:101B0000803230F4E0913402F0E0EC5EFD4F108260
:101B10006091340270E0E091BC02F091BD0284E17A
:101B200092E00995109234020ACF1092F60234CF57
:101B3000EF92FF920F931F93CF93DF93F82E192FFD
:101B4000E62E042F81E0860F880F0E94560183E065
:101B50000E945601CF2DD12FEC0EFD2EF11CCE157B
:101B6000DF05B9F007FF13C0FE0184910E94560102
:101B7000182F80E00E945601812321968111EFCF1A
:101B8000DF91CF911F910F91FF90EF900895888181
:101B9000EDCF81E0F5CFE0EEF3E01382128288EE24
:101BA00093E0A0E0B0E084839583A683B7832DE221
:101BB00031E0318320832FEF3FEF35872487E0E347
:101BC000F4E01382128284839583A683B7838FE324
:101BD00091E0918380830895CF93DF93CDB7DEB7F3
:101BE0002C970FB6F894DEBF0FBECDBF789484B5A6
:101BF000826084BD84B5816084BD85B5826085BD09
:101C000085B5816085BD80916E00816080936E0096
:101C10001092810080918100826080938100809188
:101C20008100816080938100809180008160809339
:101C3000800080919100826080939100809191005A
:101C400081608093910080919000816080939000EA
:101C50008091C10084608093C1008091C100826046
:101C60008093C1008091C10081608093C100809108
:101C7000C30081608093C3008091C0008260809324
:101C8000C0008091C20081608093C20080917A0080
:101C9000846080937A0080917A00826080937A00D9
:101CA00080917A00816080937A0080917A008068C8
:101CB00080937A001092D102109245021092440251
:101CC0008091D70081608093D70080EA8093D8000C
:101CD00089B5806189BD89B5826089BD09B400FE7E
:101CE000FDCF61E070E080E090E00E94C003809151
:101CF000D8008F7C80618093D8008091E000807F45
:101D00008093E0008091E1008E7E8093E1008DE081
:101D10008093E200559A209A80E092ECA1E0B0E036
:101D20008093240390932503A0932603B093270365
:101D300080EE93E0909323038093220380E394E06A
:101D40009093C3028093C20211E01093AE0388E81F
:101D500093E1A0E0B0E08093E4039093E503A093C7
:101D6000E603B093E7031092DF038AE080932C032D
:101D70008BE28093DE03E1E7F2E0DF01282F1D9282
:101D80002A95E9F7E6E4F2E0DF011D928A95E9F78A
:101D90001093AD031092C1021092C0021092FF0284
:101DA000109221030E94B70484E591E09093BF0252
:101DB0008093BE0285E591E09093BD028093BC02C2
:101DC00088E48093B8001093AF038091DF0390E024
:101DD0002091DE0330E0FC01ED54FC4F82179307A5
:101DE0001CF481930196FACF8FEF8093B103809317
:101DF000B203ECE0F1E003EB13E0D80181918D93A5
:101E000021E0EC31F207D1F780E18093DE031092FC
:101E1000DF030E94AA0461E082E00E943D0361E0CA
:101E200083E00E943D0384E18093B10385E18093C8
:101E3000B20381E08093AD0360E082E00E943D0345
:101E400060E083E00E943D038091AD0361E0882360
:101E500009F491C08091B1030E943D0361E080913B
:101E6000B1030E94E50262E08091B2030E943D034B
:101E70008091220390912303DC01ED91FC91028477
:101E8000F385E02D09958335910591F76FE671E0B3
:101E9000CE0101960E94300868E771E0809122032C
:101EA000909123030E94B2066AE3809122039091ED
:101EB00023030E94E80100912203109123034D8126
:101EC0005E8169817A81D801ED91FC910280F38174
:101ED000E02DC801099569E571E0C8010E94B206CC
:101EE000CE0101960E94EB0782E10E946B064B0136
:101EF0005C0183E10E946B066B017C0164E871E088
:101F0000CE0101960E943008B501A401CE010196D0
:101F10000E940D07CE0101960E94EB0760E971E077
:101F2000CE0101960E943008B701A601CE010196AC
:101F30000E940D07CE0101960E94EB071091DF036E
:101F4000012FD090DE030D1508F03FC02091B103A2
:101F5000E02FF0E0ED54FC4F80812F3F81F1909114
:101F6000B2039F3F61F1281771F1981761F161E0A9
:101F70000E943D0328C08091B2030E943D0361E0AE
:101F80008091B2030E94E50262E08091B1030E9459
:101F90003D0343ECE42E43E0F42ED8018D918D01F6
:101FA0009091B103891739F09091B203891719F014
:101FB00060E00E943D03E016F10679F759CF9EEFED
:101FC000980F9230A0F60F5FBCCF81E00E94130300
:101FD0008091B1038F3F09F053C28091B2038F3FCC
:101FE00009F04EC210E001E024E5C22E21E0D22E1D
:101FF00035E5A32E31E0B32E8091AF03181708F01A
:102000008CC08090C2029090C3029AE0F92EF10E2B
:102010000093FE02F09220031092FF02109221031F
:1020200081E00E94EB04882309F44EC00E94AA04B8
:102030001092C1021092C0021092FF02109221036E
:102040000E94B704D092BF02C092BE02B092BD02FD
:10205000A092BC020093FE0281E00E94EB04882360
:1020600099F16CE971E0CE0101960E943008CE0131
:1020700001960E94EB07009122031091230366EC66
:1020800071E0C8010E94B20669E571E0C8010E94D2
:10209000B20669E571E080912203909123030E94CA
:1020A000B2068091220390912303DC01ED91FC9113
:1020B0000680F781E02D099500E010E0011511057B
:1020C000E9F30E940000FACF0093FE021092FF0293
:1020D000109221036BE070E0C4010E94640660ED81
:1020E00077E080E090E00E94C0038091C20290916E
:1020F000C3020093FE02F09220031092FF0210929E
:1021000021036CE070E00E94640660ED77E080E0FF
:1021100090E00E94C0031F5F6FCF81E00E94130315
:10212000F090DF0322242A948091DE03F81608F051
:10213000A4C18F2D90E0FC01ED54FC4F6F01808114
:102140009EEF980F923008F496C160E00E94E5027D
:102150006AE070E080E090E00E94C0036BE571E00F
:10216000CE0101960E9430081AE001E085EC382E7D
:102170009091AF0386EF810F891708F074C18091A9
:10218000C2029091C3020093FE02109320031092AA
:10219000FF02109221036AE070E00E9464068091C1
:1021A000C2029091C302DC01ED91FC910190F0819B
:1021B000E02D60E0099581E00E94EB048823D9F0CE
:1021C0006AEA71E0CE0107960E943008CE010196BE
:1021D0000E94EB076AEA71E0CE0107960E94F307BE
:1021E000182FCE0107960E94EB07112309F43EC178
:1021F0006AEA71E038CF0E9477042B013C01E12E9E
:10220000EE0C6AE070E080E090E00E94C0030E9463
:102210009B034B015C018091F802811161C0009326
:10222000F8020093F7022092F6021092F502009352
:10223000F4020093D3028091D3028E298093D302BB
:102240008091D202813009F0C0C01092D2020E9467
:102250009B034B015C018091D3028093BB00809172
:10226000FA029091FB02A091FC02B091FD02892B31
:102270008A2B8B2BA1F00E949B032091FA023091B4
:10228000FB024091FC025091FD02681979098A090C
:102290009B09261737074807590708F442C0809161
:1022A000BC0083FDD8CF3092BC000E949B034B0141
:1022B0005C018091F802813009F48BC08091F502B5
:1022C000823008F0A8C08091F502A4EDB2E0ECE9FC
:1022D000F2E090E0981751F12D9121939F5FFACF92
:1022E0008091FA029091FB02A091FC02B091FD0254
:1022F000892B8A2B8B2B09F48ECF0E949B03209174
:10230000FA023091FB024091FC025091FD026819E3
:1023100079098A099B09261737074807590708F0E2
:102320007ACF8091F9020E94D50480E01092C10218
:102330008093C00270E060E0CE0101960E94080820
:1023400029813A81811169C02115310519F0C9012E
:102350000E9400161A8219821E821D821C821B8214
:102360008091C2029091C302DC01ED91FC91008446
:10237000F185E02D0995892B09F457C08091C2029F
:102380009091C302DC01ED91FC910284F385E02D74
:1023900009958F831886AD80BE80BFEFAB1ABB0A4C
:1023A000B501CE0101960E9408088823C9F229814F
:1023B0003A818D819E81BE01695F7F4F820F931F9D
:1023C0000E945817BE82AD82CBCFB5EEB093BC0051
:1023D0006CCF8091FA029091FB02A091FC02B09127
:1023E000FD02892B8A2B8B2B09F463CF0E949B0360
:1023F0002091FA023091FB024091FC025091FD02C3
:10240000681979098A099B09261737074807590768
:1024100008F04FCF86CF82E058CF1E821D826BE539
:1024200071E0C9010E9458179BCF6FE571E0CE01A2
:1024300001960E94F30781110CC00E947704641971
:10244000750986099709693B7B408105910508F468
:10245000D8CE6FE571E0CE0101960E94F3071F5FB1
:10246000811186CEADCE6FE571E0ACCE61E0D601D4
:102470008C910E94E502F39457CE6FE571E0F3CDA5
:1024800081E00E941303812F90E0FC01ED54FC4F8A
:102490007F011D1590F7D7010D917D018091B1034A
:1024A000081709F474C08091B203081709F46FC0CB
:1024B00060E0802F0E94E5026AE070E080E090E03A
:1024C0000E94C0030E9477044B015C0160E0809190
:1024D000B1030E94E5028091B2030E94BC02892BE5
:1024E00059F00E947704681979098A099B096838AC
:1024F00073418105910550F30E94770468197909A9
:102500008A099B09683873418105910540F061E0B3
:102510008091B1030E94E5026DEA71E0A4CD0E94B2
:1025200077044B015C018091B2030E94BC02892BAD
:1025300099F00E947704681979098A099B0968381B
:10254000734181059105D0F061E08091B1030E9453
:10255000E50269EB71E087CD0E947704681979097B
:102560008A099B09683873418105910510F761E07C
:1025700070E080E090E00E94C003D5CF61E08091E0
:10258000B1030E94E50261E0802F0E94E5021F5F17
:1025900080CF0E940B1308F481E00895E89409C0ED
:1025A00097FB3EF490958095709561957F4F8F4F86
:1025B0009F4F9923A9F0F92F96E9BB279395F6959C
:1025C000879577956795B795F111F8CFFAF4BB0F1A
:1025D00011F460FF1BC06F5F7F4F8F4F9F4F16C07E
:1025E000882311F096E911C0772321F09EE8872F08
:1025F000762F05C0662371F096E8862F70E060E0C4
:102600002AF09A95660F771F881FDAF7880F96953C
:10261000879597F90895990F0008550FAA0BE0E8E0
:10262000FEEF16161706E807F907C0F01216130694
:10263000E407F50798F0621B730B840B950B39F4D4
:102640000A2661F0232B242B252B21F408950A263A
:1026500009F4A140A6958FEF811D811D08950E9468
:1026600042130C94B3130E94A51338F00E94AC13CC
:1026700020F0952311F00C949C130C94A2131124B8
:102680000C94E7130E94C41370F3959FC1F3950F48
:1026900050E0551F629FF001729FBB27F00DB11DE6
:1026A000639FAA27F00DB11DAA1F649F6627B00D76
:1026B000A11D661F829F2227B00DA11D621F739F5F
:1026C000B00DA11D621F839FA00D611D221F749F6D
:1026D0003327A00D611D231F849F600D211D822FB4
:1026E000762F6A2F11249F5750409AF0F1F08823DB
:1026F0004AF0EE0FFF1FBB1F661F771F881F915008
:102700005040A9F79E3F510580F00C949C130C9407
:10271000E7135F3FE4F3983ED4F38695779567958A
:10272000B795F795E7959F5FC1F7FE2B880F911D31
:102730009695879597F9089597F99F6780E870E0D7
:1027400060E008959FEF80EC089500240A94161627
:10275000170618060906089500240A94121613068F
:10276000140605060895092E0394000C11F488231D
:1027700052F0BB0F40F4BF2B11F460FF04C06F5F39
:102780007F4F8F4F9F4F089557FD9058440F551F0F
:1027900059F05F3F71F04795880F97FB991F61F0E3
:1027A0009F3F79F087950895121613061406551F5A
:1027B000F2CF4695F1DF08C0161617061806991FC6
:1027C000F1CF86957105610508940895E894BB27BB
:1027D00066277727CB0197F908952F923F924F9262
:1027E0005F926F927F928F929F92AF92BF92CF92A1
:1027F000DF92EF92FF920F931F93CF93DF93CDB7AA
:10280000DEB7CA1BDB0B0FB6F894DEBF0FBECDBF21
:1028100009942A88398848885F846E847D848C84F2
:102820009B84AA84B984C884DF80EE80FD800C81FB
:102830001B81AA81B981CE0FD11D0FB6F894DEBFDE
:102840000FBECDBFED0108955058BB27AA270E94A7
:102850003C140C94B3130E94A51338F00E94AC13DF
:1028600020F039F49F3F19F426F40C94A2130EF4CF
:10287000E095E7FB0C949C13E92F0E94C41358F3D6
:10288000BA17620773078407950720F079F4A6F555
:102890000C94E6130EF4E0950B2EBA2FA02D0B012D
:1028A000B90190010C01CA01A0011124FF27591B95
:1028B00099F0593F50F4503E68F11A16F040A22F9B
:1028C000232F342F4427585FF3CF4695379527950C
:1028D000A795F0405395C9F77EF41F16BA0B620B0B
:1028E000730B840BBAF09150A1F0FF0FBB1F661F52
:1028F000771F881FC2F70EC0BA0F621F731F841F95
:1029000048F4879577956795B795F7959E3F08F0BA
:10291000B0CF9395880F08F09927EE0F979587957C
:1029200008950E94A5140C94B3130E94AC1358F0A0
:102930000E94A51340F029F45F3F29F00C949C13EA
:1029400051110C94E7130C94A2130E94C41368F362
:102950009923B1F3552391F3951B550BBB27AA2758
:1029600062177307840738F09F5F5F4F220F331F92
:10297000441FAA1FA9F335D00E2E3AF0E0E832D05A
:1029800091505040E695001CCAF72BD0FE2F29D05D
:10299000660F771F881FBB1F261737074807AB072F
:1029A000B0E809F0BB0B802DBF01FF2793585F4FA4
:1029B0003AF09E3F510578F00C949C130C94E71369
:1029C0005F3FE4F3983ED4F3869577956795B79586
:1029D000F7959F5FC9F7880F911D9695879597F991
:1029E0000895E1E0660F771F881FBB1F621773070A
:1029F0008407BA0720F0621B730B840BBA0BEE1F1F
:102A000088F7E09508950E94CC1388F09F5798F0BE
:102A1000B92F9927B751B0F0E1F0660F771F881FE3
:102A2000991F1AF0BA95C9F714C0B13091F00E94FD
:102A3000E613B1E008950C94E613672F782F8827EA
:102A4000B85F39F0B93FCCF3869577956795B39524
:102A5000D9F73EF490958095709561957F4F8F4F93
:102A60009F4F08950E940B1308F48FEF08950E9462
:102A70000B13880B990B0895A1E21A2EAA1BBB1BFE
:102A8000FD010DC0AA1FBB1FEE1FFF1FA217B3073A
:102A9000E407F50720F0A21BB30BE40BF50B661F50
:102AA000771F881F991F1A9469F760957095809514
:102AB00090959B01AC01BD01CF010895EE0FFF1F62
:102AC0000590F491E02D09940F931F93CF93DF931A
:102AD0008230910510F482E090E0E0913E04F091A4
:102AE0003F0430E020E0B0E0A0E0309799F42115F9
:102AF000310509F44AC0281B390B24303105D8F5BB
:102B00008A819B816115710589F1FB019383828321
:102B1000FE0111C04081518102811381481759077C
:102B2000E0F04817590799F4109761F012960C934A
:102B3000129713961C933296CF01DF91CF911F917C
:102B40000F91089500933E0410933F04F4CF211594
:102B5000310551F04217530738F0A901DB019A0102
:102B6000BD01DF01F801C1CFEF01F9CF90933F0420
:102B700080933E04CDCFFE01E20FF31F819391932A
:102B80002250310939832883D7CF20913C043091DA
:102B90003D04232B41F420911E0130911F013093FD
:102BA0003D0420933C0420911C0130911D0121150E
:102BB000310541F42DB73EB74091200150912101DC
:102BC000241B350BE0913C04F0913D04E217F30720
:102BD000A0F42E1B3F0B2817390778F0AC014E5F8D
:102BE0005F4F2417350748F04E0F5F1F50933D0489
:102BF00040933C04819391939FCFF0E0E0E09CCF21
:102C0000CF93DF930097E9F0FC0132971382128291
:102C1000A0913E04B0913F04ED0130E020E0109718
:102C2000A1F420813181820F931F20913C043091C7
:102C30003D042817390709F061C0F0933D04E09383
:102C40003C04DF91CF910895EA01CE17DF07E8F544
:102C50004A815B819E0141155105B1F7E901FB8372
:102C6000EA8349915991C40FD51FEC17FD0761F410
:102C7000808191810296840F951FE9019983888351
:102C8000828193819B838A83F0E0E0E012968D91AC
:102C90009C9113970097B9F52D913C911197CD0117
:102CA0000296820F931F20913C0430913D04281717
:102CB000390739F6309751F510923F0410923E04CF
:102CC000B0933D04A0933C04BCCFD383C283408126
:102CD0005181840F951FC817D90761F44E5F5F4F6C
:102CE00088819981480F591F518340838A819B8134
:102CF000938382832115310509F0B0CFF0933F040F
:102D0000E0933E049ECFFD01DC01C0CF138212820E
:102D1000D7CFB0E0A0E0EFE8F6E10C94EF138C0120
:102D2000009751F4CB010E9464158C01C801CDB706
:102D3000DEB7E0E10C940B14FC01E60FF71F9C01D9
:102D400022503109E217F30708F49DC0D901CD9153
:102D5000DC911197C617D70798F0C530D10530F32D
:102D6000CE0104978617970708F3C61BD70B229747
:102D7000C193D1936D937C93CF010E940016D6CF5F
:102D80005B01AC1ABD0A4C018C0E9D1EA0913E0445
:102D9000B0913F04512C412CF12CE12C109731F5CE
:102DA00080913C0490913D048815990509F05CC020
:102DB0004616570608F058C080911C0190911D01DD
:102DC000009741F48DB79EB74091200150912101A9
:102DD000841B950BE817F90708F055C0F0933D04E4
:102DE000E0933C04F90171836083A0CF8D919C91A5
:102DF000119712966C90129713967C901397A815C2
:102E0000B90559F56C0142E0C40ED11CCA14DB04AB
:102E100020F1AC014A195B09DA011296159780F08E
:102E20006282738251834083D9016D937C93E11454
:102E3000F10471F0D7011396FC93EE93129776CFBD
:102E400022968C0F9D1FF90191838083F301EFCFB0
:102E5000F0933F04E0933E0469CF4816590608F406
:102E60002C017D01D3019ACFCB010E9464157C0116
:102E7000009749F0AE01B8010E944617C8010E94B0
:102E80000016870153CF10E000E050CFFB01DC01BA
:102E900002C001900D9241505040D8F70895FB01B7
:102EA000DC018D91019080190110D9F3990B0895DF
:102EB000FB01DC0101900D920020E1F70895F894E8
:102EC000FFCFFFFFFFFF00E1000000000000000156
:102ED00002030405060708090A0B0C0D161700006B
:102EE0004004800000C1808100000000000000EF6D
:102EF00001F2031002050256021402320200000021
:102F000000320605066106DB05FE05EB05DC056EF5
:102F1000616E00696E66006F7666000D0A004E4FA6
:102F2000004F4B00494E505554004F555450555486
:102F3000004C656F6E6172646F00546172676574F6
:102F4000204E616D650041307265666572656E6325
:102F5000650041317265666572656E636500445453
:102F600054204E4F5420464F554E44004B4F004D79
:102F7000495353494E472041434B004D4953534910
:102F80004E472053544F5000456E644F665465734E
:102F90007400FFFFFFFFFFFFFFFFFFFFFFFFFFFFCB
:102FA000FFFFFFFFFFFFFFFFFFFFFFFFFFFFFFFF31
:102FB000FFFFFFFFFFFFFFFFFFFFFFFFFFFFFFFF21
:102FC000FFFFFFFFFFFFFFFFFFFFFFFFFFFFFFFF11
:102FD000FFFFFFFFFFFFFFFFFFFFFFFFFFFFFFFF01
:00000001FF
